:020000001D29B8
:100006008312031325087A3C031C1028613025024D
:0E001600031C10280130F0001128F001080032
:100024002130831203132502031C1F2825082F3CAB
:10003400031C1F280130F0002028F0017008F10093
:100044003A302502031C2D282508403C031C2D288A
:100054000130F0002E28F0017008F1045B30250215
:10006400031C3B282508603C031C3B280130F0009E
:100074003C28F0017008F1047B302502031C492858
:1000840025087E3C031C49280130F0004A28F00171
:0A0094007108F0047008F100080084
:10009E00831203132508393C031C5C2830302502DB
:0E00AE00031C5C280130F0005D28F001080002
:1000BC008312031325085A3C031C6B28413025027C
:0E00CC00031C6B280130F0006C28F0010800C6
:1000DA008312031323085A3C031C78284130230255
:0C00EA00031C7828A3162308F00008006F
:1000F600831203132308A50003207008031D8B2811
:100106002308A5005E207008031D8B28F0018D28AA
:060116000130F0000800BA
:10011C008312031323081F3C03189A2823087F3AE1
:0E012C0003199A28F0019C280130F000080009
:10013A00831203132308A5004F207008031DB32858
:10014A002308A50003207008031DB3282308A5006F
:10015A005E207008031DB328F001B5280130F000B5
:02016A0008008B
:10016C00831203132308A5004F207008031DD22807
:10017C002308A50003207008031DD2282308A5001E
:10018C005E207008031DD2282308A50012207008D9
:0E019C00031DD228F001D4280130F000080025
:1001AA00831203132308203A0319E62823080D3C77
:1001BA00031CE42809302302031CE428E628F00182
:0801CA00E8280130F0000800F4
:1001D2008312031323087A3C031CF42861302302A0
:0C01E200031CF428A3122308F0000800FE
:1001EE00831203132308663C031C04296130230287
:1001FE00031C04290130F0000529F0017008A40049
:10020E002308463C031C122941302302031C1229E9
:10021E000130F0001329F0017008A4042308A50092
:0C022E004F202408F0047008A400080011
:10023A006F3083120313A50003207008A200413017
:10024A00A50003207008A2003130A5000320700821
:10025A00A2006F30A5005E207008A2004130A50000
:10026A005E207008A2003130A5005E207008A2004E
:10027A006F30A3007B207008A2004130A3007B20CE
:10028A007008A2003130A3007B207008A2006F30F2
:10029A00A3008E207008A2000D30A3008E207008E3
:1002AA00A2003130A3008E207008A2006F30A50092
:1002BA004F207008A2000D30A5004F207008A20040
:1002CA003130A5004F207008A2006F30A3009D2096
:1002DA007008A2000D30A3009D207008A2003130E2
:1002EA00A3009D207008A2006F30A300D5207008DB
:1002FA00A2002030A300D5207008A2000930A30074
:10030A00D5207008A2006F30A50012207008A20044
:10031A002C30A50012207008A2002E30A500122051
:10032A007008A2003130A50012207008A2003A30ED
:10033A00A50012207008A2006F30A300B620700832
:10034A00A2002030A300B6207008A2000930A30042
:10035A00B6207008A2006F30A300F7207008A20030
:10036A006130A300F7207008A2004230A300F720F2
:10037A007008A2006F30A3006D207008A2006130DF
:10038A00A3006D207008A2004230A3006D207008FF
:10039A00A2006F30A300E9207008A2006130A30018
:1003AA00E9207008A2004230A300E9207008A200E8
:0203BA00DD293B
:04400E00FF3F000769
:00000001FF
