:1000000060EF3EF00000000000EF00F00000000094
:0A0010000000000000000000F3D71C
:107CC0000F013A6BB886B06A440EAF6EAC847CD8B4
:107CD000670E656F720E666FA3D8005202E0BDD8C2
:067CE00001D06ED9FFD7B0
:107CE600F2CF03F0F29E6DC0F6FF6EC0F7FF6FC0D5
:107CF600F8FFA68EBF0EA616A684A688550EA76EFA
:107D0600AA0EA76EA68200000A000000026A71C0D1
:107D1600E9FF72C0EAFF010E025C16E2016A400E3C
:107D2600015C07E2EECFF5FF00000F000000012A1C
:107D3600F6D7A68EBF0EA616A684550EA76EAA0E59
:107D4600A76EA682022AE7D7A69403BE02D0F29EA9
:067D560001D0F28E1200C4
:0E7D5C00ACB202D00000FCD76CC0ADFF12002C
:107D6A00C00E00016D6F7F0E6E6F000E6F6F706F29
:107D7A00210E716F000E726FB1DF600E216EEF0E71
:0C7D8A00226E3E0E236EF00E246E1200DE
:0A7D9600000E9EBA010E006E1200EE
:107DA000AECF01F0ABA202D0AB98AB8801C000F01F
:027DB0001200BF
:107DB200340E0C6EF10E0D6E0D2EFED70C2EFCD76E
:067DC200000000001200A9
:107DC8005C0E0001616F7D0E626F6C0E636F000EBA
:107DD800646FA00E1D6E7D0E1E6E000E1F6E000ECF
:107DE800206E960E156E7D0E166E000E176E000E26
:107DF800186EFF0E196EFF0E1A6E000E1B6E000E27
:107E08001C6EAC8A900EAB6E948E949C9EAA03D086
:087E1800AECF00F0FBD7120011
:107E20000001676B686BC5DF65C06CF097DFC1DF71
:107E30000001674B682B6851020A02E1000E6719C6
:107E400002E1006A09D0ACDF00500001661903E1CD
:0A7E5000010E006E01D0E7D712000A
:107E5A000001676B686B696B6A6B6B6B6751400AF1
:107E6A002BE1685169116A116B1101E179DF800E0A
:107E7A0000016B19006E800E005C08E1000E6A5D5D
:107E8A0005E17C0E695D02E1C00E685D0DE268C025
:107E9A006DF069C06EF06AC06FF06BC070F0210EB1
:107EAA00716F000E726F1ADF0001676B400E682750
:107EBA00000E69236A236B23790E6C6F4ADF66DF33
:107ECA00005201E1FCD767DF00C066F0780E0001BE
:107EDA006C6F3FDF5BDF005201E1FCD75CDF00C063
:107EEA0065F0210EE16E000EE26E00016751E12697
:107EFA00D8B0E22A66C0E6FF672B210EE16E000EBB
:107F0A00E26E6751E126D8B0E22A65C0E6FF672B28
:047F1A00A5D71200D5
:027FC0001200AD
:020000040030CA
:0D000100331F3CFFBD81FF0FC00FE00F401B
:00000001FF
