:1000000084EF0CF00000000000EF00F000000000A2
:0A0010000000000000000000F3D71C
:0A001C00350E0D6E0D2EFED71200FA
:0A002600FADF8A88F8DF8A981200DA
:0A003000050E0D6E0D2EFED7120016
:10003A00FF0E956EF8DFF7DF8A848A988A868A88A7
:10004A00E8DF83CF9FF08A988A96EDDFECDF956A26
:06005A009FC000F012003F
:100060007F0E00019F15006E00C09FF08A948A9653
:10007000BF0E001600C09FF0008C00C09FF000C0B3
:0600800083FFD1DF120036
:100086008A948A96B80E00019F11836EC9DF12000A
:100096007F0E00019F15016E01C09FF001AC03D0D9
:0C00A6008A808A9202D08A908A8212001E
:0E00B2008A988A848A969FC083FFB4DF12006A
:1000C000000E0001995D0AE399517F0807E3000ED5
:1000D0009A5D04E39A513F0801E301D04AD099C0E8
:1000E0009FF0D9DF9AC09FF09F339F9F9F339F9FC0
:1000F0009F339F9FC8DF99C09FF0B2DF9EDF00C093
:100100009EF09BDF00C09EF09AC09FF09F339F9FA0
:100110009F339F9F9F339F9FB6DF99C09FF0A0DFC3
:10012000070E9A15006E00C09CF000C001F0010E91
:10013000006E015004E000360090FF0FFBD700C0B6
:100140009CF0001C9D6F09D09D519E170FD09C51B3
:100150009E130CD09C519E1B09D09B51000AF4E0C9
:100160009B51010AF4E09B51020AF4E09EC09FF00B
:04017000A0DF1200FA
:100174000B6A0A6A096A00500402F4CF09F0F3CF4B
:1001840008F001500502F4CF0BF0F3CF0AF0005051
:100194000502F3500926F4500A22E86A0B220150A2
:1001A4000402F3500926F4500A22E86A0B2208C01C
:1001B40000F009C001F00AC002F00BC003F0120005
:1001C400000E0001965D04E396513F0801E301D05F
:1001D40027D0000E945DD8A0946B94517F0802E25E
:1001E4007F0E946F000E955DD8A0956B95517F0896
:1001F40002E27F0E956F9451955D06E294C098F0EB
:1002040095C094F098C095F09451955D09E394C01D
:1002140099F096C09AF097C09BF050DF942BF4D7D6
:020224001200C6
:10022600800E00018219006E800E005C02E1000E55
:10023600815D02E2816B826B800E006E800E8219F8
:10024600005C02E181517F0804E27F0E816F000E9F
:10025600826F800E8619006E800E005C02E1000E31
:10026600855D02E2856B866B800E006E800E8619B8
:10027600005C02E185517F0804E27F0E856F000E67
:10028600866F800E8419006E800E005C02E1000EFF
:10029600835D02E2836B846B800E006E800E841990
:1002A600005C02E183513F0804E23F0E836F000EBB
:1002B600846F800E8819006E800E005C02E1000ECD
:1002C600875D02E2876B886B800E006E800E881950
:1002D600005C02E187513F0804E23F0E876F000E83
:1002E600886F8151855D016E82518659026E01C00B
:1002F6008AF002C08BF08351875D8C6F84518859D8
:100306008D6F800E0218006E800E005C02E1000EFA
:10031600015C0BE28A5100088A6F8B51000E8B57E5
:10032600FF0E8E6FFF0E8F6F04D0010E8E6F000EC4
:100336008F6F800E8D19006E800E005C02E1000E3C
:100346008C5D0BE28C5100088C6F8D51000E8D5721
:10035600FF0E906FFF0E916F04D0010E906F000E8E
:10036600916F8A378A918B378C378C918D3781C004
:1003760099F083C09AF089C09BF09FDE800E8D199C
:10038600006E800E8B19005C02E18A518C5D3DE2A5
:100396008AC000F08BC001F001320032019E01BC20
:1003A600018E00508C5D926F01508D59936F825172
:1003B600861902E18551811927E0800E9319006E96
:1003C600800E005C02E1000E925D08E390518327E7
:1003D600915184238A51925F8B51935B8E51812573
:1003E600006E8F518221016E00C081F001C082F043
:1003F6008C5192278D51932300C099F083C09AF0B7
:1004060089C09BF05ADED3D73CD08CC000F08DC09B
:1004160001F001320032019E01BC018E00508A5D5E
:10042600926F01508B59936F8451881902E187515D
:10043600831927E0800E9319006E800E005C02E19E
:10044600000E925D08E38E5181278F5182238C51D5
:10045600925F8D51935B90518325006E915184215B
:10046600016E00C083F001C084F08A5192278B513F
:10047600932381C099F000C09AF089C09BF01DDEDD
:04048600D3D71200B6
:10048A0000018351070801E282D05750815D006E56
:10049A0058C001F0000E015654C004F0000E056E5B
:1004AA0064DE00C089F001C08AF082C09FF0D3DD0B
:1004BA0083C09FF0E3DD856B5450855D49E282512C
:1004CA007F0801E264D082C09FF0E0DD83C09FF024
:1004DA00D5DD82C09FF0BFDDABDD00C086F0A8DDB0
:1004EA0000C086F082C09FF0D1DD83C09FF0C6DDD8
:1004FA0082C09FF0B0DD89515124F66E8A51522094
:10050A00F76E000E8ABFFF0E5320F86E0900F5CF72
:10051A0000F000C087F0894B8A2B001C886F09D035
:10052A0088C086F00FD087C086F00CD08751861B12
:10053A0009D08451000AF4E08451010AF4E084519C
:10054A00020AF4E086C09FF0AFDD822B852BB4D778
:10055A0082C09FF09BDD83C09FF090DD82C09FF038
:10056A007ADDFF0E876F886B0CD087C086F087C054
:10057A009FF09ADD0CD088C086F088C09FF094DD89
:10058A0006D08451000AF1E08451010AF4E0120015
:10059A00000E0001835D04E383517F0801E301D06B
:1005AA0027D0000E815DD8A0816B81513F0802E2FD
:1005BA003F0E816F000E825DD8A0826B82513F0888
:1005CA0002E23F0E826F8151825D06E281C085F0B0
:1005DA0082C081F085C082F08151825D09E383C0C7
:1005EA0099F081C09AF084C09BF065DD812BF4D725
:0205FA001200ED
:1005FC0082C086F000018651845D0BE381C094F0CB
:10060C0083C095F086C096F085C097F0D5DD862B1B
:04061C00F1D7120000
:10062000A30E0B6E570E0C6E020E0D6E0D2EFED726
:0C0630000C2EFCD70B2EFAD70000120095
:10063C008A908A820001606B605107080EE360C0EB
:10064C009FF01BDD5F6A5F503F0805E35EC09FF0C3
:10065C002ADD5F2AF8D7602BEFD78A928A80606BED
:10066C00605107080EE360C09FF007DD5F6A5F50C2
:10067C003F0805E35EC09FF016DD5F2AF8D7602BBC
:04068C00EFD7120092
:100690000001736B746B756B766B776B786B796B32
:1006A0007A6B65516125006E66516221016E010E03
:1006B000005C026E000E0158036E000E006E0350C7
:1006C000005C02E102507F0807E261518008656F1B
:1006D00062C066F0000E665767516325006E685170
:1006E0006421016E010E005C026E000E0158036E63
:1006F000000E006E0350005C02E102503F0807E26A
:1007000063514008676F64C068F0000E685763C0AB
:1007100000F064C001F001320032019E013200326B
:10072000019E01320032019E00C05EF067516325D8
:10073000056E68516421066E010E055C036E000EA5
:100740000658046E03C000F004C001F0013200320C
:10075000019E01320032019E01320032019E00C032
:100760005FF0070E6315006E64C001F0000E011605
:1007700000C070F0070E0514006E06C001F0000EF8
:10078000011600C071F06C51685D02E16B51675D4C
:1007900003E25FC072F01BD06B516325006E6C5199
:1007A0006421016E010E005C036E000E0158046EA0
:1007B00003C000F004C001F001320032019E01329A
:1007C0000032019E01320032019E00C072F0070E1D
:1007D0006B15016E6CC002F0000E0216000E0218BE
:1007E00002E1000E011817E16BC000F06CC001F0CF
:1007F00001320032019E01320032019E013200328C
:10080000019E69C004F06AC005F0B4DC00C07DF050
:1008100001C07EF018D06BC000F06CC001F0013256
:100820000032019E01320032019E01320032019EEF
:10083000004A012A69C004F06AC005F09BDC00C0D0
:100840007DF001C07EF05EC073F0000E746F000E8C
:10085000006E7451005C02E173515F5CD8A001D15D
:100860007B6B7C6B756B766B6651765D02E16551D7
:10087000755DD8B0E5D0755161259F6F0CDC73C0F4
:100880009FF001DC6A51765D02E16951755D3DE2E0
:10089000000E006E7451005C02E17351725D35E32D
:1008A000000E741902E15E50731902E17F6B12D0E1
:1008B00079517B25006E7A517C21016E00506D25A7
:1008C000F66E01506E21F76E000E6F21F86E090072
:1008D000F5CF7FF07E51785D02E17D51775D02E3D7
:1008E000806B12D077517B25006E78517C21016E90
:1008F00000506D25F66E01506E21F76E000E6F21CF
:10090000F86E0900F5CF80F002D0806B7F6B80C05D
:1009100060F0705100081AE270510808006E016A18
:10092000000E015A7FC060F0005004E06033609F09
:10093000FF0FFBD770C001F080C000F0015004E051
:1009400000360090FF0FFBD700506013000E7419A3
:1009500002E15E5073192DE1705100082AE27551D1
:1009600061259F6F30EC00F01DEC00F01DEC00F0F5
:1009700070510808016E026A000E025A01C002F0AE
:10098000FF0E016E025004E00132019EFF0FFBD703
:1009900001500014026E70C001F0FF0E006E015095
:1009A00004E000360090FF0FFBD7005060170250A4
:1009B0006013000E741902E15F5073192DE171513B
:1009C00000082AE2755161259F6F30EC00F01DECA4
:1009D00000F01DEC00F071C002F0FF0E016E02503D
:1009E00004E001360190FF0FFBD701500014026EA6
:1009F00071510808006E016A000E015A00C001F032
:100A0000FF0E006E015004E00032009EFF0FFBD786
:100A100000506017025060136A51765D02E169511F
:100A2000755D02E27B4B7C2B755161259F6F30EC2D
:100A300000F060C09FF059EC00F0754B762B14D796
:100A4000000E745D02E17251735D08E277C079F0C7
:100A500078C07AF0695177276A517823734B742BE9
:040A6000F6D61200B4
:100A6400566A596A5A6A939A939893949396939070
:100A740093928A9A956A8A948A968A908A828A8AB2
:100A84003F0E836E13EC00F0C00E836E13EC00F087
:100A94008A808A923F0E836E13EC00F0C00E836E40
:060AA40013EC00F012004B
:100AAA000900F5CFE6FF0006FBE10106F9E11200B5
:100ABA005F6A0001646B656B5F50070845E39F6BD3
:100ACA004BEC00F05FC09FF043EC00F09F6B30EC02
:100ADA0000F05E6A5E503F0812E364516125F66ECB
:100AEA0065516221F76E000E6321F86E0900F5CF99
:100AFA009FF059EC00F0644B652B5E2AEBD7400E51
:100B0A009F6F4BEC00F05FC09FF043EC00F0400E8B
:100B1A009F6F30EC00F0400E5E6E5E507F0812E36D
:100B2A0064516125F66E65516221F76E000E6321EC
:100B3A00F86E0900F5CF9FF059EC00F0644B652B75
:0A0B4A005E2AEBD75F2AB8D712002D
:100B540061C094F063C095F062C096F065C097F0F0
:100B6400E2EC00F061C094F063C095F064C096F0CC
:100B740065C097F0E2EC00F062C081F064C082F0DE
:100B840061C083F065C084F006DD62C081F064C09A
:0E0B940082F063C083F065C084F0FDDC1200C7
:100BA20061C051F062C052F063C053F066C057F0AA
:100BB20067C058F064C054F065C055F0010E566E1F
:020BC20012001F
:100BC400000E0001661902E1000E651909E161C019
:100BD40099F063C09AF067C09BF060EC00F069D1B3
:100BE4006A6B6B6B6E6B6F6B65C068F066C069F0A7
:100BF40065C070F066C071F06151635D6C6F6251E5
:100C040064596D6F65C000F066C001F00036009055
:100C1400013600C05EF001C05FF0005003085E6E54
:100C240001C05FF0000E5F56010E6825016E000ED4
:100C34006921026E800E6B19006E800E0218005C32
:100C440002E101506A5DD8B0DBD06A516125006EC3
:100C54006B516221016E00C081F001C082F06851C5
:100C64006325836F69516421846F00C085F001C0DE
:100C740086F06851635D876F69516459886F67C0F6
:100C840089F013EC01F0800E006E800E6B19005C8D
:100C940002E16A5100081EE26A51615D006E6B5107
:100CA4006259016E00C081F001C082F06851632571
:100CB400836F69516421846F00C085F001C086F0A0
:100CC4006851635D876F69516459886F67C089F0A3
:100CD40013EC01F07151691902E16851701951E086
:100CE40070516325006E71516421016E6C51005E78
:100CF4006D51015A00C081F001C082F06E5163252C
:100D0400836F6F516421846F00C085F001C086F049
:100D14006E51635D876F6F516459886F67C089F046
:100D240013EC01F0800E006E800E7119005C02E17C
:100D34007051000822E27051635D006E7151645974
:100D4400016E6C51005E6D51015A00C081F001C00A
:100D540082F06E516325836F6F516421846F00C0EC
:100D640085F001C086F06E51635D876F6F516459E1
:100D7400886F67C089F013EC01F068C070F069C037
:100D840071F0800E5F18006E800E005C02E1000EB0
:100D94005E5C13E26AC000F06BC001F000360090A4
:100DA4000136003600900136060E0026000E0122A0
:100DB40000505E2601505F2220D068516A5D036EA8
:100DC40069516B59046E03C000F004C001F0003691
:100DD400009001360036009001360A0E0026000EFF
:100DE400012200505E2601505F22010E685F000E52
:100DF400695B6AC06EF06BC06FF06A4B6B2B14D7E3
:100E0400010E6A5D016E000E6B59026E025071197B
:100E140002E1705101184DE070516325006E71516B
:100E24006421016E6C51005E6D51015A00C081F065
:100E340001C082F06E516325836F6F516421846F0A
:100E440000C085F001C086F06E51635D876F6F51FD
:100E54006459886F67C089F013EC01F0800E006E4E
:100E6400800E7119005C02E17051000822E2705199
:100E7400635D006E71516459016E6C51005E6D5179
:100E8400015A00C081F001C082F06E516325836F66
:100E94006F516421846F00C085F001C086F06E51EB
:100EA400635D876F6F516459886F67C089F013EC75
:040EB40001F0120037
:100EB800000E0001661902E1000E651909E161C022
:100EC80099F063C09AF067C09BF060EC00F0DAD04C
:100ED8006A6B6B6B6151635D6C6F625164596D6FC6
:100EE80065C068F066C069F065C000F066C001F0D2
:100EF80000360090013600C05EF001C05FF000507F
:100F080003085E6E01C05FF0000E5F56010E682593
:100F1800016E000E6921026E800E6B19006E800E44
:100F28000218005C02E101506A5DD8B0ABD06A518A
:100F38006125996F685163259A6F67C09BF060ECD3
:100F480000F06A516125996F6851635D9A6F67C0B7
:100F58009BF060EC00F0800E006E800E6B19005C58
:100F680002E16A51000814E26A51615D996F6851A3
:100F780063259A6F67C09BF060EC00F06A51615D71
:100F8800996F6851635D9A6F67C09BF060EC00F0E1
:100F98006B51691902E168516A1939E06851632592
:100FA800996F6C51995F6A5163259A6F67C09BF07E
:100FB80060EC00F06851635D996F6C51995F6A51FC
:100FC80063259A6F67C09BF060EC00F0800E006E9E
:100FD800800E6B19005C02E16A51000818E2685142
:100FE8006325996F6C51995F6A51635D9A6F67C009
:100FF8009BF060EC00F06851635D996F6C51995FEC
:101008006A51635D9A6F67C09BF060EC00F0800ED8
:101018005F18006E800E005C02E1000E5E5C13E259
:101028006AC000F06BC001F000360090013600364F
:1010380000900136060E0026000E012200505E26A2
:1010480001505F221CD068516A5D036E69516B596B
:10105800046E03C000F004C001F0003600900136B1
:101068000036009001360A0E0026000E01220050BC
:101078005E2601505F22010E685F000E695B6A4BB5
:061088006B2B44D712009F
:10108E0000016351615D016E026A000E025A01C0D9
:10109E0073F002C074F0800E0218006E800E005CB9
:1010AE0002E1000E015C1AE273510008036E74C077
:1010BE0004F0000E045665C001F0000E026E0136FB
:1010CE0002360190800E0418006E800E0218005C2D
:1010DE0002E10150035C01E298D112D065C001F02B
:1010EE00000E026E013602360190800E7419006EEB
:1010FE00800E0218005C02E10150735D01E285D1A1
:10110E006451625D016E026A000E025A01C073F0F4
:10111E0002C074F0800E0218006E800E005C02E1B8
:10112E00000E015C1AE273510008036E74C004F0E5
:10113E00000E045665C001F0000E026E0136023636
:10114E000190800E0418006E800E0218005C02E101
:10115E000150035C01E259D112D065C001F0000EBE
:10116E00026E013602360190800E7419006E800EEA
:10117E000218005C02E10150735D01E246D1655137
:10118E006125946F942B6551635D956F950762C0D1
:10119E0096F066C097F0E2EC00F065516125946F11
:1011AE00942B6551635D956F950764C096F066C08C
:1011BE0097F0E2EC00F065516225816F812B65514D
:1011CE00645D826F820761C083F066C084F0CDECEF
:1011DE0002F065516225816F812B6551645D826FCE
:1011EE00820763C083F066C084F0CDEC02F0696BB9
:1011FE006A6B65516225006E016A000E012265510F
:10120E00635D046E056A000E055A0450005C6B6F38
:10121E00055001586C6F65516125026E036A000E10
:10122E0003220250005C6D6F035001586E6F6551C2
:10123E00645D006E016A000E015A0250005C6F6F11
:10124E0003500158706F0450005C716F05500158C7
:10125E00726F65C067F0000E686F67C000F068C0FF
:10126E0001F000360090013600C05EF001C05FF064
:10127E00005003085E6E01C05FF0000E5F56010E57
:10128E006725016E000E6821026E800E6A19006ECF
:10129E00800E0218005C02E10150695DD8B0B5D035
:1012AE0065516125996F6951995F6551645D9A6FBA
:1012BE0067519A2766C09BF060EC00F06551635D44
:1012CE00996F695199276551645D9A6F67519A2795
:1012DE0066C09BF060EC00F065516125996F695115
:1012EE00995F655162259A6F67519A5F66C09BF050
:1012FE0060EC00F06551635D996F695199276551F6
:10130E0062259A6F67519A5F66C09BF060EC00F0A1
:10131E006A51681902E1675169193CE06551645DD3
:10132E00006E67510024996F7151995F69510024C5
:10133E009A6F66C09BF060EC00F06551645D006EC4
:10134E006751005C996F6F51995F695100249A6FD4
:10135E0066C09BF060EC00F065516225006E67512F
:10136E00005C996F6D51995F6951005C9A6F66C010
:10137E009BF060EC00F065516225006E6751002411
:10138E00996F6B51995F6951005C9A6F66C09BF0C3
:10139E0060EC00F0800E5F18006E800E005C02E1C3
:1013AE00000E5E5C13E269C000F06AC001F0003608
:1013BE0000900136003600900136060E0026000E13
:1013CE00012200505E2601505F221CD06751695DDC
:1013DE00036E68516A59046E03C000F004C001F038
:1013EE000036009001360036009001360A0E0026B7
:1013FE00000E012200505E2601505F22010E675F33
:0C140E00000E685B694B6A2B3AD7120095
:10141A0000016351615D016E026A000E025A01C049
:10142A0073F002C074F0800E0218006E800E005C29
:10143A0002E1000E015C1AE273510008036E74C0E7
:10144A0004F0000E045665C001F0000E026E01366B
:10145A0002360190800E0418006E800E0218005C9D
:10146A0002E10150035C01E216D212D065C001F01C
:10147A00000E026E013602360190800E7419006E5B
:10148A00800E0218005C02E10150735D01E203D292
:10149A006451625D016E026A000E025A01C073F065
:1014AA0002C074F0800E0218006E800E005C02E129
:1014BA00000E015C1AE273510008036E74C004F056
:1014CA00000E045665C001F0000E026E01360236A7
:1014DA000190800E0418006E800E0218005C02E172
:1014EA000150035C01E2D7D112D065C001F0000EB1
:1014FA00026E013602360190800E7419006E800E5B
:10150A000218005C02E10150735D01E2C4D161C0BE
:10151A0081F065516225826F822B63C083F0655129
:10152A00645D846F840766C085F0FEEC02F0696B27
:10153A006A6B756B766B65516225006E016A000EE7
:10154A0001226551635D046E056A000E055A045056
:10155A00005C6B6F055001586C6F65516125026E16
:10156A00036A000E03220250005C6D6F035001589B
:10157A006E6F6551645D006E016A000E015A025079
:10158A00005C6F6F03500158706F0450005C716FFC
:10159A0005500158726F65C067F0000E686F67C02A
:1015AA0077F068C078F067C000F068C001F00036D4
:1015BA000090013600C05EF001C05FF000500308E1
:1015CA005E6E01C05FF0000E5F56010E6725016E68
:1015DA00000E6821026E800E6A19006E800E0218D3
:1015EA00005C02E10150695DD8B0F5D07851681904
:1015FA0002E16751771958E065516125816F826B65
:10160A00000E82237551815F7651825B6551645D5C
:10161A00006E016A000E015A7751002678510122A4
:10162A0000C083F001C084F06551635D856F866BED
:10163A00000E865B755185277651862300C087F098
:10164A0001C088F066C089F013EC01F0655161258C
:10165A00816F826B000E82237551815F7651825BA6
:10166A0065516225006E016A000E01227751005E03
:10167A007851015A00C083F001C084F06551635D5E
:10168A00856F866B000E865B75518527765186239A
:10169A0000C087F001C088F066C089F013EC01F041
:1016AA0067C077F068C078F06551645D026E036ABE
:1016BA00000E035A67510224816F68510320826F1A
:1016CA007151815F7251825B69510224006E6A51C5
:1016DA000320016E00C083F001C084F06751025CF0
:1016EA00856F68510358866F6F51855F7051865BAD
:1016FA0000C087F001C088F066C089F013EC01F0E1
:10170A0065516225026E036A000E03226751025C6C
:10171A00816F68510358826F6D51815F6E51825B90
:10172A006951025C006E6A510358016E00C083F071
:10173A0001C084F067510224856F68510320866FC7
:10174A006B51855F6C51865B00C087F001C088F0E1
:10175A0066C089F013EC01F0800E5F18006E800EEF
:10176A00005C02E1000E5E5C13E269C000F06AC030
:10177A0001F0003600900136003600900136060E60
:10178A000026000E012200505E2601505F2220D062
:10179A006751695D036E68516A59046E03C000F0AF
:1017AA0004C001F000360090013600360090013680
:1017BA000A0E0026000E012200505E2601505F220A
:1017CA00010E675F000E685B69C075F06AC076F04B
:1017DA00694B6A2BFAD6010E695D016E000E6A59D1
:1017EA00026E0250781902E17751011854E06551EE
:1017FA006125816F826B000E82237551815F76515C
:10180A00825B6551645D006E016A000E015A775170
:10181A0000267851012200C083F001C084F065518E
:10182A00635D856F866B000E865B755185277651E1
:10183A00862300C087F001C088F066C089F013ECE7
:10184A0001F065516125816F826B000E822375510B
:10185A00815F7651825B65516225006E016A000ED6
:10186A0001227751005E7851015A00C083F001C00D
:10187A0084F06551635D856F866B000E865B7551DA
:10188A0085277651862300C087F001C088F066C09C
:08189A0089F013EC01F01200CB
:1018A2005E6A5650000A0EE1050E546E070E556E22
:1018B2002A0E516E2A0E526E000E536E200E576E75
:1018C200000E586E5E5000016125E96E000E622125
:1018D200EA6EEE5217E05E506125E96E000E62215B
:1018E200EA6EEECF81F063C082F064C083F065C01F
:1018F20084F045EC02F05450010F006E0050632753
:061902005E2AE0D712008E
:1019080085EC16F00F01256B246B236B32EC05F088
:101918005E6A1EEC03F0400E616F240E626F000ECB
:10192800636F5DEC05F010EC03F010EC03F05E6AF9
:101938001EEC03F0616B626B636B646B440E656F46
:10194800000E666F1E0E676F000E686F800E696F5F
:10195800000E6A6F400E6B6F000E6C6F400E6D6F5D
:10196800240E6E6F000E6F6F48EC03F0290E0B6E9D
:10197800960E0C6E7F0E0D6E0D2EFED70C2EFCD71C
:101988000B2EFAD7180E616F000E626F100E636F80
:10199800000E646F440E656F000E666F1E0E676F53
:1019A800000E686F800E696F000E6A6F400E6B6FD5
:1019B800000E6C6F400E6D6F240E6E6F000E6F6F11
:1019C80048EC03F0290E0B6E960E0C6E7F0E0D6E12
:1019D8000D2EFED70C2EFCD70B2EFAD7380E616FC2
:1019E800000E626F220E636F000E646F440E656F07
:1019F800000E666F1E0E676F000E686F800E696FAF
:101A0800000E6A6F400E6B6F000E6C6F400E6D6FAC
:101A1800240E6E6F000E6F6F48EC03F010EC03F0AD
:101A280010EC03F05E6A1EEC03F03E0E816F280E88
:101A3800826F7C0E836F380E846F010E856FFEEC0B
:101A480002F0050E616F050E626F540E636F230E70
:101A5800646F010E656FAAEC05F0520E0B6E2B0E2B
:101A68000C6E000E0D6E0D2EFED70C2EFCD70B2E15
:101A7800FAD70000020E616F020E626F570E636F95
:101A8800260E646F070E656F010E666F47EC08F04F
:101A9800520E0B6E2B0E0C6E000E0D6E0D2EFED719
:101AA8000C2EFCD70B2EFAD70000080E616F080E1B
:101AB800626F510E636F200E646F0C0E656F010E1E
:101AC800666FA7DC520E0B6E2B0E0C6E000E0D6EA1
:101AD8000D2EFED70C2EFCD70B2EFAD70000816BEB
:101AE800826B836B846B7F0E856F000E866F3F0E53
:101AF800876F000E886F010E896F13EC01F010ECF0
:101B080003F0050E5B6E3C0E5B5C24E2150E0B6E5B
:101B18004B0E0C6EBE0E0D6E0D2EFED70C2EFCD786
:101B28000B2EFAD70000020E816F360E826F5BC053
:101B380083F0010E846FCDEC02F0020E946F780EE4
:101B4800956F5BC096F0010E976FE2EC00F0050E02
:101B58005B26D9D710EC03F05E6A1EEC03F0010E89
:101B68005B6E5B500A0814E33F0E616F000E626FF4
:101B7800200E636F000E646F030E5B02F3CF65F0F7
:101B8800F4CF66F0010E676F5CEC07F05B2AE9D7CB
:101B980010EC03F0010E5B6E5B500A0814E33F0E75
:101BA800616F000E626F200E636F000E646F030E8C
:101BB8005B02F3CF65F0F4CF66F0010E676FE2ECDD
:101BC80005F05B2AE9D710EC03F00C0E816F140EB8
:101BD800826F460E836F390E846F020E856FFEEC9E
:101BE80002F010EC03F0FF0E5E6E1EEC03F0400EE8
:101BF800616F1D0E626F000E636F080E646F070E33
:101C0800656F200E666F000E676FD1EC05F0300E21
:101C1800616F000E626F180E636F030E646F020E21
:101C2800656F3BDE10EC03F05E6A1EEC03F0400EBD
:101C3800616F1D0E626F000E636F080E646F070EF2
:101C4800656F200E666F000E676FD1EC05F0270EEA
:101C58005C6E000E5D6E5CC061F05DC062F0050EEA
:101C6800636F646B020E656F18DE10EC03F00A0EEA
:101C7800616F2C0E626F000E636F030E646F050EAA
:101C8800656F200E666F000E676FD1EC05F0150EBC
:101C98005C6E000E5D6E5CC061F05DC062F03C0E73
:101CA800636F020E646F020E656FF7DD10EC03F0D0
:101CB8002A0E616F2A0E626F000E636F050E646F45
:101CC800070E656F200E666F000E676FD1EC05F08A
:101CD8003A0E5C6E000E5D6E5CC061F05DC062F035
:101CE800050E636F040E646F020E656FD6DD10EC8F
:101CF80003F0400E616F280E626F000E636F050ED1
:101D0800646F070E656F200E666F000E676FD1EC6B
:101D180005F0430E5C6E000E5D6E5CC061F05DC048
:101D280062F0320E636F060E646F020E656FB5DDEA
:081D380010EC03F0F0D5FFD719
:102D0A0010EE15F03C0E006E010E016ECD0EF66E41
:0E2D1A002C0EF76E000EF86E55EC05F0120050
:101D4000000000000000000000065F5F06000000C9
:101D50000007070007070000147F7F147F7F14002F
:101D6000242E6B6B3A120000466630180C66620037
:101D7000307A4F5D377A4800040703000000000006
:101D8000001C3E63410000000041633E1C00000057
:101D9000082A3E1C1C3E2A0808083E3E080800008F
:101DA0000080E06000000000080808080808000043
:101DB00000006060000000006030180C06030100A5
:101DC0003E7F71594D7F3E0040427F7F4040000082
:101DD000627359496F660000226349497F360000EB
:101DE000181C16537F7F5000276745457D3900003A
:101DF0003C7E4B4979300000030371790F070000E6
:101E0000367F49497F360000064F49693F1E000072
:101E100000006666000000000080E666000000002A
:101E2000081C3663410000002424242424240000DC
:101E3000004163361C080000020351590F060000E0
:101E40003E7F415D5D1F1E007C7E13137E7C000083
:101E5000417F7F49497F36001C3E63414163220038
:101E6000417F7F41633E1C00417F7F495D416300AC
:101E7000417F7F491D0103001C3E63415173720085
:101E80007F7F08087F7F000000417F7F41000000C6
:101E9000307040417F3F0100417F7F081C77630025
:101EA000417F7F41406070007F7F0E1C0E7F7F006E
:101EB0007F7F060C187F7F001C3E6341633E1C0041
:101EC000417F7F49090F06001E3F21717F5E0000A0
:101ED000417F7F09197F6600266F4D5973320000DC
:101EE00003417F7F410300007F7F40407F7F0000F0
:101EF0001F3F60603F1F00007F7F3018307F7F00F2
:101F000043673C183C674300074F78784F07000051
:101F1000476371594D677300007F7F4141000000A6
:101F20000103060C183060000041417F7F00000073
:101F3000080C0603060C080080808080808080806A
:101F40000000030704000000207454543C78400053
:101F5000417F3F4848783000387C44446C2800007A
:101F6000307848493F7F4000387C54545C1800006A
:101F7000487E7F490302000098BCA4A4F87C0400BA
:101F8000417F7F08047C780000447D7D4000000094
:101F900060E08080FD7D0000417F7F10386C440050
:101FA00000417F7F400000007C7C18381C7C78005A
:101FB0007C7C04047C780000387C44447C3800003D
:101FC00084FCF8A4243C1800183C24A4F8FC8400E9
:101FD000447C784C041C1800485C54547424000061
:101FE00000043E7F442400003C7C40403C7C400098
:101FF0001C3C60603C1C00003C7C7038707C3C00E9
:10200000446C3810386C44009CBCA0A0FC7C0000E0
:102010004C64745C4C64000008083E774141000049
:1020200000000077770000004141773E080800007B
:10203000020301030203010070784C464C787000E3
:102040000E9F91B1FB4A00003A7A40407A7A4000F4
:10205000387C54555D19000002237555557D7B422F
:10206000217554547D794000217555547C78400089
:10207000207457577C784000183CA4A4E44000002A
:10208000023B7D55555D1B02397D54545D1900009E
:10209000397D55545C18000001457C7C41010000ED
:1020A0000203457D7D43020001457D7C4000000028
:1020B000797D1612167D790070782B2B78700000D0
:1020C000447C7C5555450000207454547C7C545409
:1020D0007C7E0B097F7F4900327B49497B320000BF
:1020E000327A48487A320000327A4A487830000022
:1020F0003A7B41417B7A40003A7A4240787840000E
:102100009ABAA0A0FA7A000001193C66663C19014F
:102110003D7D40407D3D0000183C24E7E72424003D
:10212000687E7F49436620002B2FFCFC2F2B00008C
:10213000FFFF09092FF6F8A040C088FE7F090302BF
:10214000207454557D79400000447D7D410000009D
:102150003078484A7A320000387840427A7A400033
:102160007A7A0A0A7A7000007D7D19317D7D00003F
:1021700000262F292F2F280000262F292F26000088
:1021800030784D4560200000383808080808000005
:1021900008080808383800004F6F3018CCEEBB91A3
:1021A0004F6F30186C76FBF90000007B7B0000005D
:1021B000081C3622081C362222361C0822361C082F
:1021C000AA005500AA005500AA55AA55AA55AA5515
:1021D000DDFFAA77DDAAFF77000000FFFF00000007
:1021E000101010FFFF000000141414FFFF00000087
:1021F0001010FFFF00FFFF001010F0F010F0F000D3
:10220000141414FCFC0000001414F7F700FFFF0086
:102210000000FFFF00FFFF001414F4F404FCFC00B6
:1022200014141717101F1F0010101F1F101F1F005E
:102230001414141F1F000000101010F0F000000014
:102240000000001F1F1010101010101F1F10101082
:10225000101010F0F0101010000000FFFF10101010
:102260001010101010101010101010FFFF10101090
:10227000000000FFFF1414140000FFFF00FFFF1018
:1022800000001F1F101717140000FCFC04F4F414C6
:1022900014141717101717141414F4F404F4F41486
:1022A0000000FFFF00F7F71414141414141414148E
:1022B0001414F7F700F7F714141414171714141460
:1022C00010101F1F101F1F10141414F4F4141414F2
:1022D0001010F0F010F0F01000001F1F101F1F1062
:1022E0000000001F1F141414000000FCFC14141440
:1022F0000000F0F010F0F0101010FFFF10FFFF10C2
:10230000141414FFFF1414141010101F1F000000E9
:10231000000000F0F0101010FFFFFFFFFFFFFFFFB5
:10232000F0F0F0F0F0F0F0F0FFFFFFFF0000000031
:1023300000000000FFFFFFFF0F0F0F0F0F0F0F0F29
:10234000387C446C386C4400FCFE2A2A3E140000A1
:102350007E7E020206060000027E7E027E7E020073
:1023600063775D4963630000387C447C3C0404006F
:1023700080FE7E20203E1E000406027E7C060200B7
:1023800099BDE7E7BD9900001C3E6B496B3E1C0000
:102390004C7E7301737E4C0030784A4F7D390000CB
:1023A000183C243C3C243C1898FC643C3E273D18D7
:1023B0001C3E6B49490000007E7F01017F7E0000CA
:1023C0002A2A2A2A2A2A000044445F5F4444000043
:1023D00040515B4E4440000040444E5B5140000081
:1023E000000000FEFF01070660E080FF7F000000A4
:1023F00008086B6B080800002436123624361200D9
:1024000000060F090F060000000000181800000069
:102410000000001010000000103070C0FFFF01012C
:10242000001F1F011F1E000000191D1712000000D1
:1024300000003C3C3C3C000000000E1F11111F0E30
:102440000000000000F80808080808080C0C0C0C34
:102450000C0A0A0A0A0A0A090909090909090909E3
:1024600009090909090909090909898989898989DC
:10247000898989898989890909090909090909094C
:1024800009090DFD0DC306FC00000000000000005E
:10249000000000000000000000000000000000003C
:1024A000000000000000000000000000000000002C
:1024B000000000000000000000000000000000001C
:1024C0000000000000FF000000000000000000000D
:1024D000F0F0F0F0F0E0E0F0F0F0F0F0E0C0C0E09C
:1024E000F0F0F0F0F0E0C0000000FFFFFFFFFFC3DE
:1024F000C3C3C3C3C3C30300000000000000000047
:10250000000000FFF04FE0FF6060602020202020EE
:10251000202020202020202040404040800000003B
:1025200000000000000000000000000000000000AB
:10253000000000000000000000000000000000009B
:102540000000000000FF000000000000000000008C
:10255000FFFFFFFFFF00000000FFFFFFFFFF000085
:102560000000FFFFFFFFFF000000FFFFFFFFFF81F4
:1025700081818181818180000000000000000000D5
:10258000000000FF01F80808080808080808080803
:102590000808080810E01824C446828285D96670AD
:1025A000A0C060602020A0A0E0E0C040408080C0CB
:1025B000408000000000000000000000000000005B
:1025C00000000000003F606060E06060606060608C
:1025D00063636363636060606063636363636060DD
:1025E00060606363636363606060636363636363CA
:1025F0006363636363636360606060606060404006
:1026000040E0E0FFF6010E060602020202020202AC
:10261000020202028243723E2310100007030302EB
:10262000040404040404041C1010101111090929E5
:1026300070204305F07EAE803800000000000000EE
:102640000000000000000000000101010101010183
:1026500001017F7F7F7FFFFFF7FB7BBF5F5D7DBD5C
:10266000BD3F5D59B173F3E5CF1B3F77FFCFBFFF90
:10267000FFFFFFFFFFFFFF7F7F7F7F7F7F7F7FFF6A
:10268000FFFF7F7F7D7878787878F8787878787829
:1026900078F8F8E88F000000000000000080F0F8F3
:1026A00078BCDC5CFC1C1C3C5C5C3C78F8F860C0D2
:1026B0008FA8D88831444832A06000000000000094
:1026C00000000080C0F8F8F8F8FCFEFEFEFEFEFEFA
:1026D000FEFEFEFEFEFFFFFFFFFFF6EFD0F6AEAD03
:1026E000A980D1D0E0F7F9FFFFFCDCF07FFFDFFF2E
:1026F000FFFFFFFFFFFEFEFFFFFFFFFFFFFFFEFFED
:10270000FFFFFFFFFFFFFEFEFEFEFEFEFEFEFEFEE3
:10271000FEFEFEFEFFFFFFFFFFFFFEFFBEFFFFFD11
:10272000F0EFDDDFFEA888AAC4D0E4E6F87F7E9C47
:10273000DFE2F2F2F2F2F2B120000000000000004D
:102740000000000101010103030307070707070F4A
:102750000F0F070F0F0F07070F0E0F0D0F2F2B2B4C
:102760002B2B2B2F6FEFFFFDFDFFFEFFFFFFFFFF6A
:10277000BFBFEFEFEFBFFFBFFFFFFFFFFFFFFFFF99
:10278000FFFFFFFFFFFFFFFFFFFFFFFFFFFFFFFF59
:10279000FFFFFFFF7F7F7F7FFFFFBFBFBFBFFFFE4A
:1027A000FFFDFFFFFFFBFFFFFF7F7D3F1F1F1F1F81
:1027B0001F1F3F0F0F070703030300000000000067
:1027C0000000000000000000000000000000000009
:1027D00000000000000000000000000000000000F9
:1027E00000000000000000000000000000010100E7
:1027F00001010000000000000000000001010101D3
:10280000010101010303030B0B0B0B07030E06066B
:1028100006021213130317151511011313030606ED
:102820000E0F0F070F0F0F0B02000000000000003B
:102830000000000000000000000000000000000098
:10284000000000000000004F000000070007001417
:102850007F147F14242A7F2A1223130864623649C6
:102860005522200005030000001C224100004122E7
:102870001C0014083E081408083E080850300000E8
:102880000008080808080060600000201008040222
:102890003E5149453E00427F400042615149462138
:1028A00041454B311814127F1027454545393C4AA4
:1028B00049493001710905033649494936064949F4
:1028C000291E00363600000056360000081422414A
:1028D00000141414141400412214080201510906B2
:1028E0003E415D551E7E1111117E7F494949363E9C
:1028F000414141227F4141221C7F494949417F0991
:102900000909013E4149497A7F0808087F00417F53
:1029100041002040413F017F081422417F40404058
:10292000407F020C027F7F0408107F3E4141413E00
:102930007F090909063E4151215E7F091929462672
:102940004949493201017F01013F4040403F1F207A
:1029500040201F3F4038403F63140814630708704D
:1029600008076151494543007F41410002040810B6
:10297000200041417F0004020102044040404040E9
:10298000000003050020545454787F4444443838F0
:1029900044444444384444447F3854545418040450
:1029A0007E0505085454543C7F0804047800447D97
:1029B00040002040443D007F1028440000417F40FB
:1029C000007C047C04787C0804047838444444384F
:1029D0007C14141408081414147C7C0804040048A3
:1029E0005454542404043F44443C4040207C1C2064
:1029F00040201C3C4030403C44281028440C50509F
:102A0000503C4464544C4408364141000000770077
:102A100000004141360808082A1C08081C2A08083A
:0A2A2000FFFFFFFFFF060909060093
:102A2A00000000000000005F00000007000700141B
:102A3A007F147F14242A7F2A1223130864623649DA
:102A4A005522500005030000001C224100004122CB
:102A5A001C00082A1C2A0808083E080800503000F2
:102A6A000008080808080030300000201008040296
:102A7A003E5149453E00427F40004261514946214C
:102A8A0041454B311814127F1027454545393C4AB8
:102A9A004949300171090503364949493606494908
:102AAA00291E00363600000056360000000814229F
:102ABA004114141414144122140800020151090685
:102ACA00324979413E7E1111117E7F494949363E8C
:102ADA00414141227F4141221C7F494949417F09A5
:102AEA000901013E414151327F0808087F00417FB8
:102AFA0041002040413F017F081422417F4040406D
:102B0A00407F0204027F7F0408107F3E4141413E1C
:102B1A007F090909063E4151215E7F091929464666
:102B2A004949493101017F01013F4040403F1F208F
:102B3A0040201F7F2018207F631408146303047841
:102B4A000403615149454300007F414102040810D2
:102B5A002041417F000004020102044040404040FD
:102B6A00000102040020545454787F484444383801
:102B7A0044444420384444487F3854545418087E06
:102B8A00090102081454543C7F0804047800447D67
:102B9A0040002040443D00007F10284400417F400F
:102BAA00007C041804787C080404783844444438C7
:102BBA007C14141408081414187C7C0804040848AB
:102BCA0054545420043F4440203C4040207C1C2064
:102BDA0040201C3C4030403C44281028440C5050B3
:102BEA00503C4464544C44000836410000007F00C5
:102BFA0000004136080008082A1C08081C2A080890
:102C0A00000000005C000C000C7C287C7C447C24C6
:102C1A001048285408000C0038440044380020109A
:102C2A0008103810804000101010004000201008D2
:102C3A00384438007C006454484454281C107C4CA6
:102C4A00542438542004740C28542808543800504A
:102C5A0000805000102844282828442810045408CA
:102C6A00384C5C7814787C54283844447C44387C4A
:102C7A0054447C14043844347C107C007C0020408A
:102C8A003C7C106C7C40407C087C7C047C7C447CD2
:102C9A007C14083844787C1468485424047C047CE6
:102CAA00407C3C403C7C207C6C106C1C601C645456
:102CBA004C7C4400081020447C0008040880808072
:032CCA00040800FB
:102CCD00335835204341504954414C53204F4E4CBD
:022CDD0059009C
:092CDF0038783720466F6E74004E
:0A2CE800544558542044454D4F0058
:092CF20035783720466F6E74003E
:0E2CFB0035783720466F6E7420287632290017
:020000040030CA
:0E0000001D136F7CF98B91FFFFC0FFE0FF40E6
:00000001FF
