:0400000064EF2CF08D
:020006001200E6
:1000080000C015F0F2A428D00201914B922B974B17
:10001800982B92512F0802E19151AE0812E2010E7D
:100028001626000E172218221922010E040137275E
:10003800000E382339233A230201916B926B220E6A
:10004800D66E9851090A02E1890E971904E1010E4A
:0E005800E56F976B986BF29415C000F01100E5
:10006600DFC7E1FFE0C7E2FFE1C7E6FFE2C7E6FF61
:02007600120076
:10007800E20E0701DF6F0E0EE06FDCC7E1F7DDC7A8
:0A008800E2F7EDDFDEC761FF1200B2
:0E009200DCC7E9FFDDC7EAFFEECF00F0120089
:0600A000DCC761FF120045
:1000A6000450085E0550D8A0053C095E0650D8A04D
:1000B600063C0A5E0750D8A0073C0B5E0336070EC7
:1000C6000C6E0334083609360A360B36045003A084
:1000D6000ED0085E0550D8A0053C095E0650D8A093
:1000E600063C0A5E0750D8A0073C0B5E0DD00826DA
:1000F6000550D8B0053C09260650D8B0063C0A265D
:100106000750D8B0073C0B2603360C2EDAD702343C
:10011600083609360A360B36045003A00ED0085EA0
:100126000550D8A0053C095E0650D8A0063C0A5EDC
:100136000750D8A0073C0B5E0DD008260550D8B056
:10014600053C09260650D8B0063C0A260750D8B00A
:10015600073C0B260236070E0C6E023408360936AB
:100166000A360B36045002A00ED0085E0550D8A001
:10017600053C095E0650D8A0063C0A5E0750D8A08A
:10018600073C0B5E0DD008260550D8B0053C092665
:100196000650D8B0063C0A260750D8B0073C0B26B6
:1001A60002360C2EDAD70134083609360A360B36F3
:1001B600045002A00ED0085E0550D8A0053C095E8A
:1001C6000650D8A0063C0A5E0750D8A0073C0B5E36
:1001D6000DD008260550D8B0053C09260650D8B0E3
:1001E600063C0A260750D8B0073C0B260136070EF8
:1001F6000C6E0134083609360A360B36045001A057
:100206000ED0085E0550D8A0053C095E0650D8A061
:10021600063C0A5E0750D8A0073C0B5E0DD00826A8
:100226000550D8B0053C09260650D8B0063C0A262B
:100236000750D8B0073C0B2601360C2EDAD700340F
:10024600083609360A360B36045001A00ED0085E71
:100256000550D8A0053C095E0650D8A0063C0A5EAB
:100266000750D8A0073C0B5E0DD008260550D8B025
:10027600053C09260650D8B0063C0A260750D8B0D9
:10028600073C0B260036070E0C6E0034083609367E
:100296000A360B36045000A00ED0085E0550D8A0D2
:1002A600053C095E0650D8A0063C0A5E0750D8A059
:1002B600073C0B5E0DD008260550D8B0053C092634
:1002C6000650D8B0063C0A260750D8B0073C0B2685
:1002D60000360C2EDAD700B00ED004500826055092
:1002E600D8B0053C09260650D8B0063C0A26075069
:0802F600D8B0073C0B261200F2
:1002FE000B1E0A1E091E081E082AD8B4092AD8B4D5
:08030E000A2AD8B40B2A1200E0
:100316007A0E0701DF6F0F0EE06FDCC7E1F7DDC76E
:0E032600E2F79EDE61CFDEF7DEC700F01200C8
:10033400AE0E0701DC6F190EDD6FDE6B9BDEAE0EB9
:10034400D225006E190ED321016E00C0D2F701C070
:10035400D3F7E60EDF6F0E0EE06F00C0E1F701C0C9
:10036400E2F77FDED286D20EDC6F0F0EDD6F8FDEFA
:1003740000A601D0F8D7FD0EDC6F0E0EDD6F87DE10
:10038400060E0016005202E0006A02D0010E006E52
:02039400120055
:10039600D2C7E9FFD3C7EAFFEECF01F001C003F0F1
:1003A6000336039003360390010E0701D225E96E4A
:1003B600000ED321EA6EEECF02F002C000F000324A
:1003C600009E0032009E0032009E0032009ED4C77E
:1003D600E1FFD5C7E2FF00500310E66E010ED425FB
:1003E600E16E000ED521E26E010ED225E96E000EF9
:1003F600D321EA6EEECF01F001C003F0033603907D
:10040600033603900336039003360390020ED2257B
:10041600E96E000ED321EA6EEECF02F002C000F0C4
:100426000032009E0032009E0350001200C0E6FF1C
:10043600020ED425E16E000ED521E26E020ED22503
:10044600E96E000ED321EA6EEECF02F0060E016EC3
:1004560002C000F0015004E000360090FF0FFBD709
:10046600C00E0016030ED225D96E000ED321DA6E09
:0A047600DE50001200C0E6FF120085
:10048000D4C704F0D5C705F0D2C702F0D3C703F034
:10049000D6C700F0D7C701F0010E0701D65F000EE6
:1004A000D75B005001100FE004C0E9FF05C0EAFF70
:1004B00002C0E1FF03C0E2FFEECFE6FF024A032ADB
:1004C000044A052AE5D7D2C700F0D3C701F01200CD
:1004D000086A096A100E0C6E013408360936045099
:1004E000085E0550D8A0053C095ED8B007D004507E
:1004F00008260550D8B0053C0926D89000360136AC
:060500000C2EEAD71200E8
:100506000701DB6B010ED45F000ED55BD8530DE0FF
:10051600D551190802E1D451AD0807E2DB2BAD0E27
:10052600D45DD96F190ED559DA6FDB5305E0AD0EE0
:10053600016E190E026E04D0D4C701F0D5C702F0C1
:10054600D351021802E10150D2190DE1D2C7DCF7EE
:10055600D3C7DDF7DDDE00C0DEF7D6C7DCF7D7C7C9
:10056600DDF787DD30D0F00EDF6F0E0EE06FD2C7FD
:10057600E1F7D3C7E2F774DDF20EDF6F0E0EE06F20
:10058600DB5305E0AD0E006E190E016E04D0D4C724
:1005960000F0D5C701F000C0E1F701C0E2F760DD69
:1005A600F40EDF6F0E0EE06FD6C7E1F7D7C7E2F79E
:1005B60057DDD298D28AD20EDC6F0F0EDD6F66DD64
:1005C60000AA01D0F8D7DB531AE0D251D45D006EF1
:1005D600D351D559016ED951005EDA51015A004AFC
:1005E600012A0050D6270150D723010ED95DD46FBA
:1005F600000EDA59D56FD26BD36BDB6B96D7120030
:10060600086A080E0C6E003408360450085ED8B02E
:0E06160002D00826D89000360C2EF5D7120020
:10062400220E0C6E086A096A0A6A0B6A0C06D8B4B0
:100634001FD0D8900B320A32093208320332023208
:1006440001320032D8A0F2D70C06D8B409D0045035
:1006540008260550092206500A2207500B22EAD721
:10066400045008260550092206500A2207500B227E
:02067400120072
:0E067600D3C761FF00000000D2C761FF120071
:10068400D4C700F0D5C701F0010E0701D45F000EF6
:10069400D55B0050011009E0D2C7E9FFD3C7EAFFD8
:0C06A400EECF61FFD24BD32BEBD712003E
:1006B000E20E0701DF6F0E0EE06FD2C7E1F7D3C77E
:1006C000E2F7D1DCD651D7110DE0D4C7E9FFD5C789
:1006D000EAFFEECF61FFD44BD52B010ED65F000EA3
:0606E000D75BF0D7120009
:1006E6000450000A12E10550000A0FE10650000A04
:1006F6000CE10750000A09E1FF0E006EFF0E016EC5
:10070600FF0E026E7F0E036E97D00C6A07BE0C2A90
:100716000D6A0B6A0A6A096A086A03500210011018
:100726000010D8B484D0035007180E6E0EBE0D1EEE
:1007360007AE0BD0041E051E061E071E042AD8B4DB
:10074600052AD8B4062AD8B4072A03AE0BD0001E51
:10075600011E021E031E002AD8B4012AD8B4022A9A
:10076600D8B4032A035007100E6E0EBE1CD098DCB8
:100776000CBE36D00DAE5BD0001E011E021E031E3F
:10078600002AD8B4012AD8B4022AD8B4032A081EEB
:10079600091E0A1E0B1E082AD8B4092AD8B40A2A2A
:1007A600D8B40B2A44D007AE15D003BE0DD00350E3
:1007B6000B6E02500A6E0150096E0050086E036AF5
:1007C600026A016A006AD6D7036A026A016A006A87
:1007D600002A000C031E021E011E001E0C8EC7D727
:1007E600082AD8B4092AD8B40A2AD8B40B2A04503D
:1007F600085CD8A4BFD70550095CD8A4BBD706505F
:100806000A5CD8A4B7D707500B5CD8A4B3D70B6A39
:100816000A6A096A086A002AD8B4012AD8B4022AE0
:10082600D8B4032A03AEA6D70E6A0E88FF0C0E6A4A
:0A0836000CA001D061DD000F1200DC
:10084000D2C7DCF7D3C7DDF7D4C7DEF715DCD5C7D1
:06085000DCF726DC1200BB
:100856000701D451D225D66FD551D321D76F010EBA
:10086600D65F000ED75BF00EDF6F0E0EE06FD2C7BD
:10087600E1F7D3C7E2F733EC00F0F20EDF6F0E0EAE
:10088600E06FD6C7E1F7D7C7E2F733EC00F0300EDA
:10089600D212D20EDC6F0F0EDD6F49EC00F000AA0B
:0608A60001D0F7D712009B
:0E08AC00670E0D6E0D2EFED70000000012002C
:1008BA002D0E0C6EA30E0D6E0D2EFED70C2EFCD730
:0408CA000000120018
:1008CE00C2C7E9FFC3C7EAFFEE52D8B4ACD00701E6
:1008DE00D06BD16BCE6BCF6B800ECF19006E800EAE
:1008EE00005C02E1040ECE5DD8B06DD0C2C7E9FF48
:1008FE00C3C7EAFFEE5267E0CD6BC2C7E9FFC3C7BD
:10090E00EAFFEE5241E0CD51000A3EE1C2C7E9FFD7
:10091E00C3C7EAFFEECF01F001C0CDF7C24BC32B28
:10092E002B0E015C04E3CD517A0801E302D0026A7A
:10093E0017D02B0ECD5D006E016A000E015A170EF8
:10094E000024F66E6D0E0120F76E000EF86E000E8E
:10095E0001BEFF0EF8220900F5CF00F000C002F034
:10096E0002C0CDF702520FE0CD51240A03E1016A15
:10097E00026A07D03D0ECD5D006E00C001F0000E84
:10098E00026E01C0CDF7B9D7C2C7E9FFC3C7EAFFF0
:10099E00EE520FE0D04BD12BCD530AE0C60ECE2532
:1009AE00E16E070ECF21E26ECD05006E00C0E6FFB0
:1009BE0007D0C60ECE25E16E070ECF21E26EE66A97
:1009CE00CE4BCF2B89D7D051D1112CE0C60ED26F82
:1009DE00070ED36FCA0ED46F070ED56FD5DCCE6B54
:1009EE00CF6B010ED05D016E000ED159026E800EDE
:1009FE00CF19006E800E0218005C02E10150CE5D30
:100A0E0011E2CA0ECE25E96E070ECF21EA6EC4C7DB
:100A1E00E1FFC5C7E2FFEECFE6FFC44BC52BCE4BC1
:100A2E00CF2BDFD74DD7C4C7E1FFC5C7E2FFE66ABC
:020A3E001200A4
:100A4000C2C7E9FFC3C7EAFFEE5211E0C2C7E9FF20
:100A5000C3C7EAFFC4C7D9FFC5C7DAFFEE50DE1827
:100A600006E10701C24BC32BC44BC52BE9D7C2C754
:100A7000E9FFC3C7EAFFC4C7D9FFC5C7DAFFDE5025
:0C0A8000EE5C006E016A000E015A1200CC
:100A8C00C5C700F0C6C701F0010E0701C55F000E17
:100A9C00C65B005001100FE0C2C7F6FFC3C7F7FFDB
:100AAC00C4C7F8FF0900F5CF61FF010EC227000E85
:080ABC00C323C423E5D7120097
:0E0AC400000000000000000000000000120012
:100AD2000701C551FF0A02E1FF0EC4190AE07A0EAE
:100AE200DF6F0F0EE06FC4C7E1F7C5C7E2F733EC63
:100AF20000F0C6C700F0C7C701F0010EC65F000EC6
:100B0200C75B0050011009E0C2C7E1FFC3C7E2FFA3
:0C0B120061CFE6FFC24BC32BECD71200F2
:0A0B1E0061CF01F001C000F01200E9
:100B2800C6C701F0C7C702F0010E0701C65F000E75
:100B3800C75B000E021802E1000E01181FE0C2C7D1
:100B4800E9FFC3C7EAFFC4C7D9FFC5C7DAFFEE503C
:100B5800DE180FE0C2C7E9FFC3C7EAFFC4C7D9FF61
:100B6800C5C7DAFFDE50EE5C006E016A000E015A5E
:100B780007D0C24BC32BC44BC52BD2D7006A016A1E
:020B8800120059
:100B8A00AF0E0701D26F190ED36FC2C7D4F7C3C70E
:100B9A00D5F7060ED66F000ED76F85DD6B0ED26FB6
:100BAA00050ED36F060ED46F000ED56F66DD000EEC
:100BBA00D26F080ED36F5ADD1C0ECA25CD6F000EF8
:100BCA00CB21CE6F000ED26F450ED36F4FDDCDC74E
:100BDA00D2F7CEC7D3F74ADD71C5D2F772C5D3F7BC
:100BEA0045DD0501714B722B0701D26BD36B3EDDDC
:100BFA00110ED26F800ED36F39DDD26BD36B36DD17
:100C0A008E0ED26F050ED36F040ED46F000ED56F01
:100C1A0034DDC4C7D2F7C5C7D3F7040ED46F000EAC
:100C2A00D56F2BDD080ECA25CD6F000ECB21CE6FF6
:100C3A00C6C7D2F7C7C7D3F719DDC8C7D2F7C9C71E
:100C4A00D3F714DDCDC7D2F7CEC7D3F70FDDD26BFA
:100C5A00D36B0CDDBD0ED26F190ED36F140ED46F89
:100C6A00000ED56FF3DDF60EDC6F0E0EDD6F49EC6C
:100C7A0000F000C0CFF7F70EDC6F0E0EDD6F49EC07
:100C8A0000F000C0D4F7C70ED26F190ED36FCFC7CA
:100C9A00D5F7D1DD010ECD15CC6FD90ECA25DC6F83
:100CAA00190ECB21DD6FDE6B3CEC00F0C90ED26F62
:100CBA00190ED36FD10ED46F190ED56FD90ECA255E
:100CCA00D66F190ECB21D76FCC51D627000ED7235A
:100CDA00D86B14DCD90ECA25D26F190ECB21D36F6B
:100CEA00CC51D227000ED323080ED227000ED323CD
:100CFA00D46B110ED56F9FDDCEC7DCF750EC00F038
:100D0A00CDC7DCF750EC00F0D10ED26F190ED36FBD
:100D1A000C0ECD25D46F000ECE21D56FCC51D42721
:100D2A00000ED52393DDF60EDC6F0E0EDD6F49EC57
:100D3A0000F000C0CFF7F70EDC6F0E0EDD6F49EC46
:100D4A0000F000C0D4F7D70ED26F190ED36FCFC7F9
:100D5A00D5F771DD2A0ECA25D26F000ECB21D36FCB
:060D6A009AEC01F01200FA
:100D7000C2C7D2F7C3C7D3F78E0E0701D46F050ED3
:100D8000D56F040ED66F000ED76F40EC02F0C46B27
:100D9000C451030821E3C451C225026E000EC321D1
:100DA000036E02C0E9FF03C0EAFFEECF01F0860E3A
:100DB000E96E050EEA6EC451E926D8B0EA2AFF0EA4
:100DC000EE18006E0150001202C0E1FF03C0E2FF06
:0A0DD00000C0E6FFC42BDCD71200C0
:100DDA00C2C704F0C3C705F004C0E9FF05C0EAFFB3
:100DEA00EE5203E0044A052AF7D704C002F005C010
:100DFA0003F0044A052AC4C700F0C5C701F0070179
:100E0A00C44BC52B00C0E9FF01C0EAFF02C0E1FFE5
:100E1A0003C0E2FFEECFE6FF02C0E9FF03C0EAFF2C
:100E2A00EE5201E0E2D7C2C700F0C3C701F01200D8
:100E3A000701C56B030EC55D0AE2C551C325E16E04
:100E4A00000EC421E26E200EE66EC52BF3D7C55103
:100E5A00C325E16E000EC421E26EE66AC507C551DC
:100E6A00C325C66F000EC421C76F0A0E046EC2C71F
:100E7A0000F003EC03F008C000F0300E0026C6C7ED
:100E8A00E1FFC7C7E2FF00C0E6FF0A0E046EC2C751
:100E9A0000F003EC03F000C0C2F70050000A01E1C1
:080EAA0002D0C507DCD71200DD
:100EB2000701C251390806E3300EC25D03E3010E99
:080EC200006E01D0006A12006D
:100ECA00C2C704F0C3C705F004C002F005C003F0AE
:100EDA00044A052AC4C700F0C5C701F00701C44B7C
:100EEA00C52B00C0E9FF01C0EAFF02C0E1FF03C051
:100EFA00E2FFEECFE6FF02C0E9FF03C0EAFFEE52CF
:0E0F0A0001E0E2D7C2C700F0C3C701F0120039
:100F1800000E006E0701C51908E10050C41905E16B
:100F28000050C31902E1C251000A0EE1C6C7E1FF31
:100F3800C7C7E2FF300EE66E010EC625E16E000E51
:100F4800C721E26EE66AC7D0800EC519006E800E12
:100F5800005C08E1000EC45D05E1000EC35D02E11E
:100F6800000EC25D1BE2C2C700F0C3C701F0C4C7D0
:100F780002F0C5C703F0FF0E046EFF0E056E066E85
:100F8800076E12EC03F000C0C2F701C0C3F702C03D
:100F9800C4F703C0C5F7010ECA6F01D0CA6BC6C734
:100FA800E1FFC7C7E2FFE66AC86B0701800E006E63
:100FB800800EC519005C08E1C451000805E1C35161
:100FC800000802E1C251000862E2C851010FC96F6E
:100FD800C951000815E2C951C625E16E000EC721A6
:100FE800E26EC905006E016A000E015A0050C6255E
:100FF800E96E0150C721EA6EEECFE6FFC907E8D7D0
:10100800C6C7CBF7C7C7CCF70A0E046E000E056E2D
:10101800066E076EC2C700F0C3C701F0C4C702F06E
:10102800C5C703F073EC03F008C000F009C001F075
:101038000AC002F00BC003F0CBC7E1FFCCC7E2FF48
:1010480000C0E6FFC6C7E9FFC7C7EAFFC6C7E1FF9A
:10105800C7C7E2FF300EEE260701C82B0A0E046E42
:10106800000E056E066E076EC2C700F0C3C701F01A
:10107800C4C702F0C5C703F073EC03F000C0C2F7A1
:1010880001C0C3F702C0C4F703C0C5F78ED7070174
:10109800CA5321E0C851010FC96FC951000815E2B0
:1010A800C951C625E16E000EC721E26EC905006E62
:1010B800016A000E015A0050C625E96E0150C72189
:1010C800EA6EEECFE6FFC907E8D7C6C7E1FFC7C794
:0810D800E2FF2D0EE66E12008E
:1010E0000F0E0701C215016E01C0C2F70A0E015CA6
:1010F00004E3370EC225006E03D0300EC225006E09
:021100001200DB
:101102000701C66B050EC65D0AE2C651C425E16E33
:10111200000EC521E26E200EE66EC62BF3D7C65135
:10112200C425E16E000EC521E26EE66AC607C6510D
:10113200C425C76F000EC521C86F0A0E046E000ECB
:10114200056EC2C700F0C3C701F068EC02F008C028
:1011520000F009C001F0300E0026C7C7E1FFC8C782
:10116200E2FF00C0E6FF0A0E046E000E056EC2C763
:1011720000F0C3C701F068EC02F000C0C2F701C082
:10118200C3F7000E011802E1000E001801E102D0BF
:06119200C607CDD71200D4
:10119800C2C702F0C3C703F002C000F003C001F0E9
:1011A800024A032A00C0E9FF01C0EAFFEE5201E04B
:1011B800F3D70701C251025C006EC3510358016E98
:0A11C800010E005E000E015A120035
:1011D2000B6A0A6A096A00500402F4CF09F0F3CFDD
:1011E20008F001500502F4CF0BF0F3CF0AF00050E3
:1011F2000502F3500926F4500A22E86A0B22015034
:101202000402F3500926F4500A22E86A0B2208C0AD
:1012120000F009C001F00AC002F00BC003F0120096
:101222000701C56BC66BC2C700F0C3C701F0C4C7D4
:1012320002F0010EC227000EC323C42300C0F6FF32
:1012420001C0F7FF02C0F8FF0900F5CF00F000C0AF
:1012520003F0005205E003C061FFC54BC62BE3D784
:0A126200C5C700F0C6C701F0120076
:10126C0007011EA18FD01AC7C2F71BC7C3F7040E04
:10127C001C25E96E000E1D21EA6EEECF03F003C0B3
:10128C0000F0000E016E003600900136520E002464
:10129C00E96E040E0120EA6EEECFC4F7EECFC5F76F
:1012AC000EDE1AC7C2F71BC7C3F7640EC46F040E59
:1012BC00C56F8DDD030E1C25E96E000E1D21EA6E37
:1012CC00EECFC2F71F0EC36F070EC46FB0DD1AC787
:1012DC00C2F71BC7C3F7200EC46F070EC56F77DDAF
:1012EC001AC7C2F71BC7C3F7500EC46F040EC56FE5
:1012FC006EDD1AC7C2F71BC7C3F7050E1C25E96EB6
:10130C00000E1D21EA6EEECF03F003C000F0000EBC
:10131C00016E003600900136140E0024E96E040EA6
:10132C000120EA6EEECFC4F7EECFC5F750DD1AC739
:10133C00C2F71BC7C3F7120EC46F040EC56F47DD8F
:10134C00060E1C25E96E000E1D21EA6EEECFC2F7CB
:10135C00EECFC3F71F0EC46F070EC56FCCDE1AC7D6
:10136C00C2F71BC7C3F7200EC46F070EC56F2FDD66
:10137C001AC7C2F71BC7C3F72E0EC46F040EC56F76
:10138C0026DD05D01AC7E1FF1BC7E2FFE66A1EA3E4
:10139C005CD0020E1C25E96E000E1D21EA6EEECF0C
:1013AC00C2F71F0EC36F070EC46F41DD1AC7C2F719
:1013BC001BC7C3F7200EC46F070EC56F08DD1AC715
:1013CC00C2F71BC7C3F7320EC46F040EC56FFFDC28
:1013DC00010E1C25E96E000E1D21EA6EEECFC2F740
:1013EC001F0EC36F070EC46F22DD2051200A02E1CD
:1013FC00300E206F1AC7C2F71BC7C3F7200EC46F7D
:10140C00070EC56FE4DC1AC7C2F71BC7C3F7300E53
:10141C00C46F040EC56FDBDC1CC7E9FF1DC7EAFFF8
:10142C00EECFC2F71F0EC36F070EC46F00DD205145
:10143C00200A02E1300E206F1AC7C2F71BC7C3F790
:10144C00200EC46F070EC56FC2DC1EA531D01AC7A3
:10145C00C2F71BC7C3F7F80EC46F030EC56FB7DC1A
:10146C00800E000A006E800E03013A19005C0AE23D
:10147C001AC7C2F71BC7C3F7F60E0701C46F030EDA
:10148C00C56FA5DC1AC7C2F71BC7C3F77FDE0050B8
:10149C001A25C66F01501B21C76F3AC3C2F7000E45
:1014AC0003013ABFFF0E0701C36FC46FC56F2EDD7A
:0214BC0012001C
:1014BE00860E0701D26F050ED36F1AC7D4F71BC75E
:1014CE00D5F7040ED66F000ED76F40EC02F0820EE9
:1014DE00D26F050ED36F1CC7D4F71DC7D5F7040EF8
:1014EE00D66F000ED76F40EC02F08A0ED26F050E4B
:1014FE00D36F1EC7D4F71FC7D5F7040ED66F000ED5
:10150E00D76F40EC02F0920EC26F050EC36F29DC4E
:02151E001200B9
:1015200007011C6B3C0E0501326F000E336F346FE8
:10153000356F8FEC05F000C01AF70050020AD8A4EE
:1015400020D107011B6B0F0E1B5D04E28FEC05F031
:101550001B2BF9D72E0EC26F050EC36FFF0EC46F83
:10156000FF0EC56F040EC66F000EC76F69EC05F065
:101570001B6B080E1B5D04E28FEC05F01B2BF9D7EB
:101580001B6B060E1B5D12E28FEC05F000C01AF714
:101590006B0ED96E050EDA6E1B51D926D8B0DA2A39
:1015A0000050DE1801E019D11B2BEBD71B6BCE0EC0
:1015B0001B5D04E28FEC05F01B2BF9D71D6B8FEC44
:1015C00005F000C01AF7BFD08FEC05F000C01AF785
:1015D0000050010A05E18FEC05F000C01CF701D0B6
:1015E000FCD0CBD08FEC05F000C01AF70050040AF5
:1015F0000FE13A0EC26F050EC36FFF0EC46FFF0EF0
:10160000C56F040EC66F000EC76F69EC05F001D000
:10161000E4D0B3D08FEC05F000C01AF7040E005CE4
:101620000FE3360EC26F050EC36FFF0EC46FFF0EC1
:10163000C56F040EC66F000EC76F69EC05F001D0D0
:10164000CCD0040E1A5F1AC700F01A07005203E04C
:101650008FEC05F0F8D791D08FEC05F000C01AF7A9
:10166000040E005C0FE3770EC26F050EC36FFF0E12
:10167000C46FFF0EC56F040EC66F000EC76F69EC16
:1016800005F001D0AAD0040E1A5F1AC700F01A079D
:10169000005203E08FEC05F0F8D76FD08FEC05F027
:1016A00000C01AF70050040A0FE11E0EC26F070EA9
:1016B000C36FFF0EC46FFF0EC56F040EC66F000E22
:1016C000C76F69EC05F001D088D057D0010E1D6FAF
:1016D00054D08FEC05F000C01AF70050040A23E143
:1016E000320EC26F050EC36FFF0EC46FFF0EC56FC3
:1016F000040EC66F000EC76F69EC05F00501355189
:10170000000808E13451000805E13351070802E1FF
:101710003251080807E2080E325F070E335B000EF5
:10172000345B355B01D059D028D08FEC05F000C078
:101730001AF71AC700F007011A07005203E08FECEE
:1017400005F0F7D71AD01A51350AD8B43DD71A5137
:10175000010AD8B447D71A51030AD8B45BD71A5133
:10176000060AD8B479D71A51360A98E01A51FF0AF6
:10177000ADE01A51330AADE0D8D707011D53D8B4F4
:101780001ED707011C51020A0FE1730ED26F050E1E
:10179000D36F1E0ED46F070ED56F040ED66F000EDA
:1017A000D76F40EC02F016D0730EC26F050EC36FF8
:1017B0001E0EC46F070EC56F040EC66F000EC76FF6
:1017C00094EC05F0000E011802E1000E001802E092
:0E17D00007011C6B1CC700F001D0006A12005C
:1017DE0007011ABF02D08A9601D08A861ABD02D09E
:1017EE008A9401D08A841ABB02D08A9201D08A824E
:1017FE001AB902D08A9001D08A8005017FB102D039
:10180E008A8801D08A988A8A62EC05F08A9A070142
:10181E001AB702D08A9601D08A861AB502D08A9457
:10182E0001D08A841AB302D08A9201D08A821AB168
:10183E0002D08A9001D08A8005017FB102D08A88B9
:10184E0001D08A988A8A62EC05F08A9A7FA103D029
:0C185E005DEC04F002D056EC04F0120027
:10186A001AC7E9FF1BC7EAFFEECF1CF7000E0701F4
:10187A001D6F000E1D6F000E1D1902E1200E1C19AE
:10188A0007E0000E1D1902E1090E1C1901E003D040
:10189A001A4B1B2BE5D71E6B1F6B206B216B000E9F
:1018AA001D1902E12D0E1C1905E1204B212B1A4BA3
:1018BA001B2B08D0000E1D1902E12B0E1C1902E188
:1018CA001A4B1B2B1AC7E9FF1BC7EAFFEECF1CF7FF
:1018DA00000E1D6F000E1D6F1CC7C2F759EC07F0F2
:1018EA00005218E01EC700F01FC701F00A0E046E6E
:1018FA00000E056E69DC300E1C5D026E000E1D596D
:10190A00036E025000241E6F035001201F6F1A4BF2
:10191A001B2BD8D72051211108E01E510008006E58
:10192A001FC701F0000E015604D01EC700F01FC7E2
:04193A0001F01200A6
:10193E001CC7C2F70701C233C29FC233C29FC23354
:10194E00C29FC233C29F70EC08F01AC7E1FF1BC7DB
:10195E00E2FF00C0E6FF1A4B1B2B1CC7C2F770EC50
:10196E0008F01AC7E1FF1BC7E2FF00C0E6FF1A4BE3
:10197E001B2B1AC7E1FF1BC7E2FF2E0EE66E1200ED
:10198E001AC7E1FF1BC7E2FFE66A07011E6B040ED2
:10199E001E5D2FE21E511C25E96E000E1D21EA6E02
:1019AE00EECFC2F7000EC36FC46FC56F000EC36FCC
:1019BE00C46FC56F1F0EC66F070EC76F8CEC07F096
:1019CE001AC7C2F71BC7C3F71F0EC46F070EC56F2A
:1019DE00EDEC06F01E51030A0AE01AC7C2F71BC748
:1019EE00C3F7FD0EC46F030EC56FEDEC06F01E2B94
:0419FE00CED712002E
:101A02009B0E0701C26F6E0EC36F000EC46F08DC1F
:101A120000C020F701C021F71AC7C2F71BC7C3F7DE
:101A22001CC7C4F711EC09F00050202701502123F4
:101A3200060EC26F710EC36F000EC46F11EC09F077
:101A420000502027015021231DC7C2F71EC7C3F72C
:101A52001FC7C4F711EC09F02051002621510122C1
:0A1A620000C020F701C021F71200B8
:101A6C001AC702F01BC703F01DC700F01EC701F018
:101A7C00010E07011D5F000E1E5B0050011009E0F6
:101A8C0002C0E1FF03C0E2FF1CC7E6FF024A032AC3
:0C1A9C00EBD71AC700F01BC701F01200C6
:101AA800F90E07011D6F000E1E6FE20EDF6F0E0E9E
:101AB800E06FD90EE16F190EE26F33EC00F0FA0E09
:101AC800C26F6F0EC36F000EC46F0C0EC56F000E91
:101AD800C66F46EC05F01A51030A0DE11B530BE0E3
:101AE8002E0ED26F050ED36F040ED46F000ED56F75
:101AF80042EC03F009D01C6B040E1C5D05E2DC6BA4
:101B080050EC00F01C2BF8D71C6B0C0E1C5D05E28A
:101B1800DC6B50EC00F01C2BF8D76B0ED26F050E67
:101B2800D36F060ED46F000ED56F42EC03F01C6B1A
:101B3800CA0E1C5D05E2DC6B50EC00F01C2BF8D7DC
:101B4800F10EC26F700EC36F000EC46F060EC56F24
:101B5800000EC66F46EC05F01AC7DCF750EC00F033
:101B68001A51030A18E11B5316E1360EDC6F50ECCC
:101B780000F0040EDC6F50EC00F0730ED26F050E0F
:101B8800D36F040ED46F000ED56F42EC03F0060E2F
:101B98001D27000E1E23F70EC26F700EC36F000EB6
:101BA800C46F050EC56F000EC66F46EC05F01A51DE
:101BB800030A20E11B531EE1320EDC6F50EC00F0EB
:101BC800040EDC6F50EC00F01C6B040E1C5D0EE282
:101BD8002E0EE96E050EEA6E1C51E926D8B0EA2AE7
:101BE800EECFDCF750EC00F01C2BEFD7060E1D27CC
:101BF800000E1E23FF0EDC6F50EC00F0F30EC26FD8
:101C0800020EC36FF30EC46F020EC56F440EC66F8B
:101C1800000EC76F430EC86F000EC96F1DC7CAF705
:0A1C28001EC7CBF7C5EC05F0120053
:101C3200DF0E0701C26F6E0EC36F000EC46F11EC90
:101C420009F000C01DF701C01EF71A51300FDC6FFA
:101C520050EC00F01D4B1E2B510EC26F6F0EC36F66
:101C6200000EC46F11EC09F000501D2701501E2315
:101C72001C6B040E1C5D45E2D90EC26F700EC36F61
:101C8200000EC46F11EC09F000501D2701501E23F5
:101C92001C511B190CE15E0EC26F700EC36F000E59
:101CA200C46F11EC09F000501D2701501E23490E8C
:101CB200C26F710EC36F000EC46F11EC09F00050B9
:101CC2001D2701501E23030E006E000E016E1CC75D
:101CD20004F0000E056EE9EC08F02D0E0024E96E0A
:101CE200010E0120EA6EEECFC2F7EECFC3F7EECFC0
:101CF200C4F711EC09F000501D2701501E231C2BC4
:101D0200B8D7EE0EC26F6F0EC36F000EC46F11EC28
:101D120009F01D5100261E51012200C01DF701C00D
:041D22001EF7120096
:101D26008FEC05F00050470A10E18FEC05F00050EB
:101D3600450A0BE18FEC05F00050540A06E18FECE2
:101D460005F00050200A01E102D0006A3ED00701EA
:101D5600206B216B1F51215D02E11E51205D2EE299
:101D66001CC7E9FF1DC7EAFFEE50EE1027E08FEC17
:101D760005F01AC7E1FF1BC7E2FF00C0E6FF1CC75C
:101D8600E9FF1DC7EAFF010EEE5C006E000EEE587D
:101D9600016E1CC7E1FF1DC7E2FF00C0E6FF01C0E0
:101DA600E6FF1AC7E9FF1BC7EAFF200EEE5C01E259
:101DB60005D0204B212B1A4B1B2BCCD71AC7E1FF82
:0C1DC6001BC7E2FFE66A010E006E12006F
:101DD20007011C6B1D6B1AC700F01BC701F01A4BE1
:101DE2001B2B00C0E9FF01C0EAFFEECF00F000C0EC
:101DF20002F0005205E002C061FF1C4B1D2BEBD725
:0A1E02001CC700F01DC701F012001C
:101E0C001AC720F71BC721F71CC722F71DC723F7DA
:101E1C00800E046E510E056E010E066E000E076EDE
:101E2C001AC700F01BC701F01CC702F01DC703F056
:101E3C0073EC03F000C020F701C021F702C022F7B9
:101E4C0003C023F70201935100240701206F020104
:101E5C00945101200701216F0201955102200701C5
:101E6C00226F0201965103200701236F800E1D196A
:101E7C00006E800E005C08E1000E1C5D05E1000E9A
:101E8C001B5D02E1000E1A5D06E2010E205F000EE2
:101E9C00215B225B235B040E1E25386F000E1F2175
:101EAC00396F070E046E000E056E066E076E20C7A6
:101EBC0000F021C701F022C702F023C703F073EC36
:101ECC0003F008C000F009C001F00AC002F00BC01A
:101EDC0003F038C7E1FF39C7E2FF00C0E6FFD90EB7
:101EEC0007012025056E0B0E2121066E010E222105
:101EFC00076E000E2321086E05C030F706C031F7BF
:101F0C0007C032F708C033F705C000F006C001F077
:101F1C0007C002F008C003F000360090013602360C
:101F2C0003360036009001360236033600C034F713
:101F3C0001C035F702C036F703C037F7B10E046E97
:101F4C003A0E056E020E066E000E076E73EC03F071
:101F5C0000C034F701C035F702C036F703C037F7BD
:101F6C00B10E046E3A0E056E020E066E000E076E72
:101F7C0012EC03F0030E0024086E000E0120096E13
:101F8C00000E02200A6E000E03200B6E08C004F037
:101F9C0009C005F00AC006F00BC007F00732063284
:101FAC0005320432079E07BC078E07320632053213
:101FBC000432079E07BC078E30C700F031C701F012
:101FCC0032C702F033C703F00450005E0550015ACB
:101FDC000650025A0750035A00C030F701C031F7BF
:101FEC0002C032F703C033F7010E0026000E0122A7
:101FFC0002220322A00E046E0F0E056E000E066E5A
:10200C00076E12EC03F000C024F701C025F702C0E4
:10201C0026F703C027F7090E046E4B0E056E160E3D
:10202C00066E000E076E73EC03F000C024F701C0BF
:10203C0025F702C026F703C027F7B50E046E050E70
:10204C00056E000E066E076E12EC03F000C004F075
:10205C0001C005F002C006F003C007F007320632DB
:10206C0005320432079E07BC078E07320632053252
:10207C000432079E07BC078E1F0E045E000E055A25
:10208C00065A075A30C700F031C701F032C702F0C8
:10209C0033C703F00450005E0550015A0650025A33
:1020AC000750035A00C030F701C031F702C032F7B5
:1020BC0003C033F7500E046E000E056E066E076EED
:1020CC0012EC03F000C028F701C029F702C02AF770
:1020DC0003C02BF78F0E046E090E056E000E066EF4
:1020EC00076E73EC03F000C028F701C029F702C09B
:1020FC002AF703C02BF78F0E046E090E056E000E27
:10210C00066E076E12EC03F0500E046E000E056E98
:10211C00066E076E73EC03F030C72CF731C72DF742
:10212C0032C72EF733C72FF7005007012C5F015031
:10213C002D5B02502E5B03502F5B0B0E046E000EBA
:10214C00056E066E076E28C700F029C701F02AC776
:10215C0002F02BC703F073EC03F000C030F701C0A2
:10216C0031F702C032F703C033F7020E07012827FC
:10217C00000E29232A232B230C0E046E000E056E51
:10218C00066E076E12EC03F00050285F0150295BBD
:10219C0002502A5B03502B5B34C700F035C701F0AB
:1021AC0036C702F037C703F0310E005E000E015A3D
:1021BC00025A035A640E046E000E056E066E076E0C
:1021CC0012EC03F024510026255101222651022243
:1021DC002751032230510026315101223251022263
:1021EC003351032200C024F701C025F702C026F7A3
:1021FC0003C027F7060E1E25E16E000E1F21E26EAE
:10220C0000C0E6FF01C0E6FF050E1E25E16E000EC4
:10221C001F21E26E28C7E6FF030E1E25E16E000E9D
:10222C001F21E26E2CC7E6FF800E1D19006E800E7A
:10223C00005C08E1000E1C5D05E1000E1B5D02E177
:10224C00000E1A5D43E21AC700F01BC701F01CC751
:10225C0002F01DC703F0FF0E046EFF0E056E066E36
:10226C00076E12EC03F000C01AF701C01BF702C096
:10227C001CF703C01DF7800E046E510E056E010E87
:10228C00066E000E076E73EC03F008C000F009C078
:10229C0001F00AC002F00BC003F000C01AF701C035
:1022AC001BF702C01CF703C01DF7800E07011A6F45
:1022BC00510E1B6F010E1C6F000E1D6F00501A5F2C
:1022CC0001501B5B02501C5B03501D5B800E046EA7
:1022DC00510E056E010E066E000E076E1AC700F049
:1022EC001BC701F01CC702F01DC703F073EC03F011
:1022FC0008C000F009C001F00AC002F00BC003F0E6
:10230C0000C030F701C031F702C032F703C033F719
:10231C00100E046E0E0E056E000E066E076E73EC3C
:10232C0003F000C02CF701C02DF702C02EF703C03C
:10233C002FF7020E07011E25E16E000E1F21E26E23
:10234C0000C0E6FF30C72CF731C72DF732C72EF788
:10235C0033C72FF7020E1E25E96E000E1F21EA6E01
:10236C00EECF00F0000E016E026E036E100E046EC6
:10237C000E0E056E000E066E076E12EC03F02CC7E7
:10238C0004F02DC705F02EC706F02FC707F000503C
:10239C00045E0150055A0250065A0350075A04C0F5
:1023AC002CF705C02DF706C02EF707C02FF704C079
:1023BC0000F005C001F006C002F007C003F03C0EAF
:1023CC00046E000E056E066E076E73EC03F000C013
:1023DC002CF701C02DF702C02EF703C02FF7010E0A
:1023EC0007011E25E16E000E1F21E26E00C0E6FF04
:1023FC003C0E046E000E056E066E076E30C700F0C4
:10240C0031C701F032C702F033C703F073EC03F0AD
:10241C0008C000F009C001F00AC002F00BC003F0C4
:10242C0000C02CF701C02DF702C02EF703C02FF708
:0E243C001EC7E1FF1FC7E2FF00C0E6FF12004F
:10244A0007011E6B1F6BBF6B1AC700F01BC701F099
:10245A00010E1A5F000E1B5B0050011067E0200E90
:10246A001E25C06F070E1F21C16F8FEC05F0C0C774
:10247A00E1FFC1C7E2FF00C0E6FF200E1E25E96E9C
:10248A00070E1F21EA6E200EEE5C07E3000E1F19ED
:10249A0002E17F0E1E1901E046D0200EC26F070E20
:1024AA00C36FCF0EC46F020EC56F140EC66F000E37
:1024BA00C76F94EC05F0000E011802E1000E001837
:1024CA002EE1200E07011E25E16E070E1F21E26E86
:1024DA00E66A010E006E000E016E00503508C26FEA
:1024EA0001C0C3F7070EC357A00EC46F070EC56F0E
:1024FA0067EC04F0A00E0701C26F070EC36F1CC77A
:10250A00C4F71DC7C5F720EC05F0000E011802E15B
:10251A00000E001803E1010E0701BF6F07D0070183
:10252A001E6B1F6B02D01E4B1F2B8ED7BFC700F02E
:02253A0012008D
:10253C000701176B186B000E0601411902E1500ED2
:10254C00401904E0006A016AF1EF1AF0930E0701DA
:10255C001A6F060E1B6F420E1C6F060E1D6F800E3F
:10256C001E6F000E1F6F93EC0EF00050000A04E17A
:10257C00006A016AF1EF1AF042C61AF743C61BF75C
:10258C00060E07011C6F040E1D6F59DF00C016F7F5
:10259C00930E0701C26F060EC36FFF0EC46F030EBE
:1025AC00C56F060EC66F000EC76F94EC05F0000EDB
:1025BC00011802E1000E0018D8A4B6D1070116517B
:1025CC00000A13E1330E1A6F6F0E1B6F000E1C6F97
:1025DC00860E1D6F6F0E1E6F000E1F6F01EC0DF03F
:1025EC0000C017F701C018F79DD106019A51730A64
:1025FC00D8A4F1D0140E0701C26F6F0EC36F000E7A
:10260C00C46F11EC09F000C017F701C018F7D50E14
:10261C00C26F6F0EC36F000EC46F11EC09F0005047
:10262C00172701501823320EC26F700EC36F000EA5
:10263C00C46F11EC09F00050172701501823010E3C
:10264C001A6F38C31BF719EC0EF000501727015006
:10265C001823270EC26F700EC36F000EC46F11ECDF
:10266C0009F00050172701501823020E1A6F39C3B6
:10267C001BF719EC0EF00050172701501823BB0E56
:10268C00C26F6F0EC36F000EC46F11EC09F00050D7
:10269C00172701501823B80EC26F6D0EC36F000EB2
:1026AC00C46F11EC09F000501727015018233F0E8E
:1026BC001A6F030E1B6FE9EC0EF000501727015038
:1026CC001823EA0EC26F700EC36F000EC46F11ECAC
:1026DC0009F000501727015018239A0EC26F700E84
:1026EC00C36F000EC46F11EC09F000501727015096
:1026FC001823680EC26F6D0EC36F000EC46F11EC01
:10270C0009F00050172701501823F50E146FFF0E17
:10271C00156F800E1519006E800E005C02E10C0E18
:10272C00145D4CE2C70EC26F700EC36F000EC46F07
:10273C0011EC09F00050172701501823000E03016B
:10274C003ABFFF0E0701151904E103013A510701C5
:10275C0014190CE1720EC26F700EC36F000EC46FB1
:10276C0011EC09F00050172701501823430EC26FCB
:10277C00710EC36F000EC46F11EC09F000501727D7
:10278C000150182314C7C2F715C7C3F7000E15BFA5
:10279C00FF0EC46FC56F530EC66F060EC76F8CEC61
:1027AC0007F0530E1A6F060E1B6FE9EC0EF000507B
:1027BC00172701501823144B152BABD7E20EC26F01
:1027CC006F0EC36F000EC46F11EC09F00050172789
:1027DC0001501823A7D072D00701010E1A6FEFEC2D
:1027EC000BF0300E06019C5D006E00C038F303EC5C
:1027FC0000F074D0010E07011A6FEFEC0BF0300EE5
:10280C0006019C5D006E00C039F303EC00F066D04D
:10281C000301BF6B3B0E0701C26F030EC36F420E69
:10282C00C46F040EC56F040EC66F000EC76F94EC18
:10283C0005F00050011003E1010E0301C86F4ED0EA
:10284C009C0E0601466F060E476F3F0E486F030E37
:10285C00496F4A6B800E4A5D1DE246C6E9FF47C6CA
:10286C00EAFF48C6E1FF49C6E2FFEECFE6FF464B62
:10287C00472B48C6E9FF49C6EAFFEE50200A06E19D
:10288C0048C6E1FF49C6E2FFE66A04D0484B492B33
:10289C004A2BE0D7010E0301C86F20D09C0E070114
:1028AC001A6F060E1B6F35EC0CF000C03AF30B0ED2
:1028BC00005E00C03AF303EC00F010D006019A5110
:1028CC00310A8AE09A51320A95E09A51720AA0E0D4
:1028DC009A516E0AB5E09A51740AE0E03FC4C2F70F
:1028EC0040C4C3F741C4C4F711EC09F000501727DA
:1028FC000150182347C4C2F748C4C3F749C4C4F7EE
:10290C0011EC09F000501727015018234DC4C2F7E1
:10291C004EC4C3F74FC4C4F711EC09F0005017278D
:10292C0001501823EBEF1AF0C4EF1AF0000E006EF2
:10293C000401631908E10050621905E100506119A6
:10294C0002E16051000A0DE14AC4C2F74BC4C3F75F
:10295C004CC4C4F711EC09F000C017F701C018F70C
:10296C000CD034C4C2F735C4C3F736C4C4F711EC69
:10297C0009F000C017F701C018F7EBEF1AF00701C8
:10298C00140EC26F6F0EC36F000EC46F11EC09F002
:10299C0000C017F701C018F7D50EC26F6F0EC36FCA
:1029AC00000EC46F11EC09F00050172701501823CA
:1029BC00530E1A6F060E1B6F9D0E1C6F050E1D6FAE
:1029CC00070E1E6F36EC09F0900EC26F700EC36FBF
:1029DC00000EC46F11EC09F000501727015018239A
:1029EC00530E1A6F060E1B6FE9EC0EF000501727F2
:1029FC0001501823230EC26F710EC36F000EC46FEB
:102A0C0011EC09F0005017270150182337C4C2F7F6
:102A1C0038C4C3F739C4C4F73AC4C5F7530EC66FEC
:102A2C00060EC76F8CEC07F01C0EC26F700EC36FD6
:102A3C00000EC46F11EC09F0005017270150182339
:102A4C00530E1A6F060E1B6FE9EC0EF00050172791
:102A5C0001501823450EC26F710EC36F000EC46F68
:102A6C0011EC09F00050172701501823000E006ECE
:102A7C000401631908E10050621905E10050611965
:102A8C0002E16051000A0CE1530E0701C26F060E01
:102A9C00C36F3B0EC46F040EC56F65EC07F038D0E6
:102AAC003AC300F0000E03013ABFFF0E016E100E88
:102ABC00046E0E0E056EE9EC08F000500401602562
:102ACC0007011A6F01500401612107011B6F000EF1
:102ADC0001BEFF0E0401622107011C6F000E01BE36
:102AEC00FF0E0401632107011D6FA50E1E6F050E5D
:102AFC001F6F06EC0FF0530E07011A6F060E1B6FBB
:102B0C00A50E1C6F050E1D6F070E1E6F36EC09F01F
:102B1C00110EC26F700EC36F000EC46F11EC09F072
:102B2C000050172701501823530E1A6F060E1B6FF7
:102B3C00E9EC0EF00050172701501823200EC26F3D
:102B4C00710EC36F000EC46F11EC09F00050172703
:102B5C0001501823EBEF1AF00701140EC26F6F0E21
:102B6C00C36F000EC46F11EC09F000C017F701C061
:102B7C0018F7D50EC26F6F0EC36F000EC46F11EC39
:102B8C0009F00050172701501823530E1A6F060E28
:102B9C001B6F3B0E1C6F030E1D6FC7EC0CF0060E6B
:102BAC00C26F700EC36F000EC46F11EC09F00050B1
:102BBC001727015018233F0E1A6F030E1B6FE9ECF9
:102BCC000EF00050172701501823290EC26F710EFA
:102BDC00C36F000EC46F11EC09F0005017270150A1
:102BEC001823530E1A6F060E1B6FE9EC0EF00050F3
:102BFC00172701501823470EC26F710EC36F000EBA
:102C0C00C46F11EC09F00050172701501823260E41
:102C1C00C26F710EC36F000EC46F11EC09F000503F
:102C2C0017270150182303010E51000A0CE1530E13
:102C3C000701C26F060EC36FBD0EC46F010EC56FC8
:102C4C0065EC07F043D003010E51010A0CE1530E61
:102C5C000701C26F060EC36FB10EC46F010EC56FB4
:102C6C0065EC07F033D0100E03010E5D18E20EC3B5
:102C7C00C2F7000E0701C36FC46FC56F530EC66F4A
:102C8C00060EC76F8CEC07F0530EC26F060EC36FA7
:102C9C00C90EC46F010EC56FEDEC06F017D007011D
:102CAC000EC3C2F7000EC36FC46FC56F530EC66F51
:102CBC00060EC76F8CEC07F0530EC26F060EC36F77
:102CCC00D60EC46F010EC56FEDEC06F0AD0EC26FE3
:102CDC006F0EC36F000EC46F11EC09F00050172774
:102CEC0001501823530E1A6F060E1B6FE9EC0EF0F1
:102CFC000050172701501823170EC26F710EC36FA7
:102D0C00000EC46F11EC09F0005017270150182366
:102D1C00C00E0101D5150701196F2CD0530EC26FCF
:102D2C00060EC36F6D0EC46F010EC56F65EC07F018
:102D3C002DD0530EC26F060EC36F520EC46F010E10
:102D4C00C56F65EC07F022D0530EC26F060EC36F31
:102D5C00780EC46F010EC56F65EC07F017D0530EDB
:102D6C00C26F060EC36F940EC46F010EC56F65EC77
:102D7C0007F00CD01951000AD1E01951400AD9E0E2
:102D8C001951800AE1E01951C00AE9E0530EC26FF3
:102D9C00700EC36F000EC46F11EC09F000501727B2
:102DAC0001501823530E1A6F060E1B6FE9EC0EF030
:102DBC000050172701501823140EC26F710EC36FE9
:102DCC00000EC46F11EC09F00050172701501823A6
:102DDC0093C1C2F7000EC36FC46FC56F530EC66F9D
:102DEC00060EC76F8CEC07F09D0EC26F6F0EC36F93
:102DFC00000EC46F11EC09F0005017270150182376
:102E0C00530E1A6F060E1B6FE9EC0EF000501727CD
:102E1C00015018231D0EC26F710EC36F000EC46FCC
:102E2C0011EC09F00050172701501823380E01013E
:102E3C00D5150701196F21D0530EC26F060EC36F43
:102E4C00400EC46F020EC56F65EC07F01DD0530E1B
:102E5C00C26F060EC36F2D0EC46F020EC56F65ECEC
:102E6C0007F012D0530EC26F060EC36F4A0EC46F1A
:102E7C00020EC56F65EC07F007D01951180ADCE09B
:102E8C001951300AE4E0EED7D00EC26F700EC36F4A
:102E9C00000EC46F11EC09F00050172701501823D5
:102EAC00530E1A6F060E1B6FE9EC0EF0005017272D
:102EBC00015018231A0EC26F710EC36F000EC46F2F
:102ECC0011EC09F00050172701501823070E0101CF
:102EDC00D5150701196F58D0530EC26F060EC36F6C
:102EEC00650EC46F020EC56F65EC07F065D0530E0E
:102EFC00C26F060EC36F540EC46F020EC56F65EC25
:102F0C0007F05AD0530EC26F060EC36FE90EC46F92
:102F1C00010EC56F65EC07F04FD0530EC26F060E55
:102F2C00C36FE20EC46F010EC56F65EC07F044D0A1
:102F3C00530EC26F060EC36FFB0EC46F010EC56F2E
:102F4C0065EC07F039D0530EC26F060EC36F230E1B
:102F5C00C46F020EC56F65EC07F02ED0530EC26F16
:102F6C00060EC36F020EC46F020EC56F65EC07F040
:102F7C0023D0530EC26F060EC36F390EC46F010EF1
:102F8C00C56F65EC07F018D01951000AA5E019516E
:102F9C00010AADE01951020AB5E01951030ABDE06E
:102FAC001951040AC5E01951050ACDE01951060A58
:102FBC00D5E01951070ADDE03D0EC26F700EC36FEC
:102FCC00000EC46F11EC09F00050172701501823A4
:102FDC00530E1A6F060E1B6FE9EC0EF000501727FC
:102FEC00015018233E0EC26F710EC36F000EC46FDA
:102FFC0011EC09F00050172701501823E6D20701F5
:10300C00140EC26F6F0EC36F000EC46F11EC09F07B
:10301C0000C017F701C018F7D50EC26F6F0EC36F43
:10302C00000EC46F11EC09F0005017270150182343
:10303C00530E1A6F060E1B6F2B0E1C6F000E1D6F9E
:10304C00C7EC0CF0AC0EC26F700EC36F000EC46FE9
:10305C0011EC09F00050172701501823530E1A6F6A
:10306C00060E1B6FE9EC0EF00050172701501823C9
:10307C003B0EC26F710EC36F000EC46F11EC09F0E2
:10308C000050172701501823530E1A6F060E1B6F92
:10309C0025C01CF79FEC0CF0560E1A6F060E1B6F1A
:1030AC0026C01CF79FEC0CF0590E1A6F060E1B6F06
:1030BC0027C01CF79FEC0CF05C0E1A6F060E1B6FF2
:1030CC0028C01CF79FEC0CF05F0E1A6F060E1B6FDE
:1030DC0029C01CF79FEC0CF0620E1A6F060E1B6FCA
:1030EC002AC01CF79FEC0CF00601646B860E0701DE
:1030FC00C26F700EC36F000EC46F11EC09F000505C
:10310C00172701501823530E1A6F060E1B6FE9EC8C
:10311C000EF00050172701501823380EC26F710E95
:10312C00C36F000EC46F11EC09F00050172701504B
:10313C001823530E1A6F060E1B6F3CC61CF73DC6A8
:10314C001DF7C7EC0CF0C80EC26F6F0EC36F000EEC
:10315C00C46F11EC09F00050172701501823530EBF
:10316C001A6F060E1B6FE9EC0EF00050172701507A
:10317C0018232F0EC26F710EC36F000EC46F11ECAB
:10318C0009F00050172701501823530E1A6F060E22
:10319C001B6F2F0E1C6F000E1D6FC7EC0CF0BE0EBC
:1031AC00C26F700EC36F000EC46F11EC09F00050AB
:1031BC00172701501823530E1A6F060E1B6FE9ECDC
:1031CC000EF000501727015018232C0EC26F710EF1
:1031DC00C36F000EC46F11EC09F00050172701509B
:1031EC001823530E1A6F060E1B6F370E1C6F000E32
:1031FC001D6FC7EC0CF0480EC26F700EC36F000E43
:10320C00C46F11EC09F00050172701501823530E0E
:10321C001A6F060E1B6FE9EC0EF0005017270150C9
:10322C001823350EC26F710EC36F000EC46F11ECF4
:10323C0009F00050172701501823530E1A6F060E71
:10324C001B6F330E1C6F000E1D6FC7EC0CF07C0E49
:10325C00C26F700EC36F000EC46F11EC09F00050FA
:10326C00172701501823530E1A6F060E1B6FE9EC2B
:10327C000EF00050172701501823320EC26F710E3A
:10328C00C36F000EC46F11EC09F0005017270150EA
:10329C0018239BD10701140EC26F6F0EC36F000E63
:1032AC00C46F11EC09F000C017F701C018F7D50E68
:1032BC00C26F6F0EC36F000EC46F11EC09F000509B
:1032CC001727015018236C0EC26F6F0EC36F000EC0
:1032DC00C46F11EC09F00050172701501823A80EE9
:1032EC00C26F610EC36F000EC46FC56F530EC66FF5
:1032FC00060EC76F8CEC07F0680EC26F700EC36FB2
:10330C00000EC46F11EC09F0005017270150182360
:10331C00530E1A6F060E1B6FE9EC0EF000501727B8
:10332C0001501823110EC26F710EC36F000EC46FC3
:10333C0011EC09F000501727015018231AC0C2F7DE
:10334C001BC0C3F7000EC46FC56F530EC66F060EBD
:10335C00C76F8CEC07F0A30EC26F700EC36F000E1C
:10336C00C46F11EC09F00050172701501823530EAD
:10337C001A6F060E1B6FE9EC0EF000501727015068
:10338C001823410EC26F710EC36F000EC46F11EC87
:10339C0009F0005017270150182337C41AF738C406
:1033AC001BF739C41CF73AC41DF716501A5F175097
:1033BC001B5B18501C5B19501D5B3AC300F0000ED0
:1033CC0003013ABFFF0E016E100E046E0E0E056E59
:1033DC00E9EC08F0005007011A2701501B23000EDE
:1033EC0001BEFF0E1C231D234B0E1E6F060E1F6FFE
:1033FC0006EC0FF0530E07011A6F060E1B6F4B0EE7
:10340C001C6F060E1D6F070E1E6F36EC09F0B50E05
:10341C00C26F700EC36F000EC46F11EC09F0005038
:10342C00172701501823530E1A6F060E1B6FE9EC69
:10343C000EF000501727015018230E0EC26F710E9C
:10344C00C36F000EC46F11EC09F000501727015028
:10345C001823BBD03FC4C2F740C4C3F741C4C4F760
:10346C0011EC09F000501727015018231CC0C2F7AB
:10347C001DC0C3F71EC0C4F711EC09F0005017278C
:10348C00015018234DC4C2F74EC4C3F74FC4C4F740
:10349C0011EC09F0005017270150182396D03FC4A7
:1034AC00C2F740C4C3F741C4C4F711EC09F0005093
:1034BC0017270150182322C0C2F723C0C3F724C01A
:1034CC00C4F711EC09F000501727015018234DC414
:1034DC00C2F74EC4C3F74FC4C4F711EC09F0005047
:1034EC0017270150182371D03FC4C2F740C4C3F74B
:1034FC0041C4C4F711EC09F00050172701501823F0
:10350C001FC0C2F720C0C3F721C0C4F711EC09F0EB
:10351C0000501727015018234DC4C2F74EC4C3F7EF
:10352C004FC4C4F711EC09F00050172701501823B1
:10353C004CD03FC4C2F740C4C3F741C4C4F711EC2C
:10354C0009F0005017270150182320C1C2F721C1E0
:10355C00C3F722C1C4F711EC09F000501727015032
:10356C0018234DC4C2F74EC4C3F74FC4C4F711ECB3
:10357C0009F0005017270150182327D00601945149
:10358C00730AD8B49CEF14F09451610AD8B4C5EF07
:10359C0014F09451620AD8B4B2EF15F09451630A46
:1035AC00D8B42DD59451640AD8B474D69451340A35
:1035BC00D8B450D79451330AD8B471D79451320A35
:1035CC0093E09451310AB5E0B4D71A4A1B2A17C7B5
:0835DC0000F018C701F0120015
:1035E4008FEC05F08FEC05F08FEC05F000C03DF694
:1035F4008FEC05F000C03CF68FEC05F000C03FF600
:103604008FEC05F000C03EF68FEC05F000C041F6EB
:103614008FEC05F000C040F68FEC05F08FEC05F060
:103624008FEC05F08FEC05F03EC600F03FC601F0CC
:10363400010E06013E5F000E3F5B005001100EE0DC
:103644008FEC05F0005201E0FBD78FEC05F08FEC16
:1036540005F08FEC05F08FEC05F0E6D7060140C6C7
:1036640000F041C601F0010E405F000E415B0050C6
:10367400011046E08FEC05F08FEC05F08FEC05F0BF
:1036840000C045F68FEC05F000C044F68FEC05F061
:103694008FEC05F08FEC05F08FEC05F08FEC05F066
:1036A4008FEC05F08FEC05F000C043F68FEC05F0CD
:1036B40000C042F6000E451902E1010E441911E161
:1036C4008FEC05F000C096F58FEC05F000C097F57F
:1036D4008FEC05F000C098F58FEC05F000C099F56B
:1036E4000FD042C600F043C601F0010E425F000E47
:1036F400435B0050011003E08FEC05F0F2D7AED726
:023704001200B1
:103706007A0E0701DC6F0F0EDD6F49EC00F000C08A
:1037160041F67B0EDC6F0F0EDD6F49EC00F000C04A
:1037260042F67A0EDF6F0F0EE06F3CC6E1F73DC63C
:10373600E2F733EC00F0060140530CE03EC6D9FF39
:103746003FC6DAFF6150DE1801E004D03E4B3F2B46
:103756004007F1D77A0E0701DF6F0F0EE06F41C603
:10376600E1F742C6E2F733EC00F040C600F0120083
:10377600B50E0701D26F190ED36FBB0ED46F190E9B
:10378600D56FAF0ED66F190ED76FD86B83EC02F0DC
:10379600B50ED26F190ED36F6B0ED46F050ED56FA3
:0E37A600060ED66F000ED76F58EC03F012001F
:1037B400000E0601411902E17B0E401950E18FEC25
:1037C40005F000C0D5F18FEC05F000C00EF38FECCE
:1037D40005F08FEC05F000C093F14A6B240E4A5DAE
:1037E40004E28FEC05F04A2BF9D78FEC05F000C00A
:1037F40049F68FEC05F000C048F68FEC05F000C0E8
:1038040047F68FEC05F000C046F646C600F047C602
:1038140001F048C602F049C603F0800E005E7E0E39
:10382400015AAA0E025A830E035A00C037F401C08B
:1038340038F402C039F403C03AF400C060F401C0A3
:1038440061F402C062F403C063F4660E01011E6FEA
:10385400040E1F6F010E07011A6FEFEC0BF0006AE4
:04386400016A1200E3
:10386800BAD08E0E07011A6F050E1B6F1C6B040E63
:103878001D6F000E1E6F36EC0DF0010E1A6F1B6BDC
:1038880054EC0DF016C07BF517C07CF518C07DF51B
:1038980019C07EF5030E02017F6FB0D0050E050139
:1038A8007B25016E000E7C21026E000E7D21036EC9
:1038B800000E7E21046E1950045C08E11850035C68
:1038C80005E11750025C02E11650015C03E2020EAA
:1038D80002017F6F90EC0AF00050020A04E1040E26
:1038E80002017F6F01D08AD0030E07011A6F9BC2B5
:1038F8001BF754EC0DF016C07BF517C07CF518C00B
:103908007DF519C07EF5050E02017F6F77D090EC2A
:103918000AF000C03CF60050060A04E1040E020159
:103928007F6F2FD006013C51050A2BE116C07BF5AD
:1039380017C07CF518C07DF519C07EF5060E02018A
:103948007F6F8E0E0701D26F050ED36F2E0ED46FC8
:10395800050ED56F040ED66F000ED76F40EC02F03F
:103968003A0E1A6F050E1B6F360E1C6F050E1D6F73
:10397800770E1E6F050E1F6F5FEC0AF002019B6B3E
:103988003DD03CD0010E05017B25016E000E7C2147
:10399800026E000E7D21036E000E7E21046E04501F
:1039A800195C08E10350185C05E10250175C02E15C
:1039B8000150165C0FE30501010E325F000E335B08
:1039C800345B355B16C07BF517C07CF518C07DF5F8
:1039D80019C07EF513D002017F51020AD8B441D72D
:1039E8007F51030AD8B45AD77F51040AD8B47CD778
:0E39F8007F51050A8CE07F51060AC4E01200E0
:103A060006013D51190802E13C51AD0804E2AE0E33
:103A16003C5F190E3D5B7A0E0701DF6F0F0EE06FFC
:0E3A26003CC6E1F73DC6E2F733EC00F01200BB
:103A3400C90E0701D26F190ED36FCD0ED46F190EB4
:103A4400D56FCD0ED66F190ED76FD86B83EC02F0FD
:103A5400C90ED26F190ED36F8E0ED46F050ED56FAB
:0E3A6400040ED66F000ED76F58EC03F0120060
:103A720013C6DCF714C6DDF78BEC01F000C023F6A9
:103A82008FEC05F000C022F68FEC05F000C021F6A5
:103A92008FEC05F000C020F60601286B2D6B010E9D
:103AA2002E6F2B6B2C6B0C0E13250701DC6F000E97
:103AB200060114210701DD6F8BEC01F000C026F630
:103AC200000E0601276F2633269F2633269F000EFF
:103AD200276FFC0E2617FF0E2717370E0701C26F3E
:103AE200060EC36FC90EC46F190EC56F040EC66FE2
:103AF200000EC76F69EC05F00D0E060113250701D4
:103B0200DC6F000E060114210701DD6F8BEC01F062
:103B12003F0E00140601246F256B000E2517000EC0
:103B2200256F0E0E05019A5D0601296F000E050133
:103B32009B5906012A6F1151295F12512A5B2651A6
:103B4200295F27512A5B020E13250701DC6F000E45
:103B5200060114210701DD6F8BEC01F000C0DEF7D6
:103B620013C6DCF714C6DDF73CEC00F0030E0601C9
:103B720013250701DC6F000E060114210701DD6F1A
:103B82008BEC01F000C0DCF750EC00F022C6D2F75B
:103B920023C6D3F73BEC03F0040E060113250701FD
:103BA200DC6F000E060114210701DD6F8BEC01F0C2
:103BB20000C032F68FEC05F000C031F68FEC05F054
:103BC20000C030F68FEC05F000C02FF68FEC05F048
:103BD20000C036F68FEC05F000C035F68FEC05F02C
:103BE20000C034F68FEC05F000C033F6000E06017B
:103BF200251902E1020E241944E1010E2F25006E5F
:103C0200000E3021016E000E3121026E000E3221B3
:103C1200036E00C033F601C034F602C035F603C0AD
:103C220036F6120E246F000E256FEC0E0701DC6FC4
:103C32000E0EDD6F49EC00F000C02FF6ED0EDC6FCA
:103C42000E0EDD6F49EC00F000C030F67A0EDC6F2C
:103C52000F0EDD6F49EC00F000C031F67B0EDC6F19
:103C62000F0EDD6F49EC00F000C032F60601282B82
:103C7200180E266F000E276F2B6B2C6B0301046B43
:103C820070D0000E0601251902E1180E24192FE149
:103C92002FC615F630C616F631C617F632C618F616
:103CA20033C62FF634C630F635C631F636C632F68E
:103CB20029511525006E2A511621016E000E172179
:103CC200026E000E1821036E00C033F601C034F6F6
:103CD20002C035F603C036F6100E246F000E256FB3
:103CE200282B140E266F000E276F2D2B3AD0000EB4
:103CF200251902E1110E241934E12FC619F630C636
:103D02001AF631C61BF632C61CF633C62FF634C677
:103D120030F635C631F636C632F6010E1925006E7A
:103D2200000E1A21016E000E1B21026E000E1C21D4
:103D3200036E00C033F601C034F602C035F603C08C
:103D420036F6100E246F000E256F282B140E266FE8
:103D5200000E276F2B6B2C6B0301055302E1042B22
:103D6200056B06012853D8B40FD20601040E1325A1
:103D72000701D26F000E060114210701D36F32C66C
:103D8200D4F731C6D5F720EC04F030C6DCF750EC9E
:103D920000F02FC6DCF750EC00F036C6DCF750EC32
:103DA20000F035C6DCF750EC00F034C6DCF750EC1E
:103DB20000F033C6DCF750EC00F00C0E06011325C0
:103DC2000701DC6F000E060114210701DD6F8BEC89
:103DD20001F00F0E0014DE6F26C600F000360090D0
:103DE200003600900050DE130C0E06011325070169
:103DF200DC6F000E060114210701DD6F3CEC00F0C0
:103E02000D0E060113250701DC6F000E06011421B9
:103E12000701DD6F8BEC01F0C00E0014DE6F0601AE
:103E220024510701DE130D0E060113250701DC6F75
:103E3200000E060114210701DD6F3CEC00F0000EBC
:103E42000601251902E1120E241927E10E0E13258F
:103E52000701D26F000E060114210701D36F050E70
:103E6200D46FEE0ED56F20EC04F0140E060113256C
:103E72000701D26F000E060114210701D36F020E53
:103E8200D46F040ED56F20EC04F0050EDC6F50ECFD
:103E920000F0780EDC6F50EC00F0060111512B257A
:103EA200296F12512C212A6F2651292727512A23A3
:103EB2002E5302E05FDCBDDD0701BF0ED26F190E8B
:103EC200D36F2AC6D4F729C6D5F720EC04F0C70E63
:103ED200D26F190ED36FD46BD56B20EC04F0BD0EEC
:103EE200D26F190ED36F11C6D4F712C6D5F72BECC9
:103EF20004F0F60EDC6F0E0EDD6F49EC00F000C030
:103F02003BF6F70EDC6F0E0EDD6F49EC00F000C0E1
:103F1200D4F7C70ED26F190ED36F3BC6D5F720EC7C
:103F220004F0BD0E060129251E6F190E2A211F6FEE
:103F3200100E13250701D26F000E0601142107018E
:103F4200D36FD46BD56B20EC04F0010E060129155A
:103F52001D6F1EC6DCF71FC6DDF70701DE6B3CECEA
:103F620000F0C90ED26F190ED36FD10ED46F190E95
:103F7200D56F06011D511E250701D66F000E0601E1
:103F82001F210701D76FD86B83EC02F0080E0601E0
:103F92001E250701D26F000E06011F210701D36FF4
:103FA20006011D510701D227000ED323D46B060E42
:103FB200D56F20EC04F00A0E06011E250701D26F10
:103FC200000E06011F210701D36F06011D510701D3
:103FD200D227000ED32306012B512625036E2C5126
:103FE2002721046E04C000F0016A00C0D4F703C0A8
:103FF200D5F720EC04F013C6D2F714C6D3F70601A6
:104002002B5126250701D46F06012C5127210701C8
:10401200D56F0C0ED427000ED52306011D510701C2
:10402200D427000ED5232BEC04F0F60EDC6F0E0E17
:10403200DD6F49EC00F000C03BF6F70EDC6F0E0EB0
:10404200DD6F49EC00F000C0D4F7100E0601132515
:104052000701D26F000E060114210701D36F3BC680
:10406200D5F720EC04F00E0E060129250701D26FC8
:10407200000E06012A210701D36F9AEC01F0060116
:104082002D5358E0100E246F000E256F2D6B2E6BF2
:10409200E20E0701DF6F0E0EE06F060126511325B7
:1040A2000701E16F0601275114210701E26F33EC8A
:1040B20000F00E0E06010F253C6F000E10213D6F21
:1040C20011513C2712513D2326513C2727513D23B4
:1040D20099DC0301042B370E06013C6F060E3D6F7F
:1040E20022C63EF623C63FF620C640F621C641F65A
:1040F2000E0E05019A5D0601426F000E05019B59E5
:104102000601436F1151425F1251435B2651425FD8
:104112002751435B9C0E446F050E456F9EEC12F0D7
:1041220000C02BF601C02CF605019CB102D00301A0
:10413200046B1BD60301045327E006012B512F25E4
:10414200006E2C513021016E000E3121026E000EE4
:104152003221036E00C02FF601C030F602C031F6E4
:1041620003C032F6110E246F000E256F0301046B9B
:1041720006012E6B140E266F000E276F2B6B2C6B15
:0A418200010E0301056FF1D51200D4
:10418C0012C6DCF713C6DDF78BEC01F000C01DF690
:10419C008FEC05F000C01CF68FEC05F000C01BF690
:1041AC008FEC05F000C01AF6000E06011B1902E197
:1041BC00000E1A1901E190D08FEC05F000C01FF62B
:1041CC008FEC05F000C01EF6200E0701C26F060E24
:1041DC00C36FC90EC46F190EC56F040EC66F000EE7
:1041EC00C76F69EC05F0E20EDF6F0E0EE06F080E84
:1041FC00060112250701E16F000E060113210701CC
:10420C00E26F33EC00F00E0E06010F253C6F000E32
:10421C0010213D6F11513C27000E3D23080E3C2709
:10422C00000E3D2303EC1DF0000E06011D1902E1EA
:10423C00350E1C1903E1F2EC1AF04ED0000E1B19CE
:10424C0002E1440E1A1903E134EC1CF045D0200EA7
:10425C0006013C6F060E3D6F1CC63EF61DC63FF6B2
:10426C001AC640F61BC641F6080E1E5D426F000EC4
:10427C001F59436F9C0E446F050E456FDAEC1BF013
:10428C0000C01EF601C01FF60050011025E0140EF0
:10429C000701C26F060EC36FB50EC46F190EC56F42
:1042AC00060EC66F000EC76F69EC05F0140EC26FD8
:1042BC00060EC36F200EC46F060EC56F1AC6C6F766
:1042CC001BC6C7F71CC6C8F71DC6C9F71EC6CAF75A
:0A42DC001FC6CBF7C5EC05F0120079
:1042E600C40E0701DC6F190EDD6F8BEC01F000C008
:1042F6000FF6E6D0D50E06013C6F190E3D6F8E0EF9
:104306003E6F050E3F6F040E406F83EC1BF00050AE
:10431600000A4AE1C40EDC6F190EDD6F020EDE6F75
:104326003CEC00F0BBEC1BF0CB0ED26F190ED36F3A
:10433600CF0ED46F190ED56FD50ED66F190ED76F57
:10434600D86B83EC02F0CB0ED26F190ED36F8E0EA4
:10435600D46F050ED56F040ED66F000ED76F58ECCE
:1043660003F0C50ED26F190ED36FCB0ED46F190E94
:10437600D56FCF0ED66F190ED76FD86B83EC02F0C0
:10438600C50ED26F190ED36F6B0ED46F050ED56F97
:10439600060ED66F000ED76F58EC03F03C0ED26FA8
:1043A600000ED36F9AEC01F094D0AF0E06013C6F6D
:1043B600190E3D6F6B0E3E6F050E3F6F060E406F7A
:1043C60083EC1BF00050000A7AE1CB0E06013C6F2D
:1043D600190E3D6F80C53EF681C53FF6040E406F4F
:1043E60083EC1BF00050000A6AE10F0E006E000E0F
:1043F600016E80C204F0000E056EE9EC08F03E0E78
:104406000024C26F050E0120C36F090EC227000EDD
:10441600C323C50EC46F190EC56F060EC66F000EF8
:10442600C76F69EC05F00F0E006E000E016E80C2BC
:1044360004F0000E056EE9EC08F03E0E0024D26F83
:10444600050E0120D36F050ED227000ED32380C59B
:10445600D4F781C5D5F7040ED66F000ED76F40ECA2
:1044660002F00F0E006E000E016E80C204F0000E08
:10447600056EE9EC08F03E0E0024E16E050E012003
:10448600E26E010EE66E0F0E006E000E016E80C229
:1044960004F0000E056EE9EC08F03E0E0026050E4F
:1044A6000122010E0024E16E000E0120E26E16C00C
:1044B600E6FF17C0E6FF18C0E6FF19C0E6FF09D001
:1044C60006010F51010AD8B415D70F51020AD8B404
:0444D6006CD712008D
:1044DA0006010C6B05019C819C937A0E0701DF6F24
:1044EA000F0EE06F99C2E1F79AC2E2F733EC00F0DF
:1044FA0061CF99F20000000061CF9AF2000000003B
:10450A0061CF9AF50000000061CF9BF50000000022
:10451A0061CF0AF60000000061CF0BF60000000030
:10452A00040E05019A5F000E9B5B02019A5119085D
:10453A0002E19951AD0810E399B10ED006010BBF03
:10454A000BD005019B51050802E19A51EE0804E3DC
:10455A0006010AAF01D003D0010E006EE8D17A0E2F
:10456A000701DC6F0F0EDD6F49EC00F000C008F6A2
:10457A007B0EDC6F0F0EDD6F49EC00F000C009F610
:10458A0008C6D2F709C6D3F705019A5106010825CC
:10459A000701D46F05019B51060109210701D56F57
:1045AA00AF0ED66F190ED76F010ED86F83EC02F0DB
:1045BA00BB0EDC6F190EDD6F8BEC01F000C00BF641
:1045CA008FEC05F000C00AF606010B51080A02E159
:1045DA00060E0A1911E1BD0E3C6F190E3D6F060E4B
:1045EA003E6F030E3F6F070E406F83EC1BF00050C7
:1045FA00000A01E173DE6DD106010B51080A02E1DE
:10460A00000E0A19D8A462D1CD0E3C6F190E3D6F67
:10461A00920E3E6F050E3F6F040E406F83EC1BF047
:10462A00005202E105019C83CD0E06013C6F190E72
:10463A003D6FF30E3E6F020E3F6F040E406F83EC28
:10464A001BF0005202E105019C83CD0E06013C6F6E
:10465A00190E3D6F8E0E3E6F050E3F6F040E406FB2
:10466A0083EC1BF0005207E005019CB304D0020E54
:10467A0006010C6F2AD1BD0E0701DC6F190EDD6F22
:10468A008BEC01F0F00E0014016E0150400A04E0B8
:10469A00030E06010C6F19D1BD0E0701DC6F190E4E
:1046AA00DD6F8BEC01F000C006F6000E0601076F05
:1046BA000F0E0617000E071706370691073706373B
:1046CA0006910737C30E0701DC6F190EDD6F8BECFD
:1046DA0001F0BF0E0014016E0150000AD8A4F5D0F3
:1046EA00C40EDC6F190EDD6F8BEC01F00050000A6E
:1046FA00D8A4EBD0BD0E06010625046F190E0721BA
:10470A00056FC60E0701DC6F190EDD6F8BEC01F029
:10471A0000C003F60050010AD8A497D004C6DCF7FB
:10472A0005C6DDF78BEC01F00050080AD8A48CD03E
:10473A00010E060104250701DC6F000E06010521A2
:10474A000701DD6F8BEC01F00050000A7DE104C621
:10475A00DCF705C6DDF7DE6B3CEC00F0BBEC1BF0CA
:10476A001AEC1DF0C70ED26F190ED36FD46BD56B2E
:10477A0020EC04F0BD0ED26F190ED36F06C6D4F723
:10478A0007C6D5F72BEC04F0F60EDC6F0E0EDD6FC4
:10479A0049EC00F000C00DF6F70EDC6F0E0EDD6F6F
:1047AA0049EC00F000C0D4F7C70ED26F190ED36FD0
:1047BA000DC6D5F720EC04F0020E06010425070108
:1047CA00D26F000E060105210701D36FD46BD56B9A
:1047DA0020EC04F004C6D2F705C6D3F70601065149
:1047EA0005019A5D0701D46F0601075105019B591E
:1047FA000701D56F0E0ED45F000ED55B2BEC04F0CB
:10480A00F60EDC6F0E0EDD6F49EC00F000C00DF6FF
:10481A00F70EDC6F0E0EDD6F49EC00F000C0D4F726
:10482A00020E060104250701D26F000E06010521BA
:10483A000701D36F0DC6D5F720EC04F09AC5D2F75D
:10484A009BC5D3F79AEC01F040D006010351110A37
:10485A000CE108C60FF609C610F606C611F604C61C
:10486A0012F605C613F68DDC30D006010351060A8E
:10487A002CE1100E08250701DC6F000E0601092144
:10488A000701DD6F8BEC01F000C00EF606010D6B1F
:10489A008FEC05F000500D2505019A6F000E0601F8
:1048AA000E2105019B6F0E0E9A27000E9B2308C648
:1048BA000FF609C610F606C611F607C612F604C6A2
:1048CA0013F605C614F639EC1DF003D0040E0601E2
:1048DA000C6F0E01FE8D010E0201995D016E000E34
:1048EA009A59026E0250190802E10150AD080CE211
:1048FA00EC0E0701DF6F0E0EE06FAD0EE16F190EC1
:10490A00E26F33EC00F011D00701EC0EDF6F0E0EF0
:10491A00E06F010E0201995D0701E16F000E0201CD
:10492A009A590701E26F33EC00F00CC600F012004E
:10493A00050E0C6E090E0D6E0D2EFED70C2EFCD731
:02494A00120059
:10494C000601026B60AC03D0C2DD00C002F602C6E9
:04495C0000F0120055
:104960000601026BC80E025D04E2E7DFE6DF022B00
:04497000F9D7120061
:1049740005017F9102C61AF7EFEC0BF07F8112005C
:10498400F6C5B4FEEBDFFF0E0E01B217B60E07013B
:10499400DC6F0E0EDD6F49EC00F0F9C5E1FFFAC5DE
:1049A400E2FF00C0E6FFB70EDC6F0E0EDD6F49ECD0
:1049B40000F0F7C5E1FFF8C5E2FF00C0E6FF120012
:1049C4000501F6515A0806E3410EF65D03E3010EB4
:0849D400006E01D0006A120020
:1049DC00F6C5B4FEBFDFF8C5B6FEBCDFF7C5B7FE43
:0C49EC00B9DF0E018AA101D0FCD7120037
:1049F8000501F6517A0806E3610EF65D03E3010E40
:084A0800006E01D0006A1200EB
:104A100010D0800E0501F66F1AD0C00EF66F17D0B9
:104A2000940EF66F14D0D40EF66F11D0800EF66F80
:104A30000ED00501F651010AECE0F651020AEDE054
:104A4000F651030AEDE0F651040AEDE0EFD7F70561
:104A5000006EF651002600C0F6F500C01AF7EFEC24
:104A60000BF07F91FA6BFA51F825E96E000EF921EF
:104A7000EA6EEE520BE0FA51F825E96E000EF921CC
:104A8000EA6EEECF02F676DFFA2BEDD77F811200C9
:104A9000F6C5C2F7F7C5C3F7F30E0701C46F020EE0
:104AA000C56F040EC66F000EC76F94EC05F0000EC4
:104AB000011802E1000E001805E1F30E006E020E6F
:104AC000016E1DD2F6C5C2F7F7C5C3F7920E0701F6
:104AD000C46F050EC56F040EC66F000EC76F94EC51
:104AE00005F0000E011802E1000E001805E1F30EBA
:104AF000006E020E016E03D20501F96B040EF95D22
:104B00003AE2FE0EE16E050EE26EF951E126D8B0F2
:104B1000E22AF951F625E96E000EF721EA6E8E0EB3
:104B2000D96E050EDA6EF951D926D8B0DA2ADE50E0
:104B3000EE18006E00C0E6FFFE0E016E050E026E5E
:104B4000F9510126D8B0022A860ED96E050EDA6E0A
:104B5000F951D926D8B0DA2A01C0E9FF02C0EAFF2C
:104B6000DE50EE14006E01C0E1FF02C0E2FF00C0A3
:104B7000E6FFF92BC3D7FE0E0701C26F050EC36F08
:104B8000FF0EC46F020EC56F040EC66F000EC76F16
:104B900094EC05F0000E011802E1000E001806E08A
:104BA000820E0501806F050E816F04D0F6C580F579
:104BB000F7C581F50501FF0EFA6FFF0EFB6FFF0EC3
:104BC000FC6FFF0EFD6FF96B030EF95DD8B0F1D0ED
:104BD0000F0E006E000E016EF9C504F0000E056E9A
:104BE000E9EC08F03E0E0026050E0122010E00241D
:104BF000E96E000E0120EA6EE80EEE24016E030E4F
:104C0000EE20026E000EEE20036E000EEE20046E0B
:104C10001950045C08E11850035C05E11750025C70
:104C200002E11650015C2BE20F0E006E000E016EC9
:104C3000F9C504F0000E056EE9EC08F03E0E002602
:104C4000050E0122010E0024E16E000E0120E26E2D
:104C5000E66AE66AE66AE66A0F0E006E000E016E0C
:104C6000F9C504F0000E056EE9EC08F03E0E0024D4
:104C7000E16E050E0120E26EE66AF9C580F20F0EC4
:104C8000006E000E016EF9C504F0000E056EE9EC31
:104C900008F03E0E0024E96E050E0120EA6EEECF0C
:104CA00000F0005238E00F0E006E000E016EF9C5E4
:104CB00004F0000E056EE9EC08F03E0E002407013A
:104CC000C26F050E0120C36F050EC227000EC3235D
:104CD00080C5C4F781C5C5F7040EC66F000EC76F47
:104CE00094EC05F0000E011802E1000E001813E12B
:104CF0000F0E006E000E016EF9C504F0000E056E79
:104D0000E9EC08F03E0E0026050E0122090E0026F1
:104D1000000E0122F4D00F0E006E000E016EF9C5D8
:104D200004F0000E056EE9EC08F03E0E0026050EBC
:104D30000122010E0024E96E000E0120EA6EEECF82
:104D400001F0EECF02F0EECF03F0EECF04F005015C
:104D5000FD51045C08E1FC51035C05E1FB51025C80
:104D600002E1FA51015C23E20F0E006E000E016EAB
:104D7000F9C504F0000E056EE9EC08F03E0E0026C1
:104D8000050E0122010E0024E96E000E0120EA6EDC
:104D9000EECFFAF5EECFFBF5EECFFCF5EECFFDF55D
:104DA00000C0E1FF01C0E2FFE66AF9C580F2F92B1D
:104DB0000BD7AF0E0701D26F190ED36FF30ED46F5E
:104DC000020ED56F060ED66F000ED76F58EC03F0AB
:104DD0006B0ED26F050ED36F060ED46F000ED56F1B
:104DE00042EC03F0060ED26F080ED36F3BEC03F0DB
:104DF000880ED26F020ED36F080ED46F000ED56FDF
:104E000042EC03F06B0ED26F050ED36F060ED46F1B
:104E1000000ED56F42EC03F08E0ED26F050ED36FED
:104E2000040ED46F000ED56F42EC03F0810ED26FEA
:104E3000020ED36F060ED46F000ED56F42EC03F056
:104E400080C5D2F781C5D3F7040ED46F000ED56F9D
:104E500042EC03F02A0ED26F000ED36F9AEC01F0F1
:104E600016C0FAF517C0FBF518C0FCF519C0FDF522
:104E70000501F851FA25016E000EFB21026E000EAD
:104E8000FC21036E000EFD21046E0450195C08E144
:104E90000350185C05E10250175C02E10150165CFA
:104EA0002AE254DD0F0E006E000E016E80C204F087
:104EB000000E056EE9EC08F03E0E0024E96E050ECA
:104EC0000120EA6EEECF01F00150010A13E10F0E4E
:104ED000006E000E016E80C204F0000E056EE9EC5B
:104EE00008F03E0E0026050E0122090E0026000ED7
:104EF000012205D0BDD7000E006E000E016E12001B
:104F0000E3C5F6F5E4C5F7F5050E0501F86FC0DD5C
:104F100000C0EDF501C0EEF50150000A02E1000EFF
:104F2000001802E1006A25D0D90E0701D26F190ED0
:104F3000D36FE9C5D4F7EAC5D5F7EBC5D6F7ECC50D
:104F4000D7F758EC03F0EDC5C2F7EEC5C3F7E3C5DC
:104F5000C4F7E4C5C5F7E5C5C6F7E6C5C7F7E7C5B5
:104F6000C8F7E8C5C9F7EBC5CAF7ECC5CBF7C5EC80
:044F700005F0120036
:104F7400E3C5E9FFE4C5EAFFEE500501E51905E1E3
:104F8400E3C500F0E4C501F010D0E3C500F0E4C5CA
:104F940001F0E34BE42B00C0E9FF01C0EAFFEECFD0
:0C4FA40000F00052E5E1006A016A120012
:104FB0000501E35303E00D0E006E02D0050E006EF6
:104FC00000C0A0FEE35303E0310E006E02D0300EAD
:104FD000006E00C0A2FEAA0E0701DF6F0E0EE06F8A
:104FE000EE0EE16F050EE26F33EC00F00501E353C6
:104FF00003E0150E006E02D0120E006E00C0A4FE7B
:10500000120E0E01A66F0501E35303E10C0E0E0113
:10501000A76F6BC584FE6CC585FE6DC582FE6EC52F
:1050200083FE6FC580FE70C581FE0501F66BE40E40
:10503000F76F050EF86FE50EF96F050EFA6FA2DC3B
:105040000501F66BFE0EE415F76FE35303E0010E66
:10505000006E01D0006A0050F713E5C5F8F5BEDC1C
:10506000100E0501F66F010EF76F100EF86FB6DC2B
:10507000D28476DC3E0E07011A6F050E1B6F1C6B87
:0E5080002D0E1D6F000E1E6F36EC0DF012008F
:10508E008A0E0501F66F050EF76FE5C5F8F5F9DC2A
:10509E0000C0EAF501C0EBF50150000A02E1000E76
:1050AE00001805E1000E006E000E016EBDD0E20E7E
:1050BE000701DF6F0E0EE06FD90EE16F190EE26F72
:1050CE0033EC00F0E60ED26F020ED36F0C0ED46FDF
:1050DE00000ED56F42EC03F0E3C5EEF5E4C5EFF537
:1050EE00E3C5ECF5E4C5EDF5EEC5E9FFEFC5EAFF66
:1050FE00EE523BE00501F06BECC5E9FFEDC5EAFFB2
:10510E00EE520BE0ECC5E9FFEDC5EAFFEE502E0ABC
:10511E0004E0F02BEC4BED2BEFD70501EC4BED2B18
:10512E00F0C5DCF750EC00F0EEC5E9FFEFC5EAFF85
:10513E00EE5212E0EEC5E9FFEFC5EAFFEE502E0A81
:10514E000BE0EEC5E9FFEFC5EAFFEECFDCF750EC62
:10515E0000F0EE4BEF2BE8D7EEC5E9FFEFC5EAFF07
:10516E00EE5202E0EE4BEF2BBFD7F90E0701D26FD6
:10517E00020ED36F050ED46F000ED56F42EC03F006
:10518E000501966B976B986B996BE3C5C2F7E4C5F7
:10519E00C3F7CCEC08F0120E0024CA6F000E0120EB
:1051AE00CB6FEAC5C2F7EBC5C3F78A0EC46F050E07
:1051BE00C56F290EC66F090EC76F350EC86F000E6C
:1051CE00C96FC5EC05F00050000A05E1000E006E37
:1051DE00000E016E29D00501E5511624E66F000E72
:1051EE001720E76F000E1820E86F000E1920E96FE8
:1051FE009651000A15E1A6EC24F019500501E95D5F
:10520E0008E11850E85D05E11750E75D02E1165020
:10521E00E65D05E2000E006E000E016E05D0E8D7C9
:0A522E00960E006E050E016E1200D0
:10523800E3C5F6F5FCEC24F0005208E1E3C5F6F509
:10524800E2EC24F0005202E1006A02D0010E006E86
:02525800120042
:10525A001EC1E9FF1FC1EAFFEE50000A08E0000E76
:10526A0001011F1902E1000E1E1901E005D001011A
:10527A00660E1E6F040E1F6F1EC1C2F71FC1C3F751
:10528A00CCEC08F000C0E4F5100E005C27E2E50E55
:10529A00D26F050ED36F1EC1D4F71FC1D5F7E4C56F
:1052AA00D6F7000ED76F40EC02F0E50ED26F050E6E
:1052BA00D36F0501E4510701D227D8B0D32B660E6C
:1052CA00D46F040ED56F0501E45110080701D66F9B
:1052DA00D76B000ED75B40EC02F00ED0E50ED26F12
:1052EA00050ED36F1EC1D4F71FC1D5F7100ED66FA6
:1052FA00000ED76F40EC02F00501F56BE3C5F6F539
:10530A00010EF76FE50EF86F050EF96F08EC25F040
:02531A0012007F
:10531C000900F5CFE6FF0006FBE10106F9E11200FA
:10532C00939A939893909392939493968A9A8A983B
:10533C008A968A948A928A905DEC04F05DEC04F073
:10534C005DEC04F08A828A808A8A62EC05F08A9A83
:10535C005DEC04F08A8A62EC05F08A9A5DEC04F04C
:10536C008A8A62EC05F08A9A5DEC04F08A908A8A4B
:10537C0062EC05F08A9A5DEC04F08A8A62EC05F026
:10538C008A9A8A928A868A8A62EC05F08A9A5DECFD
:10539C0004F08A968A808A8A62EC05F08A9A8A904E
:1053AC008A8A62EC05F08A9A5DEC04F08A8A62ECD7
:1053BC0005F08A9A8A808A8A62EC05F08A9A5DECFA
:1053CC0004F08A908A8A62EC05F08A9A8A868A842A
:1053DC008A828A808A8A62EC05F08A9A5DEC04F0F3
:0653EC0005017F811200A3
:1053F200B0EC24F00E01FE9BFD91B0EC24F00E0106
:10540200FE8BFDB101D0FDD76B0E0701D26F050EE9
:10541200D36FADC5D4F7AEC5D5F7060ED66F000E65
:10542200D76F40EC02F08E0ED26F050ED36FAFC570
:10543200D4F7B0C5D5F7040ED66F000ED76F40EC87
:1054420002F0E80EDF6F0E0EE06FE16BE26B33EC01
:1054520000F0EA0EDF6F0E0EE06FAD0EE16F190E77
:10546200E26F33EC00F0EC0EDF6F0E0EE06FAD0E6C
:10547200E16F190EE26F33EC00F07A0EDF6F0F0E60
:10548200E06FE16BE26B33EC00F0E40EDF6F0E0EC7
:10549200E06FAE0EE16F190EE26F33EC00F0B1C5B2
:0654A200E3F585DD1200B8
:1054A800E4D0660E07011A6F040E1B6F1C6BC80E42
:1054B8001D6F000E1E6F36EC0DF004016051611176
:1054C8006211631146E0660E0701C26F040EC36FD6
:1054D800230EC46F010EC56F65EC07F0660EC26F30
:1054E800040EC36FCCEC08F0660E00241A6F040E8D
:1054F80001201B6F9D0E1C6F050E1D6F010E1E6F88
:1055080036EC09F0660EC26F040EC36F5E0EC46FF0
:10551800000EC56FEDEC06F0660EC26F040EC36F89
:10552800CCEC08F0660E00241A6F040E01201B6FE5
:105538002B0E1C6F000E1D6FC7EC0CF0660EC26FB1
:10554800040EC36F3B0EC46F000EC56FEDEC06F082
:1055580027D00701660EC26F040EC36FBF0EC46F5B
:10556800000EC56F65EC07F0660EC26F040EC36FC0
:10557800CCEC08F0660E00241A6F040E01201B6F95
:105588002B0E1C6F000E1D6FC7EC0CF0660EC26F61
:10559800040EC36F000EC46F010EC56FEDEC06F06C
:1055A800ADC5E3F556DE6CD004016051611162119E
:1055B80063110EE0660E07011A6F040E1B6F9D0E35
:1055C8001C6F050E1D6F010E1E6F36EC09F00BD017
:1055D8000701660EC26F040EC36FEF0EC46F000E94
:1055E800C56F65EC07F0ADC5F6F5010E0501F76F5F
:1055F800660EF86F040EF96F08EC25F041D004012F
:10560800605161116211631119E0660E07011A6F8A
:10561800040E1B6F9D0E1C6F050E1D6F020E1E6F74
:1056280036EC09F0ADC5F6F5040E0501F76F660E08
:10563800F86F040EF96F08EC25F016D0660E070116
:10564800C26F040EC36F6E0EC46F020EC56F65EC99
:1056580007F0ADC5F6F5010E0501F76F660EF86F98
:10566800040EF96F08EC25F00BD00501AE51000AC5
:10567800D8B417D7AE51010A97E0AE51020ABFE07D
:0256880012000E
:0A568A00820E006E050E016E120084
:0A5694008A0E006E050E016E120072
:10569E000301C853D8B490D0020E0501F66F010E67
:1056AE00F76F270EF86F030EF96F08EC25F03FC366
:1056BE00E3F5BBDD00522BE03B0E07011A6F030E24
:1056CE001B6F1C6B040E1D6F000E1E6F36EC0DF063
:1056DE003F0E0501E36F030EE46F050EE56FD0DCA0
:1056EE0000C0DFF501C0E0F5005001100FE03B0EE9
:1056FE000701D26F030ED36FDFC5D4F7E0C5D5F720
:10570E00040ED66F000ED76F40EC02F050D03F0E55
:10571E000501E16F030EE26FE1C51AF7E2C51BF753
:10572E0035EC0CF000C03BF3E1C5E3F5E2C5E4F562
:10573E002E0E0501E56F17DC004A012A00C0E1F5C7
:10574E0001C0E2F500C01AF701C01BF735EC0CF0F2
:10575E0000C03CF3E1C5E3F5E2C5E4F52E0E05010C
:10576E00E56F01DC004A012A00C0E1F501C0E2F557
:10577E0000C01AF701C01BF735EC0CF000C03DF36A
:10578E00E1C5E3F5E2C5E4F52E0E0501E56FBAECD1
:10579E0027F0004A012A00C0E1F501C0E2F500C081
:1057AE001AF701C01BF735EC0CF000C03EF303EC0A
:1057BE0000F00301C86BBF6BBF5301E035D0AD0ED7
:1057CE0007011A6F050E1B6F1C6B300E1D6F000E3E
:1057DE001E6F36EC0DF0190E0501AD6F0A0EAF6F90
:1057EE00FA0EB06F440EB36F100EB66F3B0EE36F32
:1057FE00030EE46F7B0EE56F000EE66F7B0EE76F18
:10580E00000EE86FAD0EE96F050EEA6F300EEB6F0E
:10581E00000EEC6F80EC27F0010E0301BF6F040148
:0A582E00606B616B626B636B12002C
:0A5838008E0E006E050E016E1200C8
:105842002E0E07011A6F050E1B6F1C6B040E1D6FC7
:10585200000E1E6F36EC0DF0020E02017F6F34EC6B
:105862001CF016C0AEF517C0AFF518C0B0F519C0E0
:10587200B1F505018E51000A1EE1A6EC24F00501E6
:10588200AD51AE25016E000EAF21026E000EB021A9
:10589200036E000EB121046E1950045C08E1185029
:1058A200035C05E11750025C02E11650015C02E262
:0C58B200006A03D0DED7010E006E120069
:0A58BE00860E006E050E016E12004A
:1058C800A6EC38F00F0EC16E070EB46EFC0E9216E1
:1058D800826ADC0E946E836A956AC00ED56EF29465
:1058E800F28AF28E1FDD010E07011A6FEFEC0BF042
:1058F8000C0E07011A6FEFEC0BF0010EF66F010E9C
:10590800F76FAD0EF86F020EF96F08EC25F0020E76
:10591800F66F010EF76F9C0EF86F020EF96F08EC28
:1059280025F0250EAD6F000EAE6F2B0EAF6F000E7B
:10593800B06F010EB16F59DD020E0501F66F010E51
:10594800F76FBE0EF86F020EF96F08EC25F070DFE6
:1059580000C0E9FF01C0EAFFEE50000A46E1050178
:10596800050EAD6F6ADF0050000A01E1F8D760DF6D
:1059780000C0D4F701C0D5F72B0E0701D26F000E77
:10598800D36F040ED66F000ED76F40EC02F093DF92
:1059980000C0D4F701C0D5F7370ED26F000ED36F11
:1059A800040ED66F000ED76F40EC02F06ADE00C01E
:1059B800D4F701C0D5F72F0ED26F000ED36F040EA7
:1059C800D66F000ED76F40EC02F060DE00C0D4F74F
:1059D80001C0D5F7330ED26F000ED36F040ED66F09
:1059E800000ED76F40EC02F00FD00701370E1A6F88
:1059F800000E1B6F2F0E1C6F000E1D6F330E1E6FD7
:105A0800000E1F6F5FEC0AF0A6EC24F044DE3AC3E8
:105A180000F0000E03013ABFFF0E016E026E036E26
