:10000000C1EF03F00000000000EF00F0000000006E
:0A0010000000000000000000F3D71C
:10001C000B1E0A1E091E081E082AD8B4092AD8B4B9
:08002C000A2AD8B40B2A1200C5
:100034000450085E0550D8A0053C095E0650D8A0BF
:10004400063C0A5E0750D8A0073C0B5E0336070E39
:100054000C6E0334083609360A360B36045003A0F6
:100064000ED0085E0550D8A0053C095E0650D8A005
:10007400063C0A5E0750D8A0073C0B5E0DD008264C
:100084000550D8B0053C09260650D8B0063C0A26CF
:100094000750D8B0073C0B2603360C2EDAD70234AF
:1000A400083609360A360B36045003A00ED0085E13
:1000B4000550D8A0053C095E0650D8A0063C0A5E4F
:1000C4000750D8A0073C0B5E0DD008260550D8B0C9
:1000D400053C09260650D8B0063C0A260750D8B07D
:1000E400073C0B260236070E0C6E0234083609361E
:1000F4000A360B36045002A00ED0085E0550D8A074
:10010400053C095E0650D8A0063C0A5E0750D8A0FC
:10011400073C0B5E0DD008260550D8B0053C0926D7
:100124000650D8B0063C0A260750D8B0073C0B2628
:1001340002360C2EDAD70134083609360A360B3665
:10014400045002A00ED0085E0550D8A0053C095EFC
:100154000650D8A0063C0A5E0750D8A0073C0B5EA8
:100164000DD008260550D8B0053C09260650D8B055
:10017400063C0A260750D8B0073C0B260136070E6A
:100184000C6E0134083609360A360B36045001A0C9
:100194000ED0085E0550D8A0053C095E0650D8A0D4
:1001A400063C0A5E0750D8A0073C0B5E0DD008261B
:1001B4000550D8B0053C09260650D8B0063C0A269E
:1001C4000750D8B0073C0B2601360C2EDAD7003482
:1001D400083609360A360B36045001A00ED0085EE4
:1001E4000550D8A0053C095E0650D8A0063C0A5E1E
:1001F4000750D8A0073C0B5E0DD008260550D8B098
:10020400053C09260650D8B0063C0A260750D8B04B
:10021400073C0B260036070E0C6E003408360936F0
:100224000A360B36045000A00ED0085E0550D8A044
:10023400053C095E0650D8A0063C0A5E0750D8A0CB
:10024400073C0B5E0DD008260550D8B0053C0926A6
:100254000650D8B0063C0A260750D8B0073C0B26F7
:1002640000360C2EDAD700B00ED004500826055004
:10027400D8B0053C09260650D8B0063C0A260750DB
:08028400D8B0073C0B26120064
:10028C000450000A12E10550000A0FE10650000A62
:10029C000CE10750000A09E1FF0E006EFF0E016E23
:1002AC00FF0E026E7F0E036E97D00C6A07BE0C2AEF
:1002BC000D6A0B6A0A6A096A086A03500210011077
:1002CC000010D8B484D0035007180E6E0EBE0D1E4D
:1002DC0007AE0BD0041E051E061E071E042AD8B43A
:1002EC00052AD8B4062AD8B4072A03AE0BD0001EB0
:1002FC00011E021E031E002AD8B4012AD8B4022AF9
:10030C00D8B4032A035007100E6E0EBE1CD08CDE20
:10031C000CBE36D00DAE5BD0001E011E021E031E9D
:10032C00002AD8B4012AD8B4022AD8B4032A081E49
:10033C00091E0A1E0B1E082AD8B4092AD8B40A2A88
:10034C00D8B40B2A44D007AE15D003BE0DD0035041
:10035C000B6E02500A6E0150096E0050086E036A53
:10036C00026A016A006AD6D7036A026A016A006AE5
:10037C00002A000C031E021E011E001E0C8EC7D785
:10038C00082AD8B4092AD8B40A2AD8B40B2A04509B
:10039C00085CD8A4BFD70550095CD8A4BBD70650BD
:1003AC000A5CD8A4B7D707500B5CD8A4B3D70B6A98
:1003BC000A6A096A086A002AD8B4012AD8B4022A3F
:1003CC00D8B4032A03AEA6D70E6A0E88FF0C0E6AA9
:0A03DC000CA001D01DDE000F12007E
:1003E6003506350635C001F035060150000803E232
:1003F60000000000F7D70000000000000000000029
:020406001200E2
:10040800220E0C6E086A096A0A6A0B6A0C06D8B4CE
:100418001FD0D8900B320A32093208320332023226
:1004280001320032D8A0F2D70C06D8B409D0045053
:1004380008260550092206500A2207500B22EAD73F
:10044800045008260550092206500A2207500B229C
:02045800120090
:10045A00000E006E7D0E016E000E026E036E12001B
:10046A0022C016F023C017F024C000F0010E026E5D
:10047A00005004E002360290FF0FFBD702C01FF0C3
:10048A00021C1C6E25C001F0010E006E015004E032
:10049A0000360090FF0FFBD700C01DF0001E00C001
:1004AA001EF0120E2224E96E000E2320EA6E02507C
:1004BA00EF120050EF16186A2A52D8A4181E120E0C
:1004CA00E95E1850000A03E01E50EF1602D01D50D4
:1004DA00EF12BEDFE80E046E030E056E000E066E06
:1004EA00076E8DDF00C02BF001C02CF002C02DF08A
:1004FA0003C02EF026C000F027C001F028C002F089
:10050A0029C003F000360090013602360336003661
:10051A0000900136023603360A0E046E000E056E8E
:10052A00066E076E6CDF00C02FF001C030F002C00B
:10053A0031F003C032F000C004F001C005F002C07F
:10054A0006F003C007F02BC000F02CC001F02DC04C
:10055A0002F02EC003F095DE00C033F001C034F083
:10056A0001C004F0056A0450051003E0020E006E93
:10057A0050D033C021F02FC004F030C005F031C094
:10058A0006F032C007F02BC000F02CC001F02DC0DD
:10059A0002F02EC003F075DE08C000F009C001F0B9
:1005AA000AC002F00BC003F000C02BF001C02CF00F
:1005BA0002C02DF003C02EF02FC005F030C006F0A7
:1005CA0031C007F032C008F008320732063205326D
:1005DA00089E08BC088E800E0818046E800E031848
:1005EA00045C08E10250075C05E10150065C02E187
:1005FA000050055CD8A0212A21C001F00132019ED9
:10060A0001C020F0070E015C03E2010E006E01D06A
:04061A00006A120060
:10061E0022C0E1FF23C0E2FFE66A010E256E246AC6
:10062E00159016C0E9FF17C0EAFF1850000A13E133
:10063E001F50EF14016E0150000A0CE015A009D0F6
:10064E0022C0E1FF23C0E2FFFF0EE66E24C000F0E1
:10065E0058D0EED712D01F50EF14016E0150000A81
:10066E000CE115A009D022C0E1FF23C0E2FFFF0E6E
:10067E00E66E24C000F045D0EED720C035F0ACDEDB
:10068E0021C035F0A9DE255215E01F50EF14016E82
:10069E000150000A02E02550241225362590020E44
:1006AE00215C356E99DE00000000000000000000A5
:1006BE000000E9D71850000A10E11F50EF14016E28
:1006CE000150000A010ED8A4000E006E22C0E1FFF8
:1006DE0023C0E2FF00C0E6FF0FD01F50EF14016EE3
:1006EE000150000A000ED8A4010E006E22C0E1FFD8
:1006FE0023C0E2FF00C0E6FF18502418006E00C0B1
:04070E0024F01200C1
:10071200010E236E1850221A16C0E9FF17C0EAFF15
:100722001850000A03E01D50EF1202D01E50EF16BF
:1007320021C035F057DE221E235216E02350221428
:10074200006E03E11D50EF1202D01E50EF16233649
:100752002390020E215C356E45DE00000000000091
:10076200000000000000E8D71850000A03E01E5005
:10077200EF1602D01D50EF1221C035F033DE120009
:100782000F013A6B936A8A6A820E226E0F0E236EF3
:10079200070E246E060E256E800E266E250E276E1F
:1007A200000E286E296E2A6A5FDE00C019F0005022
:1007B200000803E219C08AFFFFD7050E0B6E0F0E69
:1007C2000C6EF10E0D6E0D2EFED70C2EFCD70B2EDD
:1007D200FAD77A0E1A6E410E1A5C11E31AC022F091
:1007E20097DF050E0B6E0F0E0C6EF10E0D6E0D2EB9
:1007F200FED70C2EFCD70B2EFAD71A06ECD7190E01
:10080200226E000E236E0ADF00C01BF0195203E0B5
:1008120019C08AFF03D01BC022F07ADFF0D7FFD7BE
:020000040030CA
:0D000100331F3CFFBD81FF0FC00FE00F401B
:00000001FF
