:100000005BEF00F00000000000EF00F000000000D7
:0A0010000000000000000000F3D71C
:10001C00F2CF03F0F29E59C0F6FF5AC0F7FF5BC057
:10002C00F8FFA68EBF0EA616A684A688550EA76E40
:10003C00AA0EA76EA68200000A000000026A5DC02C
:10004C00E9FF5EC0EAFF010E025C16E2016A400E97
:10005C00015C07E2EECFF5FF00000F000000012A63
:10006C00F6D7A68EBF0EA616A684550EA76EAA0EA0
:10007C00A76EA682022AE7D7A69403BE02D0F29EF0
:06008C0001D0F28E12000B
:1000920059C0F6FF5AC0F7FF5BC0F8FF0800F5CF62
:0400A20000F0120058
:1000A6000900F5CFE6FF0006FBE10106F9E11200C3
:1000B600156A0F01396B8A6A936A150E0B6E4B0E21
:1000C6000C6EBE0E0D6E0D2EFED70C2EFCD70B2E13
:1000D600FAD70000000E166E400E176E156A400E17
:1000E600155C0FE2190EE16E000EE26E1550E12668
:1000F600D8B0E22A1550010F006E00C0E6FF152A9F
:10010600EED7150E0B6E4B0E0C6EBE0E0D6E0D2E33
:10011600FED70C2EFCD70B2EFAD7000016C059F0CE
:1001260017C05AF0000E5B6E5C6E190E5D6E000E07
:100136005E6E71DF000E166E400E176E156A400E6B
:10014600155C22E216C059F017C05AF0000E5B6E1D
:100156005C6E9CDF00C018F0164A172A1A0E0D6E48
:100166000D2EFED7000018C08AFF090E0B6E1E0E5C
:100176000C6EE40E0D6E0D2EFED70C2EFCD70B2E3C
:0A018600FAD70000152ADBD7FFD7D7
:020000040030CA
:0D000100331F3CFFBD81FF0FC00FE00F401B
:00000001FF
