:02000000662870
:0E0006008312031342088A004108820008009A
:1000140003208A110A128000840AC10A0319C20A41
:08002400F003031D0A28080087
:10002C0083120313470803178D00031348080317A3
:10003C008F0083168C170C140000000083120E081E
:0E004C00F100F0010C08F0040030F10408008F
:10005A0083120313F3017308033C031C65280B087E
:10006A00F200470803178D000313480803178F008F
:10007A007308F000F00D701003134908F0077008B8
:10008A008400000803178C00700A840000088E00A0
:10009A0083168C170C158B1355308D00AA308D00E2
:1000AA008C1400000000F21B5C288B135D288B1750
:1000BA000C1183120313C70A0319C80AF30A30285A
:0200CA0008002C
:1000CC0083120313A001AA30A1003F30A200AB3071
:1000DC00A3003F30A400AC30A5003F30A600AD30EB
:1000EC00A7003F30A800AE30A9003F30AA00AF30C7
:1000FC00AB003F30AC00B030AD003F30AE00B130A3
:10010C00AF003F30B000B230B1003F30B200B3307E
:10011C00B3003F30B400B430B5003F30B600B5305A
:10012C00B7003F30B800B630B9003F30BA00B73036
:10013C00BB003F30BC00B830BD003F30BE00B93012
:10014C00BF003F30C000831603178801890183125A
:10015C008713881386018316031386018312870184
:10016C00831687010630FB001330FC00AD30FD0018
:10017C00FD0BBE28FC0BBE28FB0BBE2800000000AC
:10018C0030308312C5000430C600A00104302002B8
:10019C000318FC280230FB000430FC00BA30FD00D0
:1001AC00FD0BD628FC0BD628FB0BD628000020080C
:1001BC00F000F101F00DF10D7010F00DF10D70105B
:1001CC0070084507C70046080318013E7107C800B0
:1001DC002008F000F00D7010F00D7010F00D701084
:1001EC007008213EC9002D20A00ACC280630FB0047
:1001FC001330FC00AD30FD00FD0B0229FC0B022975
:10020C00FB0B0229000000003030C5000430C60092
:10021C00A0011030200203183C294508C7004608ED
:10022C00C800162070080313C3007108C400C50A67
:10023C000319C60A0630FD00FD0B222900004308F5
:10024C0086004408F000F101700887000630FB00BE
:10025C001330FC00AD30FD00FD0B3229FC0B3229B4
:0E026C00FB0B322900000000A00A0F293C29DC
:04400E00F22F000786
:00000001FF
