:100000002BEF13F00000000000EF00F000000000F4
:0A0010000000000000000000F3D71C
:10001C0061C1E1FF62C1E2FF63C1E6FF64C1E6FFBB
:02002C001200C0
:10002E00E20E0101616F0E0E626F5EC163F15FC180
:0A003E0064F1EDDF60C161FF120004
:100048007A0E0101616F0F0E626F5EC163F15FC1CD
:0E00580064F1E0DF61CF60F160C100F01200E2
:060066005EC161FF120003
:0E006C005EC1E9FF5FC1EAFFEECF00F01200B7
:10007A00E20E0101616F0E0E626F54C163F155C148
:10008A0064F1C7DF585159110DE056C1E9FF57C154
:10009A00EAFFEECF61FF564B572B010E585F000E59
:0600AA00595BF0D71200C3
:1000B00001015D6B010E565F000E575B5A530DE058
:1000C0005751190802E15651AD0807E25D2BAD0EFC
:1000D000565D5B6F190E57595C6F5D5305E0AD0EB1
:1000E000016E190E026E04D056C101F057C102F024
:1000F0005551021802E1015054190DE154C15EF14D
:1001000055C15FF1A1DF00C060F158C15EF159C176
:100110005FF18DDF30D0F00E616F0E0E626F54C153
:1001200063F155C164F17ADFF20E616F0E0E626FFA
:100130005D5305E0AD0E006E190E016E04D056C180
:1001400000F057C101F000C063F101C064F166DF47
:10015000F40E616F0E0E626F58C163F159C164F104
:100160005DDFD298D28AD20E5E6F0F0E5F6F7EDF98
:1001700000AA01D0F8D75D531AE05451565D006EC5
:1001800055515759016E5B51005E5C51015A004A4E
:10019000012A0050582701505923010E5B5D566F0C
:1001A000000E5C59576F546B556B5D6B96D7120000
:1001B00056C104F057C105F054C102F055C103F017
:1001C00058C100F059C101F0010E0101585F000E45
:1001D000595B005001100FE004C0E9FF05C0EAFFC1
:1001E00002C0E1FF03C0E2FFEECFE6FF024A032AAE
:1001F000044A052AE5D754C100F055C101F01200A8
:10020000AE0E01015E6F190E5F6F606B10DFAE0EF8
:100210005425006E190E5521016E00C054F101C025
:1002200055F1E60E616F0E0E626F00C063F101C002
:1002300064F1F4DED286D20E5E6F0F0E5F6F16DFB2
:1002400000A601D0F8D7FD0E5E6F0E0E5F6F0EDFB9
:10025000060E0016005202E0006A02D0010E006E87
:0202600012008A
:10026200010156515425586F57515521596F010EAE
:10027200585F000E595BF00E616F0E0E626F54C133
:1002820063F155C164F1C9DEF20E616F0E0E626F49
:1002920058C163F159C164F1C0DE300ED212D20EE0
:1002A2005E6F0F0E5F6FE1DE00AA01D0F8D7120079
:1002B20054C15EF155C15FF156C160F1B7DE57C15D
:0602C2005EF1D0DE120027
:1002C80056C100F057C101F0010E0101565F000E42
:1002D800575B0050011009E054C1E9FF55C1EAFF1E
:0C02E800EECF61FF544B552BEBD71200FA
:0E02F40055C161FF0000000054C161FF1200FF
:10030200086A096A100E0C6E013408360936045068
:10031200085E0550D8A0053C095ED8B007D004504D
:1003220008260550D8B0053C0926D890003601367B
:060332000C2EEAD71200B8
:0E0338002D0E0D6E0D2EFED7000000001200DF
:0A03460061CF01F001C000F01200C9
:1003500001014A6B050E4A5D0AE24A514825E16EE9
:10036000000E4921E26E200EE66E4A2BF3D74A5169
:100370004825E16E000E4921E26EE66A4A074A51BD
:1003800048254B6F000E49214C6F0A0E046E000E7B
:10039000056E46C100F047C101F0B3DF08C000F0B0
:1003A00009C001F0300E00264BC1E1FF4CC1E2FF55
:1003B00000C0E6FF0A0E046E000E056E46C100F096
:1003C00047C101F09EDF00C046F101C047F1000EB9
:1003D000011802E1000E001801E102D04A07CFD750
:0203E000120009
:1003E20049C100F04AC101F0010E0101495F000E4E
:1003F2004A5B005001100FE046C1F6FF47C1F7FF0C
:1004020048C1F8FF0900F5CF61FF010E4627000E33
:0804120047234823E5D712003F
:10041A00AF0E0101546F190E556F46C156F147C10F
:10042A0057F1060E586F000E596F22DE5C0E546F9C
:10043A00000E556F060E566F000E576F40DF000E06
:10044A00546F080E556F51DF1C0E4E25516F000E6A
:10045A004F21526F000E546F450E556F46DF51C142
:10046A0054F152C155F141DFC7C054F1C8C055F12A
:10047A003CDF0001C74BC82B0101546B556B35DFBC
:10048A00110E546F800E556F30DF546B556B2DDF94
:10049A00B30E546F000E556F040E566F000E576F51
:1004AA000EDF48C154F149C155F1040E566F000ED2
:1004BA00576F05DF080E4E25516F000E4F21526F00
:1004CA004AC154F14BC155F110DF4CC154F14DC131
:1004DA0055F10BDF51C154F152C155F106DF546B8E
:1004EA00556B03DFBD0E546F190E556F140E566F00
:1004FA00000E576FB1DEF60E5E6F0E0E5F6FB1DD46
:10050A0000C053F1F70E5E6F0E0E5F6FAADD00C0DA
:10051A0056F1C70E546F190E556F53C157F1C4DE09
:10052A00010E5115506FD90E4E255E6F190E4F21CF
:10053A005F6F606B77DDC90E546F190E556FD10E60
:10054A00566F190E576FD90E4E25586F190E4F2137
:10055A00596F50515827000E59235A6BA4DDD90EF2
:10056A004E25546F190E4F21556F50515427000EC6
:10057A005523080E5427000E5523566B110E576F3C
:10058A0093DE52C15EF16ADD51C15EF167DDD10EC3
:10059A00546F190E556F0C0E5125566F000E5221CD
:1005AA00576F50515627000E572356DEF60E5E6FD0
:1005BA000E0E5F6F56DD00C053F1F70E5E6F0E0E22
:1005CA005F6F4FDD00C056F1D70E546F190E556F8D
:1005DA0053C157F169DE2A0E4E25546F000E4F2182
:0605EA00556F09DE12004E
:1005F00001014951FF0A02E1FF0E481909E07A0E94
:10060000616F0F0E626F48C163F149C164F106DD8D
:100610004AC100F04BC101F0010E4A5F000E4B5B76
:100620000050011009E046C1E1FF47C1E2FF61CF80
:0A063000E6FF464B472BECD7120003
:10063A0046C154F147C155F1B30E0101566F000E80
:10064A00576F040E586F000E596FADDD486B485155
:10065A00030821E348514625026E000E4721036E26
:10066A0002C0E9FF03C0EAFFEECF01F0AF0EE96E68
:10067A00000EEA6E4851E926D8B0EA2AFF0EEE18B3
:10068A00006E0150001202C0E1FF03C0E2FF00C089
:08069A00E6FF482BDCD712003B
:1006A200086A080E0C6E003408360450085ED8B092
:0E06B20002D00826D89000360C2EF5D7120084
:1006C0004AC101F04BC102F0010E01014A5F000E68
:1006D0004B5B000E021802E1000E01181FE046C13C
:1006E000E9FF47C1EAFF48C1D9FF49C1DAFFEE502F
:1006F000DE180FE046C1E9FF47C1EAFF48C1D9FF54
:1007000049C1DAFFDE50EE5C006E016A000E015A4C
:1007100007D0464B472B484B492BD2D7006A016A7A
:020720001200C5
:10072200AF0E0101546F000E556F3CC156F13DC131
:1007320057F1040E586F000E596F39DD7A0E546F5F
:10074200000E556F3EC156F13FC157F1040E586F6E
:10075200000E596F2CDD760E546F000E556F40C19E
:1007620056F141C157F1040E586F000E596F1FDD4B
:0C077200720E466F000E476F5FDF120032
:10077E000101426B436B3CC144F13DC145F1800E1A
:10078E003D19006E800E005C02E1000E3C5D0BE236
:10079E00010E426F000E436F3C510008446F3DC185
:1007AE0045F1000E455744C146F145C147F13EC1E2
:1007BE0048F13FC149F1C5DD060E406F000E416F95
:1007CE00000E006E4151005C02E14051000819E23A
:1007DE0040513E25E16E41513F21E26E010E405DDA
:1007EE00006E000E4159016E00503E25E96E01501B
:1007FE003F21EA6EEECFE6FF010E405F000E415B39
:10080E00DFD73EC1E1FF3FC1E2FF200EE66E42514F
:10081E0043111AE0406B416B40513E25E96E415148
:10082E003F21EA6EEE50200A03E1404B412BF4D7F4
:10083E00010E405F000E415B40513E25E16E41517D
:0A084E003F21E26E2D0EE66E12004F
:1008580001013F6B030E3F5D0AE23F513D25E16E0A
:10086800000E3E21E26E200EE66E3F2BF3D73F517D
:100878003D25E16E000E3E21E26EE66A3F073F51DC
:100888003D25406F000E3E21416F0A0E046E3CC1AB
:1008980000F003DF08C000F0300E002640C1E1FF81
:1008A80041C1E2FF00C0E6FF0A0E046E3CC100F041
:1008B800F4DE00C03CF10050000A01E102D03F071D
:0408C800DED7120065
:1008CC00050E0C6E090E0D6E0D2EFED70C2EFCD7E0
:0208DC00120008
:1008DE0001013F6B406B3CC100F03DC101F03EC1D8
:1008EE0002F0010E3C27000E3D233E2300C0F6FF12
:1008FE0001C0F7FF02C0F8FF0900F5CF00F000C0FD
:10090E0003F0005205E003C061FF3F4B402BE3D7DD
:0A091E003FC100F040C101F01200DB
:10092800F90E01013F6F000E406FE20E616F0E0E6F
:10093800626FD90E636F190E646F0EEC00F0EA0E49
:10094800466F2B0E476F000E486F0C0E496F000E56
:100958004A6F43DD3C51030A0CE13D530AE0540E53
:10096800546F000E556F040E566F000E576FA8DCBB
:1009780009D03E6B040E3E5D05E25E6B33EC00F081
:100988003E2BF8D73E6B0C0E3E5D05E25E6B33ECFA
:1009980000F03E2BF8D75C0E546F000E556F060E14
:1009A800566F000E576F8CDC3E6BCA0E3E5D05E23B
:1009B8005E6B33EC00F03E2BF8D7330E466F2C0EEF
:1009C800476F000E486F060E496F000E4A6F05DD2F
:1009D8003CC15EF133EC00F03C51030A17E13D5392
:1009E80015E1360E5E6F33EC00F0040E5E6F33ECEB
:1009F80000F06E0E546F000E556F040E566F000E09
:100A0800576F5EDC060E3F27000E4023390E466FF7
:100A18002C0E476F000E486F050E496F000E4A6F87
:100A2800DCDC3C51030A20E13D531EE1320E5E6FCF
:100A380033EC00F0040E5E6F33EC00F03E6B040EF6
:100A48003E5D0EE2540EE96E000EEA6E3E51E92656
:100A5800D8B0EA2AEECF5EF133EC00F03E2BEFD7A8
:100A6800060E3F27000E4023FF0E5E6F33EC00F0AA
:100A7800150E466F000E476F150E486F000E496F32
:100A8800440E4A6F000E4B6F430E4C6F000E4D6FB5
:0C0A98003FC14EF140C14FF1BCDC120028
:100AA4003CC102F03DC103F03FC100F040C101F080
:100AB400010E01013F5F000E405B0050011009E090
:100AC40002C0E1FF03C0E2FF3EC1E6FF024A032A7F
:0C0AD400EBD73CC100F03DC101F0120066
:100AE00001013C51390806E3300E3C5D03E3010E81
:080AF000006E01D0006A120043
:100AF80001013E6B3F6B3CC100F03DC101F03C4B36
:100B08003D2B00C0E9FF01C0EAFFEECF00F000C0B6
:100B180002F0005205E002C061FF3E4B3F2BEBD7CD
:0A0B28003EC100F03FC101F01200D1
:100B3200C26A070EC012C08E3CC100F0003600909F
:100B4200003600900050C212C2809CEC01F0C282BA
:100B5200C2A201D0FDD7C4CF01F0006AC350001277
:080B6200000E0112C290120006
:100B6A0001013E6B3C0E586E000E596E5A6E5B6E5A
:100B7A00A3EC01F000C03CF10050020AD8A416D13F
:100B8A003D6B0F0E3D5D04E2A3EC01F03D2BF9D75E
:100B9A00540E466F000E476FFF0E486FFF0E496FE7
:100BAA00040E4A6F000E4B6F1EDD3D6B080E3D5D55
:100BBA0004E2A3EC01F03D2BF9D73D6B060E3D5D37
:100BCA0012E2A3EC01F000C03CF15C0ED96E000EFB
:100BDA00DA6E3D51D926D8B0DA2A0050DE1801E083
:100BEA000FD13D2BEBD73D6BCE0E3D5D04E2A3EC5E
:100BFA0001F03D2BF9D73F6BA3EC01F000C03CF1AB
:100C0A00B8D0A3EC01F000C03CF10050010A05E1A4
:100C1A00A3EC01F000C03EF101D0F2D0C4D0A3ECA5
:100C2A0001F000C03CF10050040A0EE16A0E466F62
:100C3A00000E476FFF0E486FFF0E496F040E4A6F92
:100C4A00000E4B6FD0DC01D0DBD0ADD0A3EC01F0AD
:100C5A0000C03CF1040E005C0EE3660E466F000E07
:100C6A00476FFF0E486FFF0E496F040E4A6F000E62
:100C7A004B6FB9DC01D0C4D0040E3C5F3CC100F01C
:100C8A003C07005203E0A3EC01F0F8D78CD0A3ECA8
:100C9A0001F000C03CF1040E005C0EE3620E466FE8
:100CAA00000E476FFF0E486FFF0E496F040E4A6F22
:100CBA00000E4B6F98DC01D0A3D0040E3C5F3CC100
:100CCA0000F03C07005203E0A3EC01F0F8D76BD028
:100CDA00A3EC01F000C03CF10050040A0EE1400E02
:100CEA00466F010E476FFF0E486FFF0E496F040EE5
:100CFA004A6F000E4B6F77DC01D082D054D0010EC0
:100D0A003F6F51D0A3EC01F000C03CF10050040A3F
:100D1A0021E1580E466F000E476FFF0E486FFF0E17
:100D2A00496F040E4A6F000E4B6F5DDC5B50000882
:100D3A0008E15A50000805E15950070802E15850E5
:100D4A00080807E2080E585E070E595A000E5A5A4A
:100D5A005B5A01D055D027D0A3EC01F000C03CF17A
:100D6A003CC100F03C07005203E0A3EC01F0F8D7C5
:100D7A001AD03C51350AD8B444D73C51010AD8B4E8
:100D8A004ED73C51030AD8B461D73C51060AD8B4AD
:100D9A007ED73C51360A9CE03C51FF0AB0E03C51F8
:100DAA00330AB0E0D9D73F53D8B426D73E51020A06
:100DBA000FE16E0E546F000E556F400E566F010E06
:100DCA00576F040E586F000E596FD8EC00F015D00B
:100DDA006E0E466F000E476F400E486F010E496F48
:100DEA00040E4A6F000E4B6F66DC000E011802E11A
:100DFA00000E001802E001013E6B3EC100F001D076
:040E0A00006A120068
:100E0E0001013C517A0804E3610E3C5DD8B03C9B75
:060E1E003CC100F01200CF
:100E24000B6A0A6A096A00500402F4CF09F0F3CF8E
:100E340008F001500502F4CF0BF0F3CF0AF0005094
:100E44000502F3500926F4500A22E86A0B220150E5
:100E54000402F3500926F4500A22E86A0B2208C05F
:100E640000F009C001F00AC002F00BC003F0120048
:100E740001012E51190802E12D51AD0804E2AE0E14
:100E84002D5F190E2E5B7A0E616F0F0E626F2DC1EE
:0C0E940063F12EC164F10EEC00F01200BE
:100EA00001012D6BC80E2D5D04E210DD0FDD2D2B31
:040EB000F9D712005C
:100EB400B50E0101546F190E556FBB0E566F190E06
:100EC400576FAF0E586F190E596F5A6B58EC00F0EC
:100ED400B50E546F190E556F5C0E566F000E576F9A
:0E0EE400060E586F000E596F3DEC00F0120024
:100EF2007A0E01015E6F0F0E5F6F36EC00F000C0DC
:100F020032F17B0E5E6F0F0E5F6F36EC00F000C0A9
:100F120033F17A0E616F0F0E626F2DC163F12EC134
:100F220064F10EEC00F031530CE02FC1D9FF30C157
:100F3200DAFF6150DE1801E004D02F4B302B31076D
:100F4200F2D77A0E616F0F0E626F32C163F133C155
:0C0F520064F10EEC00F031C100F0120060
:100F5E002DC1E9FF2EC1EAFFEECF3CF1CD0E01010E
:100F6E003D6F000E3E6F71DC2E0E0001D06F010E34
:100F7E0001012D25E96E000E2E21EA6EEECF3CF119
:100F8E00D10E3D6F000E3E6F60DC2E0E0001D46F51
:100F9E00020E01012D25E96E000E2E21EA6EEECF16
:100FAE003CF1D50E3D6F000E3E6F4FDC2E0E000154
:100FBE00D86F030E01012D25E96E000E2E21EA6E6B
:100FCE00EECF3CF1D90E3D6F000E3E6F3EDC3A0E79
:100FDE000001DC6F2FC146F130C147F1DD0E01017A
:100FEE00486F000E496FA8EC01F05B0E0001E26F36
:100FFE0031C146F132C147F1E30E0101486F000ED7
:10100E00496FA8EC01F05D0E0001E86FE96B1C0E54
:10101E0001013325376F000E3421386FCD0E546F1A
:10102E00000E556F1C0E566F000E576F64EC01F0DC
:10103E0033C100F034C101F0010E335F000E345B9A
:10104E00005001100AE0A3EC01F000C03CF1D8DE24
:10105E0000C05EF133EC00F0EBD737C100F038C1C1
:04106E0001F012007B
:101072000101386B396B000E321902E1500E311941
:1010820003E0006A016A86D1376B0A0E375D12E20D
:10109200B80E3A6F000E3B6F37513A27D8B03B2B50
:1010A200A3EC01F03AC1E1FF3BC1E2FF00C0E6FF61
:1010B200372BEBD70001C26BB80E0101466F000E51
:1010C200476F4B0E486F000E496F050E4A6F000EB8
:1010D2004B6F60EC03F00050011003E0006A016AFC
:1010E20059D1010E4726000E482249224A22000108
:1010F200BD51730AD8A4F9D0BE0E01013C6F2B0E6C
:101102003D6F000E3E6F6FEC04F000C038F101C07D
:1011120039F1DD0E3C6F2B0E3D6F000E3E6F6FEC12
:1011220004F00050382701503923020E3C6F00DDD5
:1011320000C03CF101C03DF1CD0E01013E6F000E39
:101142003F6FBFEC03F02A0E3C6F2C0E3D6F000E7A
:101152003E6F6FEC04F00050382701503923CD0E5A
:101162003C6F000E3D6FC7DC005038270150392319
:10117200400E3C6F2C0E3D6F000E3E6F6FEC04F084
:101182000050382701503923060E3C6FD1DC00C0D5
:101192003CF101C03DF1CD0E01013E6F000E3F6FEB
:1011A200BFEC03F0210E3C6F2C0E3D6F000E3E6F24
:1011B2006FEC04F00050382701503923CD0E3C6FFC
:1011C200000E3D6F98DC00503827015039233E0E47
:1011D2003C6F2C0E3D6F000E3E6F6FEC04F0005022
:1011E2003827015039230D0E3C6F2C0E3D6F000E37
:1011F2003E6F6FEC04F0005038270150392381CF45
:101202003CF1000E3D6FCD0E3E6F000E3F6FBFEC06
:1012120003F0CD0E3C6F000E3D6F6DDC00503827A1
:1012220001503923420E3C6F2C0E3D6F000E3E6F73
:101232006FEC04F00050382701503923020E3C6F46
:101242002C0E3D6F000E3E6F6FEC04F000503827FD
:101252000150392383CF3CF1000E3D6FCD0E3E6F1E
:10126200000E3F6FBFEC03F0CD0E3C6F000E3D6FE2
:1012720042DC0050382701503923460E3C6F2C0EB9
:101282003D6F000E3E6F6FEC04F0005038270150A6
:10129200392347C03CF148C03DF1CD0E3E6F000EF0
:1012A2003F6FBFEC03F0180E3C6F2C0E3D6F000E2B
:1012B2003E6F6FEC04F00050382701503923CD0EF9
:1012C2003C6F000E3D6F17DC005038270150392368
:1012D200440E3C6F2C0E3D6F000E3E6F6FEC04F01F
:1012E20000503827015039231AD00001BD51740A29
:1012F20016E1BEC03CF170EC05F0005210E0300E79
:101302000001BE5D006E00C001F0010E006E0150D2
:1013120004E000360090FF0FFBD70050831A000E46
:101322000101391902E1000E381930E1BE0E3C6F9D
:101332002B0E3D6F000E3E6F6FEC04F000C038F1D3
:1013420001C039F1F60E3C6F2B0E3D6F000E3E6F61
:101352006FEC04F0005038270150392324C03CF1CF
:1013620025C03DF126C03EF16FEC04F00050382755
:101372000150392321C03CF122C03DF123C03EF18E
:101382006FEC04F0005038270150392338C100F0C7
:0613920039C101F0120058
:10139800C90E0101546F190E556FCD0E566F190EF7
:1013A800576FCD0E586F190E596F5A6B58EC00F0E5
:1013B800C90E546F190E556FB30E566F000E576F46
:0E13C800040E586F000E596F3DEC00F012003D
:1013D600A3EC01F0A3EC01F0A3EC01F000C02EF1A8
:1013E600A3EC01F000C02DF1A3EC01F000C030F138
:1013F600A3EC01F000C02FF1A3EC01F000C032F124
:10140600A3EC01F000C031F1A3EC01F0A3EC01F074
:10141600A3EC01F0A3EC01F02FC100F030C101F004
:10142600010E01012F5F000E305B005001100EE02F
:10143600A3EC01F0005201E0FBD7A3EC01F0A3EC12
:1014460001F0A3EC01F0A3EC01F0E6D7010131C1F4
:1014560000F032C101F0010E315F000E325B005028
:10146600011046E0A3EC01F0A3EC01F0A3EC01F0BF
:1014760000C036F1A3EC01F000C035F1A3EC01F099
:10148600A3EC01F0A3EC01F0A3EC01F0A3EC01F056
:10149600A3EC01F0A3EC01F000C034F1A3EC01F0E1
:1014A60000C033F1000E361902E1010E351911E1C3
:1014B600A3EC01F000C0EBF0A3EC01F000C0ECF0EF
:1014C600A3EC01F000C0EDF0A3EC01F000C0EEF0DB
:1014D6000FD033C100F034C101F0010E335F000EAE
:1014E600345B0050011003E0A3EC01F0F2D7AED755
:0214F6001200E2
:1014F800B1D0B30E01013C6F000E3D6F3E6B040E80
:101508003F6F000E406F52EC05F0010E3C6F3D6BD3
:1015180094EC04F037C0C9F038C0CAF039C0CBF039
:101528003AC0CCF0030E516EA6D0050E0001C925B5
:10153800016E000ECA21026E000ECB21036E000E52
:10154800CC21046E3A50045C08E13950035C05E193
:101558003850025C02E13750015C02E2020E516E23
:10156800B5EC05F00050020A03E1040E516E01D0FB
:1015780082D0030E01013C6F46C03DF194EC04F0AB
:1015880037C0C9F038C0CAF039C0CBF03AC0CCF087
:10159800050E516E70D0B5EC05F000C02DF100506D
:1015A800060A03E1040E516E2CD001012D51050AE3
:1015B80028E137C0C9F038C0CAF039C0CBF03AC00A
:1015C800CCF0060E516EB30E546F000E556F540ECC
:1015D800566F000E576F040E586F000E596FD8ECF7
:1015E80000F06A0E3C6F000E3D6F660E3E6F000EF7
:1015F8003F6F620E406F000E416F91EC03F0466A38
:101608003AD039D0010E0001C925016E000ECA2159
:10161800026E000ECB21036E000ECC21046E045026
:101628003A5C08E10350395C05E10250385C02E19C
:101638000150375C0EE3010E585E000E595A5A5A93
:101648005B5A37C0C9F038C0CAF039C0CBF03AC0CD
:10165800CCF011D05150020AD8B44BD75150030ADC
:10166800D8B463D75150040A84E05150050A93E076
:081678005150060AC7E0120000
:1016800001C1B4FE0DDC03C1B6FE0ADC02C1B7FE27
:0C16900007DC0E018AA101D0FCD712007B
:10169C0001C1B4FE50EC07F0FF0E0E01B217B60EEE
:1016AC0001015E6F0E0E5F6F36EC00F004C1E1FFBE
:1016BC0005C1E2FF00C0E6FFB70E5E6F0E0E5F6F56
:1016CC0036EC00F002C1E1FF03C1E2FF00C0E6FF0F
:0216DC001200FA
:1016DE0005C15EF106C15FF124EC00F000C014F10B
:1016EE00A3EC01F000C013F1A3EC01F000C012F165
:1016FE00A3EC01F000C011F1196B1E6B010E1F6FF0
:10170E001C6B1D6B0C0E05255E6F000E06215F6FA8
:10171E0024EC00F000C017F1000E186F1733179F5E
:10172E001733179F000E186FFC0E1717FF0E1817A2
:10173E00280E466F010E476FC90E486F190E496F7E
:10174E00040E4A6F000E4B6FF8EC02F00D0E0525DD
:10175E005E6F000E06215F6F24EC00F03F0E00144A
:10176E00156F166B000E1617000E166F0E0E00017B
:10177E00AD5D01011A6F000E0001AE5901011B6F24
:10178E0003511A5F04511B5B17511A5F18511B5BF3
:10179E00020E05255E6F000E06215F6F24EC00F031
:1017AE0000C060F105C15EF106C15FF117EC00F0FB
:1017BE00030E05255E6F000E06215F6F24EC00F010
:1017CE0000C05EF133EC00F013C154F114C155F1B9
:1017DE007AEC01F0040E05255E6F000E06215F6F98
:1017EE0024EC00F000C023F1A3EC01F000C022F1C4
:1017FE00A3EC01F000C021F1A3EC01F000C020F138
:10180E00A3EC01F000C027F1A3EC01F000C026F11B
:10181E00A3EC01F000C025F1A3EC01F000C024F10F
:10182E00000E161902E1020E151941E1010E2025D6
:10183E00006E000E2121016E000E2221026E000E9E
:10184E002321036E00C024F101C025F102C026F150
:10185E0003C027F1120E156F000E166FEC0E5E6FA1
:10186E000E0E5F6F36EC00F000C020F1ED0E5E6FD5
:10187E000E0E5F6F36EC00F000C021F17A0E5E6F37
:10188E000F0E5F6F36EC00F000C022F17B0E5E6F24
:10189E000F0E5F6F36EC00F000C023F1192B180EFF
:1018AE00176F000E186F1C6B1D6B3C6A6ED0000E0E
:1018BE00161902E1180E15192FE120C107F121C1E9
:1018CE0008F122C109F123C10AF124C120F125C179
:1018DE0021F126C122F127C123F11A510725006EED
:1018EE001B510821016E000E0921026E000E0A2105
:1018FE00036E00C024F101C025F102C026F103C021
:10190E0027F1100E156F000E166F192B140E176F90
:10191E00000E186F1E2B39D0000E161902E1110E93
:10192E00151933E120C10BF121C10CF122C10DF1CA
:10193E0023C10EF124C120F125C121F126C122F1CE
:10194E0027C123F1010E0B25006E000E0C21016E36
:10195E00000E0D21026E000E0E21036E00C024F14A
:10196E0001C025F102C026F103C027F1100E156F3C
:10197E00000E166F192B140E176F000E186F1C6BBE
:10198E001D6B455202E13C2A456A1953D8B4BFD1AA
:10199E000101040E0525546F000E0621556F23C15B
:1019AE0056F122C157F159EC01F021C15EF133EC31
:1019BE0000F020C15EF133EC00F027C15EF133EC94
:1019CE0000F026C15EF133EC00F025C15EF133EC80
:1019DE0000F024C15EF133EC00F00C0E05255E6FB5
:1019EE00000E06215F6F24EC00F00F0E0014606FE6
:1019FE0017C100F0003600900036009000506013C2
:101A0E000C0E05255E6F000E06215F6F17EC00F0C1
:101A1E000D0E05255E6F000E06215F6F24EC00F0A3
:101A2E00C00E0014606F155160130D0E05255E6F0C
:101A3E00000E06215F6F17EC00F0000E161902E182
:101A4E00120E151920E10E0E0525546F000E0621FB
:101A5E00556F050E566FEE0E576F59EC01F0140EC2
:101A6E000525546F000E0621556F020E566F040E9B
:101A7E00576F59EC01F0050E5E6F33EC00F0780EE7
:101A8E005E6F33EC00F003511C251A6F04511D21BB
:101A9E001B6F17511A2718511B231F5303E05AECC3
:101AAE0007F073DCBF0E546F190E556F1BC156F144
:101ABE001AC157F159EC01F0C70E546F190E556F3C
:101ACE00566B576B59EC01F0BD0E546F190E556FD6
:101ADE0003C156F104C157F131EC01F0F60E5E6F01
:101AEE000E0E5F6F36EC00F000C02CF1F70E5E6F3D
:101AFE000E0E5F6F36EC00F000C056F1C70E546F3D
:101B0E00190E556F2CC157F159EC01F0BD0E1A2567
:101B1E000F6F190E1B21106F100E0525546F000E3E
:101B2E000621556F566B576B59EC01F0010E1A15C5
:101B3E00006F0FC15EF110C15FF1606B17EC00F02A
:101B4E00C90E546F190E556FD10E566F190E576F71
:101B5E0000510F25586F000E1021596F5A6B58EC1B
:101B6E0000F0080E0F25546F000E1021556F005116
:101B7E005427000E5523566B060E576F59EC01F085
:101B8E000A0E0F25546F000E1021556F0051542769
:101B9E00000E55231C511725036E1D511821046E7E
:101BAE0004C000F0016A00C056F103C057F159ECB1
:101BBE0001F005C154F106C155F11C511725566FA0
:101BCE001D511821576F0C0E5627000E572300512A
:101BDE005627000E572331EC01F0F60E5E6F0E0EF7
:101BEE005F6F36EC00F000C02CF1F70E5E6F0E0E3C
:101BFE005F6F36EC00F000C056F1100E0525546FE5
:101C0E00000E0621556F2CC157F159EC01F00E0E46
:101C1E001A25546F000E1B21556F00EC01F01E5358
:101C2E0050E0100E156F000E166F1E6B1F6BE20E3E
:101C3E00616F0E0E626F17510525636F18510621E5
:101C4E00646F0EEC00F00E0E01252D6F000E0221BA
:101C5E002E6F03512D2704512E2317512D27185166
:101C6E002E233AEC07F03C2A280E2D6F010E2E6F14
:101C7E0013C12FF114C130F111C131F112C132F182
:101C8E000E0E0001AD5D0101336F000E0001AE5965
:101C9E000101346F0351335F0451345B1751335FCD
:101CAE001851345BB70E356F000E366F39EC08F0F5
:101CBE0000C01CF101C01DF10001B7B101D03C6A9A
:101CCE0067D63C5224E001011C512025006E1D51A7
:101CDE002121016E000E2221026E000E2321036EC1
:101CEE0000C020F101C021F102C022F103C023F196
:101CFE00110E156F000E166F3C6A1F6B140E176FC8
:101D0E00000E186F1C6B1D6B010E456E41D6120036
:101D1E00C40E01015E6F190E5F6F24EC00F000C05F
:101D2E0000F1E3D0D50E2D6F190E2E6FB30E2F6F5F
:101D3E00000E306F040E316F79EC07F00050000A80
:101D4E004AE1C40E5E6F190E5F6F020E606F17ECE4
:101D5E0000F05AEC07F0CB0E546F190E556FCF0EE4
:101D6E00566F190E576FD50E586F190E596F5A6B55
:101D7E0058EC00F0CB0E546F190E556FB30E566F14
:101D8E00000E576F040E586F000E596F3DEC00F0A9
:101D9E00C50E546F190E556FCB0E566F190E576F29
:101DAE00CF0E586F190E596F5A6B58EC00F0C50EC6
:101DBE00546F190E556F5C0E566F000E576F060E50
:101DCE00586F000E596F3DEC00F03C0E546F000E34
:101DDE00556F00EC01F091D0AF0E2D6F190E2E6FD6
:101DEE005C0E2F6F000E306F060E316F79EC07F020
:101DFE000050000A79E1CB0E2D6F190E2E6F7EC0AA
:101E0E002FF17FC030F1040E316F79EC07F00050E6
:101E1E00000A6AE10F0E006E000E016E3BC004F068
:101E2E00000E056E12EC07F0800E0024466F000EB9
:101E3E000120476F090E4627000E4723C50E486F37
:101E4E00190E496F060E4A6F000E4B6FF8EC02F03A
:101E5E000F0E006E000E016E3BC004F0000E056EFC
:101E6E0012EC07F0800E0024546F000E0120556F07
:101E7E00050E5427000E55237EC056F17FC057F134
:101E8E00040E586F000E596FD8EC00F00F0E006E56
:101E9E00000E016E3BC004F0000E056E12EC07F052
:101EAE00800E0024E16E000E0120E26E010EE66E41
:101EBE000F0E006E000E016E3BC004F0000E056E9C
:101ECE0012EC07F0800E0026000E0122010E0024F7
:101EDE00E16E000E0120E26E37C0E6FF38C0E6FF6D
:101EEE0039C0E6FF3AC0E6FF08D00051010AD8B467
:0C1EFE0019D70051020AD8B46FD71200A7
:101F0A0004C15EF105C15FF124EC00F000C00FF1DD
:101F1A00A3EC01F000C00EF1A3EC01F000C00DF13A
:101F2A00A3EC01F000C00CF1000E0D1902E1000E45
:101F3A000C1901E188D0A3EC01F000C011F1A3EC67
:101F4A0001F000C010F1120E466F010E476FC90E64
:101F5A00486F190E496F040E4A6F000E4B6FF8EC6A
:101F6A0002F0E20E616F0E0E626F080E0425636FB7
:101F7A00000E0521646F0EEC00F00E0E01252D6F88
:101F8A00000E02212E6F03512D27000E2E23080E5C
:101F9A002D27000E2E233AEC07F0000E0F1902E14E
:101FAA00350E0E1903E1EBEC09F04DD0000E0D19B8
:101FBA0002E1440E0C1903E17CEC0AF044D0120E43
:101FCA0001012D6F010E2E6F0EC12FF10FC130F1DD
:101FDA000CC131F10DC132F1080E105D336F000EE4
:101FEA001159346FB70E356F000E366FAFEC07F02C
:101FFA0000C010F101C011F10050011024E0060EDA
:10200A00466F010E476FB50E486F190E496F060EDF
:10201A004A6F000E4B6FF8EC02F0060E466F010E87
:10202A00476F120E486F010E496F0CC14AF10DC17C
:10203A004BF10EC14CF10FC14DF110C14EF111C15E
:08204A004FF10DEC02F0120051
:102052000001F45303E00D0E006E02D0050E006E77
:1020620000C0A0FEF45303E0310E006E02D0300E29
:10207200006E00C0A2FEAA0E0101616F0E0E626F19
:10208200EE0E636F050E646F0EEC00F00001F45368
:1020920003E0150E006E02D0120E006E00C0A4FE08
:1020A200120E0E01A66F0001F45303E10C0E0E0195
:1020B200A76F5CC084FE5DC085FE5EC082FE5FC00D
:1020C20083FE60C080FE61C081FE0101016BF50EDE
:1020D200026F000E036FF60E046F000E056F4EECDA
:1020E2000BF0016BFE0E0001F5150101026F0001FC
:1020F200F45303E0010E006E01D0006A00500101AA
:102102000213F6C003F140EC0BF0100E0101016F57
:10211200010E026F100E036F40EC0BF0D28450ECF4
:1021220007F0800E3C6F000E3D6F3E6B2D0E3F6F31
:0A213200000E406F52EC05F01200A1
:10213C000001FD6BB781B7937A0E0101616F0F0E31
:10214C00626F52C063F153C064F10EEC00F061CFCA
:10215C0052F00000000061CF53F00000000061CF8E
:10216C00ADF00000000061CFAEF00000000061CFC8
:10217C00FBF00000000061CFFCF000000000040E3A
:10218C000001AD5F000EAE5B5350190802E15250D6
:10219C00AD080DE352B00BD0FCBF09D0AE51050811
:1021AC0002E1AD51EE0803E3FBAF01D003D0010E09
:1021BC00006EDDD17A0E01015E6F0F0E5F6F36EC93
:1021CC0000F000C0F9F07B0E5E6F0F0E5F6F36EC07
:1021DC0000F000C0FAF0F9C054F1FAC055F100015A
:1021EC00AD51F9250101566F0001AE51FA210101E3
:1021FC00576FAF0E586F190E596F010E5A6F58EC7E
:10220C0000F0BB0E5E6F190E5F6F24EC00F000C087
:10221C00FCF0A3EC01F000C0FBF00001FC51080A3B
:10222C0002E1060EFB1912E1BD0E01012D6F190E14
:10223C002E6F3D0E2F6F000E306F070E316F79EC45
:10224C0007F00050000A01E164DD68D10001FC5187
:10225C00080A02E1000EFB19D8A45DD1CD0E0101D4
:10226C002D6F190E2E6F720E2F6F000E306F040E25
:10227C00316F79EC07F0005202E10001B783CD0E0B
:10228C0001012D6F190E2E6F150E2F6F000E306F72
:10229C00040E316F79EC07F0005202E10001B783B4
:1022AC00CD0E01012D6F190E2E6FB30E2F6F000E78
:1022BC00306F040E316F79EC07F0005206E000012C
:1022CC00B7B303D0020EFD6F25D1BD0E01015E6FB9
:1022DC00190E5F6F24EC00F0F00E0014016E01502B
:1022EC00400A04E0030E0001FD6F14D1BD0E010184
:1022FC005E6F190E5F6F24EC00F000C0F7F0000E5B
:10230C000001F86F0F0EF717000EF817F737F7915B
:10231C00F837F737F791F837C30E01015E6F190ED6
:10232C005F6F24EC00F0BF0E0014016E0150000A28
:10233C00D8A4F0D0C40E5E6F190E5F6F24EC00F0C1
:10234C000050000AD8A4E6D0BD0E0001F725F56FA9
:10235C00190EF821F66FC60E01015E6F190E5F6F34
:10236C0024EC00F000C0F4F00050010AD8A495D081
:10237C00F5C05EF1F6C05FF124EC00F00050080AE5
:10238C00D8A48AD0010E0001F52501015E6F000E64
:10239C000001F62101015F6F24EC00F00050000AEF
:1023AC007BE1F5C05EF1F6C05FF1606B17EC00F0FD
:1023BC005AEC07F0CCEC09F0C70E546F190E556FA0
:1023CC00566B576B59EC01F0BD0E546F190E556FCF
:1023DC00F7C056F1F8C057F131EC01F0F60E5E6F14
:1023EC000E0E5F6F36EC00F000C0FEF0F70E5E6F65
:1023FC000E0E5F6F36EC00F000C056F1C70E546F36
:10240C00190E556FFEC057F159EC01F0020E000188
:10241C00F5250101546F000E0001F6210101556FE5
:10242C00566B576B59EC01F0F5C054F1F6C055F1F1
:10243C000001F751AD5D0101566F0001F851AE5925
:10244C000101576F0E0E565F000E575B31EC01F019
:10245C00F60E5E6F0E0E5F6F36EC00F000C0FEF0F5
:10246C00F70E5E6F0E0E5F6F36EC00F000C056F18B
:10247C00020E0001F5250101546F000E0001F6213A
:10248C000101556FFEC057F159EC01F0ADC054F18C
:10249C00AEC055F100EC01F03DD00001F451110A31
:1024AC000CE1F9C001F1FAC002F1F7C003F1F5C07B
:1024BC0004F1F6C005F123DD2DD00001F451060A1C
:1024CC0029E1100EF92501015E6F000E0001FA21C1
:1024DC0001015F6F24EC00F000C0FFF00001FE6B07
:1024EC00A3EC01F00050FE25AD6F000EFF21AE6F86
:1024FC000E0EAD27000EAE23F9C001F1FAC002F1A9
:10250C00F7C003F1F8C004F1F5C005F1F6C006F10F
:10251C006FEC0BF003D0040E0001FD6F0E01FE8D6D
:10252C00010E525C016E000E5358026E02501908D7
:10253C0002E10150AD080CE2EC0E0101616F0E0ED0
:10254C00626FAD0E636F190E646F0EEC00F00DD060
:10255C000101EC0E616F0E0E626F010E525C636F27
:10256C00000E5358646F0EEC00F0FDC000F012002A
:10257C000900F5CFE6FF0006FBE10106F9E11200C8
:10258C0050EC07F00E01FE9BFD9150EC07F00E0194
:10259C00FE8BFDB101D0FDD75C0E0101546F000E16
:1025AC00556FEFC056F1F0C057F1060E586F000E84
:1025BC00596FD8EC00F0B30E546F000E556FF1C08C
:1025CC0056F1F2C057F1040E586F000E596FD8EC4B
:1025DC0000F0E80E616F0E0E626F636B646B0EECB5
:1025EC0000F0EA0E616F0E0E626FAD0E636F190E86
:1025FC00646F0EEC00F0EC0E616F0E0E626FAD0EA0
:10260C00636F190E646F0EEC00F07A0E616F0F0E93
:10261C00626F636B646B0EEC00F0E40E616F0E0E78
:10262C00626FAE0E636F190E646F0EEC00F0F3C0A8
:06263C00F4F009DD1200BC
:102642000001EF6B60AC03D078DD00C0EFF0EFC0AB
:0426520000F0120082
:1026560024EC16F0080EC16E070EB46E806AFC0EEE
:10266600926E816AFF0E936E836A956A1B0E000155
:10267600EF6F000EF06F270EF16F000EF26F010E76
:10268600F36F81DF330E3C6F000E3D6F2F0E3E6FF2
:10269600000E3F6F2B0E406F000E416F91EC03F062
:0626A600CDDFFED7FFD7D7
:102C480010EE15F03F0E006E010E016E7F0EF66E4F
:0E2C58002B0EF76E000EF86EBEEC12F012009E
:1026AC003C6D65746120687474702D657175697604
:1026BC003D22726566726573682220636F6E746565
:1026CC006E743D22333B75726C3D687474703A2F96
:1026DC002F3139322E3136382E32302E3630223ED2
:1026EC003C48544D4C3E3C484541443E3C2F4845AB
:1026FC0041443E3C424F44593E3C68313E50494374
:10270C0031384678784A3630204D696E69205765E5
:10271C0062205365727665723C2F68313E3C6120B5
:10272C00687265663D2F3E52656C6F61643C2F612B
:10273C003E3C736372697074207372633D2F733EF9
:10274C003C2F7363726970743E3C7461626C653EBD
:10275C003C74723E3C74642076616C69676E3D74A7
:10276C006F703E3C7461626C6520626F726465725E
:10277C003D31207374796C653D22666F6E742D73D8
:10278C00697A653A32307078203B666F6E742D66CC
:10279C00616D696C793A207465726D696E616C203B
:1027AC003B223E3C74723E3C746820636F6C7370C9
:1027BC00616E3D323E4144433C2F74683E3C2F7465
:1027CC00723E3C74723E3C74643E414E323C2F74FB
:1027DC00643E3C74643E3C7363726970743E646F17
:1027EC0063756D656E742E777269746528414E320F
:1027FC00293C2F7363726970743E3C2F74643E3CA9
:10280C002F74723E3C74723E3C74643E414E363CB6
:10281C002F74643E3C74643E3C7363726970743E06
:10282C00646F63756D656E742E777269746528417B
:10283C004E36293C2F7363726970743E3C2F74645E
:10284C003E3C2F74723E3C2F7461626C653E3C2F93
:10285C0074643E3C74643E3C7461626C6520626FCF
:10286C00726465723D31207374796C653D22666FBC
:10287C006E742D73697A653A32307078203B666FCE
:10288C006E742D66616D696C793A207465726D6930
:10289C006E616C203B223E3C74723E3C746820633B
:1028AC006F6C7370616E3D323E504F5254423C2FF0
:1028BC0074683E3C2F74723E3C7363726970743E54
:1028CC00766172207374722C693B7374723D222290
:1028DC003B666F7228693D303B693C383B692B2B5A
:1028EC00297B7374722B3D223C74723E3C746420C1
:1028FC006267636F6C6F723D70696E6B3E425554CC
:10290C00544F4E2023222B692B223C2F74643E22E1
:10291C003B696628504F5254422628313C3C692969
:10292C00297B7374722B3D223C7464206267636F45
:10293C006C6F723D7265643E4F4E223B7D656C73CD
:10294C0065207B7374722B3D223C74642062676338
:10295C006F6C6F723D236363636363633E4F4646E4
:10296C00223B7D7374722B3D223C2F74643E3C2FB2
:10297C0074723E223B7D646F63756D656E742E7749
:10298C00726974652873747229203B3C2F736372CF
:05299C006970743E00AB
:1029A1003C2F7461626C653E3C2F74643E3C7464E0
:1029B1002076616C69676E3D746F703E3C74616234
:1029C1006C6520626F726465723D31207374796C3D
:1029D100653D22666F6E742D73697A653A32307087
:1029E10078203B666F6E742D66616D696C793A2053
:1029F1007465726D696E616C203B223E3C74723E5F
:102A01003C746820636F6C7370616E3D333E504F50
:102A11005254443C2F74683E3C2F74723E3C7363A5
:102A2100726970743E766172207374722C693B73A3
:102A310074723D22223B666F7228693D303B693CCE
:102A4100333B692B2B297B7374722B3D223C7472AF
:102A51003E3C7464206267636F6C6F723D79656C94
:102A61006C6F773E4C45442023222B692B223C2F4F
:102A710074643E223B696628504F525444262831E3
:102A81003C3C6929297B7374722B3D223C74642080
:102A91006267636F6C6F723D7265643E4F4E223B9D
:102AA1007D656C7365207B7374722B3D223C74646D
:102AB100206267636F6C6F723D236363636363635B
:102AC1003E4F4646223B7D7374722B3D223C2F7450
:102AD100643E3C74643E3C6120687265663D2F74BF
:102AE100222B692B223E546F67676C653C2F613E38
:102AF1003C2F74643E3C2F74723E223B7D646F63B5
:102B0100756D656E742E7772697465287374722998
:102B1100203B3C2F7363726970743E3C2F74616279
:102B21006C653E3C2F74643E3C2F74723E3C2F74A6
:102B310061626C653E54686973206973204854541E
:102B410050207265717565737420233C73637269DB
:102B510070743E646F63756D656E742E77726974FF
:102B61006528524551293C2F7363726970743E3C4C
:0E2B71002F424F44593E3C2F48544D4C3E00DD
:062B7F00FFFFFFFFFFFF56
:062B85000014A576193FC3
:032B8B00A129007D
:032B8E00AC260072
:042B9100C0A8143C88
:042B9500C0A81401BF
:042B9900C0A814427A
:042B9D00FFFFFF0037
:042BA1000000000030
:012BA500002F
:012BA600002E
:082BA700000108000604000013
:012BAF000025
:012BB0000024
:042BB1000000000020
:062BB500474554202F00EB
:012BBB000019
:022BBC00000017
:102BBE00485454502F312E3120323030204F4B0A92
:0F2BCE00436F6E74656E742D747970653A2000D4
:0D2BDD00746578742F706C61696E0A0A00CF
:0C2BEA00010106001223344500008000A9
:0C2BF600746578742F68746D6C0A0A0016
:0B2C020076617220504F5254443D0098
:0B2C0D0076617220504F5254423D008F
:092C1800766172205245513D0025
:092C210076617220414E363D003F
:092C2A0076617220414E323D003A
:062C3300638253633501CA
:052C3900370301030652
:022C3E003B0059
:022C40003B0057
:022C42003B0055
:022C44003B0053
:022C46003B0051
:020000040001F9
:06FFF8008004040FF8076D
:00000001FF
