:1000000084EF06F00000000000EF00F000000000A8
:0A0010000000000000000000F3D71C
:0A001C00350E0D6E0D2EFED71200FA
:0A002600FADF8A88F8DF8A981200DA
:0A003000050E0D6E0D2EFED7120016
:0A003A00750E0D6E0D2EFED712009C
:10004400C30EC2167CC000F000360090003600904B
:100054000050C212F0DFC282C2A201D0FDD7C4CFC9
:1000640001F0006A00C07DF001C07EF0C3500012B0
:10007400000E011200C07DF001C07EF0000E0014DD
:10008400026E0150800B036E000E031802E1000E95
:10009400021803E000017D6B7E6B7DC000F07EC022
:0400A40001F0120055
:0E00A8008A988A848A967CC083FFB9DF120092
:1000B600FF0E956EBADFB9DF8A848A988A868A88A7
:1000C600AADF83CF7CF08A988A96AFDFAEDF956A87
:0600D6007CC000F01200E6
:1000DC007F0E00017C15006E00C07CF08A948A961D
:1000EC00BF0E001600C07CF0008C00C07CF000C07D
:0600FC0083FF93DF1200F8
:100102007F0E00017C15016E01C07CF001AC03D0B2
:0C0112008A808A9202D08A908A821200B1
:10011E008A948A96B80E00017C11836E7DDF1200E0
:10012E000B6A0A6A096A00500402F4CF09F0F3CF91
:10013E0008F001500502F4CF0BF0F3CF0AF0005097
:10014E000502F3500926F4500A22E86A0B220150E8
:10015E000402F3500926F4500A22E86A0B2208C062
:10016E0000F009C001F00AC002F00BC003F012004B
:10017E00000E0001765D0AE376517F0807E3000E5C
:10018E00775D04E377513F0801E301D04AD076C092
:10019E007CF0B0DF77C07CF07C337C9F7C337C9F1F
:1001AE007C337C9FB5DF76C07CF091DF7DDF00C0B5
:1001BE007BF07ADF00C07BF077C07CF07C337C9FD5
:1001CE007C337C9F7C337C9FA3DF76C07CF07FDF0B
:1001DE00070E7715006E00C079F000C001F0010E19
:1001EE00006E015004E000360090FF0FFBD700C0F8
:1001FE0079F0001C7A6F09D07A517B170FD07951A4
:10020E007B130CD079517B1B09D07851000AF4E096
:10021E007851010AF4E07851020AF4E07BC07CF0D8
:04022E003CDF12009F
:100232000B1E0A1E091E081E082AD8B4092AD8B4A1
:080242000A2AD8B40B2A1200AD
:10024A000B0E0C6E570E0D6E0D2EFED70C2EFCD714
:06025A000000000012008C
:100260000450085E0550D8A0053C095E0650D8A091
:10027000063C0A5E0750D8A0073C0B5E0336070E0B
:100280000C6E0334083609360A360B36045003A0C8
:100290000ED0085E0550D8A0053C095E0650D8A0D7
:1002A000063C0A5E0750D8A0073C0B5E0DD008261E
:1002B0000550D8B0053C09260650D8B0063C0A26A1
:1002C0000750D8B0073C0B2603360C2EDAD7023481
:1002D000083609360A360B36045003A00ED0085EE5
:1002E0000550D8A0053C095E0650D8A0063C0A5E21
:1002F0000750D8A0073C0B5E0DD008260550D8B09B
:10030000053C09260650D8B0063C0A260750D8B04E
:10031000073C0B260236070E0C6E023408360936EF
:100320000A360B36045002A00ED0085E0550D8A045
:10033000053C095E0650D8A0063C0A5E0750D8A0CE
:10034000073C0B5E0DD008260550D8B0053C0926A9
:100350000650D8B0063C0A260750D8B0073C0B26FA
:1003600002360C2EDAD70134083609360A360B3637
:10037000045002A00ED0085E0550D8A0053C095ECE
:100380000650D8A0063C0A5E0750D8A0073C0B5E7A
:100390000DD008260550D8B0053C09260650D8B027
:1003A000063C0A260750D8B0073C0B260136070E3C
:1003B0000C6E0134083609360A360B36045001A09B
:1003C0000ED0085E0550D8A0053C095E0650D8A0A6
:1003D000063C0A5E0750D8A0073C0B5E0DD00826ED
:1003E0000550D8B0053C09260650D8B0063C0A2670
:1003F0000750D8B0073C0B2601360C2EDAD7003454
:10040000083609360A360B36045001A00ED0085EB5
:100410000550D8A0053C095E0650D8A0063C0A5EEF
:100420000750D8A0073C0B5E0DD008260550D8B069
:10043000053C09260650D8B0063C0A260750D8B01D
:10044000073C0B260036070E0C6E003408360936C2
:100450000A360B36045000A00ED0085E0550D8A016
:10046000053C095E0650D8A0063C0A5E0750D8A09D
:10047000073C0B5E0DD008260550D8B0053C092678
:100480000650D8B0063C0A260750D8B0073C0B26C9
:1004900000360C2EDAD700B00ED0045008260550D6
:1004A000D8B0053C09260650D8B0063C0A260750AD
:0804B000D8B0073C0B26120036
:1004B800F250026EF29E0500FF6A0150FE6E005077
:0804C800FD6E02BEF28E12006F
:1004D000680E0C6EE40E0D6E0D2EFED70C2EFCD7A2
:0404E0000000120006
:1004E400436A416A426A939A939893949396939039
:1004F40093928A9A956A8A948A968A908A828A8A38
:100504003F0E836E8EDDC00E836E8BDD8A808A92F1
:0E0514003F0E836E86DDC00E836E83DD120007
:10052200000E00016F5D04E36F517F0801E301D00B
:1005320027D0000E6D5DD8A06D6B6D513F0802E2B1
:100542003F0E6D6F000E6E5DD8A06E6B6E513F0850
:1005520002E23F0E6E6F6D516E5D06E26DC060F09D
:100562006EC06DF060C06EF06D516E5D09E36FC0DC
:1005720076F06DC077F070C078F000DE6D2BF4D7A6
:02058200120065
:0A0584006DC05AF06EC05BF012006B
:10058E008A908A8200016E6B6E5107080EE36EC070
:10059E007CF0BEDD6D6B6D513F0805E360C07CF0F5
:1005AE007CDD6D2BF8D76E2BEFD78A928A806E6B1F
:1005BE006E5107080EE36EC07CF0AADD6D6B6D51B7
:1005CE003F0805E360C07CF068DD6D2BF8D76E2B1D
:0405DE00EFD7120041
:1005E2008D988D9A9698969A840E5A6E030E5B6E2B
:1005F2006DC058F06EC059F06FC05DF070C05EF013
:1006020071C052F072C05CF0506A516A4E6A4F6A11
:020612001200D4
:1006140000016F51070801E282D03F506D5D006E0A
:1006240040C001F0000E015657C004F0000E056EE4
:100634007CDD00C074F001C075F06EC07CF04CDD50
:100644006FC07CF06ADD606B5750605D49E26E51AB
:100654007F0801E264D06EC07CF051DD6FC07CF095
:100664005CDD6EC07CF038DD24DD00C071F021DD7E
:1006740000C071F06EC07CF042DD6FC07CF04DDDD7
:100684006EC07CF029DD74515424F66E75515520EA
:10069400F76E000E75BFFF0E5620F86E0900F5CFF9
:1006A40000F000C072F0744B752B001C736F09D0FE
:1006B40073C071F00FD072C071F00CD07251711B05
:1006C40009D07051000AF4E07051010AF4E070514D
:1006D400020AF4E071C07CF0E5DC6E2B602BB4D729
:1006E4006EC07CF00CDD6FC07CF017DD6EC07CF05A
:1006F400F3DCFF0E726F736B0CD072C071F072C0BA
:100704007CF0D0DC0CD073C071F073C07CF0CADC18
:1007140006D07051000AF1E07051010AF4E01200B1
:10072400440E3B6E000E3C6E7C0E3D6E000E3E6E23
:0C073400C26A0F0EC012C08EC2801200FC
:100740008D988D8A000E591802E1800E581808E124
:10075000000E5E1802E1400E5D1802E176DD01D068
:10076000B7DE3DC0E1FF3EC0E2FF5CC0E6FF3BC03C
:0A07700000F03CC001F0A0DE120012
:10077A000450000A12E10550000A0FE10650000A6F
:10078A000CE10750000A09E1FF0E006EFF0E016E30
:10079A00FF0E026E7F0E036E97D00C6A07BE0C2AFC
:1007AA000D6A0B6A0A6A096A086A03500210011084
:1007BA000010D8B484D0035007180E6E0EBE0D1E5A
:1007CA0007AE0BD0041E051E061E071E042AD8B447
:1007DA00052AD8B4062AD8B4072A03AE0BD0001EBD
:1007EA00011E021E031E002AD8B4012AD8B4022A06
:1007FA00D8B4032A035007100E6E0EBE1CD02BDD90
:10080A000CBE36D00DAE5BD0001E011E021E031EAA
:10081A00002AD8B4012AD8B4022AD8B4032A081E56
:10082A00091E0A1E0B1E082AD8B4092AD8B40A2A95
:10083A00D8B40B2A44D007AE15D003BE0DD003504E
:10084A000B6E02500A6E0150096E0050086E036A60
:10085A00026A016A006AD6D7036A026A016A006AF2
:10086A00002A000C031E021E011E001E0C8EC7D792
:10087A00082AD8B4092AD8B40A2AD8B40B2A0450A8
:10088A00085CD8A4BFD70550095CD8A4BBD70650CA
:10089A000A5CD8A4B7D707500B5CD8A4B3D70B6AA5
:1008AA000A6A096A086A002AD8B4012AD8B4022A4C
:1008BA00D8B4032A03AEA6D70E6A0E88FF0C0E6AB6
:0A08CA000CA001D0B1DC000F1200F9
:1008D400220E0C6E086A096A0A6A0B6A0C06D8B4FE
:1008E4001FD0D8900B320A32093208320332023256
:1008F40001320032D8A0F2D70C06D8B409D0045083
:1009040008260550092206500A2207500B22EAD76E
:10091400045008260550092206500A2207500B22CB
:020924001200BF
:10092600000E00016F5D04E36F513F0801E301D043
:1009360028D0000E6D5DD8A06D6B6D517F0802E268
:100946007F0E6D6F000E6E5DD8A06E6B6E517F08C8
:1009560002E27F0E6E6F6D516E5D06E26DC060F055
:100966006EC06DF060C06EF06D516E5D0AE36DC0D5
:1009760076F06FC077F070C078F0BFEC00F06D2BAA
:04098600F3D7120091
:10098A008D888D9A000E591802E1800E581808E1D8
:10099A00000E5E1802E1400E5D1802E151DC01D042
:1009AA0092DD3DC0E1FF3EC0E2FF52C0E6FF3BC020
:0A09BA0000F03CC001F07BDD1200EC
:1009C4000900F5CFE6FF0006FBE10106F9E112009C
:1009D4000F01258F24859784978A82DD0001606B3F
:1009E400D4DD0F012E9F9CDE800E00016D6F000E82
:1009F4006E6F400E6F6F000E706F0A0E716F070EF0
:100A0400726FEDDD840E6D6F030E6E6FB9DD120033
:100A1400BADF4A50005C0001656F4B500158666FA5
:100A24008DDE4650005C0001676F47500158686FC7
:100A340065C000F066C001F0000E66BFFF0E026ED6
:100A4400036E58C004F059C005F0000E066E076E20
:100A54003FDF4A50485C046E4B504958056E000E07
:100A6400066E076E88DE00C065F001C066F067C0E0
:100A740000F068C001F0000E000168BFFF0E026EB6
:100A8400036E5DC004F05EC005F0000E066E076ED6
:100A94001FDF46504C5C046E47504D58056E000EE7
:100AA400066E076E68DE00505D5C0001676F0150E2
:100AB4005E58686F800E6619006E800E005C02E15D
:100AC400000E655D07E35950665D02E15850655DAF
:100AD40001E203D0010E006E66D0800E6819006E2C
:100AE400800E005C02E1000E675D07E35E50685D06
:100AF40002E15D50675D01E203D0010E006E53D048
:100B04005050655D016E51506659026E01C069F026
:100B140002C06AF04E50675D6B6F4F5068596C6F3E
:100B240065C050F066C051F067C04EF068C04FF029
:100B3400800E000A006E800E0218005C02E1015073
:100B440005081DE3800E000A006E800E6C19005C1F
:100B540002E16B51050813E3800E6A19006E7F0EE3
:100B6400005C02E1FB0E695D0AE3800E6C19006E05
:100B74007F0E005C02E1FB0E6B5D01E303D0010E0E
:100B8400006E11D061C0E1FF62C0E2FF65C0E6FF04
:100B940066C0E6FF63C0E1FF64C0E2FF67C0E6FF32
:080BA40068C0E6FF006A1200C0
:100BAC008D988D9A25EC01F03DC0E1FF3EC0E2FF2F
:100BBC005CC0E6FF3BC000F03CC001F077DC0150AC
:100BCC005B5C02E100505A5C010ED8B0000E5F6E07
:100BDC0025EC01F03DC0E1FF3EC0E2FF5CC0E6FF4A
:100BEC003BC000F03CC001F061DC01505B5C02E1F9
:100BFC0000505A5C010ED8B0000E026E02505F1409
:080C0C00006E00C05FF0120051
:100C140062C05FF05F500001645D0BE361C06DF082
:100C240063C06EF05FC06FF065C070F07ADE5F2A5B
:040C3400F1D71200E2
:100C380061C04AF062C04BF063C048F064C049F03C
:100C480065C046F066C047F067C04CF068C04DF01C
:020C5800120088
:100C5A005F6A4350000A0EE1050E576E070E536E87
:100C6A007E0E546E110E556E000E566E200E3F6E9D
:100C7A00000E406E5F5000016125E96E000E622190
:100C8A00EA6EEE5216E05F506125E96E000E6221AF
:100C9A00EA6EEECF6DF063C06EF064C06FF065C0AF
:100CAA0070F0B3DC5750010F006E005063275F2AC3
:040CBA00E1D712006C
:100CBE0061C06DF063C06EF062C06FF065C070F021
:100CCE002BDE61C06DF063C06EF064C06FF065C066
:100CDE0070F022DE62C06DF064C06EF061C06FF025
:100CEE0065C070F017DC62C06DF064C06EF063C05A
:0A0CFE006FF065C070F00EDC12000C
:100D0800C0EC09F063DE150E616F010E626F580EBC
:100D1800636F0E0E646F580E656F020E666FAC0E31
:100D2800676F0D0E686F84DF1B0E616F000E626FB8
:100D3800140E636F050E646F010E656F8ADF520E25
:100D48000B6E2B0E0C6E000E0D6E0D2EFED70C2E9C
:100D5800FCD70B2EFAD70000606B15DC6D6B070E05
:100D68006E6F6F6B010E706F91EC02F02B0E616F5E
:100D7800000E626F010E636F646B656B6ADF6D6BEB
:100D8800070E6E6F610E6F6F010E706F91EC02F0BF
:100D9800310E616F000E626F620E636F646B656B7C
:100DA80058DF290E616F626B340E636F090E646F32
:100DB800010E656F80DF2D0E616F030E626F300EBE
:100DC800636F060E646F010E656F20DF3F0E616F63
:100DD800626B460E636F070E646F010E656F6BDF03
:100DE800420E616F030E626F430E636F040E646FF1
:100DF800010E656F0BDF500E616F626B560E636FED
:100E0800060E646F010E656F56DF530E766F030E84
:100E1800776F010E786FBFEC00F04580010E446ECD
:100E2800C1DE0052D8B4A5D1390E0001616F000EA1
:100E3800626F370E636F000E646FE8DD0050000AC2
:100E4800D8A497D1000E3A5C02E11F0E395CD8B0E5
:100E580075D0000E385C02E1080E375C6FE20001C5
:100E6800606BC7EC02F0290E616F626B340E636F22
:100E7800090E646F010E656F1EDF2D0E616F030E84
:100E8800626F300E636F060E646F010E656FBEDE13
:100E98003F0E616F626B460E636F070E646F010E43
:100EA800656F09DF420E616F030E626F430E636F59
:100EB800040E646F010E656FA9DE500E616F626BE0
:100EC800560E636F060E646F010E656FF4DE530EE7
:100ED800766F030E776F010E786FBFEC00F06D6BC5
:100EE800070E6E6F6F6B010E706F91EC02F02B0E98
:100EF800616F000E626F010E636F646B656BA9DE34
:100F08006D6B070E6E6F610E6F6F010E706F91EC57
:100F180002F045A00AD0310E616F000E626F620EBA
:100F2800636F646B656B95DE09D0150E616F000EFB
:100F3800626F620E636F646B656B8BDE000E006E12
:100F48003A50005C02E13950600837E2000E385C24
:100F580002E1080E375C31E245A018D00001459047
:100F6800150E616F000E626F620E636F646B656BC6
:100F780070DE290E0B6E960E0C6E7F0E0D6E0D2E0A
:100F8800FED70C2EFCD70B2EFAD717D000014580C0
:100F9800310E616F000E626F620E636F646B656B7A
:100FA80058DE290E0B6E960E0C6E7F0E0D6E0D2EF2
:100FB800FED70C2EFCD70B2EFAD7000E3A5C02E1B6
:100FC800290E395C12E3000E006E3A50005C02E113
:100FD800395034080AE3000E006E3850005C02E114
:100FE8003750090802E3030E446E000E3A5C02E132
:100FF8003F0E395C12E3000E006E3A50005C02E1CD
:10100800395046080AE3000E006E3850005C02E1D1
:101018003750070802E3020E446E000E3A5C02E104
:10102800500E395C12E3000E006E3A50005C02E18B
:10103800395056080AE3000E006E3850005C02E191
:101048003750060802E3010E446E000E385C02E1D8
:101058000B0E375C01E2E4D682D0000E3A5C02E166
:10106800000E395C21E3000E385C02E1000E375CAB
:101078001BE3000E006E3A50005C02E139507F0815
:1010880013E3000E006E3850005C02E137503F0851
:101098000BE3000139C076F037C077F0000E45B099
:1010A800010E786FBFEC00F064D0000E3A5C02E1EC
:1010B800000E395C26E3000E385C02E1000E375C56
:1010C80020E3000E006E3A50005C02E139507E08C1
:1010D80018E3000E006E3850005C02E137503E08FD
:1010E80010E3000139C061F037C062F03950010FD8
:1010F800636F3750010F646F000E45B0010E656FC6
:1011080085DD37D0000E3A5C02E1010E395C26E33A
:10111800000E385C02E1010E375C20E3000E006E21
:101128003A50005C02E139507D0818E3000E006E69
:101138003850005C02E137503D0810E300013904E3
:10114800616F3704626F020E3924636F020E372411
:10115800646F000E45B0010E656F58DD0AD044502B
:10116800010AD8B47AD74450020A9FE04450030ACF
:06117800C9E056D6FFD7C6
:1013800010EE15F0220E006E010E016E5E0EF66E6E
:0E139000130EF76E000EF86EE2EC04F0120081
:10117E00000000000000005F0000000700070014E0
:10118E007F147F14242A7F2A12231308646236499F
:10119E005522500005030000001C22410000412290
:1011AE001C00082A1C2A0808083E080800503000B7
:1011BE00000808080808003030000020100804025B
:1011CE003E5149453E00427F400042615149462111
:1011DE0041454B311814127F1027454545393C4A7D
:1011EE0049493001710905033649494936064949CD
:1011FE00291E003636000000563600000008142264
:10120E004114141414144122140800020151090649
:10121E00324979413E7E1111117E7F494949363E50
:10122E00414141227F4141221C7F494949417F0969
:10123E000901013E414151327F0808087F00417F7C
:10124E0041002040413F017F081422417F40404031
:10125E00407F0204027F7F0408107F3E4141413EE1
:10126E007F090909063E4151215E7F09192946462B
:10127E004949493101017F01013F4040403F1F2054
:10128E0040201F7F2018207F631408146303047806
:10129E000403615149454300007F41410204081097
:1012AE002041417F000004020102044040404040C2
:1012BE00000102040020545454787F4844443838C6
:1012CE0044444420384444487F3854545418087ECB
:1012DE00090102081454543C7F0804047800447D2C
:1012EE0040002040443D00007F10284400417F40D4
:1012FE00007C041804787C0804047838444444388C
:10130E007C14141408081414187C7C08040408486F
:10131E0054545420043F4440203C4040207C1C2028
:10132E0040201C3C4030403C44281028440C505077
:10133E00503C4464544C44000836410000007F0089
:10134E0000004136080008082A1C08081C2A080854
:06135E00575249544500FE
:101364005752495445204F4E2053435245454E0051
:06137400434C454152000C
:06137A00455241534500FD
:020000040030CA
:0E00000015137F7CF98B91FFFFC0FFE0FF40DE
:00000001FF
