:100000002FEF00F00000000000EF00F00000000003
:0A0010000000000000000000F3D71C
:0C001C003A0E0D6E0D2EFED700001200F3
:10002800C26A070EC012C08E17C000F000360090DA
:10003800003600900050C212C280ECDFC282C2A219
:1000480001D0FDD7C4CF01F0006AC3500012000EE2
:060058000112C29012002B
:10005E00020E0F01386F3A6B3B6B020E926E946A72
:10006E00956A010E176ED9DF00C015F001C016F0AB
:0C007E0000C08BFF16C08CFFF4D7FFD72A
:020000040030CA
:0D000100331F3CFFBD81FF0FC00FE00F401B
:00000001FF
