:100000006FEF04F00000000000EF00F000000000BF
:0A0010000000000000000000F3D71C
:0A001C00350E0D6E0D2EFED71200FA
:0A002600750E0D6E0D2EFED71200B0
:0A003000050E0D6E0D2EFED7120016
:10003A00C30EC216A2C000F000360090003600902F
:10004A000050C212EBDFC282C2A201D0FDD7C4CFD8
:10005A0001F0006A00C0A3F001C0A4F0C35000126E
:10006A00000E011200C0A3F001C0A4F0000E00149B
:10007A00026E0150800B036E000E031802E1000E9F
:10008A00021803E00001A36BA46BA3C000F0A4C094
:04009A0001F012005F
:0A009E00BEDF8A88BCDF8A981200DA
:0E00A8008A988A848A96A1C083FFF5DF120031
:1000B600FF0E956EBADFB9DF8A848A988A868A88A7
:1000C600AADF83CFA1F08A988A96AFDFAEDF956A62
:0600D600A1C000F01200C1
:1000DC007F0E0001A115006E00C0A1F08A948A96D3
:1000EC00BF0E001600C0A1F0008C00C0A1F000C033
:0600FC0083FFCFDF1200BC
:100102000B6A0A6A096A00500402F4CF09F0F3CFBD
:1001120008F001500502F4CF0BF0F3CF0AF00050C3
:100122000502F3500926F4500A22E86A0B22015014
:100132000402F3500926F4500A22E86A0B2208C08E
:1001420000F009C001F00AC002F00BC003F0120077
:100152007F0E0001A115016E01C0A1F001AC03D018
:0C0162008A808A9202D08A908A82120061
:10016E008A948A96B80E0001A111836E91DF120057
:10017E00F250026EF29E0500FF6A0150FE6E0050B4
:08018E00FD6E02BEF28E1200AC
:10019600150E0C6EC60E0D6E0D2EFED70C2EFCD750
:0401A6000000120043
:1001AA00680E0C6EE40E0D6E0D2EFED70C2EFCD7CB
:0401BA00000012002F
:1001BE0000019951070801E282D07E51975D006ED1
:1001CE007FC001F0000E015680C004F0000E056ED7
:1001DE0091DF00C09FF001C0A0F098C0A1F077DFC2
:1001EE0099C0A1F0BDDF9B6B80519B5D49E2985198
:1001FE007F0801E264D098C0A1F0A4DF99C0A1F0FD
:10020E00AFDF98C0A1F063DF4FDF00C09CF04CDF82
:10021E0000C09CF098C0A1F095DF99C0A1F0A0DFBE
:10022E0098C0A1F054DF9F517B25F66EA0517C2122
:10023E00F76E000EA0BFFF0E7D21F86E0900F5CF00
:10024E0000F000C09DF09F4BA02B001C9E6F09D0AC
:10025E009EC09CF00FD09DC09CF00CD09D519C1B5D
:10026E0009D09A51000AF4E09A51010AF4E09A5129
:10027E00020AF4E09CC0A1F010DF982B9B2BB4D7A0
:10028E0098C0A1F05FDF99C0A1F06ADF98C0A1F01D
:10029E001EDFFF0E9D6F9E6B0CD09DC09CF09DC00F
:1002AE00A1F0FBDE0CD09EC09CF09EC0A1F0F5DE4E
:1002BE0006D09A51000AF1E09A51010AF4E01200B8
:1002CE008D988D9A6BDF45C0E1FF46C0E2FF88C076
:1002DE00E6FF43C000F044C001F04ADF01500001C8
:1002EE007A5D02E10050795D010ED8B0000E976F75
:1002FE004BDF4ADF45C0E1FF46C0E2FF88C0E6FFA4
:10030E0043C000F044C001F033DF015000017A5DBC
:10031E0002E10050795D010ED8B0000E026E02505F
:0A032E009715006E00C097F0120052
:100338008D888D9A36DF45C0E1FF46C0E2FF60C078
:0E034800E6FF43C000F044C001F015DF1200D4
:100356008D988D8A27DF45C0E1FF46C0E2FF88C041
:0E036600E6FF43C000F044C001F006DF1200C5
:0A03740091C079F092C07AF01200F7
:10037E00000E0001915D0AE391517F0807E3000E24
:10038E00925D04E392513F0801E301D04AD091C03F
:10039E00A1F0D8DE92C0A1F0A133A19FA133A19FFD
:1003AE00A133A19FDDDE91C0A1F091DE7DDE00C004
:1003BE0096F07ADE00C096F092C0A1F0A133A19F14
:1003CE00A133A19FA133A19FCBDE91C0A1F07FDE0F
:1003DE00070E9215006E00C094F000C001F0010EE1
:1003EE00006E015004E000360090FF0FFBD700C0F6
:1003FE0094F0001C956F09D0955196170FD094511B
:10040E0096130CD09451961B09D09351000AF4E028
:10041E009351010AF4E09351020AF4E096C0A1F060
:04042E003CDE12009E
:100432008D988D9A9698969A840E0001796F030E84
:100442007A6F91C082F092C083F093C084F094C01E
:1004520085F095C060F096C088F0756B766B776B0F
:04046200786B1200A1
:100466005F6A0001866B876B939A93989394939631
:10047600939093928A9A956A8A948A968A908A82A7
:100486008A8A3F0E836E08DEC00E836E05DE8A8082
:100496008A923F0E836E00DEC00E836EFDDD120073
:1004A6008A908A820001936B935107080EE393C0EA
:1004B600A1F05ADE926B92513F0805E391C0A1F07C
:1004C600F0DD922BF8D7932BEFD78A928A80936B25
:1004D600935107080EE393C0A1F046DE926B92514A
:1004E6003F0805E391C0A1F0DCDD922BF8D7932BF2
:0404F600EFD712002A
:1004FA003A0E436E000E446EA20E456E000E466E14
:0C050A00C26A0F0EC012C08EC280120028
:1005160091C005F092C006F091C003F092C004F0BD
:100526000001914B922B93C000F094C001F095C04E
:1005360002F0010E9327000E9423952300C0F6FFC8
:1005460001C0F7FF02C0F8FF0900F5CF00F003C0B5
:10055600E1FF04C0E2FF00C0E6FF03C0E9FF04C0FC
:10056600EAFFEE5201E0D8D705C000F006C001F060
:02057600120071
:10057800AADE005201E1FCD7000E831902E1800EC9
:10058800821917E1000E851902E1400E841911E164
:10059800CFDE050E00240001716F000E0120726F7E
:1005A800D6DE050E00240001736F000E0120746F63
:1005B80010D0BEDE030E00240001716F000E012072
:1005C800726FC5DE030E00240001736F000E012058
:0405D800746F12002A
:1005DC0078DE005201E1FCD7000E831902E1800E97
:1005EC00821917E1000E851902E1400E841911E100
:1005FC009DDE0A0E005C00016D6F000E01586E6FDF
:10060C00A4DE0A0E005C00016F6F000E0158706FC3
:10061C0010D08CDE030E005C00016D6F000E0158D3
:10062C006E6F93DE030E005C00016F6F000E0158BD
:04063C00706F1200C9
:10064000086A096A100E0C6E013408360936045027
:10065000085E0550D8A0053C095ED8B007D004500C
:1006600008260550D8B0053C0926D890003601363A
:060670000C2EEAD7120077
:100676000001966B5F50000A0EE1050E806F070EB3
:10068600816F7C0E7B6F0A0E7C6F000E7D6F200ED5
:100696007E6F000E7F6F96519125E96E000E9221B6
:1006A600EA6EEE5216E096519125E96E000E922101
:1006B600EA6EEECF97F093C098F094C099F095C08B
:1006C6009AF07ADD8051010F006E00509327962B29
:0406D600E2D7120055
:1006DA000F01258F24859784978AC0DE916BDEDE11
:1006EA000F012E9F05DF800E0001916F000E926FA1
:1006FA00400E936F000E946F0A0E956F070E966F59
:0E070A0093DE840E916F030E926F2FDE1200AD
:100718000900F5CFE6FF0006FBE10106F9E112004A
:1007280000018D6B050E8D5D0AE28D518B25E16E02
:10073800000E8C21E26E200EE66E8D2BF3D78D51C4
:100748008B25E16E000E8C21E26EE66A8D078D51D5
:100758008B258E6F000E8C218F6F0A0E046E000E93
:10076800056E89C000F08AC001F066DF08C000F09D
:1007780009C001F0300E00268EC0E1FF8FC0E2FFF5
:1007880000C0E6FF0A0E046E000E056E89C000F078
:100798008AC001F051DF00C089F001C08AF0000E64
:1007A800011802E1000E001801E102D08D07CFD731
:0207B80012002D
:1007BA0089C0E1FF8AC0E2FF6DC0E6FF6EC0E6FFB6
:1007CA008BC0E1FF8CC0E2FF71C0E6FF72C0E6FF9A
:1007DA008DC0E1FF8EC0E2FF6FC0E6FF70C0E6FF8A
:1007EA008FC0E1FF90C0E2FF73C0E6FF74C0E6FF6E
:0207FA001200EB
:1007FC000001916B3F0E926F010E936FBADD470EA5
:10080C00916F000E926F8E0E936F0C0E946F000E04
:10081C00956F7BDE00C091F001C092F00C0E936FCF
:10082C00030E946F010E956F20DFD2DE520E0B6E0D
:10083C002B0E0C6E000E0D6E0D2EFED70C2EFCD753
:10084C000B2EFAD70000916B3F0E926F936B91DDDC
:10085C007F0E916F926B010E936F8BDD470E916F34
:10086C00000E926FA00E936F0C0E946F000E956F8E
:10087C004CDE00C091F001C092F00C0E936F030E91
:10088C00946F010E956FF1DE470E916F000E926F13
:10089C00B20E936F0C0E946F000E956F36DE00C087
:1008AC0091F001C092F00C0E936F040E946F010E38
:1008BC00956FDBDE5BDE520E0B6E2B0E0C6E000E9C
:1008CC000D6E0D2EFED70C2EFCD70B2EFAD700007A
:0208DC00120008
:1008DE0068EC06F0FBDE470E916F000E926FC40EB1
:1008EE00936F0C0E946F000E956F0EDE00C091F09C
:1008FE0001C092F0200E936F030E946F010E956F50
:10090E00B3DE520E0B6E2B0E0C6E000E0D6E0D2EF8
:10091E00FED70C2EFCD70B2EFAD70000916BBCDD48
:10092E0066DF5D0E896F000E8A6F690E8B6F000E8B
:10093E008C6F6B0E8D6F000E8E6F610E8F6F000EB3
:10094E00906F34DF5DC089F05EC08AF0630E8B6FEE
:10095E00000E8C6FE2DE69C089F06AC08AF0370E35
:10096E008B6F000E8C6FD9DE6BC089F06CC08AF075
:10097E003D0E8B6F000E8C6FD0DE61C089F062C0B1
:10098E008AF0310E8B6F000E8C6FC7DE916B84DD9B
:10099E00470E916F000E926F780E936F0C0E946F40
:1009AE00000E956FB1DD00C091F001C092F0010E06
:1009BE00936F010E946F010E956F56DE150E916FAB
:1009CE00000E926F010E936F030E946F010E956FD2
:1009DE004BDE230E916F000E926F010E936F040E7D
:1009EE00946F010E956F40DE2A0E916F000E926F7E
:1009FE00010E936F050E946F010E956F35DE1C0E72
:100A0E00916F000E926F010E936F060E946F010E92
:100A1E00956F2ADE630E916F000E926F320E936FFA
:100A2E00030E946F010E956F1FDE370E916F000E41
:100A3E00926F320E936F040E946F010E956F14DE4B
:100A4E003D0E916F000E926F320E936F050E946FE6
:100A5E00010E956F09DE310E916F000E926F320E00
:0E0A6E00936F060E946F010E956FFEDDFFD79D
:100CD00010EE15F01C0E006E010E016E5C0EF66E2D
:0E0CE0000C0EF76E000EF86E8CEC03F0120096
:100A7C00000000000000005F0000000700070014E9
:100A8C007F147F14242A7F2A1223130864623649A8
:100A9C005522500005030000001C22410000412299
:100AAC001C00082A1C2A0808083E080800503000C0
:100ABC000008080808080030300000201008040264
:100ACC003E5149453E00427F40004261514946211A
:100ADC0041454B311814127F1027454545393C4A86
:100AEC0049493001710905033649494936064949D6
:100AFC00291E00363600000056360000000814226D
:100B0C004114141414144122140800020151090652
:100B1C00324979413E7E1111117E7F494949363E59
:100B2C00414141227F4141221C7F494949417F0972
:100B3C000901013E414151327F0808087F00417F85
:100B4C0041002040413F017F081422417F4040403A
:100B5C00407F0204027F7F0408107F3E4141413EEA
:100B6C007F090909063E4151215E7F091929464634
:100B7C004949493101017F01013F4040403F1F205D
:100B8C0040201F7F2018207F63140814630304780F
:100B9C000403615149454300007F414102040810A0
:100BAC002041417F000004020102044040404040CB
:100BBC00000102040020545454787F4844443838CF
:100BCC0044444420384444487F3854545418087ED4
:100BDC00090102081454543C7F0804047800447D35
:100BEC0040002040443D00007F10284400417F40DD
:100BFC00007C041804787C08040478384444443895
:100C0C007C14141408081414187C7C080404084878
:100C1C0054545420043F4440203C4040207C1C2031
:100C2C0040201C3C4030403C44281028440C505080
:100C3C00503C4464544C44000836410000007F0092
:100C4C0000004136080008082A1C08081C2A08085D
:070C5C0058206D696E3A009B
:070C630059206D61783A0091
:070C6A0058206D61783A008B
:070C710059206D696E3A0085
:100C780043616C6962726174696F6E20636F6E7331
:060C880074616E7473003C
:100C8E00544F55434820424F54544F4D204C4546E7
:020C9E00540000
:100CA0002020202020202020202020202020202044
:020CB000200022
:100CB200544F5543482055505045522052494748B9
:020CC2005400DC
:0C0CC40043414C4942524154494F4E00FC
:020000040030CA
:0E00000015137F7CF98B91FFFFC0FFE0FF40DE
:00000001FF
