:02000000632873
:1000060012001E00F003031D0328F103031D03283D
:020016000800E0
:100018002000450823009100920120004608230093
:100028009200151395171514000000001408F1002C
:0C003800F0011308F0040030F10408008F
:10004400F4017408033C031C62280B08F30020002D
:1000540045082300910092012000460823009200E5
:100064007408F000F101F035F10D20004708F007A5
:100074004808F13D700884007108850000082300D9
:1000840093000130700784000030713D8500000842
:1000940094009517151515128B1355309600AA3038
:1000A4009600951400000000F31B5A288B135B285C
:1000B4008B1715112000C50A0319C60AF40A232850
:0200C400080032
:1000C600222123008C018D018F01900122009113C2
:1000D600931320008D0121008D0120008E01210047
:1000E6008E010630FB001330FC00AD30FD00FD0B29
:1000F6007A28FC0B7A28FB0B7A28000000003030A7
:100106002000C1000430C200C001043040020318C0
:10011600BC280230FB000430FC00BA30FD00FD0BA9
:100126009228FC0B9228FB0B922800004008F00056
:10013600F101F035F10DF035F10D70084107C500FC
:100146007108423DC6000330F2004008F000F1019C
:1001560072080319B228F035F10DFF3EAC282030A5
:100166007007C7000030713DC80022202000C00A79
:1001760088280630FB001330FC00AD30FD00FD0B77
:10018600C228FC0BC228FB0BC2280000000030303E
:10019600C1000430C200C001103040020318FC2820
:1001A6004108C5004208C6000C2070082000C300A4
:1001B6007108C400C10A0319C20A0630FD00FD0B0E
:1001C600E228000043088D004408F000F1017008A1
:1001D6008E000630FB001330FC00AD30FD00FD0B39
:1001E600F228FC0BF228FB0BF22800000000C00AE4
:0401F600CF28FC28EA
:1002440000308400813085002130F0000130F1005D
:0C025400203086000030870003200800E6
:10020000AA343F34AB343F34AC343F34AD343F34A4
:10021000AE343F34AF343F34B0343F34B1343F3484
:10022000B2343F34B3343F34B4343F34B5343F3464
:10023000B6343F34B7343F34B8343F34B9343F3444
:02024000003488
:020000040001F9
:04000E00E23F331684
:00000001FF
