:10000000E3EF03F00000000000EF00F0000000004C
:0A0010000000000000000000F3D71C
:10001C003CC003F03DC004F03EC005F03FC006F00C
:10002C0040A62CD003C002F00232029E0232029E85
:10003C000232029E050E016E04C000F0015004E075
:10004C0000360090FF0FFBD73AC0E1FF3BC0E2FF48
:10005C0000500210E66E3A4A3B2A050E016E03C0B0
:10006C0000F0015004E000360090FF0FFBD73AC0BF
:10007C00E1FF3BC0E2FF00C0E6FF42D0050E006E80
:10008C0005C002F0005004E00232029EFF0FFBD7C5
:10009C0006C000F00036009000360090003600904C
:1000AC003AC0E1FF3BC0E2FF00500210E66E3A4A54
:1000BC003B2A05C000F00036009000360090003658
:1000CC000090E00E0016080E0010016E030E0514D1
:1000DC00006E3AC0E1FF3BC0E2FF00500110E66E3B
:1000EC003A4A3B2A3AC0E1FF3BC0E2FF04C0E6FFBC
:1000FC003A4A3B2A3AC0E1FF3BC0E2FF03C0E6FFAD
:02010C001200DF
:10010E0034520AE033C06FFFE00E6E14016E0150E0
:0E011E00331801E0F9D702D033C06FFF120092
:10012C003350000A10E1180E3A6E0F0E3B6E34C0BD
:10013C003CF035C03DF036C03EF037C03FF038C023
:10014C0040F066DF0FD01C0E3A6E0F0E3B6E34C0C3
:10015C003CF035C03DF036C03EF037C03FF038C003
:06016C0040F056DF120016
:1001720060D0000E3A6E0F0E3B6E34C03CF035C0BC
:100182003DF036C03EF037C03FF038C040F045DFAA
:1001920060D0040E3A6E0F0E3B6E34C03CF035C098
:1001A2003DF036C03EF037C03FF038C040F035DF9A
:1001B20050D0080E3A6E0F0E3B6E34C03CF035C084
:1001C2003DF036C03EF037C03FF038C040F025DF8A
:1001D20040D00C0E3A6E0F0E3B6E34C03CF035C070
:1001E2003DF036C03EF037C03FF038C040F015DF7A
:1001F20030D0100E3A6E0F0E3B6E34C03CF035C05C
:100202003DF036C03EF037C03FF038C040F005DF69
:1002120020D0140E3A6E0F0E3B6E34C03CF035C047
:100222003DF036C03EF037C03FF038C040F0F5DE5A
:1002320010D03350000A9DE03350010AAAE0335037
:10024200020AB7E03350030AC4E03350040AD1E093
:04025200E0D71200DF
:10025600366A376A386A396A35A649D033C0E9FF43
:1002660034C0EAFFEECF02F0050E006E02C036F093
:10027600000E376E386E396E005004E03632369E08
:10028600FF0FFBD736C037F0366A386A396A02C0C4
:1002960000F0003600900036009000360090000E08
:1002A600386E396E00503612000E3712000E37BE09
:1002B600FF0E386E396E000E386E396E334A342AA8
:1002C60033C0E9FF34C0EAFFEECF02F0050E016E3F
:1002D60002C000F0015004E00032009EFF0FFBD781
:1002E60000503612000E37123812391272D033C04F
:1002F600E9FF34C0EAFFEECF01F0050E006E01C043
:1003060004F0005004E004360490FF0FFBD733C01E
:10031600E9FF34C0EAFFEECF01F0030E006E01C024
:1003260036F0000E376E386E396E005004E0363205
:10033600369EFF0FFBD736C037F0366A386A396A01
:10034600000E386E396E334A342A33C0E9FF34C0A2
:10035600EAFFEECF00F0030E0014036EE00E001469
:10036600026E02C000F00032009E0032009E003293
:10037600009E035000120450001200503612000E68
:1003860037123812391238C039F037C038F036C053
:1003960037F0366A334A342A33C0D9FF34C0DAFF1D
:1003A600DE503612000E37123812391238C039F0C4
:1003B60037C038F036C037F0366A334A342A33C08D
:1003C600D9FF34C0DAFFDE503612000E371238126B
:1003D600391236C000F037C001F038C002F039C01B
:0403E60003F012000E
:1003EA0033063406350636063706060E006E33C067
:1003FA0070FF005004E070367090FF0FFBD7345046
:10040A00701235C071FF7136719071367190713604
:10041A0071903750711238A4718C38B0718E36C011
:08042A0072FF38B2728C12005F
:100432000F0140B704D0F10E6F166F860FD030B7A0
:1004420005D0F10E6F16060E6F1208D020B704D039
:10045200F10E6F166F8402D0006A45D0030E2D1480
:10046200606E2DB610D0610E3A6E0F0E3B6E26C036
:100472003CF027C03DF028C03EF029C03FF0F70E07
:10048200406ECBDD0FD0610E3A6E0F0E3B6E26C072
:100492003CF027C03DF028C03EF029C03FF0FF0EDF
:1004A200406EBBDD2CC065FF2DAC658C660E2F6ED9
:1004B2000F0E306E2E6A2C502E5C10E22E502F241E
:1004C200E16E000E3020E26E2E502A24E96E000EFC
:1004D2002B20EA6EEECFE6FF2E2AEDD76086F10ED4
:0804E2006F16FF0E006E120000
:1004EA0093949386800E336EFF0E346E0BDE26C015
:1004FA0033F027C034F028C035F029C036F02AC0BE
:10050A0037F02BC038F06CDF600E2B14606E100EC3
:10051A002B14016E0150100AD8B4608460CF50FFCA
:10052A00336A346A356A366A376AF70E386EF9DD25
:10053A00010E336E346A356A366A376AF70E386ED8
:10054A00F0DD600E2B14006E9F0E0010016E0FD0AE
:10055A00F70E2C6EF70E2D6E11D0FF0E2C6EFF0EBD
:10056A002D6E0CD0FF0E2C6EF70E2D6E07D001509B
:10057A00DF0AEEE00150BF0AF0E0F4D7336A346ACA
:10058A00356A366A376A2CC038F0EEDD010E336EF2
:10059A00346A356A366A376A2CC038F0E5DD020EED
:1005AA00336E346A356A366A376A2DC038F0DCDD54
:1005BA00030E336E346A356A366A376A2DC038F0EC
:1005CA00D3DD040E336E346A356A366A376A2DC053
:1005DA0038F0CADD050E336E346A356A366A376A10
:1005EA002DC038F0C1DD336AFF0E346E8BDD120088
:1005FA000900F5CFE6FF0006FBE10106F9E112006A
:10060A002CC0E1FF2DC0E2FFE66A60AE2BD0F10EEE
:10061A006F16FF0E2F6EA49074AE0AD02CC0E9FF9D
:10062A002DC0EAFF2CC0E1FF2DC0E2FFE686749ED2
:10063A0060A417D0070E6014006E2CC0E9FF2DC00D
:10064A00EAFF2CC0E1FF2DC0E2FF0050EE122CC0E1
:10065A00E9FF2DC0EAFF2CC0E1FF2DC0E2FF010E29
:10066A00EE1635D00F0150AF30D0F10E6F160A0ECC
:10067A006F122F6AA49274AC0AD02CC0E9FF2DC065
:10068A00EAFF2CC0E1FF2DC0E2FFE686749C070E4C
:10069A005015006E2CC0E9FF2DC0EAFF2CC0E1FF07
:1006AA002DC0E2FF0050EE122CC0E9FF2DC0EAFF78
:1006BA00020EEE5C09E22CC0E9FF2DC0EAFF2CC055
:1006CA00E1FF2DC0E2FFE68E02D0006A76D00F0E5F
:1006DA006514006E00C030F02AC0E1FF2BC0E2FFB3
:1006EA0000C0E6FF65AC09D02CC0E9FF2DC0EAFFC7
:1006FA002CC0E1FF2DC0E2FFE68C62A61DD02CC003
:10070A00E9FF2DC0EAFF2CC0E1FF2DC0E2FFE68A17
:10071A00610E336E0F0E346EF70E356E97DD26C0FE
:10072A00E1FF27C0E2FF00C0E6FF01C0E6FF02C00A
:10073A00E6FF03C0E6FF13D0610E336E0F0E346E70
:10074A00FF0E356E83DD26C0E1FF27C0E2FF00C041
:10075A00E6FF01C0E6FF02C0E6FF03C0E6FF2E6A1D
:10076A00660E316E0F0E326E30502E5C10E22E5035
:10077A002824E16E000E2920E26E2E503124E96E03
:10078A00000E3220EA6EEECFE6FF2E2AEDD7F10EEA
:10079A006F16A4AE0AD02CC0E9FF2DC0EAFF2CC008
:1007AA00E1FF2DC0E2FFE688A49E2F5202E0609E80
:0C07BA0002D00F01509FFF0E006E1200D5
:1007C600826A946A176A166A156AF40E166ED10E54
:1007D600176E010E266E030E276E030E286E030E8D
:1007E600296E010E2A6ED10E2B6E7CDE800E336EC4
:1007F600FF0E346E89DC336AFF0E346EFF0E356EE3
:10080600366E376EF70E386E8EDC010E336EFF0EC7
:10081600346EFF0E356E366E376EF70E386E83DC2D
:10082600040E336E4F0E346E2F0E356E000E366E7E
:10083600000E376EF70E386E99DC336AFF0E346E93
:1008460063DC220E266E000E276E1A0E286E000E30
:10085600296E190E2A6E000E2B6E150E2C6E000ECA
:100866002D6ED0DE00C018F02550000A08E1245095
:10087600000A05E123502F0A02E122504F0A16E131
:10088600185214E01AC082FF1A2A030E266E000EB2
:10089600276E000E286E000E296E1A0E2A6E000EA6
:1008A6002B6E010E2C6E16C02DF0C0DDCAD7FFD7F9
:020000040030CA
:0D000100220F0EFFFF81FF0FC00FE00F4028
:00000001FF
