:0400000027EF0CF0EA
:1000080000C01EF001C01DF002C01CF003C01BF0B0
:1000180004C01AF005C019F006C018F008C017F09F
:1000280009C016F00AC015F0E1CF25F0E2CF26F09E
:10003800E9CF23F0EACF24F0F5CF22F0F8CF1FF074
:10004800F7CF20F0F6CF21F08EEC0BF022C0F5FFB1
:100058001FC0F8FF20C0F7FF21C0F6FF1EC000F048
:100068001DC001F01CC002F01BC003F01AC004F050
:1000780019C005F018C006F017C008F016C009F03E
:1000880015C00AF023C0E9FF24C0EAFF25C0E1FF3C
:0600980026C0E2FF11008A
:10009E0086C044F087C045F088C048F089C049F05A
:1000AE00800E00018A11006E008000C047F0120021
:1000BE00000E056E040E066E86C003F0000E046E72
:1000CE0003360436039003360436039087C000F0DF
:1000DE00000E016E003601360090005003260150CE
:1000EE00042203C001F004C002F001360190023672
:1000FE0001360190023601C003F002C004F0043252
:10010E000332049E04BC048E04320332049E04BCEB
:10011E00048E03C000F004C001F0003600900136DA
:10012E00003600900136055000260650012200C010
:10013E0005F001C006F000C0E1FF01C0E2FFE69E3F
:10014E0000018751000A12E186C000F0000E016E18
:10015E000036009001365E0E0024E16E000E012086
:10016E00E26E05C0E6FF06C0E6FF11D086C000F0C5
:10017E00000E016E003600900136590E0024E16E1D
:10018E00000E0120E26E05C0E6FF06C0E6FF05C0C8
:10019E00E1FF06C0E2FFE69C040E0524E16E000EB0
:0801AE000620E26EE68C12004F
:0E01B600800E00018611006E00C047F012009E
:1001C40086C044F087C045F088C046F089C048F036
:1001D4008AC049F0800E00018B11006E00C047F008
:0201E400120007
:1001E60020C401F01F0E01160150010A01E08BD058
:1001F60004012451000A01E086D02151060A38E1A3
:100206002DD04350010A13E1EC0E0001866F180E43
:10021600876F000E886F120E8627000E87238823AD
:10022600090E896F000E8A6F400E8B6FC8DF20D0D3
:100236004350010A0EE10001370E866F190E876FD3
:10024600000E886F210E896F000E8A6F400E8B6F2D
:10025600B6DF0ED00001866BABDF0AD00401235156
:10026600210ACFE02351220AE3E02351230AF2E0D8
:1002760020C401F0600E0116050E006E005004E069
:100286000132019EFF0FFBD70150010A01E03BD06E
:1002960027D039D038D02C0E0001866F000E876F1C
:1002A600010E886F000E896F400E8A6FF5DE2BD027
:1002B6000001866B7DDF23C42CF025D000012D0EB6
:1002C600866F000E876F010E886F000E896F8A6B2E
:1002D600E3DE19D00001866B6BDF22C42DF013D04C
:1002E60004012151010AD5E02151090AD3E0215127
:1002F600020AD1E021510A0ADBE02151030ADEE0BD
:0803060021510B0AE7E012008F
:10030E0000018251000A12E081C000F0000E016E61
:10031E00003600900136590E0024E96E000E0120C1
:10032E00EA6EEECF04F0EECF05F011D081C000F0F2
:10033E00000E016E0036009001365E0E0024E96E4E
:10034E00000E0120EA6EEECF04F0EECF05F0020EA5
:10035E000424E16E000E0520E26E83C0E6FF84C029
:10036E00E6FF010E0424E16E000E0520E26E85C04C
:10037E00E6FF04C0E9FF05C0EAFFEECF00F004C0BF
:10038E00E1FF05C0E2FF400E0014E66E04C0E9FF77
:10039E0005C0EAFFEECF00F004C0E1FF05C0E2FFAA
:1003AE00880E0010E66E8251000A1BE081C000F03C
:1003BE00000E016E003600900136590E0024026EBA
:1003CE00000E0120036E02C0E9FF03C0EAFF040E17
:1003DE00EE18006E02C0E1FF03C0E2FF00C0E6FFB0
:1003EE001AD081C000F0000E016E0036009001366A
:1003FE005E0E0024026E000E0120036E02C0E9FFA5
:10040E0003C0EAFF040EEE18006E02C0E1FF03C047
:10041E00E2FF00C0E6FF04C000F005C001F01200CC
:10042E00700EE16E0F0EE26E00018151E126D8B022
:10043E00E22A82C0E6FF82A504D081C086F0876BD7
:10044E0037DE82A305D081C086F0010E876F30DEC5
:02045E0012008A
:10046000425215E0010E0001816F1E0E826FDFDF28
:10047000010E816F826B3EC083F03FC084F0400E5E
:10048000856F45DF00C02AF001C02BF014D00001B9
:10049000010E816F1E0E826FCADF010E816F826BAB
:1004A0003EC083F03FC084F0400E856F30DF00C057
:0804B0002AF001C02BF012003C
:0804B800425201E094DE120043
:1004C0000B6A0A6A096A00500402F4CF09F0F3CFFC
:1004D00008F001500502F4CF0BF0F3CF0AF0005002
:1004E0000502F3500926F4500A22E86A0B22015053
:1004F0000402F3500926F4500A22E86A0B2208C0CD
:1005000000F009C001F00AC002F00BC003F01200B5
:100510007BC002F07CC003F07EC000F07FC001F021
:10052000010E00017E5F000E7F5B0050011009E0AC
:1005300002C0E1FF03C0E2FF7DC0E6FF024A032ADA
:04054000EBD71200E3
:100544000CD08CDF3CD03BD0B5DF39D038D037D09D
:1005540036D035D0000033D032D0000E00017C19E3
:1005640002E1010E7B19EDE0000E7C1902E1020E9E
:100574007B19E9E0000E7C1902E1030E7B19E4E02B
:100584007C51000A02E1730E7B19E0E07C51000A01
:1005940002E1750E7B19DBE07C51000A02E1740E66
:1005A4007B19D6E07C513F0A02E1FF0E7B19D1E0B2
:1005B4007C51000A02E1720E7B19CCE0CDD7010E0A
:0405C400006E1200B3
:1005C8000401286B296B47D00401478E288100015C
:1005D8006851010A02E10401288352D0478E50D0A5
:1005E8000401478E24BF16D024C403F00F0E03164F
:1005F80003C000F0000E016E0036009001365E0E5A
:100608000024E96E000E0120EA6EEECF04F0EECF72
:1006180005F015D024C403F00F0E031603C000F034
:10062800000E016E003600900136590E0024E96E66
:10063800000E0120EA6EEECF04F0EECF05F004C004
:10064800E9FF05C0EAFFEECF01F001A403D00401E1
:10065800010E286F15D020C401F01F0E011601509D
:10066800000AB2E020C401F01F0E01160150010A71
:10067800B5E020C401F01F0E01160150020AB0E0D7
:1006880047AE07D0280E446E040E456E4780020E12
:04069800486E120096
:10069C00000E495C02E1080E485C11E248C003F010
:1006AC0049C004F000016751000A03E1010E676FB5
:1006BC0005D06751010A02E1020E676F04D0080EE3
:1006CC00036E000E046E000159C0E1FF5AC0E2FF38
:1006DC00E69259C0E1FF5AC0E2FFE69059C0E9FF2B
:1006EC005AC0EAFFEECF00F059C0E1FF5AC0E2FF5A
:1006FC0004500010E66E010E5924E16E000E5A20D3
:10070C00E26E03C0E6FF0350485C006E045049588B
:10071C00016E00C048F001C049F0280E656F040E50
:10072C00666F47B02FD0035004102BE044C0F6FF87
:10073C0045C0F7FF46C0F8FF0900F5CF00F065C0D3
:10074C00E1FF66C0E2FF00C0E6FF654B662B010EC1
:10075C004424006E000E4520016E000E4620026EF1
:10076C0000C044F001C045F002C046F0010E035C2D
:10077C00006E000E0458016E00C003F001C004F0BE
:10078C00D2D724D00350041021E044C0E9FF45C067
:10079C00EAFF65C0E1FF66C0E2FFEECFE6FF654B06
:1007AC00662B010E4424006E000E4520016E00C025
:1007BC0044F001C045F0010E035C006E000E0458BD
:0E07CC00016E00C003F001C004F0DCD7120083
:1007DA0004012051800AD8A471D0C00E476E64D09B
:1007EA00580E006E190E016E000E026E00C044F023
:1007FA0001C045F002C046F0120E486E000E496E66
:10080A005DD0030E006E000E016E22C404F0000ECD
:10081A00056E51DE3B0E0024E96E000E0120EA6EE1
:10082A00EECF44F0EECF45F0EECF46F0020E442470
:10083A00F66E000E4520F76E000E4620F86E09008F
:10084A00F5CF00F00900F5CF01F000C048F001C073
:10085A0049F034D022515D5C23E3030E006E000E92
:10086A00016E22C404F0000E056E25DE320E00244D
:10087A00E96E000E0120EA6EEECF44F0EECF45F0AD
:10088A00EECF46F044C0F6FF45C0F7FF46C0F8FF7A
:10089A000900F5CF00F000C048F0000E496E01D003
:1008AA00476A0CD0476A0AD02351010A99E02351BA
:0E08BA00020AA7E02351030ACDE0F4D7120092
:1008C80004012251010A11E120C401F01F0E011692
:1008D8000150000A0AE1478E2151030A04E1010E82
:1008E8000001686F02D00001686B04012251000A00
:1008F800D8A48BD020C401F01F0E01160150020AA3
:10090800D8A483D024C401F00F0E01160150000AA8
:10091800D8B47BD0478E24BF16D024C403F00F0E62
:10092800031603C000F0000E016E00360090013679
:100938005E0E0024E96E000E0120EA6EEECF04F090
:10094800EECF05F015D024C403F00F0E031603C034
:1009580000F0000E016E003600900136590E00249A
:10096800E96E000E0120EA6EEECF04F0EECF05F03E
:100978002151030A07E104C0E1FF05C0E2FF840E2C
:10098800E66E43D024C400F00F0E0016700E026EFF
:100998000F0E036E00500226D8B0032A02C0E9FFEA
:1009A80003C0EAFFFE0EEE14006EEECF01F0FF0E5C
:1009B800011602C0E1FF03C0E2FF00C0E6FF01C06C
:1009C800E6FF24AF11D004C0E1FF05C0E2FFE66AEC
:1009D800040E0418006E00C004F004C0E1FF05C056
:1009E800E2FF400EE66E11D004C0E1FF05C0E2FF51
:1009F800880EE66E040E0418006E00C004F004C0F1
:0C0A0800E1FF05C0E2FFC80EE66E120020
:100A1400478E710E00017B6F0F0E7C6F7D6B010E94
:100A24007E6F000E7F6F72DD640E7B6F000E7C6F35
:100A34007D6B010E7E6F000E7F6F68DD22C443F074
:100A44004350000A03E1100E296E0FD0200E296EC8
:100A5400010E7B6F000E7C6F430E7D6F000E7E6F68
:0C0A6400010E7F6F000E806F6BDD120032
:100A700020C401F0600E0116050E006E005004E067
:100A80000132019EFF0FFBD70150000A01E063D045
:100A90003FD0478E080E296E5ED09FDE5CD0BADF55
:100AA0005AD0430E446E000E456E4780010E486ECC
:100AB000478E51D089DD4FD007DF4DD0640E006ED8
:100AC000000E016E040124510026D8B0012A00C096
:100AD00044F001C045F04780010E486E478E3BD080
:100AE000478E640EE16E000EE26E2451E126D8B00E
:100AF000E22A22C4E6FF2FD0020E00017B6F000E17
:100B00007C6F7D6B7E6B7F6B806B1CDD24D023D074
:100B100004012151050ABDE02151060ABEE0215120
:100B2000090ABDE02151080ABCE02151000AC2E0D7
:100B30002151010AC1E02151030ABEE021510A0AF4
:100B4000BDE021510B0ACCE02151070AD5E021512B
:080B50000C0ADDE0DCD7120005
:100B5800010E2724E96E000E2820EA6EEECF00F081
:100B680000C002F0000E4E5C02E102504D5C03E250
:100B78004DC002F00AD002504D5C006E000E4E5877
:100B8800016E00C04DF001C04EF0036A0250035CD4
:100B98001CE2280EE96E040EEA6E0350E926D8B06E
:100BA800EA2AEECF00F04AC0E1FF4BC0E2FF00C0E6
:100BB800E6FF010E4A24006E000E4B20016E00C0B5
:100BC8004AF001C04BF0032AE1D7000E006E4E50E8
:100BD800005C02E14D50000828E2010E2E24E16E6F
:100BE800000E2F20E26E080EE66E020E2E24E16E35
:100BF800000E2F20E26E280EE66E040EE66E27C069
:100C0800E9FF28C0EAFFEECF00F000BC07D02EC0F5
:100C1800E1FF2FC0E2FFC80EE66E06D02EC0E1FF4E
:100C28002FC0E2FF880EE66E19D0010E2E24E16E69
:100C3800000E2F20E26E080EE66E020E2E24E16EE4
:100C4800000E2F20E26E200EE66E040EE66E2EC019
:0E0C5800E1FF2FC0E2FF840EE66E4C9E1200FC
:100C66006D9847BE49D04CAE28D0020E306E010EAC
:100C76005924E16E000E5A20E26EE66A59C0E1FF81
:100C86005AC0E2FFC80EE66E010E2E24E16E000E7B
:100C96002F20E26E080EE66E020E2E24E16E000E86
:100CA6002F20E26E280EE66E040EE66E2EC0E1FFE1
:100CB6002FC0E2FFC80EE66E1ED0010E2E24E16E96
:100CC600000E2F20E26E080EE66E020E2E24E16E56
:100CD600000E2F20E26E200EE66E040EE66E2EC08B
:100CE600E1FF2FC0E2FF8C0EE66E59C0E1FF5AC04D
:100CF600E2FF840EE66E7ED04CBE7CD0040120AFAF
:100D060052D04950275D02E14850265D04E226C4D0
:100D160048F027C449F0BFDC010E306E010E2E24C8
:100D2600E16E000E2F20E26E080EE66E020E2E24F5
:100D3600E16E000E2F20E26E200EE66E040EE66EC9
:100D46002EC0E1FF2FC0E2FF800EE66E0001626B4F
:100D5600010E2724E16E000E2820E26E080EE66ED4
:100D6600020E2724E16E000E2820E26E200EE66EAB
:100D7600040EE66E27C0E1FF28C0E2FF840EE66E91
:100D8600010E626F020E5924E16E000E5A20E26EC9
:100D9600280EE66E040EE66E59C0E1FF5AC0E2FF69
:100DA600C80EE66E27D0020E306E010E5924E16E93
:100DB600000E5A20E26EE66A59C0E1FF5AC0E2FF11
:100DC600C80EE66E010E2E24E16E000E2F20E26E96
:100DD600080EE66E020E2E24E16E000E2F20E26E45
:100DE600280EE66E040EE66E2EC0E1FF2FC0E2FF6F
:060DF600C80EE66E1200BB
:100DFC00306A59C0E1FF5AC0E2FFE66A040E591886
:100E0C00E16E5AC0E2FF000EE21AE66A4CBE4C9E3E
:020E1C001200C2
:100E1E0059C0E9FF5AC0EAFFEECF00F000AE05D090
:100E2E0059C0E1FF5AC0E2FFE66A0001676B306A03
:100E3E00486A496A476A15DE030E00017B6F000E91
:100E4E007C6F7D6B7E6B7F6B806BA2EC02F004DFA0
:020E5E00120080
:100E600059C0E9FF5AC0EAFFEECF00F0000E00BC07
:100E7000010E00017A6F040E5918006E00C059F07F
:100E80002950080A0AE122C46EFF6E50000803E2EE
:100E9000100E296E02D0040E296E3050010A28E18E
:100EA000020E5924E16E000E5A20E26E280EE66E04
:100EB000040EE66E4EEC03F000016751020A07E1F2
:100EC00059C0E1FF5AC0E2FF840EE66E10D07A519D
:100ED000000A07E159C0E1FF5AC0E2FFC80EE66E02
:100EE00006D059C0E1FF5AC0E2FF880EE66E01D07D
:040EF00085DF120088
:100EF4003050020A02E12EDE1FD07EDF0001625173
:100F0400000A19E1010E2E24E16E000E2F20E26E7C
:100F1400080EE66E020E2E24E16E000E2F20E26E05
:100F2400200EE66E040EE66E2EC0E1FF2FC0E2FF37
:0A0F34008C0EE66E01D0626B120015
:0E0F3E00160E6F6E9F0E6B6E7B0E696E1200AC
:100F4C0072C002F073C003F075C000F076C001F0FF
:100F5C00010E0001755F000E765B0050011009E078
:100F6C0002C0E1FF03C0E2FF74C0E6FF024A032A9D
:040F7C00EBD712009D
:0A0F8000D08EA28AA08AF28E120021
:100F8A00580E006E190E016E000E026E0E0E00242F
:100F9A00F66E000E0120F76E000E0220F86E0900B0
:100FAA00F5CF03F003C004F00F0E0024F66E000E16
:100FBA000120F76E000E0220F86E0900F5CF01F04D
:100FCA000150035C12E2580E006E190E016E000EFB
:100FDA00026E0F0E0024F66E000E0120F76E000E50
:100FEA000220F86E0900F5CF04F0580E006E190EB3
:100FFA00016E000E026E100E0024F66E000E012025
:10100A00F76E000E0220F86E0900F5CF01F00150CC
:10101A00045C12E2580E006E190E016E000E026E8A
:10102A00100E0024F66E000E0120F76E000E02204C
:0E103A00F86E0900F5CF04F004C000F01200BB
:101048000001756B766B776B020E7225F66E000EDB
:101058007321F76E000E7421F86E0900F5CF05F0C4
:10106800030E7225F66E000E7321F76E000E7421C2
:10107800F86E0900F5CF00F000C003F0000E046E12
:1010880003C001F0006A05500024066E000E01201E
:10109800076E72C008F073C009F074C00AF0010E40
:1010A8000824F66E000E0920F76E000E0A20F86E6E
:1010B8000900F5CF01F00150020A1BE1060E0824D1
:1010C800F66E000E0920F76E000E0A20F86E090071
:1010D800F5CF01F00150755D0CE2060E0824F66E9E
:1010E800000E0920F76E000E0A20F86E0900F5CFF1
:1010F80075F0010E0824F66E000E0920F76E000E3A
:101108000A20F86E0900F5CF01F00150040A1BE12E
:10111800080E0824F66E000E0920F76E000E0A204D
:10112800F86E0900F5CF01F00150755D0CE2080E6C
:101138000824F66E000E0920F76E000E0A20F86EDD
:101148000900F5CF75F008C0F6FF09C0F7FF0AC01F
:10115800F8FF0900F5CF00F000507625016E000E6B
:101168007721026E01C076F002C077F00750025C6A
:1011780002E10650015C01E30FD008C0F6FF09C088
:10118800F7FF0AC0F8FF0900F5CF00F00050082665
:0E119800000E09220A2283D775C000F0120053
:1011A600EC0E3B6E180E3C6E000E3D6E6A0E326EF5
:1011B600190E336E000E346E150E356E190E366E20
:1011C600000E376EBC0E386E180E396E000E3A6E73
:0211D600120005
:1011D800000E0001731902E1000E721902E1016AA2
:1011E80009D072C0E9FF73C0EAFFEECF00F0016AD0
:0A11F80000BE012A01C000F0120041
:1012020000017351000A12E072C000F0000E016E7C
:10121200003600900136590E0024E96E000E0120BE
:10122200EA6EEECF04F0EECF05F011D072C000F0FE
:10123200000E016E0036009001365E0E0024E96E4B
:10124200000E0120EA6EEECF04F0EECF05F0020EA2
:101252000424E16E000E0520E26E74C0E6FF75C044
:10126200E6FF010E0424E16E000E0520E26E76C058
:10127200E6FF04C0E9FF05C0EAFFEECF00F004C0BC
:10128200E1FF05C0E2FF400E0014E66E04C0E9FF74
:1012920005C0EAFFEECF00F004C0E1FF05C0E2FFA7
:1012A200880E0010E66E7351000A1BE072C000F057
:1012B200000E016E003600900136590E0024026EB7
:1012C200000E0120036E02C0E9FF03C0EAFF040E14
:1012D200EE18006E02C0E1FF03C0E2FF00C0E6FFAD
:1012E2001AD072C000F0000E016E00360090013676
:1012F2005E0E0024026E000E0120036E02C0E9FFA2
:1013020003C0EAFF040EEE18006E02C0E1FF03C044
:10131200E2FF00C0E6FF04C000F005C001F01200C9
:10132200200E295C03E36DB201D002D0006A23D003
:101332002AC072F02BC073F04EDF00521BE1010E87
:101342002A24E96E000E2B20EA6EEECF00F000C0D8
:1013520071F070C072F0736B6DC074F06EC075F096
:101362006FC076F04DDF00C02AF001C02BF071C0D3
:0813720000F001D0006A120036
:10137A002950000A0AE16D6A696ADCDDFCDD6DB696
:0C138A0002D06D86FCD7010E296E120007
:10139600200E295C03E36DB201D002D0006A33D07F
:1013A60057C072F058C073F014DF00522BE170C0C2
:1013B60072F0010E736F6DC074F06EC075F06FC081
:1013C60076F01CDF00C057F001C058F0536A546A2B
:1013D600556A566A57C072F058C073F0FADE00526A
:1013E60008E0535054105510561002E0006A0BD016
:1013F600F1D7010E5724E96E000E5820EA6EEECFA3
:0814060000F001D0006A1200A1
:10140E00BDDD00C06DF0EC0E0001726F180E736F33
:10141E00000E746F12DE00C06EF06D51005C03E2C0
:0C142E006DC000F002D06EC000F0120093
:10143A00B5DE2A6A2B6A576A586A6A6A686A7ADD66
:10144A006D8C6E6A710E0001726F0F0E736F746B82
:10145A00010E756F000E766F74DD6D9C6D6B080E54
:10146A006D5D16E26DC000F0000E016E0036009050
:10147A000136003600900136000E0024E16E040E9B
:10148A000120E26EE66AE66AE66AE66A6D2BE7D74B
:10149A00160E706E68A603D0F70E6816FBD7476A59
:1014AA004C6A4D6A4E6A6D98080E596E040E5A6E51
:0614BA00436A296A1200DA
:0414C000A19A1200DB
:1014C4006984EF0E68166D82750E00017B6F000E45
:1014D4007C6F7D6B7E6B7F6B806BA2EC02F01200E5
:1014E40070A019D027C0E9FF28C0EAFFEECF01F0B1
:1014F4000150800A0FE159C0E9FF5AC0EAFFEECF5C
:1015040001F00150840A06E127C0E1FF28C0E2FF90
:0C1514008C0EE66E7090DF0E6816120060
:10152000FD0E00016315016E026AFF0E0216000E29
:10153000021802E1000E01186BE17E0E6315016EC8
:1015400001C003F00332039E03C000F0000E016EE1
:10155000003600900136003600900136000E00245F
:10156000026E040E0120036E02C027F003C028F0B3
:1015700002C02EF003C02FF0040E2E18006E00C023
:101580002EF002C0E9FF03C0EAFFEECF00F000C07A
:1015900001F03C0E01160132019E0132019E015004
:1015A0000D0A34E1020E2724E96E000E2820EA6EAF
:1015B000EECF01F0EECF02F00250040A02E1280E55
:1015C000011822E1020E2724E16E000E2820E26EAF
:1015D000200EE66E040EE66E796B080E795D14E25D
:1015E000200EE16E040EE26E7951E126D8B0E22AB7
:1015F000280EE96E040EEA6E7951E926D8B0EA2A7F
:10160000EECFE6FF792BE9D70ADC01D073DC0ED0F0
:10161000FD0E00016315016E026AFF0E0216000E38
:0E162000021802E1040E011801E11ADC1200AA
:10162E00740E00017B6F000E7C6F7D6B7E6B7F6B8B
:10163E00806BA2EC02F06D92699468A403D0FB0E4D
:06164E006816FBD7120034
:10165400A8DD2A6A2B6A576A586A6A6A686A6DDC66
:101664006D8C6E6A710E00017B6F0F0E7C6F7D6B4B
:10167400010E7E6F000E7F6F88EC02F06D9C796B1B
:10168400080E795D16E279C000F0000E016E003696
:1016940000900136003600900136000E0024E16E01
:1016A400040E0120E26EE66AE66AE66AE66A792BCF
:1016B400E7D7160E706E68A603D0F70E6816FBD730
:1016C400476A4C6A4D6A4E6A6D98080E596E040E4C
:0816D4005A6E436A296A1200F4
:1016DC003EC06DF03FC06EF0400E00016F6F010E0A
:0616EC00706F19DE120010
:1016F2008DDE00C05DF0010E426E69C03EF06AC030
:101702003FF06BC040F06CC041F096DE010E016EFE
:0A1712000150010A01E130DE12006F
:10171C002950010A07E16DBA05D0686A69806988A9
:10172C00020E296E68A405D069A403D0FB0E6816BE
:10173C0078DF6DA202D0BEDE78D068A018D069A088
:10174C0016D082DF040E296E200E0401026F040EE7
:10175C00036F080E016F000E0015006E00C000F440
:10176C008C0E0011006E00C000F4FE0E681668A806
:10177C0005D069A803D0A0DEEF0E681668AC11D0B6
:10178C0069AC0FD0730E00017B6F000E7C6F7D6B0C
:10179C007E6B010E7F6F000E806FA2EC02F0BF0E0D
:1017AC00681668AA03D069AA01D096DE68A210D088
:1017BC0069A20ED0FF0E00017B6F3F0E7C6F7D6B1C
:1017CC007E6B010E7F6F000E806FA2EC02F06A6AD6
:1017DC00040E295C02E26EDE28D069A625D0000139
:1017EC00786B040E785D20E268A61AD06CCF63F09B
:1017FC00F70E6816780E6315016E0150000A02E1AF
:10180C0089DE0DD0720E00017B6F000E7C6F630EB3
:10181C007D6F000E7E6F7F6B806BA2EC02F001D0AF
:0C182C0003D00001782BDDD745DE120050
:1018380069C06DF06AC06EF06BC06FF0010E0001F8
:06184800706FA5DD120027
:10184E000F0EC112070EB412000E0001696F050EC5
:10185E006A6F400E6B6F050E6C6F44DF38DF0052FF
:10186E0001E1FCD7316A400E315C14E2400EE16EAC
:10187E00050EE26E3150E126D8B0E22A000EE96E76
:10188E00050EEA6E3150E926D8B0EA2AEECFE6FF11
:10189E00312AE9D7400E0001696F050E6A6F400EBE
:0E18AE006B6FC3DF005201E1F5D7D8D7FFD72B
:1018BC00200355005300420020004800490044001A
:1018CC0020004C0069006200720061007200790017
:1018DC0000000000000000000000000000000000FC
:1018EC0009022900010100C03209040000020300B2
:1018FC00000009210101000122210007058103409C
:09190C0000010705010340000180
:1019150022034D0069006B0072006F0065006C00CA
:1019250065006B00740072006F006E0069006B004B
:0219350061004F
:101937000600FF0901A10119012940150026FF0032
:101947007508954081021901294075089540910253
:01195700C0CF
:1019580012010002000000083412341201000102D2
:0219680000017C
:04196A000403090465
:020000040030CA
:0E000000210E2E1EFF8181FF0FC00FE00F406A
:00000001FF
