:10000000B9EF5EF00000000000EF00F0000000001B
:0A0010000000000000000000F3D71C
:10BD4C000D0E0C6EFB0E0D6E0D2EFED70C2EFCD7B1
:06BD5C00000000001200CF
:10BD7200330E556EABD8670E556E720E566E0DD8D9
:0CBD8200005202E0B6D801D01AD9FFD759
:10BD9C00576AD6DF55C05CF080D8D2DF572A57508F
:10BDAC00FF0A02E1006A08D068D80050561803E177
:0ABDBC00010E006E01D0EDD7120059
:10BDD400F2CF01F061C0F6FF62C0F7FF63C0F8FF65
:10BDE400A68EA69CA684A688F29E550EA76EAA0EC1
:10BDF400A76EA682F28E0A0065C0E9FF66C0EAFF5C
:10BE0400036A010E035C14E2026A400E025C05E25E
:10BE1400EECFF5FF0F00022AF8D7A68EA69CA684C3
:10BE2400F29E550EA76EAA0EA76EA682032AE9D724
:0ABE3400F28EA69401C0F2FF120086
:10BE5000C00E0001616FBF0E626F000E636F646FF2
:10BE6000150E656F000E666FB5DFB90E156EEF0E1D
:0CBE7000166E5E0E176EF00E186E1200BB
:10BE8600AECF01F0ABA202D0AB98AB8801C000F0F8
:02BE9600120098
:0CBEA600ACB201D0FDD75CC0ADFF1200B3
:0ABEC000000E9EBA010E006E120083
:10BECE00900EAB6E260EAC6E948E949C9EAA01D0F4
:08BEDE00FDD755C0AFFF1200B3
:10BEF400576A586A596A5A6A5B6A5750400A1BE182
:10BF0400585059105A105B1001E1A0DF58C061F07D
:10BF140059C062F05AC063F05BC064F0150E0001B2
:10BF2400656F000E666F54DF576A400E5826000E88
:10BF340059225A225B22790E5C6EB3DFBFDF0052B6
:10BF440001E1FCD79EDF00C056F0780E5C6EA9DFDD
:10BF5400B5DF005201E1FCD794DF00C055F0150EA7
:10BF6400E16E000EE26E5750E126D8B0E22A56C0C8
:10BF7400E6FF572A150EE16E000EE26E5750E126D9
:0EBF8400D8B0E22A55C0E6FF572AB7D7120000
:02BFC00012006D
:020000040030CA
:0D000100021F1EFF8281FF0FC00FE00F40A5
:00000001FF
