:1000000007EF26F00000000000EF00F00000000005
:0A0010000000000000000000F3D71C
:10001C0090C46FFF6DB002D00000FCD76FCF00F022
:02002C001200C0
:10002E0090C4C9FFC7B002D00000FCD7C9CF00F002
:02003E001200AE
:10004000F250026EF29E0500FF6A0150FE6E0050F3
:08005000FD6E02BEF28E1200EB
:1000580087C4E9FF88C4EAFFEE5211E087C4E9FFCC
:1000680088C4EAFF89C4D9FF8AC4DAFFEE50DE18D3
:1000780006E10401874B882B894B8A2BE9D787C473
:10008800E9FF88C4EAFF89C4D9FF8AC4DAFFDE50D1
:0C009800EE5C006E016A000E015A1200BE
:1000A40089C404F08AC405F087C402F088C403F04C
:1000B4008BC400F08CC401F0010E04018B5F000EB0
:1000C4008C5B005001100FE004C0E9FF05C0EAFF9B
:1000D40002C0E1FF03C0E2FFEECFE6FF024A032ABB
:1000E400044A052AE5D787C400F088C401F0120049
:1000F40004018751200A09E087510D0804E3090E21
:10010400875D01E302D0006A02D0010E006E120086
:10011400F0C0E1FFF1C0E2FFFF0EE66EEEC000F0BA
:10012400EFC001F08BDF0050FE0A01E0F1D71200AE
:100134008B80F0C0E1FFF1C0E2FFFF0EE66EEEC07F
:0A01440000F0EFC001F07ADF1200B6
:10014E0087C402F088C403F08AC400F08BC401F0A7
:10015E00010E04018A5F000E8B5B0050011009E056
:10016E0002C0E1FF03C0E2FF89C4E6FF024A032A90
:0C017E00EBD787C400F088C401F0120029
:10018A00400E04018725006EF0C0E1FFF1C0E2FFD6
:10019A0000C0E6FFEEC000F0EFC001F04CDFF0C097
:1001AA00E1FFF1C0E2FF8BC4E6FFEEC000F0EFC052
:1001BA0001F041DFF0C0E1FFF1C0E2FF8AC4E6FFCF
:1001CA00EEC000F0EFC001F036DFF0C0E1FFF1C091
:1001DA00E2FF89C4E6FFEEC000F0EFC001F02BDFBA
:1001EA00F0C0E1FFF1C0E2FF88C4E6FFEEC000F014
:1001FA00EFC001F020DFF0C0E1FFF1C0E2FF8CC4E4
:10020A00E6FFEEC000F0EFC001F015DF04018E6BCF
:10021A008F6BF0C0E1FFF1C0E2FFFF0EE66EEEC0A9
:10022A0000F0EFC001F007DF00C08DF404018E4B2F
:10023A008F2B800E0014016E0150000A07E0000E99
:10024A008F5D02E1640E8E5D01E2E3D78DC400F09A
:02025A00120090
:04025C008B90120071
:10026000010E04018725E96E000E8821EA6EEECFAB
:1002700003F0000E046E000E046E03C001F0006A6D
:1002800000C003F001C004F087C4D9FF88C4DAFFBE
:10029000DE500026000E012200C003F001C004F071
:0A02A00000C003F001C004F01200DA
:1002AA00030E04018725E96E000E8821EA6EEECF5F
:1002BA0009F0000E0A6E0B6E0C6E000E0A6E0B6EC3
:1002CA000C6E0BC003F00AC002F009C001F0006A0C
:1002DA0000C009F001C00AF002C00BF003C00CF024
:1002EA00020E8725D96E000E8821DA6EDE500024B0
:1002FA00056E000E0120066E000E0220076E000E2B
:10030A000320086E05C009F006C00AF007C00BF00A
:10031A0008C00CF007C003F006C002F005C001F0E7
:10032A00006A00C009F001C00AF002C00BF003C065
:10033A000CF0010E8725D96E000E8821DA6EDE5088
:10034A000024056E000E0120066E000E0220076EC4
:10035A00000E0320086E05C009F006C00AF007C0A7
:10036A000BF008C00CF007C003F006C002F005C08D
:10037A0001F0006A00C009F001C00AF002C00BF0E7
:10038A0003C00CF087C4D9FF88C4DAFFDE50002608
:10039A00000E01220222032200C009F001C00AF065
:1003AA0002C00BF003C00CF000C009F001C00AF053
:0A03BA0002C00BF003C00CF01200AB
:1003C4004BDF000E000A03E1040E0001751909E178
:1003D40076C47EF477C47FF478C480F479C481F45D
:1003E40014D0090E006E76C47EF477C47FF478C40A
:1003F40080F479C481F4005008E004017E377E91D2
:100404007F3780378137FF0FF7D70401110E876FCD
:100414007EC488F47FC489F480C48AF481C48BF4D4
:10042400FF0E8C6FB0DE005204E082DE010E006E1F
:100434004BD0F0C0E1FFF1C0E2FFFF0EE66EEEC06C
:1004440000F0EFC001F0FADD0050FE0A01E0F1D740
:1004540004017C6B7D6B020E7D5D02E1000E7C5D10
:100464001BE27C517A25826F7D517B21836FF0C022
:10047400E1FFF1C0E2FFFF0EE66EEEC000F0EFC058
:1004840001F0DCDD82C4E1FF83C4E2FF00C0E6FFCB
:1004940004017C4B7D2BDFD7F0C0E1FFF1C0E2FF0C
:1004A400FF0EE66EEEC000F0EFC001F0C7DDF0C055
:1004B400E1FFF1C0E2FFFF0EE66EEEC000F0EFC018
:0A04C40001F0BCDD35DE006A120015
:1004CE00C6DE000E000A03E1040E0001751909E1F3
:1004DE0076C47EF477C47FF478C480F479C481F452
:1004EE0014D0090E006E76C47EF477C47FF478C4FF
:1004FE0080F479C481F4005008E004017E377E91C7
:10050E007F3780378137FF0FF7D70401180E876FBB
:10051E007EC488F47FC489F480C48AF481C48BF4C9
:10052E00FF0E8C6F2BDE005204E0FDDD010E006E1F
:10053E008BD0F0C0E1FFF1C0E2FFFF0EE66EEEC021
:10054E0000F0EFC001F075DDF0C0E1FFF1C0E2FF99
:10055E00FF0EE66EEEC000F0EFC001F06ADDF0C0F7
:10056E00E1FFF1C0E2FFFE0EE66EEEC000F0EFC05E
:10057E0001F05FDD04017C6B7D6B7D51010802E1B2
:10058E007C51FF0815E37C517A25E96E7D517B2164
:10059E00EA6EF0C0E1FFF1C0E2FFEECFE6FFEEC083
:1005AE0000F0EFC001F045DD04017C4B7D2BE5D75B
:1005BE00F0C0E1FFF1C0E2FFFF0EE66EEEC000F00C
:1005CE00EFC001F036DDF0C0E1FFF1C0E2FFFF0E3B
:1005DE00E66EEEC000F0EFC001F02BDDF0C0E1FFE3
:1005EE00F1C0E2FFFF0EE66EEEC000F0EFC001F0CC
:1005FE0020DD00C07CF4000E04017D6F1F0E7C1503
:10060E00016E7DC402F0000E021601C07CF402C021
:10061E007DF4000E021802E1050E011804E083DDE0
:10062E00020E006E11D0F0C0E1FFF1C0E2FFFF0E2E
:10063E00E66EEEC000F0EFC001F0FBDC0050FF0AEA
:0A064E0001E0F1D770DD006A120030
:100658000B6A0A6A096A00500402F4CF09F0F3CF62
:1006680008F001500502F4CF0BF0F3CF0AF0005068
:100678000502F3500926F4500A22E86A0B220150B9
:100688000402F3500926F4500A22E86A0B2208C033
:1006980000F009C001F00AC002F00BC003F012001C
:1006A800086A096A100E0C6E0134083609360450BF
:1006B800085E0550D8A0053C095ED8B007D00450A4
:1006C80008260550D8B0053C0926D89000360136D2
:0606D8000C2EEAD712000F
:1006DE00BEDD000E000A03E1040E0001751909E1EA
:1006EE0076C47AF477C47BF478C47CF479C47DF450
:1006FE0014D0090E006E76C47AF477C47BF478C4F5
:10070E007CF479C47DF4005008E004017A377A91C4
:10071E007B377C377D37FF0FF7D70401120E876FBB
:10072E007AC488F47BC489F47CC48AF47DC48BF4C7
:10073E00FF0E8C6F23DD005204E0F5DC010E006E1F
:06074E0001D0006A120058
:1007540076C47AF477C47BF478C47CF479C47DF4E9
:1007640004017E6B7F6B000E7F5D02E1080E7E5DEF
:1007740019E27AC4E9FF7BC4EAFFEE50200A01E1E2
:1007840011D07AC4E9FF7BC4EAFF7CC4E1FF7DC4D5
:10079400E2FFEECFE6FF7C4B7D2B7A4B7B2B7E4B2F
:1007A4007F2BE1D7080E7625016E000E7721026EAD
:1007B40001C07AF402C07BF401C0E9FF02C0EAFF81
:1007C400EE50200A29E07CC4E1FF7DC4E2FF2E0E36
:1007D400E66E7C4B7D2B7E6B7F6B000E7F5D02E1B2
:1007E400030E7E5D19E27AC4E9FF7BC4EAFFEE5092
:1007F400200A01E111D07AC4E9FF7BC4EAFF7CC47A
:10080400E1FF7DC4E2FFEECFE6FF7C4B7D2B7A4B0C
:100814007B2B7E4B7F2BE1D77CC4E1FF7DC4E2FFC1
:10082400E66A0D0E7825E16E000E7921E26E0B0E5C
:100834007625E96E000E7721EA6EEECFE6FF1A0EFA
:100844007825806F000E7921816F1C0E7625876FC5
:10085400000E7721886F27DD80C4E1FF81C4E2FFA9
:1008640000C0E6FF01C0E6FF02C0E6FF03C0E6FFEA
:100874001E0E7825806F000E7921816F1A0E762561
:10088400876F000E7721886FE9DC80C4E1FF81C4A3
:10089400E2FF00C0E6FF01C0E6FF0E0E7625006E03
:1008A400000E7721016E00C0E9FF01C0EAFFEECF20
:1008B40004F0010E0024E96E000E0120EA6EEECF72
:1008C40003F003C001F0006A04500024036E000E1C
:1008D4000120046E03C07EF404C07FF40E0E78255C
:1008E400006E000E7921016E030E0024E16E000EED
:1008F4000120E26E0B0E026E03C000F004C001F092
:10090400025005E001320032019EFF0FFAD700C009
:10091400E6FF0E0E7825006E000E7921016E040E9E
:100924000024E16E000E0120E26E050E026E7EC40C
:1009340000F07FC401F0025005E001320032019E54
:10094400FF0FFAD73F0E0014006E00C0E6FF0E0E34
:100954007825006E000E7921016E050E0024E16EEB
:10096400000E0120E26E1F0E7E15026E02C000F022
:100974000036009000C0E6FF100E7625006E000ED3
:100984007721016E00C0E9FF01C0EAFFEECF04F059
:10099400010E0024E96E000E0120EA6EEECF03F092
:1009A40003C001F0006A04500024026E000E01200E
:1009B400036E02C07EF403C07FF40E0E7825006E31
:1009C400000E7921016E020E0024E16E000E01205A
:1009D400E26E1F0E0214006E00C0E6FF0E0E7825B4
:1009E400006E000E7921016E010E0024E16E000EEE
:1009F4000120E26E050E026E7EC400F07FC401F099
:100A0400025005E001320032019EFF0FFAD70F0EAB
:100A14000014006E00C0E6FF0E0E7825E16E000E95
:100A24007921E26E090E026E7EC400F07FC401F0EB
:100A3400025005E001320032019EFF0FFAD700C0D8
:100A4400E6FF160E7625006E000E7721016E00C0BB
:100A5400E9FF01C0EAFFEECF04F0010E0024E96EC5
:100A6400000E0120EA6EEECF03F003C001F0006A2D
:100A740004500024036E000E0120046E03C07EF4B3
:100A840004C07FF4140E7825006E000E7921016EE7
:100A9400030E0024E16E000E0120E26E0B0E026EC6
:100AA40003C000F004C001F0025005E0013200323E
:100AB400019EFF0FFAD700C0E6FF140E7825006EE2
:100AC400000E7921016E040E0024E16E000E012057
:100AD400E26E050E026E7EC400F07FC401F0025087
:100AE40005E001320032019EFF0FFAD73F0E0014D9
:100AF400006E00C0E6FF140E7825006E000E79210A
:100B0400016E050E0024E16E000E0120E26E1F0E40
:100B14007E15026E02C000F00036009000C0E6FFB1
:100B2400180E7625006E000E7721016E00C0E9FFD5
:100B340001C0EAFFEECF04F0010E0024E96E000EBE
:100B44000120EA6EEECF03F003C001F0006A045006
:100B54000024026E000E0120036E02C07EF403C066
:100B64007FF4140E7825006E000E7921016E020EBA
:100B74000024E16E000E0120E26E1F0E0214006ECE
:100B840000C0E6FF140E7825006E000E7921016E78
:100B9400010E0024E16E000E0120E26E050E026ECD
:100BA4007EC400F07FC401F0025005E0013200323F
:100BB400019EFF0FFAD70F0E0014006E00C0E6FF6F
:100BC400140E7825E16E000E7921E26E090E026E94
:100BD4007EC400F07FC401F0025005E0013200320F
:0C0BE400019EFF0FFAD700C0E6FF1200D0
:100BF0007AC401F07BC402F0010E04017A5F000E9A
:100C00007B5B000E021802E1000E01181FE076C4A3
:100C1000E9FF77C4EAFF78C4D9FF79C4DAFFEE5060
:100C2000DE180FE076C4E9FF77C4EAFF78C4D9FF85
:100C300079C4DAFFDE50EE5C006E016A000E015AE4
:100C400007D0764B772B784B792BD2D7006A016A85
:020C5000120090
:100C5200780E0401836F040E846F76C485F477C422
:100C620086F4780E876F040E886F200E896F0B0E44
:100C72008A6F000E8B6FA7EC00F076C4E9FF77C491
:100C8200EAFFEE520DE076C4E9FF77C4EAFFEECF49
:100C920087F47AEC00F0005203E0764B772BEDD725
:100CA20076C487F477C488F4C50E896F000E8A6F04
:100CB2002CEC00F0000E011802E1000E001806E113
:100CC2002E0E0401786F2E0E796F60D0040176C467
:100CD20087F477C488F4C30E896F000E8A6F2CECF8
:100CE20000F0000E011802E1000E001804E12E0EC1
:100CF2000401786F4BD076C4E9FF77C4EAFFEE5265
:100D020020E076C4E9FF77C4EAFFEECF87F47AECFD
:100D120000F0005216E176C4E9FF77C4EAFFEE5014
:100D22002E0A0FE076C4E9FF77C4EAFF83C4E1FF2D
:100D320084C4E2FFEECFE6FF834B842B764B772B06
:100D4200DAD776C4E9FF77C4EAFFEE502E0A03E150
:100D52000401764B772B0401800E836F040E846F9F
:100D620076C4E9FF77C4EAFFEE5020080FE276C4AA
:100D7200E9FF77C4EAFF83C4E1FF84C4E2FFEECF58
:100D8200E6FF834B842B764B772BEAD785C487F417
:100D920086C488F4780E896F040E8A6F0B0E8B6FEF
:0A0DA200000E8C6F52EC00F01200FE
:100DAC008AEC00F00401786B796B020E795D02E13C
:100DBC00000E785D1CE2785176257A6F7951772197
:100DCC007B6FF0C0E1FFF1C0E2FFFF0EE66EEEC0FC
:100DDC0000F0EFC001F020EC00F07AC4E1FF7BC41E
:100DEC00E2FF00C0E6FF0401784B792BDED7F0C0A0
:100DFC00E1FFF1C0E2FFFF0EE66EEEC000F0EFC0C7
:100E0C0001F020EC00F0F0C0E1FFF1C0E2FFFF0EBA
:100E1C00E66EEEC000F0EFC001F020EC00F0120026
:100E2C00F0C0E1FFF1C0E2FF4C0EE66EEEC000F048
:100E3C00EFC001F020EC00F0F0C0E1FFF1C0E2FFE8
:100E4C00E66AEEC000F0EFC001F020EC00F0F0C05C
:100E5C00E1FFF1C0E2FFE66AEEC000F0EFC001F086
:100E6C0020EC00F0F0C0E1FFF1C0E2FFE66AEEC05A
:100E7C0000F0EFC001F020EC00F0F0C0E1FFF1C099
:100E8C00E2FFE66AEEC000F0EFC001F020EC00F0EB
:100E9C00F0C0E1FFF1C0E2FFFF0EE66EEEC000F025
:100EAC00EFC001F020EC00F00401776B786BF0C020
:100EBC00E1FFF1C0E2FFFF0EE66EEEC000F0EFC006
:100ECC0001F020EC00F000C076F40401774B782B95
:100EDC00800E0014016E0150000A07E0000E785DD0
:100EEC0002E1640E775D01E2E2D776AF05D09AECB1
:100EFC0000F076C400F014D0F0C0E1FFF1C0E2FFC6
:100F0C00FF0EE66EEEC000F0EFC001F020EC00F03A
:100F1C0000C076F40050000AEFE09AEC00F0006A92
:020F2C001200B1
:100F2E0068C402F069C403F002C000F003C001F00F
:100F3E00024A032A00C0E9FF01C0EAFFEE5201E0B7
:100F4E00F3D704016851025C006E69510358016EBB
:0A0F5E00010E005E000E015A1200A1
:100F68008EC304F08FC305F068C400F069C401F0B3
:100F780054EC03F000C06AF401C06BF4000E0401E5
:100F88006C6F6D6F0001E05104016A25006E00016D
:100F9800E15104016B21016E0001E25104016C2151
:100FA800026E0001E35104016D21036E00C06AF472
:100FB80001C06BF402C06CF403C06DF4010E0201B1
:100FC800F26F00C076F401C077F402C078F403C071
:100FD80079F4F20E04017A6F000E7B6FE2EC01F0F7
:100FE800005208E0100E0001EC6FFF0E006EFF0EBD
:100FF800016E22D08EC304F08FC305F068C400F0E0
:1010080069C401F054EC03F008C000F009C001F015
:1010180000C002F001C003F0023602900336F20E5F
:1010280002240401876F000E0320886F30EC01F062
:0A10380000C068F401C069F4120062
:10104200DEC000F0DFC001F08EC304F08FC305F0F4
:101052002CEC03F000C068F401C069F4020E040134
:101062006A6F000E6B6F8EC304F08FC305F0020E21
:10107200006E000E016E54EC03F000C06CF401C06F
:101082006DF4000E6E6F6F6F0001E05104016C276A
:101092000001E15104016D230001E25104016E23BC
:1010A2000001E35104016F238EC304F08FC305F0E6
:1010B200020E006E000E016E54EC03F008C000F048
:1010C20009C001F000C002F001C003F00236029034
:1010D2000336F20E0224706F000E0320716F6CC48F
:1010E20076F46DC477F46EC478F46FC479F46FEC5F
:1010F20003F0010E0201F26FF20E0401766F000E90
:10110200776F53DE040169516B5D02E168516A5DDC
:101112002DE270C4E9FF71C4EAFFEECF01F0EECF19
:1011220002F0000E021802E1000E011801E11ED0C9
:10113200020E7025016E000E7121026E01C070F464
:1011420002C071F46A4B6B2B02500301911902E148
:10115200905101180AE1F20E0401706F000E716FD6
:10116200F20E766F000E776F20DECCD75EDE005275
:1011720008E0100E0001EC6FFF0E006EFF0E016E14
:1011820010D004016B51691902E168516A1905E135
:10119200FF0E006EFF0E016E04D06AC400F06BC435
:0411A20001F0120046
:1011A600040168517A0804E3610E685DD8B0689B53
:0611B60068C400F0120005
:1011BC000401726B736B746B756B6851691103E18D
:1011CC00FF0E006EDED068C476F469C477F43BDDA4
:1011DC0003017E510001E7190EE103017D5100016D
:1011EC00E61909E103017C510001E51904E1030151
:1011FC007B510001E41905E1DCC06EF4DDC06FF435
:10120C000ED0D7C000F0D8C001F00FC304F010C34B
:10121C0005F02CEC03F000C06EF401C06FF47BC33E
:10122C0072F47CC373F47DC374F47EC375F4F20E54
:10123C000401706F000E716F7BC376F47CC377F47E
:10124C007DC378F47EC379F46FEC03F0010E0201D8
:10125C00F26FF20E0401766F000E776FA1DD0401C0
:10126C006C6B6D6B6F516D5D02E16E516C5DD8B046
:10127C007DD070C476F471C477F468C478F469C412
:10128C0079F40B0E7A6F000E7B6FACDC000E01183C
:10129C0002E1000E001844E1C3DD005206E0100E1E
:1012AC000001EC6FFF0E006E6CD004016A516B11E3
:1012BC0035E070C476F471C477F46AC478F46BC406
:1012CC0079F4AAEC03F0200E6A25E16E000E6B2176
:1012DC00E26E72C4E6FF73C4E6FF74C4E6FF75C425
:1012EC00E6FF240E6A25E16E000E6B21E26EF20E13
:1012FC00705D036E000E7159046E050E026E03C014
:10130C0000F004C001F0025005E001320032019EF1
:10131C00FF0FFAD700C0E6FF01C0E6FF006A31D02C
:10132C000401200E7025016E000E7121026E01C0A9
:10133C0070F402C071F402500301911902E1905152
:10134C00011810E1010E04017227000E732374239F
:10135C007523F20E706F000E716FF20E766F000E29
:10136C00776F1EDD04016C4B6D2B7CD759DD005261
:10137C0006E0100E0001EC6FFF0E006E02D0FF0EA7
:04138C00006E1200DD
:10139000220E0C6E086A096A0A6A0B6A0C06D8B437
:1013A0001FD0D8900B320A3209320832033202328F
:1013B00001320032D8A0F2D70C06D8B409D00450BC
:1013C00008260550092206500A2207500B22EAD7A8
:1013D000045008260550092206500A2207500B2205
:0213E0001200F9
:1013E2008EC304F08FC305F068C400F069C401F035
:1013F20054EC03F000C070F401C071F4000E04015B
:10140200726F736F0001E05104017025006E0001DC
:10141200E15104017121016E0001E25104017221C6
:10142200026E0001E35104017321036E00C070F4E7
:1014320001C071F402C072F403C073F4010E020120
:10144200F26F00C076F401C077F402C078F403C0F2
:1014520079F4F20E04017A6F000E7B6FE2EC01F078
:10146200005208E0100E0001EC6FFF0E006EFF0E3E
:10147200016E8FD08EC304F08FC305F068C400F0F4
:1014820069C401F054EC03F008C000F009C001F097
:1014920000C06EF401C06FF400C002F001C003F09E
:1014A20002360290033602C06EF403C06FF4F20EED
:1014B2000224E16E000E0320E26E6AC4E6FF010E12
:1014C20004016E25006E000E6F21016EF20E0024E3
:1014D200E16E000E0120E26E6BC4E6FF70C476F48A
:1014E20071C477F472C478F473C479F4F20E7A6F2B
:1014F200000E7B6F67EC02F0005208E0050E00015F
:10150200EC6FFF0E006EFF0E016E43D0010E040160
:101512006C6F000E6D6F000E6D5D04E10001DB511A
:1015220004016C5D34E20001DE5104017025006E9D
:101532000001DF5104017121016E000E7221026E61
:10154200000E7321036E00C070F401C071F402C07A
:1015520072F403C073F400C076F401C077F402C0E1
:1015620078F403C079F4F20E7A6F000E7B6F67ECA9
:1015720002F0005208E0050E0001EC6FFF0E006E53
:10158200FF0E016E06D004016C4B6D2BC4D7006AAE
:04159200016A1200D8
:04159600006A1200D5
:10159A000001D451E71908E1D351E61905E1D25106
:1015AA00E51902E1D151E41905E1DCC042F4DDC0DC
:1015BA0043F40ED0D7C000F0D8C001F00FC304F036
:1015CA0010C305F02CEC03F000C042F401C043F450
:1015DA0003018D510401431903E1425103018C199E
:1015EA0002E1006AB2D00FC304F010C305F08CC345
:1015FA0000F08DC301F054EC03F000500001D12536
:10160A000401466F01500001D2210401476F000E08
:10161A000001D3210401486F000E0001D421040106
:10162A00496F0FC304F010C305F08CC300F08DC3DB
:10163A0001F054EC03F008C000F009C001F0050EF7
:10164A00046E00C002F001C003F0045005E0023647
:10165A0002900336FF0FFAD70401F20E0224446FF8
:10166A00000E0320456F46C476F447C477F448C495
:10167A0078F449C479F46FEC03F0010E0201F26FB9
:10168A00F20E0401766F000E776FD6EC06F00401B5
:10169A00435103018D5D04E10401425103018C5D54
:1016AA0049E28C4B8D2B44C4E9FF45C4EAFFEECFD7
:1016BA0001F00150E50A20E044C4E9FF45C4EAFF0D
:1016CA00EECF01F0200E015C17E316EC07F0005292
:1016DA0006E0100E0001EC6FFF0E006E36D044C417
:1016EA0076F445C477F440C478F441C479F4AAEC9A
:1016FA0003F0010E006E29D00401200E4425016E6C
:10170A00000E4521026E01C044F402C045F40250A5
:10171A000301911902E1905101180BE1F20E040143
:10172A00446F000E456FF20E766F000E776FD6EC9F
:10173A0006F0ADD716EC07F0005206E0100E0001D5
:0C174A00EC6FFF0E006E01D0006A120070
:1017560004014151FF0A02E1FF0E401917E040C49F
:1017660068F441C469F4B4EC07F000C048F401C061
:1017760049F440C468F441C469F404016A6B6B6BB4
:101786002DDE48C440F449C441F4E2D7010E0201FB
:10179600F26F42C476F443C477F444C478F445C483
:1017A60079F4F20E04017A6F000E7B6FE2EC01F021
:1017B600005206E0100E0001EC6FFF0E006E20D006
:1017C600F20E04014625E16E000E4721E26EE50E9B
:1017D600E66E42C476F443C477F444C478F445C450
:1017E60079F4F20E7A6F000E7B6F67EC02F000520E
:1017F60006E0050E0001EC6FFF0E006E01D0006AD8
:021806001200CE
:1018080040C468F441C469F497EC07F000C042F49E
:101818000050000A03E1FF0E006E5BD042510C0835
:1018280003E2FE0E006E55D040C4D9FF41C4DAFF72
:101838002E0EDE1803E1FD0E006E4BD0446B40C443
:1018480045F441C446F442C443F44351000820E23D
:1018580043514025D96E000E4121DA6E2E0EDE1856
:1018680015E1010E446F4351080803E2FC0E006EB7
:1018780030D04351010F006E016A000E0122005062
:101888004025456F01504121466F02D04307DDD7FF
:10189800010E441906E04251080803E2FB0E006EEF
:1018A80018D0010E441914E145C468F446C469F41B
:1018B80097EC07F000C042F40050000A03E1F50E6F
:1018C800006E07D04251030803E2F40E006E01D007
:0418D800006A120090
:1018DC0003018C6B8D6B40C4E9FF41C4EAFFEE52EF
:1018EC0040E040C468F441C469F4420E04016A6FDC
:1018FC00040E6B6F5DDC800E0018016E800E000A0A
:10190C00015C06E2020E0001EC6FFF0E006E33D09C
:10191C0004014FB906D0010E0001EC6FFF0E006EF2
:10192C002AD0020E0401605D006E000E6159016E3A
:10193C00000E026E036ED7C004F0D8C005F0000E86
:10194C00066E076E1FDD00500001E825D16F0150B7
:10195C00E921D26F0250EA21D36F0350EB21D46FEF
:10196C0008D07BC3D1F07CC3D2F07DC3D3F07EC34F
:08197C00D4F0010E006E120010
:101984001A0E04014025876F000E4121886F30EC48
:1019940001F044C4E1FF45C4E2FF00C0E6FF01C01A
:1019A400E6FF44C4E9FF45C4EAFFEECF00F0EECF02
:1019B40001F0005001102CE121EC08F044C4E1FFD7
:1019C40045C4E2FF00C0E6FF01C0E6FF44C4E9FFEE
:1019D40045C4EAFFEECF01F0EECF02F00250FF0A59
:1019E40002E1FF0E011806E1040E0001EC6FFF0E88
:1019F400006E84D144C4E9FF45C4EAFFEECF68F425
:101A0400EECF69F4FF0E04016A6FFF0E6B6FE7DC23
:101A140044C4E9FF45C4EAFFEECF00F0EECF01F085
:101A2400000E026E036E020E005E000E015A025A90
:101A3400035AD7C004F0D8C005F0000E066E076E36
:101A4400A5DC42C4E1FF43C4E2FF00500001E825E5
:101A5400E66E0150E921E66E0250EA21E66E03507B
:101A6400EB21E66E03017E510001E7190EE103014B
:101A74007D510001E61909E103017C510001E519DA
:101A840004E103017B510001E41905E1DCC048F4E1
:101A9400DDC049F40ED0D7C000F0D8C001F00FC3A8
:101AA40004F010C305F02CEC03F000C048F401C0AE
:101AB40049F47BC34CF47CC34DF47DC34EF47EC324
:101AC4004FF4F20E04014A6F000E4B6F7BC376F4A1
:101AD4007CC377F47DC378F47EC379F46FEC03F0B0
:101AE400010E0201F26FF20E0401766F000E776FA1
:101AF400D6EC06F00401466B476B4951475D02E1A1
:101B04004851465DD8B0EBD04AC4E9FF4BC4EAFF64
:101B1400EECF01F00150E50A0AE04AC4E9FF4BC4E4
:101B2400EAFFEECF01F0200E015C01E3B1D016EC28
:101B340007F0005206E0100E0001EC6FFF0E006E7D
:101B4400DDD04AC487F44BC488F440C489F441C44A
:101B54008AF4200E04018B6F000E8C6F52EC00F09F
:101B64001A0E4A25E16E000E4B21E26E44C4E9FFD1
:101B740045C4EAFFFF0EEE14006E00C0E6FF1A0E25
:101B84004A25006E000E4B21016E010E0024E16E09
:101B9400000E0120E26E44C4E9FF45C4EAFFEECF23
:101BA40003F0EECF04F004C000F0016A00C0E6FFC9
:101BB4000E0E4A25E16E000E4B21E26E79C3E6FF5C
:101BC4000E0E4A25006E000E4B21016E010E0024FC
:101BD400E16E000E0120E26E7AC3E6FF100E4A2584
:101BE400E16E000E4B21E26E4BC3E6FF100E4A2558
:101BF400006E000E4B21016E010E0024E16E000EFA
:101C04000120E26E4CC3E6FF160E4A25E16E000E7B
:101C14004B21E26E79C3E6FF160E4A25006E000ED4
:101C24004B21016E010E0024E16E000E0120E26ED4
:101C34007AC3E6FF180E4A25E16E000E4B21E26ED0
:101C44004BC3E6FF180E4A25006E000E4B21016EB1
:101C5400010E0024E16E000E0120E26E4CC3E6FF8B
:101C64004CC476F44DC477F44EC478F44FC479F47C
:101C7400F20E7A6F000E7B6F67EC02F0005206E002
:101C8400050E0001EC6FFF0E006E38D0006A36D0EE
:101C9400200E04014A25016E000E4B21026E01C084
:101CA4004AF402C04BF402500301911902E190512D
:101CB400011811E1010E04014C27000E4D234E239F
:101CC4004F23F20E4A6F000E4B6FF20E766F000E2A
:101CD400776FD6EC06F00401464B472B0ED716EC73
:101CE40007F0005206E0100E0001EC6FFF0E006ECC
:0E1CF40005D00001060EEC6FFF0E006E120010
:101D02000401446B0D0E445D18E244514025456FB9
:101D1200000E4121466F44514225E96E000E4321D7
:101D2200EA6EEECF68F4D3EC08F045C4E1FF46C496
:0C1D3200E2FF00C0E6FF442BE5D71200E2
:0E1D3E00ACB202D00000FCD740C4ADFF1200D2
:101D4C000B6A0A6A096A086A0E6A03340836045078
:101D5C00085E0550D8A0053C095E0650D8A0063C8C
:101D6C000A5E0750D8A0073C0B5EE86AD8A0010EAB
:101D7C000E5E0336070E0C6E0334083609360A362F
:101D8C000B360E36045003A012D0085E0550D8A0B6
:101D9C00053C095E0650D8A0063C0A5E0750D8A048
:101DAC00073C0B5EE86AD8A0010E0E5E11D0082627
:101DBC000550D8B0053C09260650D8B0063C0A267A
:101DCC000750D8B0073C0B26E86AD8B0010E0E2697
:101DDC0003360C2ED1D70234083609360A360B36A8
:101DEC000E36045003A012D0085E0550D8A0053C56
:101DFC00095E0650D8A0063C0A5E0750D8A0073CE6
:101E0C000B5EE86AD8A0010E0E5E11D008260550B4
:101E1C00D8B0053C09260650D8B0063C0A26075017
:101E2C00D8B0073C0B26E86AD8B0010E0E26023655
:101E3C00070E0C6E0234083609360A360B360E368F
:101E4C00045002A012D0085E0550D8A0053C095ED3
:101E5C000650D8A0063C0A5E0750D8A0073C0B5E83
:101E6C00E86AD8A0010E0E5E11D008260550D8B035
:101E7C00053C09260650D8B0063C0A260750D8B0B7
:101E8C00073C0B26E86AD8B0010E0E2602360C2E43
:101E9C00D1D70134083609360A360B360E360450C3
:101EAC0002A012D0085E0550D8A0053C095E065071
:101EBC00D8A0063C0A5E0750D8A0073C0B5EE86A27
:101ECC00D8A0010E0E5E11D008260550D8B0053CE6
:101EDC0009260650D8B0063C0A260750D8B0073C55
:101EEC000B26E86AD8B0010E0E260136070E0C6ED2
:101EFC000134083609360A360B360E36045001A06A
:101F0C0012D0085E0550D8A0053C095E0650D8A03A
:101F1C00063C0A5E0750D8A0073C0B5EE86AD8A0C6
:101F2C00010E0E5E11D008260550D8B0053C0926CE
:101F3C000650D8B0063C0A260750D8B0073C0B26F2
:101F4C00E86AD8B0010E0E2601360C2ED1D700341B
:101F5C00083609360A360B360E36045001A012D05C
:101F6C00085E0550D8A0053C095E0650D8A0063C7A
:101F7C000A5E0750D8A0073C0B5EE86AD8A0010E99
:101F8C000E5E11D008260550D8B0053C0926065027
:101F9C00D8B0063C0A260750D8B0073C0B26E86A96
:101FAC00D8B0010E0E260036070E0C6E0034083623
:101FBC0009360A360B360E36045000A012D0085ED5
:101FCC000550D8A0053C095E0650D8A0063C0A5E18
:101FDC000750D8A0073C0B5EE86AD8A0010E0E5E35
:101FEC0011D008260550D8B0053C09260650D8B0AB
:101FFC00063C0A260750D8B0073C0B26E86AD8B036
:10200C00010E0E2600360C2ED1D700B00ED0045087
:10201C0008260550D8B0053C09260650D8B0063C19
:0C202C000A260750D8B0073C0B26120013
:10203800DDC340F4DEC341F404EC0CF0005206E0CA
:10204800120E0001EC6F010E006E8DD07F0E0401A0
:10205800406F030E416FDDC342F4DEC343F44DDE2F
:102068002B0E876F040E886F7F0E896F030E8A6FA1
:102078000D0E8B6F000E8C6F52EC00F07F0E686FA8
:10208800030E696F050E6A6F040E6B6FDEEC08F0C5
:10209800800E0018016E800E000A015C06E2020E36
:1020A8000001EC6F020E006E5ED0040112A934D05C
:1020B800386B396B2B0E406F040E416F0BDC800EB2
:1020C8000018016E800E000A015C03E2020E006E29
:1020D8004AD0DF0E0401406F030E416FCDEC0AF0C9
:1020E80000520BE00401384B392B000E391902E17C
:1020F800030E381901E101D0ECD70401CBEC0AF04A
:10210800000E395D02E1030E385D06E30C0E000196
:10211800EC6F030E006E27D023C440F424C441F4AE
:1021280025C442F426C443F427C444F428C445F41F
:10213800050E006E29C446F42AC447F4005006E090
:102148000401463746914737FF0FF9D7ABEC0BF040
:10215800800E0018016E800E000A015C03E2040E76
:08216800006E01D0006A1200B4
:10217000DDC340F4DEC341F404EC0CF0005206E091
:10218000120E0001EC6FFF0E006E07D27F0E0401ED
:10219000406F030E416FDDC342F4DEC343F4B1DD93
:1021A00003010D510E1120E01C0E006E000E016E99
:1021B00049C304F0000E49BFFF0E056E2CEC03F07E
:1021C000110E0024E16E030E0120E26E1C0E006E63
:1021D000F30EE96E020EEA6EEECFE6FF0006FCE1BA
:1021E0000D6B0E6BFF0E496F2B0E0401876F040EF3
:1021F000886F7F0E896F030E8A6F0D0E8B6F000E36
:102200008C6F52EC00F07F0E686F030E696F050E45
:102210006A6F040E6B6FDEEC08F0800E0018016E22
:10222000800E000A015C6AE20301E0AF61D00401A4
:10223000386B396B3A6B3B6B3C6B3D6B580E030153
:10224000E015006E06E0080E0001EC6FFF0E006E58
:10225000A4D1E10E0401876F030E886F896B200EF5
:102260008A6F000E8B6FA7EC00F07F0E0301E01564
:10227000006E00C0ECF3E10E0401876F030E886F5F
:102280007F0E896F030E8A6F0B0E8B6F000E8C6FA3
:1022900052EC00F0E10E406F030E416F3A0E426FB8
:1022A000040E436F380E446F040E456FC2EC0CF001
:1022B000800E0018016E800E000A015C03E2FF0E22
:1022C000006E6BD12B0E0401686F040E696F050E52
:1022D0006A6F040E6B6FDEEC08F0800E0018016E62
:1022E000800E000A015C03E2FF0E006E56D106D09C
:1022F0000D0E0001EC6FFF0E006E4FD1580E040161
:102300001215006E06E0080E0001EC6FFF0E006E65
:1023100044D10401016B026B000E025D02E1020E6A
:10232000015D4BE21C0E006E000E016E01C404F054
:1023300002C405F02CEC03F0110E0026030E01225E
:1023400000C003F401C004F41A0E0024E96E000E6C
:102350000120EA6EEE50EE102DE0060E0325D96E38
:10236000000E0421DA6EDECF01F0DECF02F0245140
:10237000021802E1015023191DE11A0E0325E16E36
:10238000000E0421E26EDFC3E6FF000EE66E1C0EB7
:10239000006EF30EE16E020EE26E03C4E9FF04C4A8
:1023A000EAFFEECFE6FF0006FCE101C449F301C4F9
:1023B00000F0F3D0014B022BAFD7016B026B000E84
:1023C000025D02E1020E015DD8B0E2D01C0E006E8B
:1023D000000E016E01C404F002C405F02CEC03F001
:1023E000110E0026030E01221A0E0024E96E000EC3
:1023F0000120EA6EEECF00F0EECF01F000500110A8
:10240000D8A4C2D01C0E006E000E016E01C404F0F0
:1024100002C405F02CEC03F0110E0026030E01227D
:1024200000C003F401C004F400C087F401C088F4C4
:10243000896B1C0E8A6F000E8B6FA7EC00F0060EE6
:102440000325026E000E0421036E0C0E0325006EA0
:10245000000E0421016E00C0E1FF01C0E2FF23C4B1
:10246000E6FF24C4E6FF00C0E9FF01C0EAFF02C0A6
:10247000E1FF03C0E2FFEECFE6FFEECFE6FF1A0E6C
:102480000325E16E000E0421E26EDFC3E6FF000EBD
:10249000E66E03C4E1FF04C4E2FF25C4E6FF26C4E0
:1024A000E6FF27C4E6FF28C4E6FF040E0325E16E1D
:1024B000000E0421E26E050E026E29C400F02AC44B
:1024C00001F0025005E0003600900136FF0FFAD708
:1024D00000C0E6FF01C0E6FF160E0325E16E000E08
:1024E0000421E26E1FC4E6FF20C4E6FF21C4E6FF1C
:1024F00022C4E6FF0E0E03253E6F000E04213F6F3F
:102500000C0E0325E96E000E0421EA6EEECF00F0FA
:10251000EECF01F0000E026E036E020E005E000EA2
:10252000015A025A035AD7C004F0D8C005F0000E71
:10253000066E076EC8EC09F00001E8510026E9516B
:102540000122EA510222EB5103223EC4E1FF3FC4C3
:10255000E2FF00C0E6FF01C0E6FF02C0E6FF03C0E5
:10256000E6FF1C0E006EF30EE16E020EE26E03C477
:10257000E9FF04C4EAFFEECFE6FF0006FCE101C478
:1025800049F301C400F009D00401014B022B17D715
:0C259000090E0001EC6FFE0E006E120040
:10259C007F0E0401406F030E416FDDC342F4DEC3B6
:1025AC0043F481EC0EF07F0E686F030E696F000E22
:1025BC006A6F000E6B6FDEEC08F0800E0018016E77
:1025CC00800E000A015C02E2006A02D0010E006E6D
:0225DC001200EB
:1025DE0003010D510E110AE1070E0001EC6FFF0E03
:1025EE00006EFF0E016E026E036EEBD0010E020145
:1025FE00F26F0301E0510C5D08E1DF510B5D05E167
:10260E00DE510A5D02E1DD51095D09E209C3FBF20B
:10261E000AC3FCF20BC3FDF20CC3FEF208D0DDC3FD
:10262E00FBF2DEC3FCF2DFC3FDF2E0C3FEF2D5C067
:10263E0004F0D6C005F0000E066E076EFBC200F069
:10264E00FCC201F0FDC202F0FEC203F0A6EC0EF0D9
:10265E00D7C004F0D8C005F0000E066E076EA6ECCB
:10266E000EF000C0E1F301C0E2F3F9C2FFF2FAC2CC
:10267E0000F3000E006EE251005C02E1E151000831
:10268E0026E2FFC268F400C369F4B4EC07F000C0A0
:10269E00FFF201C000F30150FF0A02E1FF0E001825
:1026AE0010E109C3FBF20AC3FCF20BC3FDF20CC32B
:1026BE00FEF20A0E0001EC6F006A016A026A036AFA
:1026CE0080D0010E0301E15F000EE25BD2D7D5C0D0
:1026DE0004F0D6C005F0000E066E076EFBC200F0C9
:1026EE00FCC201F0FDC202F0FEC203F0A6EC0EF039
:1026FE00D7C004F0D8C005F0000E066E076EA6EC2B
:10270E000EF008C000F009C001F00AC002F00BC0C4
:10271E0003F000C005F301C006F3FFC200F000C3D2
:10272E0001F0000E026E036E020E005E000E015AE4
:10273E00025A035AD7C004F0D8C005F0000E066E38
:10274E00076EC8EC09F00001E8510026E95101229C
:10275E00EA510222EB5103220301055100260651D4
:10276E000122000E0222032200C001F301C002F377
:10277E0002C003F303C004F3D5C004F0D6C005F0C5
:10278E00000E066E076EFBC200F0FCC201F0FDC229
:10279E0002F0FEC203F0A6EC0EF008C000F009C075
:1027AE0001F00AC002F00BC003F000C007F301C035
:1027BE0008F3FBC200F0FCC201F0FDC202F0FEC243
:0427CE0003F0120002
:1027D2000301E06BDDC3E9FFDEC3EAFFEECFDFF307
:1027E200DF51000A0FE0DFC340F49FEC0EF003015B
:1027F200E02BE051DD25E96E000EDE21EA6EEECF20
:06280200DFF3EED7120027
:10280800DEC000F0DFC001F08EC304F08FC305F016
:102818002CEC03F000C0E3F301C0E4F3020E030163
:10282800DF6F000EE06F8EC304F08FC305F0020E59
:10283800006E000E016E54EC03F000C0E7F301C017
:10284800E8F3000EE96FEA6F0001E0510301E727A2
:102858000001E1510301E8230001E2510301E923EA
:102868000001E3510301EA238EC304F08FC305F08E
:10287800020E006E000E016E54EC03F008C000F06A
:1028880009C001F000C002F001C003F00236029056
:102898000336DDC3E5F3DEC3E6F3020EE16F000E97
:1028A800E26FF20E0224EB6F000E0320EC6FE7C319
:1028B80076F4E8C377F4E9C378F4EAC379F46FEC03
:1028C80003F0010E0201F26FF20E0401766F000EA2
:1028D800776FD6EC06F00301E451E05D02E1E351C5
:1028E800DF5D3FE2EBC3E9FFECC3EAFFEECF01F0A7
:1028F800EECF02F0000E021802E1000E011809E105
:10290800010EE55F000EE65BE551E61101E129D015
:102918000AD0DDC3E5F3DEC3E6F3010EDF25E16F80
:10292800000EE021E26F020EEB25016E000EEC2195
:10293800026E01C0EBF302C0ECF3DF4BE02B025058
:10294800911902E1905101180BE1F20EEB6F000EA4
:10295800EC6FF20E0401766F000E776FD6EC06F07E
:10296800BAD716EC07F0005208E0100E0001EC6F21
:10297800FF0E006EFF0E016E0BD00301E551E6114C
:1029880005E1E1C300F0E2C301F002D0006A016A88
:0229980012002B
:10299A000301DE6BDF6B270EDF5D02E1100EDE5DE9
:1029AA00D8B0B3D0000E000A02E1000EDD191AE118
:1029BA002EEC01F0010E0401876F886B896B8A6B1C
:1029CA008B6BFF0E8C6FC5EC00F000C0E0F39AEC45
:1029DA0000F00301E051000A04E10001756B006A8E
:1029EA0096D08FD02EEC01F0370E0401876F886BDA
:1029FA00896B8A6B8B6BFF0E8C6FC5EC00F000C085
:102A0A00E0F39AEC00F00301E051010AD8A478D06F
:102A1A002EEC01F0290E0401876F000E886F000E5C
:102A2A00896F000E8A6F400E8B6FFF0E8C6FC5EC9C
:102A3A0000F000C0E0F39AEC00F00301E051000A54
:102A4A005EE1000E000A02E1020EDD1953E12EECEE
:102A5A0001F03A0E0401876F886B896B8A6B8B6B66
:102A6A00FF0E8C6FC5EC00F000C0E0F3F0C0E1FF90
:102A7A00F1C0E2FFFF0EE66EEEC000F0EFC001F01B
:102A8A0020EC00F000C0E1F3F0C0E1FFF1C0E2FF8A
:102A9A00FF0EE66EEEC000F0EFC001F020EC00F091
:102AAA00F0C0E1FFF1C0E2FFFF0EE66EEEC000F0FB
:102ABA00EFC001F020EC00F0F0C0E1FFF1C0E2FF4E
:102ACA00FF0EE66EEEC000F0EFC001F020EC00F061
:102ADA009AEC00F00301E051000A0BE1E1AD04D0E9
:102AEA00040E0001756F03D00001030E756F006AB2
:102AFA000ED005D00001010E756F006A08D001D012
:102B0A0004D00301DE4BDF2B46D7010E006E120004
:102B1A00DEC000F0DFC001F08EC304F08FC305F001
:102B2A002CEC03F00301DF51DD25036EE051DE21B9
:102B3A00046E0450015C02E10350005C01E209D119
:102B4A008EC304F08FC305F0DDC300F0DEC301F0CD
:102B5A0054EC03F000C0E2F301C0E3F3000EE46FAB
:102B6A00E56F0001E0510301E2270001E151030191
:102B7A00E3230001E2510301E4230001E3510301CD
:102B8A00E5238EC304F08FC305F0DDC300F0DEC376
:102B9A0001F054EC03F008C000F009C001F000C0D5
:102BAA0002F001C003F0023602900336DDC3E6F3F9
:102BBA00DEC3E7F3F20E0224E86F000E0320E96F8A
:102BCA00010E0201F26F000E031802E1000E021854
:102BDA0008E103018F51E05D02E18E51DF5D01E3FF
:102BEA0015D0E2C376F4E3C377F4E4C378F4E5C31B
:102BFA0079F4F20E04017A6F000E7B6FE2EC01F0B9
:102C0A00005204E0100E0001EC6FA3D0010E030184
:102C1A00DF5F000EE05BDF51E01166E0E64BE72B79
:102C2A00E8C3E1FFE9C3E2FFE6C3E6FFE7C3E6FF65
:102C3A00020EE825016E000EE921026E01C0E8F3DA
:102C4A0002C0E9F30250911902E1905101184BE1D7
:102C5A00E16B0001DB510301E15D26E2E1C300F013
:102C6A00000E016EDEC004F0DFC005F02CEC03F0AC
:102C7A000050E2250401766F01500301E3210401AB
:102C8A00776F000E0301E4210401786F000E03013F
:102C9A00E5210401796FF20E7A6F000E7B6F67EC03
:102CAA0002F00301E12BD5D7010EE227000EE32340
:102CBA00E423E523F20EE86F000EE96F8F51E05D21
:102CCA0002E18E51DF5D0FE2E2C376F4E3C377F4EB
:102CDA00E4C378F4E5C379F4F20E04017A6F000EC6
:102CEA007B6FE2EC01F092D7E8C3E1FFE9C3E2FFB0
:102CFA00FF0EE66EFF0EE66E0301E16B0001DB518B
:102D0A000301E15D26E2E1C300F0000E016EDEC0C0
:102D1A0004F0DFC005F02CEC03F00050E2250401BA
:102D2A00766F01500301E3210401776F000E03015E
:102D3A00E4210401786F000E0301E5210401796F93
:102D4A00F20E7A6F000E7B6F67EC02F00301E12B43
:042D5A00D5D71200B7
:102D5E00086A080E0C6E003408360450085ED8B0AF
:0E2D6E0002D00826D89000360C2EF5D71200A1
:102D7C00010E0201F26F060E006E000E016E4AC3C8
:102D8C0004F0000E056E2CEC03F04D0E0026030E25
:102D9C000122020E0024E96E000E0120EA6EEECF35
:102DAC0076F4EECF77F4EECF78F4EECF79F4F20E32
:102DBC0004017A6F000E7B6FE2EC01F0005206E02A
:102DCC00100E0001EC6FFF0E006EBBD0FD0E040167
:102DDC00876F000E886F30EC01F000C0D5F001C099
:102DEC00D6F0FFC0D7F0000E0001D86F000E040122
:102DFC00876F010E886F30EC01F000C0D9F001C074
:102E0C00DAF002C1DBF0030E876F010E886F30EC35
:102E1C0001F000C0DCF001C0DDF0080E876F010E80
:102E2C00886F30EC01F000C0DEF001C0DFF0060E60
:102E3C00006E000E016E4AC304F0000E056E2CEC01
:102E4C0003F04D0E0026030E0122020E0024E96E43
:102E5C00000E0120EA6E0001D951EE24006EDA5109
:102E6C00EE20016E000EEE20026E000EEE20036EC0
:102E7C0000C0E0F001C0E1F002C0E2F003C0E3F0FA
:102E8C00DBC000F0000E016EDEC004F0DFC005F008
:102E9C002CEC03F0000E026E036EE0510026E151A3
:102EAC000122E2510222E351032200C0E4F001C0EE
:102EBC00E5F002C0E6F003C0E7F0050E026EDCC0E0
:102ECC0000F0DDC001F0025005E000360090013644
:102EDC00FF0FFAD7D5C004F0D6C005F054EC03F0C0
:102EEC00000E026E036EE4510026E5510122E651FC
:102EFC000222E751032200C0E8F001C0E9F002C051
:102F0C00EAF003C0EBF0D5C08EF3D6C08FF303010B
:102F1C008F338E338F9F050E006ED5C00FF3D6C046
:102F2C0010F3005005E010330F33109FFF0FFAD74A
:102F3C00E4C07BF3E5C07CF3E6C07DF3E7C07EF331
:042F4C00006A120005
:102F50000301E36BE46B000EE45D02E10A0EE35D46
:102F60000BE2E351E125E16EE451E221E26E200E35
:102F7000E66EE34BE42BEFD7E351E125E16EE4513C
:102F8000E221E26EE66A010EE35F000EE45BE351CC
:102F9000E125E56FE451E221E66F0A0E046E000EB2
:102FA000056E066E076EDDC300F0DEC301F0DFC301
:102FB00002F0E0C303F0A6EC0EF008C000F009C078
:102FC00001F00AC002F00BC003F0300E0026E5C38A
:102FD000E1FFE6C3E2FF00C0E6FF0A0E046E000E4A
:102FE000056E066E076EDDC300F0DEC301F0DFC3C1
:102FF00002F0E0C303F0A6EC0EF000C0DDF301C068
:10300000DEF302C0DFF303C0E0F3000E046E03182A
:1030100008E10450021805E10450011802E10050D3
:10302000000A01E105D0010EE35F000EE45BAFD7BB
:0230300012008C
:1030320049C3A7F3ECC0A9F3A4C3DDF3A5C3DEF330
:10304200070E0301DF6FA6C3E0F3B8EC10F000C077
:10305200A8F3800E0018016E800E000A015C38E2AF
:103062000301A851FE0A32E1A9C3ECF01C0E006E66
:10307200000E016EA7C304F0000EA7BFFF0E056E7F
:103082002CEC03F0110E0026030E01221A0E00246E
:10309200E16E000E0120E26EE66AE66AA4C3DDF389
:1030A200A5C3DEF3070EDF6FA6C3E0F3B8EC10F0A2
:1030B20000C0A8F3800E0018016E800E000A015CA9
:1030C20002E2006A07D0020E006E04D0006A02D04B
:0630D200010E006E120069
:1030D800070E0301A55D02E1BC0EA45D04E3BC0E6E
:1030E800A45F070EA55B7F0EA417000EA5170F0E91
:1030F800A615016E01C0A6F301500C0802E20C0EE1
:10310800A66F010EA65D02E2010EA66FA7511F0869
:1031180002E21F0EA76F010EA75D02E2010EA76F64
:10312800A8511708D8A0A86BA9513B08D8A0A96B2B
:10313800AA513B08D8A0AA6B090E006EA4C34BF392
:10314800A5C34CF3005005E04B374B914C37FF0FAC
:10315800FAD7A6C303F0000E046E050E026E03C074
:1031680000F004C001F0025005E00036009001367E
:10317800FF0FFAD700504B1301504C13A7514B13B4
:10318800000E4C13A8C379F3000E7A6F0B0E006E75
:10319800005005E0793779917A37FF0FFAD7A9C33C
:1031A80003F0000E046E050E026E03C000F004C0AA
:1031B80001F0025005E0003600900136FF0FFAD703
:1031C8000050791301507A13AAC300F00032009E10
:0A31D80000507913000E7A13120064
:1031E2000301AE6B010E0201F26F0401766B776B85
:1031F200786B796BF20E7A6F000E7B6FE2EC01F066
:10320200005206E0100E0001EC6FFF0E006E9AD124
:10321200F20E0301A66F000EA76FFE0EA625E96E41
:10322200010EA721EA6EEE50550A03E0010E006E70
:1032320089D1FF0EA625E96E010EA721EA6EEE5096
:10324200AA0A03E0010E006E7DD1AE6BA6C3E9FFB0
:10325200A7C3EAFFEE50E90A02E1010EAE6FA6C370
:10326200E9FFA7C3EAFFEE50EB0A0BE1020EA62527
:10327200E96E000EA721EA6EEE50900A02E1010EFD
:10328200AE6FAE53D8B4BDD0AA6BAB6BAC6BAD6BAB
:103292004D0EA46F030EA56FA4C3E1FFA5C3E2FF09
:1032A200800EE66E020EA425E16E000EA521E26EEE
:1032B200E66AE66AE66AE66A60DD800E0018016E7A
:1032C200800E000A015C03E2010E006E3BD1000198
:1032D200DE51DF11D8B488D0010106510511006E0C
:1032E2001FE006C1AAF3000E0301AB6FAC6FAD6F16
:1032F200ACC3ADF3ABC3ACF3AAC3ABF3AA6B01018E
:1033020005510301AA27000EAB23AC23AD23010E06
:10331200A425E16E000EA521E26E040EE66E11D028
:10332200030112C1AAF313C1ABF314C1ACF315C16B
:10333200ADF3010EA425E16E000EA521E26E060E8C
:10334200E66EAAC300F0ABC301F0ACC302F0ADC39A
:1033520003F00001E851005EE951015AEA51025AB4
:10336200EB51035AD7C004F0D8C005F0000E066E28
:10337200076EA6EC0EF000C0AAF301C0ABF302C0C8
:10338200ACF303C0ADF3000E035C08E1000E025C77
:1033920005E10F0E015C02E1F50E005C0CE2010E8C
:1033A2000301A425E16E000EA521E26E010EE66E78
:1033B200010E006EC7D00301AD51000808E1AC5107
:1033C200000805E1AB51FF0802E1AA51F5080BE242
:1033D200010EA425E16E000EA521E26E0B0EE66E33
:1033E200010E006EAFD00CD00301010EA425E16ED8
:1033F200000EA521E26E0B0EE66E010E006EA2D04B
:10340200A0D0B00EA66F020EA76FA86BA96B000E1C
:10341200A95D02E1040EA85D58E2060E006E000EE0
:10342200016EA8C304F0A9C305F02CEC03F04D0E05
:103432000026030E012200C0A4F301C0A5F3A6C317
:10344200E9FFA7C3EAFF00C0E1FF01C0E2FFEECF40
:10345200E6FF040EA625006E000EA721016E00C035
:10346200A6F301C0A7F3010EA425E16E000EA5216B
:10347200E26E00C0E9FF01C0EAFFEECFE6FF040EF4
:10348200A625006E000EA721016E00C0A6F301C0A2
:10349200A7F3020EA425AF6F000EA521B06F00C0E6
:1034A20087F401C088F455EC01F0AFC3E1FFB0C36B
:1034B200E2FF00C0E6FF01C0E6FF02C0E6FF03C074
:1034C200E6FF0301A84BA92BA2D7060E006E000E41
:1034D200016E4AC304F0000E056E2CEC03F04D0E93
:1034E2000026030E0122010E0024E96E000E0120C7
:1034F200EA6EEE50040A1AE0060E006E000E016E2D
:103502004AC304F0000E056E2CEC03F04D0E0026AB
:10351200030E0122010E0024E96E000E0120EA6E64
:10352200EE50060A03E0010E006E0CD026DC800E7F
:103532000018016E800E000A015C03E2010E006EAB
:0635420001D0006A120036
:10354800A4C3DDF3A5C3DEF3E9EC13F00D0E04010B
:10355800406F9FEC0EF00A0E0401406F9FEC0EF0D6
:0235680012004F
:10356A0003010D510E1104E1070E0001EC6F50D05A
:10357A00010E0201F26FF3C276F4F4C277F4F5C2D7
:10358A0078F4F6C279F4F20E04017A6F000E7B6FBA
:10359A00E2EC01F0005204E0100E0001EC6F38D0AA
:1035AA00F20E0201F7250401766F000E0201F821DE
:1035BA000401776FAE0E786F030E796FAAEC03F0F1
:1035CA00ACC3E1FFADC3E2FFC0C3E6FFAAC3E1FF9C
:1035DA00ABC3E2FFBFC3E6FFA8C3E1FFA9C3E2FF93
:1035EA00BEC3E6FFA6C3E1FFA7C3E2FFBDC3E6FF72
:1035FA00BCC300F0000E016EBC0E0026070E0122AD
:10360A00A4C3E1FFA5C3E2FF00C0E6FF01C0E6FFD5
:02361A0012009C
:10361C000301AC6BAD6BA4C3AEF3A5C3AFF3A6C3F0
:10362C00B0F3A7C3B1F3800EA719006E800E005C37
:10363C0008E1000EA65D05E1000EA55D02E1000E9D
:10364C00A45D10E2010EAC6F000EAD6FAE6BAF6BF4
:10365C00B06BB16BA451AE5FA551AF5BA651B05B23
:10366C00A751B15BAEC3DDF3AFC3DEF3B0C3DFF381
:10367C00B1C3E0F3A8C3E1F3A9C3E2F363DC0B0E1F
:10368C00AA6F000EAB6F000E006EAB51005C02E136
:10369C00AA51000819E2AA51A825E16EAB51A92143
:1036AC00E26E010EAA5D006E000EAB59016E005069
:1036BC00A825E96E0150A921EA6EEECFE6FF010EB6
:1036CC00AA5F000EAB5BDFD7A8C3E1FFA9C3E2FF83
:1036DC00200EE66EAC51AD111AE0AA6BAB6BAA5181
:1036EC00A825E96EAB51A921EA6EEE50200A03E140
:1036FC00AA4BAB2BF4D7010EAA5F000EAB5BAA5101
:10370C00A825E16EAB51A921E26E2D0EE66E1200DA
:10371C0003010D510E1106E1070E0001EC6F010EB5
:10372C00006E3FD003010D6B0E6B1C0E006E000E75
:10373C00016E49C304F0000E49BFFF0E056E2CEC60
:10374C0003F0110E0024E16E030E0120E26E1C0E3C
:10375C00006EF30EE96E020EEA6EEECFE6FF000687
:10376C00FCE10301FF0E496FF9C240F4FAC241F4C7
:10377C00F3C242F4F4C243F4F5C244F4F6C245F485
:10378C00F7C246F4F8C247F4ABEC0BF0800E00180D
:10379C00016E800E000A015C03E2020E006E01D085
:0437AC00006A12009D
:1037B00003010D510E1104E1070E0001EC6F50D012
:1037C000010E0201F26FF3C276F4F4C277F4F5C28F
:1037D00078F4F6C279F4F20E04017A6F000E7B6F72
:1037E000E2EC01F0005204E0100E0001EC6F38D062
:1037F000F20E0201F7250401766F000E0201F82196
:103800000401776FAE0E786F030E796FAAEC03F0A8
:10381000ACC3E1FFADC3E2FFC6C3E6FFAAC3E1FF4D
:10382000ABC3E2FFC5C3E6FFA8C3E1FFA9C3E2FF44
:10383000C4C3E6FFA6C3E1FFA7C3E2FFC3C3E6FF1D
:10384000C2C300F0000E016EBC0E0026070E01225E
:10385000A4C3E1FFA5C3E2FF00C0E6FF01C0E6FF8D
:02386000120054
:1038620003010D510E110AE1070E0001EC6FFF0E6C
:10387200006EFF0E016E026E036E08D009C300F0E7
:0E3882000AC301F00BC302F00CC303F01200E6
:103890000301A86B050EA85D0AE2A851A625E16EFA
:1038A000000EA721E26E200EE66EA82BF3D7A851DA
:1038B000A625E16E000EA721E26EE66AA807A851D0
:1038C000A625A96F000EA721AA6F0A0E046E000E8E
:1038D000056EA4C300F0A5C301F054EC03F008C0CA
:1038E00000F009C001F0300E0026A9C3E1FFAAC311
:1038F000E2FF00C0E6FF0A0E046E000E056EA4C3D0
:1039000000F0A5C301F054EC03F000C0A4F301C023
:10391000A5F3000E011802E1000E001801E102D02B
:06392000A807CDD712003C
:103926000301A76B030EA75D0AE2A751A525E16E69
:10393600000EA621E26E200EE66EA72BF3D7A75146
:10394600A525E16E000EA621E26EE66AA707A7513D
:10395600A525A86F000EA621A96F0A0E046EA4C3A2
:1039660000F0AFEC16F008C000F0300E0026A8C339
:10397600E1FFA9C3E2FF00C0E6FF0A0E046EA4C37E
:1039860000F0AFEC16F000C0A4F30050000A01E10D
:0839960002D0A707DCD71200E4
:10399E00010E0201F26FF20E0401876F000E886FA6
:1039AE00896B000E8A6F020E8B6FA7EC00F003017D
:1039BE00A46B020EA45D1BE21C0E006E000E016EC7
:1039CE00A4C304F0000E056E2CEC03F0110E0024BF
:1039DE000401876F030E0120886F896B1C0E8A6F9E
:1039EE00000E8B6FA7EC00F00301A42BE2D7F30EB1
:1039FE000401876F020E886F896B1C0E8A6F000E92
:103A0E008B6FA7EC00F00301A46B040EA45D1BE208
:103A1E00060E006E000E016EA4C304F0000E056EBD
:103A2E002CEC03F04D0E00240401876F030E0120D1
:103A3E00886F896B060E8A6F000E8B6FA7EC00F0F5
:103A4E000301A42BE2D7D50E0401876F000E886FF9
:103A5E00896B170E8A6F000E8B6FA7EC00F0F20EBB
:103A6E000301906F020E916F4A6B7B6B7C6B7D6BCB
:103A7E007E6B0001EC6B03018C6B8D6B0001D16BC7
:103A8E00D26BD36BD46BFF0E0301496F7F0E040113
:103A9E00876F030E886F896B0D0E8A6F000E8B6F0A
:103AAE00A7EC00F00301796B7A6B4B6B4C6B120039
:103ABE00050E0001756F94909AEC00F00301A46B53
:103ACE00A56B000EA55D02E10A0EA45D10E2F0C02A
:103ADE00E1FFF1C0E2FFFF0EE66EEEC000F0EFC0B8
:103AEE0001F020EC00F00301A44BA52BEAD72EEC3D
:103AFE0001F00401876B886B896B8A6B8B6B950E5B
:103B0E008C6FC5EC00F000C0A6F39AEC00F0030138
:103B1E00A651010A03E0010E006E85D02EEC01F0D5
:103B2E00080E0401876FAA0E886F010E896F000EB2
:103B3E008A6F8B6F870E8C6FC5EC00F000C0A6F3FA
:103B4E00F0C0E1FFF1C0E2FFFF0EE66EEEC000F046
:103B5E00EFC001F020EC00F0F0C0E1FFF1C0E2FF99
:103B6E00FF0EE66EEEC000F0EFC001F020EC00F0AC
:103B7E00F0C0E1FFF1C0E2FFFF0EE66EEEC000F016
:103B8E00EFC001F020EC00F0F0C0E1FFF1C0E2FF69
:103B9E00FF0EE66EEEC000F0EFC001F020EC00F07C
:103BAE009AEC00F00301A651010A0BE0010EDD6F45
:103BBE00CDEC14F0005204E00301DD6BCDEC14F0FB
:103BCE0005D0020E0301DD6FCDEC14F0000E000ADD
:103BDE0003E1050E0001751903E1020E006E23D0FC
:103BEE00000E000A03E10001040E75191BE02EEC15
:103BFE0001F0100E0401876F000E886F020E896FA0
:103C0E00000E8A6F8B6FFF0E8C6FC5EC00F000C03C
:103C1E00A6F39AEC00F00301A651000A03E0030E8E
:083C2E00006E01D0006A1200D3
:103C3600060E03010D15006E0EC301F0000E0116EF
:103C46000050011004E1070E0001EC6F07D00301DC
:0E3C5600DD6BDE6BDF6BE06BEFEC12F012004B
:103C6400060E03010D15006E0EC301F0000E0116C1
:103C74000050011004E1070E0001EC6F36D203017D
:103C8400A651A71101E131D2010E0201F26F030125
:103C94000851020A02E1000E071926E0000E081975
:103CA40002E1000E07190BE10001D6510301A75DE3
:103CB40004E10001D5510301A65D01E315D001C360
:103CC40076F402C377F403C378F404C379F4F20EF0
:103CD40004017A6F000E7B6FE2EC01F0005204E005
:103CE400100E0001EC6F01D20301A86BA96BA75160
:103CF400A95D02E1A651A85DD8B01ED1F20E072538
:103D0400E16E000E0821E26EA851A425E96EA951C6
:103D1400A521EA6EEECFE6FF010E0725006E000E28
:103D24000821016E00C007F301C008F30851020A1C
:103D340002E1000E0719D8A4FBD001C376F402C334
:103D440077F403C378F404C379F4F20E04017A6FB0
:103D5400000E7B6F67EC02F000521CE00301A851D7
:103D64000201FB25006E0301A9510201FC21016E31
:103D7400000EFD21026E000EFE21036E00C0FBF258
:103D840001C0FCF202C0FDF203C0FEF2050E000108
:103D9400EC6FABD10301076B086B010E0125006EBC
:103DA400000E0221016E000E0321026E000E04219A
:103DB400036E00C001F301C002F302C003F303C0A9
:103DC40004F3010E0525006E000E0621016E00C0ED
:103DD40005F301C006F306510001D81903E1D751D8
:103DE400030105196BE1FFC268F400C369F4B4EC84
:103DF40007F000C0AAF301C0ABF30150FF0A02E1CF
:103E0400FF0E00182DE121EC08F000C0AAF301C058
:103E1400ABF30150FF0A02E1FF0E00180CE109C3E5
:103E2400FBF20AC3FCF20BC3FDF20CC3FEF20A0E52
:103E34000001EC6F5AD1FFC268F400C369F4AAC34D
:103E44006AF4ABC36BF4F1EC09F0AAC368F4ABC336
:103E540069F4FF0E04016A6FFF0E6B6FF1EC09F059
:103E6400AAC3FFF2ABC300F30301056B066BFFC2E9
:103E740000F000C301F0000E026E036E020E005E3D
:103E8400000E015A025A035AD7C004F0D8C005F0F4
:103E9400000E066E076EC8EC09F00001E85100261A
:103EA400E9510122EA510222EB51032200C001F33D
:103EB40001C002F302C003F303C004F30301A851D9
:103EC400A65D016EA951A759026E020E025C02E1C1
:103ED400000E015C2DE201C376F402C377F403C340
:103EE40078F404C379F4F20E04017A6F000E7B6F48
:103EF400E2EC01F000521CE00301A8510201FB2591
:103F0400006E0301A9510201FC21016E000EFD2186
:103F1400026E000EFE21036E00C0FBF201C0FCF233
:103F240002C0FDF203C0FEF2100E0001EC6FDDD002
:103F34000301A84BA92BDBD60751081115E001C3D7
:103F440076F402C377F403C378F404C379F4F20E6D
:103F540004017A6F000E7B6F67EC02F0005204E0FC
:103F6400050E0001EC6FC1D00301A6510201FB252F
:103F7400016E0301A7510201FC21026E000EFD2116
:103F8400036E000EFE21046E01C0FBF202C0FCF2BF
:103F940003C0FDF204C0FEF2045003010C5D08E10D
:103FA40003500B5D05E102500A5D02E10150095D19
:103FB40008E2FBC209F3FCC20AF3FDC20BF3FEC222
:103FC4000CF3F3C276F4F4C277F4F5C278F4F6C2D3
:103FD40079F4F20E04017A6F000E7B6FE2EC01F0CB
:103FE400005204E0100E0001EC6F7FD0F20E0201CB
:103FF400F725006E000EF821016E00C0ACF301C07D
:10400400ADF31C0E0024E16E000E0120E26E09C324
:10401400E6FF1C0E0301AC25006E000EAD21016EFF
:10402400010E0024E16E000E0120E26E0AC3E6FFD9
:104034001C0EAC25006E000EAD21016E020E002494
:10404400E16E000E0120E26E0BC3E6FF1C0EAC25F0
:10405400006E000EAD21016E030E0024E16E000E11
:104064000120E26E0CC3E6FF160EAC25E16E000ED5
:10407400AD21E26E79C3E6FF160EAC25006E000E8C
:10408400AD21016E010E0024E16E000E0120E26EEE
:104094007AC3E6FF180EAC25E16E000EAD21E26E88
:1040A4004BC3E6FF180EAC25006E000EAD21016E69
:1040B400010E0024E16E000E0120E26E4CC3E6FF07
:1040C400F3C276F4F4C277F4F5C278F4F6C279F464
:1040D400F20E04017A6F000E7B6F67EC02F000525F
:0C40E40004E0050E0001EC6F00D012009B
:1040F00003010DB10CD0A4C3E1FFA5C3E2FFE66A42
:10410000E66AE66AE66A070E0001EC6F13D0030167
:10411000DD6BDE6BDF6BE06BEFEC12F0A4C3E1FF55
:10412000A5C3E2FF09C3E6FF0AC3E6FF0BC3E6FF30
:064130000CC3E6FF1200C3
:1041360003010DB104D0070E0001EC6FEDD00301B1
:104146000C510201FE5D0EE103010B510201FD5D02
:1041560009E103010A510201FC5D04E10301095171
:104166000201FB5D04E30B0E0001EC6FD5D00301E9
:104176000851020A02E1000E0719D8A488D0076B7D
:10418600086B010E0525006E000E0621016E00C0AB
:1041960005F301C006F306510001D81903E1D75112
:1041A6000301051947E10301056B066BFFC268F4BD
:1041B60000C369F4B4EC07F000C0FFF201C000F3DD
:1041C6000150FF0A02E1FF0E00180CE109C3FBF2E1
:1041D6000AC3FCF20BC3FDF20CC3FEF20A0E000189
:1041E600EC6F9AD00001FFC200F000C301F0000E90
:1041F600026E036E020E005E000E015A025A035A48
:10420600D7C004F0D8C005F0000E066E076EC8ECE5
:1042160009F0E8510026E9510122EA510222EB5148
:10422600032200C001F301C002F302C003F303C07E
:1042360004F315D0010E03010125006E000E0221C4
:10424600016E000E0321026E000E0421036E00C0F3
:1042560001F301C002F302C003F303C004F3020139
:10426600F26B01C376F402C377F403C378F404C394
:1042760079F4F20E04017A6F000E7B6FE2EC01F026
:10428600005204E0100E0001EC6F46D019D0020176
:10429600F25316E0F26B01C376F402C377F403C35C
:1042A60078F404C379F4F20E04017A6F000E7B6F82
:1042B600E2EC01F0005204E0100E0001EC6F2CD08D
:1042C600F20E03010725E96E000E0821EA6EA4C36B
:1042D600E1FFA5C3E2FFEECFE6FF010E0725006E64
:1042E600000E0821016E00C007F301C008F3010E9D
:1042F6000201FB25006E000EFC21016E000EFD2161
:10430600026E000EFE21036E00C0FBF201C0FCF23D
:0A43160002C0FDF203C0FEF2120027
:10432000060E03010D15006E0EC301F0000E0116FE
:104330000050011004E1070E0001EC6F0AD009C320
:10434000DDF30AC3DEF30BC3DFF30CC3E0F3EFECE2
:0443500012F0120055
:10435400A8C340F4A9C341F404EC0CF0005208E0F3
:10436400120E0001EC6F006A016A026A036A12D13C
:10437400D7C004F0D8C005F0000E066E076EA4C3C3
:1043840000F0A5C301F0A6C302F0A7C303F0A6EC96
:104394000EF000C0ABF301C0ACF3D7C004F0D8C03A
:1043A40005F0000E066E076EA4C300F0A5C301F06D
:1043B400A6C302F0A7C303F0A6EC0EF008C000F0F9
:1043C40009C001F00AC002F00BC003F00050011054
:1043D4000210031003E00301AB4BAC2BABC3DDF3C2
:1043E400ACC3DEF304EC14F000C0ADF301C0AEF3D3
:1043F400000E015C02E1020E005C05E2006A016A43
:10440400026A036AC7D07BC3AFF37CC3B0F37DC336
:10441400B1F37EC3B2F3E4C07BF3E5C07CF3E6C042
:104424007DF3E7C07EF3A8C3DDF3A9C3DEF3CEECCE
:1044340012F0005206E0A8C3DDF3A9C3DEF31CECBE
:1044440010F07F0E0401406F030E416FA8C342F4C5
:10445400A9C343F481EC0EF07F0E766F030E776FE1
:1044640029EC06F0BD0E876F030E886F896B200E52
:104474008A6F000E8B6FA7EC00F0BD0E876F030EE2
:10448400886F7F0E896F030E8A6F0B0E8B6F000E81
:104494008C6F52EC00F07F0E0301AA15006E00C071
:1044A400C8F3ADC3D7F3AEC3D8F3A4C300F0A5C318
:1044B40001F0A6C302F0A7C303F0D5C004F0D6C030
:1044C40005F0000E066E076EC8EC09F000C0B3F3E9
:1044D40001C0B4F302C0B5F303C0B6F3B3C3D9F358
:1044E400B4C3DAF3B5C3DBF3B6C3DCF3BD0E040126
:1044F400406F030E416FB70E426F030E436FBB0E46
:10450400446F030E456FC2EC0CF0800E0018016E70
:10451400800E000A015C0DE2AFC37BF3B0C37CF3F1
:10452400B1C37DF3B2C37EF3006A016A026A036A0F
:1045340031D0ADC3DDF3AEC3DEF3ABC3DFF3ACC345
:10454400E0F38DEC15F0AFC37BF3B0C37CF3B1C3E0
:104554007DF3B2C37EF3ADC300F0AEC301F0000E31
:10456400026E036E020E005E000E015A025A035AD6
:10457400D7C004F0D8C005F0000E066E076EC8EC74
:1045840009F00001E8510026E9510122EA51022212
:06459400EB5103221200AE
:10459A000900F5CFE6FF0006FBE10106F9E112008A
:1045AA000301926B5FEC1DF00301922B005204E0B1
:1045BA00320E925D01E2F6D7320E925D03E3FF0EF0
:0E45CA00006E04D0CFEC1CF0F1EC18F01200E3
:1045D800C69A2E0E0001EE6F000EEF6F900EF06F70
:1045E800040EF16FFF0E0301716FFF0E726FFF0E65
:1045F800736FFF0E746F949A9251040A02E19486C5
:1046080001D094969488C66A9251C6129451C612E3
:104618009351C712945305E09551000AD8B4C78C3A
:0C46280003D09553D8A4C78CC68A12009A
:104634003E0E0301756F1D0E766F400E776F040EEC
:10464400786FFF0E6D6FFF0E6E6F000E6F6F000EB2
:10465400706FFF0E656FFF0E666F000E676F000EC2
:10466400686FFF0E696FFF0E6A6F000E6B6F000EAE
:104674006C6FAC8A900EAB6E948E949C9EAA03D001
:08468400AECF00F0FBD71200DD
:10468C00460E0001636F5C0E0301A46F000EA56F54
:0C469C00A66B19EC18F08EEC1BF012005D
:1046A800420E0001636F5C0E0301A46F000EA56F3C
:1046B800A66B19EC18F0CD0E0301A46F000EA56FC0
:1046C80013DD010E0001C96F000ECA6FCB6FCC6FEE
:1046D800CC51D05D08E1CB51CF5D05E1CA51CE5D2B
:1046E80002E1C951CD5D12E3920E0301A46F030EDE
:1046F800A56F1DDD92C340F49FEC0EF0010E000182
:0E470800C927000ECA23CB23CC23E2D7120010
:10471600880E0301A46F130EA56F000EA66FA76F78
:104726006A0EA86F000EA96F200EAA6F10DE00C0D9
:10473600CDF001C0CEF002C0CFF003C0D0F003012F
:10474600926B936B020E935D02E1000E925D0BE29B
:10475600F20E9225E16E000E9321E26E92C3E6FF01
:10476600924B932BEFD70001CD51CE11CF11D01123
:104776003DE0CDC0A4F3CEC0A5F3CFC0A6F3D0C014
:10478600A7F3980E0301A86F000EA96F0EEC1BF09D
:10479600980EA46F000EA56FA4EC1AF00301926B9D
:1047A600936B130E935D02E1880E925D1FE2CDC0FE
:1047B60076F4CEC077F4CFC078F4D0C079F4F20E98
:1047C60004017A6F000E7B6F67EC02F0010E0001A8
:1047D600CD27000ECE23CF23D0232E0E0401406F0B
:0E47E6009FEC0EF00301924B932BDBD71200D9
:1047F400420E0001636F5C0E0301A46F000EA56FEF
:10480400A66B19EC18F00052D8B4EFD0920E030145
:10481400A46F030EA56F940EA66F030EA76F950EDB
:10482400A86F030EA96F960EAA6F030EAB6F970EB7
:10483400AC6F030EAD6FB5EC1AF0AC0E0301DD6F77
:10484400000EDE6FE9EC13F092C3A4F393C3A5F357
:10485400980EA66F030EA76F48EC1CF0980EDD6F40
:10486400030EDE6FE9EC13F094C3A4F3980EA56F66
:10487400030EA66F93EC1CF0980EDD6F030EDE6F33
:10488400E9EC13F095C3A4F3000EA56F980EA66F80
:10489400030EA76F48EC1CF0980EDD6F030EDE6F5D
:1048A400E9EC13F096C3A4F3000EA56F980EA66F5F
:1048B400030EA76F48EC1CF0980EDD6F030EDE6F3D
:1048C400E9EC13F097C3A4F3000EA56F980EA66F3E
:1048D400030EA76F48EC1CF0980EDD6F030EDE6F1D
:1048E400E9EC13F0920EA46F030EA56F940EA66F5D
:1048F400030EA76F950EA86F030EA96F960EAA6FED
:10490400030EAB6F970EAC6F030EAD6FD8EC1BF0BC
:10491400B70E0301DD6F000EDE6FE9EC13F092C3F6
:10492400A4F393C3A5F3980EA66F030EA76F48ECE8
:104934001CF0980EDD6F030EDE6FE9EC13F094C3E8
:10494400A4F3980EA56F030EA66F93EC1CF0980EBB
:10495400DD6F030EDE6FE9EC13F095C3A4F3000ED4
:10496400A56F980EA66F030EA76F48EC1CF0980E67
:10497400DD6F030EDE6FE9EC13F096C3A4F3000EB3
:10498400A56F980EA66F030EA76F48EC1CF0980E47
:10499400DD6F030EDE6FE9EC13F097C3A4F3000E92
:1049A400A56F980EA66F030EA76F48EC1CF0980E27
:1049B400DD6F030EDE6FE9EC13F031EC1CF000C088
:1049C400A4F301C0A5F302C0A6F303C0A7F3980E95
:1049D4000301A86F030EA96F0EEC1BF0980EA46FD1
:1049E400030EA56FA4EC1AF016D0550E0401406F07
:1049F4009FEC0EF0290E0B6E960E0C6E7F0E0D6E54
:104A04000D2EFED70C2EFCD70B2EFAD7550E040113
:084A1400406F9FEC0EF0120050
:104A1C00420E0001C86FC8515A0849E3C8C040F49F
:104A2C009FEC0EF0C8C063F0DA0E0301A46F070E02
:104A3C00A56F040EA66F130EA76F090EA86FA96BB6
:104A4C00AA6B6CEC18F05C0EA46F000EA56FA00E98
:104A5C00A66F19EC18F01BEC1EF0010E0001ED6FA7
:104A6C00ED512C0822E30A0E046EEDC000F0AFEC01
:104A7C0016F0300E0024316E0A0E046EEDC000F0FC
:104A8C00AFEC16F008C000F0300E0024326E310E80
:104A9C000301A46F000EA56F2A0EA66F000EA76F60
:104AAC0032EC1EF00001ED2BDBD7C82BB4D7120073
:104ABC00410E0001636FDA0E0301A46F070EA56FA0
:104ACC00040EA66F130EA76F090EA86FA96BAA6B25
:104ADC006CEC18F05C0EA46F000EA56FA00EA66F08
:104AEC0019EC18F01BEC1EF0010E0001ED6FED51EE
:104AFC00630827E32E0E0401406F9FEC0EF00A0EA4
:104B0C00046EEDC000F0AFEC16F0300E0024316EE8
:104B1C000A0E046EEDC000F0AFEC16F008C000F009
:104B2C00300E0024326E310E0301A46F000EA56FFF
:104B3C002A0EA66F000EA76F32EC1EF00001ED2BB3
:044B4C00D6D71200A6
:104B5000420E0001636F5C0E0301A46F000EA56F8F
:104B6000A66B19EC18F0DA0E0301A46F070EA56FFF
:104B7000040EA66F130EA76F090EA86F140EA96F6F
:104B8000AA6B6CEC18F090EC21F0150E0301A46FE9
:104B9000000EA56F1B0EA66F000EA76F32EC1EF065
:024BA000120001
:104BA200430E0001636F5C0E0301A46F000EA56F3C
:104BB200A66B19EC18F01BEC1EF0010E0001ED6F54
:104BC200ED51370822E30A0E046EEDC000F0AFEC9F
:104BD20016F0300E0024316E0A0E046EEDC000F0A5
:104BE200AFEC16F008C000F0300E0024326E310E29
:104BF2000301A46F000EA56F2A0EA66F000EA76F09
:0C4C020032EC1EF00001ED2BDBD712009D
:104C0E00ADEC26F00F013A6B606AB886010EB06EFD
:104C1E00A00EAF6EAC8407DD680E0C6EE40E0D6E4A
:104C2E000D2EFED70C2EFCD70000760EA46F000EB4
:104C3E00A56FA4EC1AF0020E0301926F936B946BA6
:104C4E00010E956FC2DCAADC0050000A1DE10301C3
:104C5E00926B936B946B010E956FB7DC8C0EA46FF9
:104C6E00000EA56FA4EC1AF022DFD1DE93DF69DF10
:104C7E0014DD05DDB8DD48DD820E0301A46F000EE4
:104C8E00A56FA4EC1AF007D0980E0301A46F000EC6
:084C9E00A56FA4EC1AF0FFD78A
:104D5A0010EE15F0B30E006E010E016EA60EF66E81
:0E4D6A004C0EF76E000EF86ECDEC22F012002B
:104CA60020666F72206D696B726F456C656B7472EE
:0C4CB6006F6E696B6120323031300A00F3
:104CC2005858204D4D432F534420464154313620ED
:104CD2006C69627261727920627920416E746F6EC2
:0B4CE20020526965636B6572740A0064
:0E4CED004D494B524F3030782E545854000031
:0B4CFB006D696B726F452E74787400B9
:014D060000AC
:0C4D07005049432D5374617274656400C0
:0A4D13005465737420456E642E0091
:0C4D1D00546573742053746172742E008E
:104D29004641543136206E6F7420666F756E64008B
:044D39000000000076
:0B4D3D0020637265617465643A200019
:0C4D4800206D6F6469666965643A2000A4
:024D54002E002F
:034D56002E2E00FE
:020000040030CA
:0D000100331F3CFFBD81FF0FC00FE00F401B
:00000001FF
