:02000000E128F5
:1000060083120313FB01FA01F9018030F800F10CA9
:10001600F00C031C17287408F90775080318750FE8
:10002600FA070318FB0A0310F01F1F287408FA07C3
:1000360075080318750FFB07FB0CFA0CF90CF80C86
:10004600031C0A287B08F3007A08F2007908F100FD
:060056007808F00008002C
:0C005C00831203139B011D129D1208006B
:0C00680083120313950117129712080071
:100074008316031788018901831287138813FF30BD
:1000840003138500FF3083168500831286018316CF
:10009400860183128701831687018312121492103A
:1000A4006330831692003420121492106330831646
:0600B40092002E2008005E
:1000BA00831603131208013EF000F1010318F10A36
:1000CA0083122408F400F50103200630F2007008B8
:1000DA00F4007108F500720803197828F50CF40C7D
:1000EA00F513FF3E71280430F1007408F00071081E
:1000FA0003198328F00D7010FF3E7D2830307005FB
:10010A00F3007408F0007508F100F10CF00CF1131B
:10011A00F10CF00CF11370089B000F309D05730869
:04012A009D04080028
:10012E00831603130711831212150C30970408005F
:10013E00831603131208013EF000F1010318F10AB1
:10014E0083122408F400F50103200630F200700833
:10015E00F4007108F50072080319BA28F50CF40CB6
:10016E00F513FF3EB3280430F1007408F000710857
:10017E000319C528F00D7010FF3EBF2830307005F2
:10018E00F3007408F0007508F100F10CF00CF11397
:10019E00F10CF00CF113700895000F3097057308F1
:0401AE0097040800AA
:1001B200831603138710831212150C309D04080056
:1001C2003A201030A3001030A0009720D920230835
:1001D200A4009F202008A4005D20051CFD28683093
:1001E200FC00E430FD00FD0BF428FC0BF4280000B9
:1001F200A30A2308A4009F20851C0C296830FC0058
:10020200E430FD00FD0B0329FC0B03290000A303CE
:100212002308A4009F20051D1B296830FC00E43040
:10022200FD00FD0B1229FC0B12290000A00A200878
:10023200A4005D20851D2A296830FC00E430FD0001
:10024200FD0B2129FC0B21290000A0032008A4009A
:100252005D200D30FC00FB30FD00FD0B2E29FC0B58
:0A0262002E2900000000EE283529C7
:04400E00F22F000786
:00000001FF
