:10000000DDEF01F00000000000EF00F00000000054
:0A0010000000000000000000F3D71C
:10001C0046C0C9FFC7B002D00000FCD7C9CF00F062
:02002C001200C0
:10002E0046C06FFF6DB002D00000FCD76FCF00F05E
:02003E001200AE
:0C004000020E0D6E0D2EFED70000120007
:10004C00F250026EF29E0500FF6A0150FE6E0050E7
:08005C00FD6E02BEF28E1200DF
:1000640043C000F00036009000C043F08B92008C37
:10007400FE0E001637C0E1FF38C0E2FF00C0E6FF05
:1000840035C000F036C001F0DFDF37C0E1FF38C013
:10009400E2FF44C0E6FF35C000F036C001F0D4DF13
:1000A40037C0E1FF38C0E2FF45C0E6FF35C000F0CD
:1000B40036C001F0C9DF8B82C1DFC0DFBFDF1200B1
:1000C40040C043F0140E446E41C045F0C9DF120035
:1000D40040C000F00036009000C040F08B92008CCD
:1000E400008037C0E1FF38C0E2FF00C0E6FF35C042
:1000F40000F036C001F0A8DF37C0E1FF38C0E2FFEE
:1001040041C0E6FF35C000F036C001F09DDF37C0C6
:10011400E1FF38C0E2FFE66A35C000F036C001F006
:1001240093DF00C042F08B8289DF88DF87DF42C023
:0401340000F01200C5
:0A013800850E0D6E0D2EFED712008D
:100142003A0E0C6E230E0D6E0D2EFED70C2EFCD722
:02015200120099
:1001540040C043F0150E446E41C045F081DF1200EB
:100164003EC043F0010E446E3FC045F079DF1200FB
:0E0174003EC043F0446A3FC045F072DF120007
:1001820094908B8094928B828B9059DF58DF8B8076
:1001920056DF8B9237C0E1FF38C0E2FF400EE66EB9
:1001A20035C000F036C001F050DF37C0E1FF38C083
:1001B200E2FF0A0EE66E35C000F036C001F045DF00
:1001C20037C0E1FF38C0E2FF080EE66E35C000F02E
:1001D20036C001F03ADF8B8232DF31DF30DF1200CE
:1001E2002FC040F0140E416E74DF00C03FF0EF0EDE
:1001F200001600C03FF02FC040F000C041F061DFA8
:100202002FC040F03EC041F0A4DF2FC040F0140EDA
:10021200416E5FDF00C03FF03450010A03E1FB0E84
:100222003F1601D03F842FC040F03FC041F049DF6C
:10023200100E3F10006E00C03FF02FC040F000C013
:1002420041F03FDFFCDEEF0E3F14006E00C03FF0D6
:100252002FC040F000C041F034DF3450010A02E107
:080262006FDF01D068DF12001C
:10026A00C69A1C0E356E000E366E460E376E000E9E
:10027A00386EFF0E306EFF0E316EFF0E326EFF0EBD
:10028A00336E949A94969488C66A400EC76EC68A4C
:02029A00120050
:10029C000900F5CFE6FF0006FBE10106F9E11200CB
:1002AC0039C02FF039C03EF066DF45DF44DF43DF55
:1002BC002FC040F0140E416E07DFE30E0014416EA8
:1002CC002FC040F0F9DE2FC040F0416A3DDF2FC057
:1002DC0040F0416AF9DEE30E00143F6E2FC03EF091
:1002EC0043DF2FC03EF03F6A37DF010E346E300E15
:1002FC003E6E71DF300E3E6E6EDF300E3E6E6BDF8B
:10030C00380E3E6E68DF080E3E6E65DF010E3E6EE7
:10031C0062DF060E3E6E5FDF0C0E3E6E5CDF12007F
:0E032C00346A39C03EF057DF010E346E120005
:10033A000FD0800E396E19D0C00E396E16D0940EB9
:10034A00396E13D0D40E396E10D0800E396E0DD09E
:10035A003950010AEEE03950020AEEE03950030A38
:10036A00EEE03950040AEEE0F0D73A04006E395054
:10037A00002600C039F0010E346E00C03EF02CDFBA
:10038A00346A3D6A3D503B24E96E000E3C20EA6E19
:10039A00EE520BE03D503B24E96E000E3C20EA6E23
:1003AA00EECF3EF019DF3D2AEDD7010E346E120072
:1003BA000EEC02F00F013A6B606A52DF396A71DFA4
:1003CA00010E3E6E09DF0C0E3E6E06DF010E396E1F
:1003DA00060E3A6E280E3B6E000E3C6EA9DF210E09
:1003EA00396E9FDF020E396E010E3A6E26C03BF05F
:0803FA0027C03CF09DDFFFD796
:10041C0010EE15F01A0E006E010E016E020EF66E45
:0E042C00040EF76E000EF86E4EEC01F012009A
:100402006D696B726F456C656B74726F6E696B614F
:0104120000E9
:020413001500D2
:070415006D696B726F450079
:020000040030CA
:0D000100331F3CFFBD81FF0FC00FE00F401B
:00000001FF
