:10000000F4EF05F00000000000EF00F00000000039
:0A0010000000000000000000F3D71C
:0C001C00420E0D6E0D2EFED700001200EB
:100028001D0E0C6E910E0D6E0D2EFED70C2EFCD7EC
:020038001200B4
:0A003A0000000000000000001200AA
:100044000B840BAE2DEF00F0010E036E026A016A01
:0A005400006A0A360232FF0E1200A5
:08005E000AAE029E000E120022
:1000660059BE02D08A9601D08A8659BC02D08A949B
:1000760001D08A8459BA02D08A9201D08A8259B8AC
:1000860002D08A9001D08A802DB002D08A8801D011
:100096008A988A8ACFDF8A9A59B602D08A9601D080
:1000A6008A8659B402D08A9401D08A8459B202D081
:1000B6008A9201D08A8259B002D08A9001D08A8071
:1000C6002DB002D08A8801D08A988A8AB3DF8A9AAC
:0C00D6002DA002D0A6DF01D09EDF12009A
:0E00E200026A016A006A086A036A000E1200D0
:1000F0000B820BAE82EF00F00368026801680068B3
:080100000A360232FF0E120064
:100108000C6A0E6A0250D8A49DEF00F001C002F0FC
:1001180000C001F0006A0E860250D8A49DEF00F0DE
:1001280001C002F0016A0E960E880250D8B4AFEFF3
:1001380000F00E50035ED8A4D8A0B4EF00F0D89019
:1001480002BEB9EF00F0003601360236032EA4EFE6
:1001580000F0B4EF00F0010E0C6EBFDFBCEF00F052
:10016800020E0C6E6BDFBCEF00F0040E0C6E73DF3A
:02017800120073
:10017A00086A096A000E0762036442EF01F002503E
:10018A0006180A6E075003267E0ED8A0D3EF00F099
:10019A00035ED8B046EF01F0D7EF00F0035ED8A0B7
:1001AA004AEF01F0028E068E02C00EF001C00BF07B
:1001BA0000C00DF000500402F4CF0CF0015005020B
:1001CA00F4CF00F0F3CF08F00402F3500C26F450F9
:1001DA000822000E00220D500502F3500C26F4509E
:1001EA000822000E002202500402F3500826F4509E
:1001FA00002202500502016A000E0122F350002675
:10020A00F45001220D500602F3500826F450002241
:10021A00026A000E012202220B500602F350002647
:10022A00F4500122000E02220E500602F35001265B
:10023A00F450022202BE2AEF01F0083600360136D7
:10024A0002360306D8B44AEF01F03DEF01F0D88038
:10025A00800E08640030000E002201220222D8A07B
:10026A003DEF01F0023201320032034A46EF01F05B
:10027A000AAE029E000E4CEF01F0010E2DDF4CEF8C
:10028A0001F0020E30DF4CEF01F0040ED6DE120050
:10029A0055C004F056C005F004C002F005C003F0D2
:1002AA00044A052A57C000F058C001F0574A582A94
:1002BA0000C0E9FF01C0EAFF02C0E1FF03C0E2FF9C
:1002CA00EECFE6FF02C0E9FF03C0EAFFEE5201E00B
:0C02DA00E3D755C000F056C001F0120040
:1002E600086A080E0C6E003408360450085ED8B052
:0E02F60002D00826D89000360C2EF5D7120044
:080304000B6A0B86FF0E1200CC
:10030C000A6A0350D8A40A800750D8A40A820A505B
:10031C00D8B4E9EF01F0030AD8B4A2EF01F00AB0A7
:10032C009DEF01F006AEE7EF01F0E5EF01F002AE54
:10033C00E5EF01F0E7EF01F00250800B0A6E029E30
:10034C000650800B069E0A18D8B4B3EF01F00A5081
:10035C00D8B4E5EF01F0E7EF01F00750035CD8B437
:10036C00BDEF01F0D8A0D9EF01F0DFEF01F006509E
:10037C00025CD8B4C7EF01F0D8A0D9EF01F0DFEFE1
:10038C0001F00550015CD8B4D1EF01F0D8A0D9EF41
:10039C0001F0DFEF01F00450005CD8B4E9EF01F09C
:1003AC00D8B0DFEF01F00A52D8B4E7EF01F0E5EF77
:1003BC0001F00A52D8B4E5EF01F0E7EF01F0D88074
:0E03CC001200D8901200D880D88412001200BF
:0A03DA001D0E0D6E0D2EFED7120051
:0C03E4002D9055C059F03DDE2D80120018
:1003F0000900F5CFE6FF0006FBE10106F9E1120076
:10040000360E2E6E0B0E2F6E470E306E000E316EB6
:0C041000C26A0F0EC012C08EC280120023
:10041C000FD0800E476E19D0C00E476E16D0940EBA
:10042C00476E13D0D40E476E10D0800E476E0DD091
:10043C004750010AEEE04750020AEEE04750030A2B
:10044C00EEE04750040AEEE0F0D74804006E475047
:10045C00002600C047F000C059F0FFDD2D904B6A1C
:10046C004B504924E96E000E4A20EA6EEE520BE026
:10047C004B504924E96E000E4A20EA6EEECF55F03F
:0A048C00ABDF4B2AEDD72D801200E4
:10049600939A939893909392939493968A9A8A9820
:1004A6008A968A948A928A90BCDDBBDDBADD8A82FE
:1004B6008A808A8ABFDD8A9AB4DD8A8ABBDD8A9AF7
:1004C600B0DD8A8AB7DD8A9AACDD8A908A8AB2DD87
:1004D6008A9AA7DD8A8AAEDD8A9A8A928A868A8A6B
:1004E600A9DD8A9A9EDD8A968A808A8AA3DD8A9AFF
:1004F6008A908A8A9FDD8A9A94DD8A8A9BDD8A9A07
:100506008A808A8A97DD8A9A8CDD8A908A8A92DD29
:100516008A9A8A868A848A828A808A8A8BDD8A9ADD
:0605260080DD2D801200B3
:10052C000050086E0150006E016A026A036A0B6A81
:10053C000C6A960E036E0A6A00C001F008C000F047
:08054C00086A026ADBDD1200FF
:100554000450000A12E10550000A0FE10650000A97
:100564000CE10750000A09E1FF0E006EFF0E016E58
:100574007F0E026EFF0E036EA4D0086A096A07504C
:10058400D8B455EF03F00350D8B459EF03F0025038
:1005940006180A6E028E068E0E6A02C008F001C0AA
:1005A4000CF000C00DF004500D5E0550D8A0053CC1
:1005B4000C5E0650D8A0063C085E086A0C6A0D6AF8
:1005C400D8A0ECEF02F0D8900232013200320832A7
:1005D400010E0E6E0750035ED8A0F9EF02F07E0EF6
:1005E4000E240326D8B05DEF03F0FFEF02F07E0E79
:1005F4000E240326D8A061EF03F0180E0B6E0D36FF
:100604000C3608360036013602360E360450005ECB
:100614000550D8A0053C015E0650D8A0063C025EF9
:1006240006340E120EA01AEF03F00D8025EF03F02E
:10063400045000260550D8B0053C01260650D8B019
:10064400062802260D900B2E01EF03F04BEF03F06A
:10065400D8900036013602360E360450005E05503E
:10066400D8A0053C015E0650D8A0063C025E0634C4
:100674000E10010B0D26D8B00C2AD8B4082AD8A421
:100684004BEF03F008320C320D32032AD8B45DEF7D
:1006940003F00AAE089E0850026E0C50016E0D5015
:1006A400006E63EF03F0010E2BDE63EF03F0020E26
:1006B40016DD63EF03F0040E19DD63EF03F0080E9B
:0406C400BFDC120085
:1006C800536A546A47C04FF048C050F049C051F0CF
:1006D8004AC052F05250FF0A08E15150FF0A05E1A2
:1006E8005050FF0A02E14F50FF0A0CE14BC055F091
:1006F8004CC056F0170E576E000E586ECADD030E2A
:10070800006EE5D1010E4D6E51AE0ED0800E51181F
:10071800006E00C051F04D2A4BC0E1FF4CC0E2FF13
:100728002D0EE66E4B4A4C2A000E006E521808E158
:100738000050511805E10050501802E14F50000ACE
:100748000BE14BC055F04CC056F0150E576E000E1D
:10075800586E9FDD006ABBD15250FF0A08E1515024
:10076800000A05E15050000A02E14F50000A0CE16E
:100778004BC055F04CC056F01B0E576E000E586E0D
:1007880088DD4DC000F0A3D1000E046E000E056E8A
:10079800000E066E7F0E076E4FC000F050C001F0CD
:1007A80051C002F052C003F0ADDD010ED8B0000E0A
:1007B800006E00521BE04FC000F050C001F051C065
:1007C80002F052C003F0000E046E000E056E200EFB
:1007D800066E820E076ECDDC00C04FF001C050F0EF
:1007E80002C051F003C052F05406CED7000E046E7A
:1007F800000E056E200E066E820E076E4FC000F0CA
:1008080050C001F051C002F052C003F07BDD000E71
:10081800D8B0010E006E00521BE04FC000F050C06F
:1008280001F051C002F052C003F0CD0E046ECC0EA0
:10083800056E4C0E066E7B0E076E9BDC00C04FF0FB
:1008480001C050F002C051F003C052F0542ACED774
:10085800FF0E4F14086EFF0E5014096E7F0E5114D0
:100868000A6E000E52140B6E08C004F009C005F0A1
:100878000AC006F00BC007F00436049005360636A9
:100888000736000E4F14006E000E5014016E000E55
:100898005114026EFF0E5214036E00C04FF001C0D7
:1008A80050F002C051F003C052F004504F10006ED7
:1008B80005505010016E06505110026E075052102C
:1008C800036E00C04FF001C050F002C051F003C0E9
:1008D80052F07F0E525C006E00C04EF0010E526E58
:1008E80000C004F04FC000F050C001F051C002F049
:1008F80052C003F0045007E000360090013602367B
:100908000336FF0FF8D700C04FF001C050F002C007
:1009180051F003C052F04BC0E1FF4CC0E2FF52500F
:10092800300FE66E4B4A4C2A800E5418006E800E2B
:10093800010A005C08E3800E060A006E800E541857
:10094800005C01E30AD04BC0E1FF4CC0E2FF2E0E71
:10095800E66E4B4A4C2A010E536E060E4E6E4E50F2
:10096800000A54E0526A4FC000F050C001F051C074
:1009780002F052C003F0003600900136023603360A
:10098800003600900136023603364F50002650508C
:100998000122515002225250032200C04FF001C0E0
:1009A80050F002C051F003C052F04FC000F050C0E8
:1009B80001F051C002F052C003F000360090013639
:1009C8000236033600C04FF001C050F002C051F0AB
:1009D80003C052F04BC0E1FF4CC0E2FF5250300F51
:1009E800E66E4B4A4C2A5350000A0EE15406545006
:1009F800000A0AE14BC0E1FF4CC0E2FF2E0EE66E92
:100A08004B4A4C2A010E536E4E06A9D7FF0E4B24B3
:100A1800E96EFF0E4C20EA6EEE50300A05E1010E39
:100A28004B5E000E4C5AF2D7FF0E4B24E96EFF0EB8
:100A38004C20EA6EEE502E0A04E1010E4B5E000EC9
:100A48004C5A5450000A3DE04BC0E1FF4CC0E2FF55
:100A5800650EE66E4B4A4C2A800E5418006E800EC6
:100A6800000A005C0BE24BC0E1FF4CC0E2FF2D0E18
:100A7800E66E4B4A4C2A54500008546E54C04EF04F
:100A8800545009080EE20A0E046E4EC000F027DC2E
:100A98004BC0E1FF4CC0E2FF0050300FE66E4B4AFE
:100AA8004C2A0A0E046E4EC000F019DC08C000F093
:100AB8004BC0E1FF4CC0E2FF0050300FE66E4B4ADE
:100AC8004C2A4BC0E1FF4CC0E2FFE66A006A120004
:100AD8000FD0800E476E19D0C00E476E16D0940EF8
:100AE800476E13D0D40E476E10D0800E476E0DD0CF
:100AF8004750010AEEE04750020AEEE04750030A69
:100B0800EEE04750040AEEE0F0D74804006E475084
:100B1800002600C047F02D8000C059F033EC00F0EB
:0E0B28002D9049C059F033EC00F02D801200E2
:100B3600C30EC21647C000F0003600900036009083
:100B46000050C21247DCC282C2A201D0FDD7C4CF78
:100B560001F0006A00C048F001C049F0C35000121D
:100B6600000E011200C048F001C049F0000E00144A
:100B7600026E0150800B036E000E031802E1000E98
:100B8600021802E0486A496A48C000F049C001F00C
:020B960012004B
:100B98000B6A0A6A096A00500402F4CF09F0F3CF1D
:100BA80008F001500502F4CF0BF0F3CF0AF0005023
:100BB8000502F3500926F4500A22E86A0B22015074
:100BC8000402F3500926F4500A22E86A0B2208C0EE
:100BD80000F009C001F00AC002F00BC003F01200D7
:100BE80071EC06F00F01256B246B236B2587928629
:100BF80003DC4DDC010E596E33EC00F00C0E596E1F
:100C080033EC00F0010E476E010E486E1F0E496E60
:100C1800000E4A6E0EEC02F0020E476E080E486E89
:100C2800DF0E496E55DF020E476E090E486E430E01
:100C3800496E4EDF326A336A030E476E78DF00C0B2
:100C480032F001C033F0030E046E000E056EA0DF13
:100C580069DC0A0E046ED70E056E230E066E840E2E
:100C6800076E74DC00C043F001C044F002C045F0D8
:100C780003C046F000C047F001C048F002C049F088
:100C880003C04AF0340E4B6E000E4C6E19DD386A04
:100C9800020E476E030E486E340E496E000E4A6E01
:100CA8000EEC02F0070E0B6E170E0C6E6A0E0D6E30
:100CB8000D2EFED70C2EFCD70B2EFAD70000BCD772
:020CC800FFD754
:100CE20010EE15F0180E006E010E016ECA0EF66EB1
:0E0CF2000C0EF76E000EF86EF8EC01F012001A
:020CCA003000F8
:040CCC004E614E0027
:040CD000494E460043
:0E0CD40054656D7065726174757265203A002A
:020000040030CA
:0E00000015037F7CF98B91FFFFC0FFE0FF40EE
:00000001FF
