:100000007BEF0DF00000000000EF00F000000000AA
:0A0010000000000000000000F3D71C
:0C001C00020E0D6E0D2EFED7000012002B
:100028008B80FF0E956E8B92030E8314016E015028
:0A003800030A01E0F9D78B821200E1
:10004200F2DF956ACFC083FF8B94E7DFE6DFE5DF5F
:040052008B84120089
:10005600E8DFC50E0001CF6FF1DFFF0E956EDBDF27
:100066008B908B928B84D7DFD6DFD5DF83CFCEF014
:08007600D8DFCEC000F012003B
:10007E00086A096A100E0C6E0134083609360450EF
:10008E00085E0550D8A0053C095ED8B007D00450D4
:10009E0008260550D8B0053C0926D8900036013602
:0600AE000C2EEAD712003F
:1000B4000B6A0A6A096A00500402F4CF09F0F3CF0C
:1000C40008F001500502F4CF0BF0F3CF0AF0005012
:1000D4000502F3500926F4500A22E86A0B22015063
:1000E4000402F3500926F4500A22E86A0B2208C0DD
:1000F40000F009C001F00AC002F00BC003F01200C6
:100104008B90956ACEC083FF8B9486DF85DF84DF76
:040114008B841200C6
:1001180019500001C65D02E11850C55D01E398D091
:100128001B50C85D02E11A50C75D01E391D0800EF3
:10013800C619006E800E005C02E1000EC55D01E28A
:1001480087D0800EC819006E800E005C02E1000E98
:10015800C75D01E27DD01EC004F01FC005F0C5C018
:1001680000F0C6C001F087DF00C0CAF0C7C000F0C9
:10017800C8C001F024C004F025C005F097DFCA51BB
:100188000026000E012215500024036E165001208F
:10019800046E04C000F0016A00C0CBF003C0CEF0CA
:1001A800ADDFCBC0CEF0AADF240ECF6F46DF000153
:1001B800C951020A35E134DF4ADF00C0CCF01EC065
:1001C80004F01FC005F0C5C000F0C6C001F053DF41
:1001D80008C000F009C001F000501E5C006E000667
:1001E80000C001F0010E006E015004E000360090DE
:1001F800FF0FFBD700C0CDF00001CC51001607E07F
:10020800CD1D006E00C0CDF00050CC1702D0CD51EE
:10021800CC13CCC0CEF072DFC40ECF6F0EDF18D077
:10022800F00E0001C911CF6F1EC004F01FC005F009
:10023800C5C000F0C6C001F01EDF08C000F009C04C
:1002480001F000501E5C006E00060050CF13F5DE72
:02025800120092
:10025A00B1C000F0016A00C0B3F0B0C0CEF04DDF0B
:0E026A00B3C0CEF04ADFB2C0CFF0E6DE120025
:100278000001B251B65D016EB351B759026E01C0AB
:10028800BDF002C0BEF0B051B45DBF6FB151B559F9
:10029800C06F800E0218006E800E005C02E1000E36
:1002A800015C0BE2BD510008BD6FBE51000EBE5788
:1002B800FF0EC36FFF0EC46F04D0010EC36F000E94
:1002C800C46F800EC019006E800E005C02E1000E43
:1002D800BF5D0BE2BF510008BF6FC051000EC05791
:1002E800FF0EC16FFF0EC26F04D0010EC16F000E6A
:1002F800C26FBD37BD91BE37BF37BF91C037B0C0E1
:10030800C5F0B1C0C6F0B2C0C7F0B3C0C8F0B8C03D
:10031800C9F0FEDE800E0001BE19006E800EC01905
:10032800005C02E1BF51BD5D42E2BFC000F0C0C049
:1003380001F001320032019E01BC018E0050BD5D0A
:10034800B96F0150BE59BA6F0001B151B51902E138
:10035800B451B0192BE0800EBA19006E800E005C03
:1003680002E1000EB95D08E3C351B227C451B323BB
:10037800BF51B95FC051BA5BC151B025006EC251BF
:10038800B121016E00C0B0F001C0B1F0BD51B92774
:10039800BE51BA2300C0C5F001C0C6F0B2C0C7F054
:1003A800B3C0C8F0B8C0C9F0B3DECED742D0BDC024
:1003B80000F0BEC001F001320032019E01BC018E86
:1003C80000500001BF5DBB6F0150C059BC6F0001F8
:1003D800B351B71902E1B651B2192BE0800EBC191E
:1003E800006E800E005C02E1000EBB5D08E3C151A7
:1003F800B027C251B123BD51BB5FBE51BC5BC351D5
:10040800B225006EC451B321016E00C0B2F001C024
:10041800B3F0BF51BB27C051BC23B0C0C5F0B1C0B9
:10042800C6F000C0C7F001C0C8F0B8C0C9F070DE9F
:04043800CED7120009
:10043C00800E0001AC19006E800EA819005C02E160
:10044C00A751AB5D17E3A7C0B0F0A8C0B1F0A9C02D
:10045C00B2F0AAC0B3F0A7C0B4F0A8C0B5F0ADC05C
:10046C00B6F0AEC0B7F0AFC0B8F000DF0001A74BDC
:06047C00A82BDED71200E0
:100482000001AC6BAD6BCFDD0001A8511524B06F3C
:10049200A9511620B16F240EB26FDEDEB00E00013C
:1004A200CF6FCEDD8B90956A0001AB51AD5D02E15D
:1004B200AA51AC5D0AE2A7C083FF8B94AEDDADDD2D
:1004C200ACDD8B84AC4BAD2BEFD7B20ECF6FB8DD6A
:0204D200120016
:1004D400050E0B6E0F0E0C6EF10E0D6E0D2EFED76B
:0A04E4000C2EFCD70B2EFAD71200E5
:1004EE00000183517F5D016E84518059026E01C0FF
:1004FE0098F002C099F0800E0218006E800E005C1B
:10050E0002E1000E015C16E298510008036E99C0DC
:10051E0004F0000E045687C001F088C002F00136C8
:10052E00019002360250045C02E10150035C01E2CC
:10053E0016D20ED087C001F088C002F001360190AD
:10054E0002360250995D02E10150985D01E207D238
:10055E008551815D016E86518259026E01C098F0FF
:10056E0002C099F0800E0218006E800E005C02E14F
:10057E00000E015C16E298510008036E99C004F05B
:10058E00000E045687C001F088C002F001360190BB
:10059E0002360250045C02E10150035C01E2DFD13D
:1005AE000ED087C001F088C002F0013601900236ED
:1005BE000250995D02E10150985D01E2D0D17FC0F9
:1005CE00A7F080C0A8F087518125A96F885182219C
:1005DE00AA6FA94BAA2B83C0ABF084C0ACF0875195
:1005EE00855DAD6F88518659AE6F010EAD5F000E01
:1005FE00AE5B89C0AFF01BDF8E6B8F6B9A6B9B6B04
:10060E0087518125006E88518221016E8751835D4D
:10061E00046E88518459056E0450005C906F05502D
:10062E000158916F87517F25026E88518021036E8C
:10063E000250005C926F03500158936F8751855D95
:10064E00006E88518659016E0250005C946F035003
:10065E000158956F0450005C966F05500158976FC6
:10066E0087C08CF088C08DF087C09CF088C09DF04C
:10067E0087C000F088C001F000360090013600C03F
:10068E008AF001C08BF0005003088A6F01C08BF016
:10069E00000E8B57010E8C25016E000E8D21026E01
:1006AE00800E8F19006E800E0218005C02E1015060
:1006BE008E5DD8B0F5D09D518D1902E18C519C19EB
:1006CE0057E087517F25B06F88518021B16F9A51C5
:1006DE00B05F9B51B15B8751855D006E8851865925
:1006EE00016E9C5100269D51012200C0B2F001C046
:1006FE00B3F08751835DB46F88518459B56F9A51A9
:10070E00B4279B51B52300C0B6F001C0B7F089C025
:10071E00B8F0ABDD000187517F25B06F8851802185
:10072E00B16F9A51B05F9B51B15B87518125006EBD
:10073E0088518221016E9C51005E9D51015A00C06C
:10074E00B2F001C0B3F08751835DB46F8851845904
:10075E00B56F9A51B4279B51B52300C0B6F001C0B6
:10076E00B7F089C0B8F081DD8CC09CF08DC09DF0D3
:10077E0000018751855D026E88518659036E8C513A
:10078E000224B06F8D510320B16F9651B05F975117
:10079E00B15B8E510224006E8F510320016E00C09A
:1007AE00B2F001C0B3F08C51025CB46F8D5103589E
:1007BE00B56F9451B45F9551B55B00C0B6F001C0F2
:1007CE00B7F089C0B8F051DD000187518125026E66
:1007DE0088518221036E8C51025CB06F8D5103588B
:1007EE00B16F9251B05F9351B15B8E51025C006E4E
:1007FE008F510358016E00C0B2F001C0B3F08C519E
:10080E000224B46F8D510320B56F9051B45F915196
:10081E00B55B00C0B6F001C0B7F089C0B8F025DDF9
:10082E00800E00018B19006E800E005C02E1000E3E
:10083E008A5D13E28EC000F08FC001F0003600908A
:10084E000136003600900136060E0026000E0122FB
:10085E0000508A2701508B2320D08C518E5D036E61
:10086E008D518F59046E03C000F004C001F00036A4
:10087E00009001360036009001360A0E0026000E5A
:10088E00012200508A2701508B23010E8C5F000E2F
:10089E008D5B8EC09AF08FC09BF08E4B8F2BFAD64D
:1008AE00010E8E5D016E000E8F59026E02509D1963
:1008BE0002E19C51011853E087517F25B06F88519A
:1008CE008021B16F9A51B05F9B51B15B8751855DAD
:1008DE00006E88518659016E9C5100269D51012251
:1008EE0000C0B2F001C0B3F08751835DB46F885180
:1008FE008459B56F9A51B4279B51B52300C0B6F0F9
:10090E0001C0B7F089C0B8F0B0DC000187517F2577
:10091E00B06F88518021B16F9A51B05F9B51B15B1E
:10092E0087518125006E88518221016E9C51005E97
:10093E009D51015A00C0B2F001C0B3F08751835DE2
:10094E00B46F88518459B56F9A51B4279B51B52312
:10095E0000C0B6F001C0B7F089C0B8F086DC120056
:10096E007FC0B0F080C0B1F081C0B2F082C0B3F0F1
:10097E0083C0B4F084C0B5F081C0B6F082C0B7F0C9
:10098E0087C0B8F072DC83C0B0F084C0B1F081C013
:10099E00B2F082C0B3F083C0B4F084C0B5F085C0AD
:1009AE00B6F086C0B7F087C0B8F05FDC83C0B0F099
:1009BE0084C0B1F085C0B2F086C0B3F07FC0B4F091
:1009CE0080C0B5F085C0B6F086C0B7F087C0B8F06D
:1009DE004CDC7FC0B0F080C0B1F085C0B2F086C0F4
:1009EE00B3F07FC0B4F080C0B5F081C0B6F082C065
:0A09FE00B7F087C0B8F039DC120032
:100A080014EC00F07FC0CEF082EC00F080C0CEF095
:100A180082EC00F0210E0001CF6F21EC00F01200F3
:100A28000900F5CFE6FF0006FBE10106F9E1120037
:100A38007FC018F080C019F081C01AF0000E1B6E3C
:100A480082C01EF0000E1F6E1C6A1D6A1EC004F0D4
:100A58001FC005F07FC000F080C001F03FEC00F03F
:100A680000C024F001C025F01AC004F01BC005F036
:100A78005AEC00F000C022F001C023F01AC000F0C8
:100A88001BC001F001320032019E01320032019E8A
:100A980001320032019E24C004F025C005F05AEC52
:100AA80000F000C020F001C021F09494949294903A
:100AB80094988B848B828B808B88FF0E956E8B9895
:100AC80005DD8B8803DD810E0001CF6F21EC00F07E
:100AD80082C004F0000E056E18C000F019C001F0C5
:100AE8003FEC00F000C0B0F001C0B1F0430E0001CF
:100AF800B26F2DEC01F024C0B0F025C0B1F0410E6A
:100B08000001B26F2DEC01F0205022240001AA6FE1
:100B180021502320AB6F156A166A22C026F023C025
:100B280027F0A76BA86BA96BA8DC900E176E0001C5
:100B3800B06BB16B420EB26F2DEC01F022C0B0F079
:100B480023C0B1F0400E0001B26F2DEC01F012008D
:100B580083C0CFF021EC00F082C000F0000E016EDF
:100B680024C004F025C005F05AEC00F000018151C2
:100B78000024B06F000E0120B16F2650B027275017
:100B8800B123240EB26F2DEC01F07FC0E9FF80C0C5
:100B9800EAFFEE5211E07FC0E9FF80C0EAFF200EB5
:100BA800EE5C0001CE6F82EC00F07F4B802BC00E14
:0A0BB800CF6F21EC00F0E9D7120026
:100BC20000018A6B8B6B1EC004F01FC005F07FC052
:100BD20000F0000E016E3FEC00F000C086F001C094
:100BE20087F080C000F0000E016E24C004F025C022
:100BF20005F05AEC00F0865100248A6F87510120DB
:100C02008B6F15508A2716508B23070E8415016EA1
:100C1200015000080DE28433849F8433849F84331F
:100C2200849F842B84378491843784918437849180
:100C320085C000F08507005248E014EC00F08AC03D
:100C4200B0F08BC0B1F0240E0001B26F2DEC01F0B8
:100C5200B00E0001CF6F21EC00F08B90956A00017D
:100C6200886B896B1EC004F01FC005F084C000F0C1
:100C7200000E016E3FEC00F00150895D02E1005070
:100C8200885D19E281C0F6FF82C0F7FF83C0F8FFDA
:100C92000900F5CF83FF010E8127000E82238323F3
:100CA2008B940EEC00F00EEC00F00EEC00F08B8456
:100CB200884B892BD7D7B20ECF6F21EC00F024508E
:0C0CC20000018A2725508B23B3D71200B5
:100CCE00290E0B6E960E0C6E7F0E0D6E0D2EFED730
:0A0CDE000C2EFCD70B2EFAD71200E3
:100CE800000E0001841902E1000E83190DE17FC096
:100CF800C5F080C0C6F081C0C7F082C0C8F085C00A
:100D0800C9F08CEC00F01BD100018A6B8B6B7F5112
:100D1800815D8C6F805182598D6F83C088F084C04B
:100D280089F083C000F084C001F0003600900136DD
:100D380000C086F001C087F000500308866F01C02C
:100D480087F0000E8757010E8825016E000E892155
:100D5800026E800E8B19006E800E0218005C02E194
:100D680001508A5DD8B0EBD08A517F25C56F8B5171
:100D78008021C66F88518125C76F89518221C86F2C
:100D880085C0C9F08CEC00F000018A517F25C56F41
:100D98008B518021C66F8851815DC76F89518259F7
:100DA800C86F85C0C9F08CEC00F0800E006E800E14
:100DB80000018B19005C02E18A51000821E28A5186
:100DC8007F5DC56F8B518059C66F88518125C76F6C
:100DD80089518221C86F85C0C9F08CEC00F00001F0
:100DE8008A517F5DC56F8B518059C66F8851815D6F
:100DF800C76F89518259C86F85C0C9F08CEC00F063
:100E080000018B51891902E188518A195CE08851E7
:100E18008125C56F89518221C66F8C51C55F8D515F
:100E2800C65B8A518125C76F8B518221C86F85C0E7
:100E3800C9F08CEC00F000018851815DC56F8951C3
:100E48008259C66F8C51C55F8D51C65B8A51812509
:100E5800C76F8B518221C86F85C0C9F08CEC00F038
:100E6800800E006E800E00018B19005C02E18A5131
:100E7800000829E288518125C56F89518221C66FF2
:100E88008C51C55F8D51C65B8A51815DC76F8B518F
:100E98008259C86F85C0C9F08CEC00F000018851F8
:100EA800815DC56F89518259C66F8C51C55F8D515F
:100EB800C65B8A51815DC76F8B518259C86F85C0E7
:100EC800C9F08CEC00F0800E00018719006E800ECE
:100ED800005C02E1000E865D13E28AC000F08BC060
:100EE80001F0003600900136003600900136060EFB
:100EF8000026000E012200508627015087231CD0AF
:100F080088518A5D036E89518B59046E03C000F0C5
:100F180004C001F00036009001360036009001361A
:100F28000A0E0026000E0122005086270150872352
:100F3800010E885F000E895B8A4B8B2B04D7120049
:100F4800000E0001841902E1000E83190DE17FC033
:100F5800C5F080C0C6F081C0C7F082C0C8F085C0A7
:100F6800C9F08CEC00F06FD100018A6B8B6B8E6B33
:100F78008F6B7F51815D8C6F805182598D6F83C0DB
:100F880088F084C089F083C090F084C091F083C059
:100F980000F084C001F000360090013600C086F0F1
:100FA80001C087F000500308866F01C087F0000E6B
:100FB8008757010E8825016E000E8921026E800E6A
:100FC8008B19006E800E0218005C02E101508A5DE8
:100FD800D8B0DFD08A517F25006E8B518021016EF9
:100FE80000C0B0F001C0B1F088518125B26F8951BD
:100FF8008221B36F00C0B4F001C0B5F08851815DA3
:10100800B66F89518259B76F85C0B8F03CEC01F0D2
:10101800800E006E800E00018B19005C02E18A517F
:1010280000081EE28A517F5D006E8B518059016E67
:1010380000C0B0F001C0B1F088518125B26F89516C
:101048008221B36F00C0B4F001C0B5F08851815D52
:10105800B66F89518259B76F85C0B8F03CEC01F082
:1010680000019151891902E18851901952E090517B
:101078008125006E91518221016E8C51005E8D5147
:10108800015A00C0B0F001C0B1F08E518125B26F95
:101098008F518221B36F00C0B4F001C0B5F08E51FA
:1010A800815DB66F8F518259B76F85C0B8F03CEC3F
:1010B80001F0800E006E800E00019119005C02E1C3
:1010C8009051000822E29051815D006E9151825941
:1010D800016E8C51005E8D51015A00C0B0F001C004
:1010E800B1F08E518125B26F8F518221B36F00C04C
:1010F800B4F001C0B5F08E51815DB66F8F51825941
:10110800B76F85C0B8F03CEC01F088C090F089C09A
:1011180091F0800E00018719006E800E005C02E1DC
:10112800000E865D13E28AC000F08BC001F0003625
:1011380000900136003600900136060E0026000E9B
:101148000122005086270150872320D088518A5DCC
:10115800036E89518B59046E03C000F004C001F07E
:101168000036009001360036009001360A0E00263F
:10117800000E01220050862701508723010E885F48
:10118800000E895B8AC08EF08BC08FF08A4B8B2B48
:1011980010D7010E8A5D016E000E8B59026E025047
:1011A800911902E1905101184EE090518125006E8D
:1011B80091518221016E8C51005E8D51015A00C0FF
:1011C800B0F001C0B1F08E518125B26F8F518221EC
:1011D800B36F00C0B4F001C0B5F08E51815DB66F39
:1011E8008F518259B76F85C0B8F03CEC01F0800E82
:1011F800006E800E00019119005C02E19051000818
:1012080022E29051815D006E91518259016E8C519C
:10121800005E8D51015A00C0B0F001C0B1F08E518E
:101228008125B26F8F518221B36F00C0B4F001C025
:10123800B5F08E51815DB66F8F518259B76F85C0F9
:08124800B8F03CEC01F01200CB
:101250000001826B836B14EC00F015C0B0F016C077
:10126000B1F0240E0001B26F2DEC01F0B00E0001C0
:10127000CF6F21EC00F08B90956A23500001835DC5
:1012800002E12250825D19E27FC0F6FF80C0F7FFC5
:1012900081C0F8FF0900F5CF83FF010E7F27000E04
:1012A000802381238B940EEC00F00EEC00F00EEC0A
:1012B00000F08B84824B832BE0D7B20ECF6F21ECF2
:0412C00000F0120028
:1012C400000183517F5D016E84518059026E01C01B
:1012D40098F002C099F0800E0218006E800E005C37
:1012E40002E1000E015C16E298510008036E99C0F9
:1012F40004F0000E045687C001F088C002F00136E5
:10130400019002360250045C02E10150035C01E2E8
:101314002CD20ED087C001F088C002F001360190B3
:1013240002360250995D02E10150985D01E21DD23E
:101334008551815D016E86518259026E01C098F01B
:1013440002C099F0800E0218006E800E005C02E16B
:10135400000E015C16E298510008036E99C004F077
:10136400000E045687C001F088C002F001360190D7
:1013740002360250045C02E10150035C01E2F5D143
:101384000ED087C001F088C002F001360190023609
:101394000250995D02E10150985D01E2E6D1875166
:1013A4007F25B06F88518021B16FB04BB12B81C0C4
:1013B400B2F082C0B3F08751835DB46F8851845911
:1013C400B56F010EB45F000EB55B81C0B6F082C08C
:1013D400B7F089C0B8F03CEC01F0000187517F25DB
:1013E400B06F88518021B16FB04BB12B85C0B2F082
:1013F40086C0B3F08751835DB46F88518459B56F4B
:10140400010EB45F000EB55B85C0B6F086C0B7F0C0
:1014140089C0B8F03CEC01F07FC0B0F080C0B1F0FE
:10142400000187518125B26F88518221B36FB24B7D
:10143400B32B7FC0B4F080C0B5F08751855DB66F23
:1014440088518659B76F010EB65F000EB75B89C02D
:10145400B8F03CEC01F083C0B0F084C0B1F00001FE
:1014640087518125B26F88518221B36FB24BB32B60
:1014740083C0B4F084C0B5F08751855DB66F8851E0
:101484008659B76F010EB65F000EB75B89C0B8F01E
:101494003CEC01F000018E6B8F6B87518125006E4F
:1014A40088518221016E8751835D046E885184596D
:1014B400056E0450005C906F05500158916F875180
:1014C4007F25026E88518021036E0250005C926F6A
:1014D40003500158936F8751855D006E885186597A
:1014E400016E0250005C946F03500158956F0450D4
:1014F400005C966F05500158976F87C08CF088C0C8
:101504008DF087C000F088C001F0003600900136ED
:1015140000C08AF001C08BF0005003088A6F01C03C
:101524008BF0000E8B57010E8C25016E000E8D2161
:10153400026E800E8F19006E800E0218005C02E1AC
:1015440001508E5DD8B011D187517F25C56F885168
:101554008021C66F8E51C55F8F51C65B8751855DF3
:10156400C76F88518659C86F8C51C7278D51C823BE
:1015740089C0C9F08CEC00F000018751835DC56F10
:1015840088518459C66F8E51C5278F51C623875100
:10159400855DC76F88518659C86F8C51C7278D5197
:1015A400C82389C0C9F08CEC00F0000187517F2565
:1015B400C56F88518021C66F8E51C55F8F51C65B40
:1015C40087518125C76F88518221C86F8C51C75FAD
:1015D4008D51C85B89C0C9F08CEC00F000018751C3
:1015E400835DC56F88518459C66F8E51C5278F514D
:1015F400C62387518125C76F88518221C86F8C51BA
:10160400C75F8D51C85B89C0C9F08CEC00F0000144
:101614008F518D1902E18C518E196BE08751855DD4
:10162400006E88518659016E8C510024C56F8D510E
:101634000120C66F9651C55F9751C65B8E51002439
:10164400C76F8F510120C86F89C0C9F08CEC00F0BE
:1016540000018751855D006E88518659016E8C5159
:10166400005CC56F8D510158C66F9451C55F95518B
:10167400C65B8E510024C76F8F510120C86F89C08B
:10168400C9F08CEC00F0000187518125006E88516F
:101694008221016E8C51005CC56F8D510158C66F5B
:1016A4009251C55F9351C65B8E51005CC76F8F51D9
:1016B4000158C86F89C0C9F08CEC00F00001875153
:1016C4008125006E88518221016E8C510024C56FE2
:1016D4008D510120C66F9051C55F9151C65B8E51EB
:1016E400005CC76F8F510158C86F89C0C9F08CEC7A
:1016F40000F0800E00018B19006E800E005C02E188
:10170400000E8A5D13E28EC000F08FC001F0003637
:1017140000900136003600900136060E0026000EB9
:10172400012200508A2701508B231CD08C518E5DDE
:10173400036E8D518F59046E03C000F004C001F094
:101744000036009001360036009001360A0E00265D
:10175400000E012200508A2701508B23010E8C5F5A
:0C176400000E8D5B8E4B8F2BDED612002A
:1017700000019E6B9F6B9C6B9D6B1950805D02E11D
:1017800018507F5D13E21B50825D02E11A50815DAB
:101790000DE2000E841902E1000E831907E0000E2D
:1017A000861902E1000E851901E001D0A3D1835111
:1017B0007F25016E84518021026E0250195C02E186
:1017C0000150185C06E27F51185C836F80511958F4
:1017D000846F85518125016E86518221026E0250EF
:1017E0001B5C02E101501A5C06E281511A5C856FB4
:1017F00082511B58866F1EC004F01FC005F07FC0C9
:1018000000F080C001F03FEC00F008C000F009C01B
:1018100001F000C0A0F083517F25A56F8451802185
:10182000A66F1EC004F01FC005F0A5C000F0A6C042
:1018300001F03FEC00F008C000F009C001F000C06A
:10184000A1F01EC004F01FC005F07FC000F080C0F2
:1018500001F03FEC00F000C096F001C097F0010EDF
:10186000A55D006E000EA659016E1EC004F01FC0DB
:1018700005F03FEC00F000C098F001C099F01EC0E8
:1018800004F01FC005F087C000F088C001F03FECF5
:1018900000F008C000F009C001F0000E026E015017
:1018A000025C02E10050000811E21EC004F01FC0FB
:1018B00005F087C000F088C001F03FEC00F0010E99
:1018C00000249A6F000E01209B6F0ED01EC004F002
:1018D0001FC005F087C000F088C001F03FEC00F0A9
:1018E00000C09AF001C09BF0946B956B906B916B6C
:1018F0008651915D02E18551905DD8B0FBD09E6B21
:101900009C6B9D6B96C092F097C093F09351995D3C
:1019100002E19251985DD8A0E6D01EC004F01FC02D
:1019200005F07FC000F080C001F03FEC00F0925164
:1019300000248E6F935101208F6F96518E5F9751C7
:101940008F5B90518125006E91518221016E24C0E0
:1019500004F025C005F05AEC00F08E510024B06F61
:101960008F510120B16F1550B0271650B123240EAE
:10197000B26F2DEC01F014EC00F000018A51915D82
:1019800002E18951905D07E29B519D5D02E19A5110
:101990009C5D01E202D09F6B14D09C519425006E97
:1019A0009D519521016E00508B25F66E01508C21C2
:1019B000F76E000E8D21F86E0900F5CF9FF09C4B5D
:1019C0009D2BA05100081AE2A0C000F09FC0A2F019
:1019D000005004E0A233A29FFF0FFBD7A0511E5C72
:1019E000006E00C001F09EC000F0015004E000361F
:1019F0000090FF0FFBD70050A21302D09FC0A2F0AF
:101A00009351971902E19651921919E1A0510008DA
:101A100016E22BEC00F000C0A3F00001A0511E5C08
:101A2000016E01C002F0FF0E016E025004E00136AB
:101A30000190FF0FFBD7015000160050A2139351E5
:101A4000991902E19851921940E1A15100083DE233
:101A50002BEC00F000C0A3F00001A1511E5C006E51
:101A600000C001F0FF0E006E015004E0003600904F
:101A7000FF0FFBD70050A217000E1F1802E1080E3F
:101A80001E180EE1A1C001F0FF0E006E015004E02F
:101A90000032009EFF0FFBD70050A315A46F13D098
:101AA000020EA125006E016A000E012200C001F0A5
:101AB000FF0E006E015004E00032009EFF0FFBD7C6
:101AC0000050A315A46FA451A213A2C0CEF082ECC3
:101AD00000F0C40ECF6F21EC00F09FC09EF000011B
:101AE000924B932B13D79A5194279B519523904B4C
:061AF000912BFED612004E
:101AF600A30EF66E390EF76E000EF86E280EE16E26
:101B0600000EE26E510E006E010E016E14EC05F031
:101B16000F01396B3A6B3B6B938093829384938668
:101B26009388938A94968B96949C8B9C949A8B9A82
:101B36000001796B7A6B7D6B7E6B7B6B7C6BF00E39
:101B46007F6F000E806F800E816F080E826F1CEC17
:101B560005F0178617C0CFF021EC00F0178417C0E8
:101B6600CFF021EC00F0460E00017F6F000E806F73
:101B7600816B826B810E836FACEC05F0280E000141
:101B86007F6F000E806F816B0F0E826F810E836FE9
:101B9600ACEC05F0A70E0001CF6F21EC00F00001C0
:101BA6007F6B806B04EC05F0179217C0CFF021EC29
:101BB60000F00001A76BA86BA96BAA6BEF0EAB6FC9
:101BC600000EAC6F080EAD6F000EAE6F080EAF6F55
:101BD6001EEC02F0A76BA86B770EA96F000EAA6F1A
:101BE600EF0EAB6F000EAC6F7F0EAD6F000EAE6FDB
:101BF600080EAF6F1EEC02F07F6B806B816B826B01
:101C0600EF0E836F000E846F7F0E856F000E866F5A
:101C1600080E876FB7EC04F0140E00017F6F000EFC
:101C2600806F140E816F000E826FDB0E836F000EC5
:101C3600846F6B0E856F000E866F080E876FB7EC8C
:101C460004F0280E00017F6F000E806F280E816F52
:101C5600000E826FC70E836F000E846F570E856F5E
:101C6600000E866F080E876FB7EC04F03C0E00017D
:101C76007F6F000E806F3C0E816F000E826FB30E79
:101C8600836F000E846F430E856F000E866F080EFD
:101C9600876FB7EC04F00A0E00017F6F000E806FAD
:101CA6000A0E816F000E826FE50E836F000E846F41
:101CB600750E856F000E866F0C0E876F000E886F8F
:101CC600080E896F62EC09F01E0E7F6F000E806FA2
:101CD6001E0E816F000E826FD10E836F000E846F11
:101CE600610E856F000E866F0C0E876F000E886F73
:101CF600080E896F62EC09F0320E7F6F000E806F5E
:101D0600320E816F000E826FBD0E836F000E846FE0
:101D16004D0E856F000E866F0C0E876F000E886F56
:101D2600080E896F62EC09F00A0E7F6F000E806F55
:101D36000A0E816F000E826FE50E836F000E846FB0
:101D4600750E856F000E866F0C0E876F000E886FFE
:101D5600080E896F77EC02F0140E00017F6F000EFB
:101D6600806F140E816F000E826FDB0E836F000E84
:101D7600846F6B0E856F000E866F0C0E876F000EDC
:101D8600886F896B77EC02F01E0E00017F6F000EE4
:101D9600806F1E0E816F000E826FD10E836F000E54
:101DA600846F610E856F000E866F0C0E876F000EB6
:101DB600886F080E896F77EC02F0280E00017F6F9E
:101DC600000E806F280E816F000E826FC70E836F24
:101DD600000E846F570E856F000E866F0C0E876F90
:101DE600000E886F896B77EC02F0320E00017F6F70
:101DF600000E806F320E816F000E826FBD0E836FF4
:101E0600000E846F4D0E856F000E866F0C0E876F69
:101E1600000E886F080E896F77EC02F00001B06B38
:101E2600B16BB26BB36BEF0EB46F000EB56F7F0E76
:101E3600B66F000EB76F080EB86F3CEC01F00001EC
:101E4600B06BB16B7F0EB26F000EB36FEF0EB46F57
:101E5600000EB56FB66BB76B080EB86F3CEC01F0B1
:101E6600780E00017F6F000E806F400E816F000EAE
:101E7600826F0A0E836F000E846F080E856F74ECF6
:101E860006F0780E00017F6F000E806F400E816FA6
:101E9600000E826F1E0E836F000E846F080E856F14
:101EA60074EC06F0780E00017F6F000E806F400E16
:101EB600816F000E826F320E836F000E846F080EE4
:101EC600856F74EC06F0780E00017F6F000E806F50
:101ED600400E816F000E826F460E836F000E846F78
:101EE600080E856F74EC06F0780E00017F6F000E09
:101EF600806F400E816F000E826F5A0E836F000E48
:101F0600846F080E856F74EC06F0780E00017F6F03
:101F1600000E806F400E816F000E826F6E0E836F13
:101F2600000E846F080E856F74EC06F0780E0001C3
:101F36007F6F000E806F400E816F000E826F820EE3
:101F4600836F000E846F080E856F74EC06F0780EB2
:101F560000017F6F000E806F400E816F000E826F52
:101F66003C0E836F000E846F080E856FA4EC07F09D
:101F7600780E00017F6F000E806F400E816F000E9D
:101F8600826F370E836F000E846F856BA4EC07F0AB
:101F9600780E00017F6F000E806F400E816F000E7D
:101FA600826F320E836F000E846F080E856FA4EC6D
:101FB60007F0780E00017F6F000E806F400E816F74
:101FC600000E826F2D0E836F000E846F856BA4EC5E
:101FD60007F0780E00017F6F000E806F400E816F54
:101FE600000E826F280E836F000E846F080E856FB9
:101FF600A4EC07F0780E00017F6F000E806F400E94
:10200600816F000E826F230E836F000E846F856BC7
:10201600A4EC07F0780E00017F6F000E806F400E73
:10202600816F000E826F1E0E836F000E846F080E86
:10203600856FA4EC07F0780E00017F6F000E806FAD
:10204600400E816F000E826F190E836F000E846F33
:10205600856BA4EC07F0780E00017F6F000E806F91
:10206600400E816F000E826F140E836F000E846F18
:10207600080E856FA4EC07F0780E00017F6F000E46
:10208600806F400E816F000E826F0F0E836F000E01
:10209600846F856BA4EC07F0780E00017F6F000E4D
:1020A600806F400E816F000E826F0A0E836F000EE6
:1020B600846F080E856FA4EC07F0780E00017F6F21
:1020C600000E806F400E816F000E826F050E836FCB
:1020D600000E846F856BA4EC07F0290E0B6E960E2E
:1020E6000C6E7F0E0D6E0D2EFED70C2EFCD70B2E12
:1020F600FAD74C0E00017F6F040E806F860E816F3B
:10210600340E826F000E836F580E846F770E856FC4
:10211600E1EC05F0290E0B6E960E0C6E7F0E0D6E21
:102126000D2EFED70C2EFCD70B2EFAD720502224CC
:10213600156E21502320166E860E7F6F250E806F3A
:10214600000E816F28EC09F0205022240001B06FA8
:1021560021502320B16F420EB26F2DEC01F0290EF3
:102166000B6E960E0C6E7F0E0D6E0D2EFED70C2E80
:10217600FCD70B2EFAD70001A76BA86BA96B22C060
:10218600AAF023C0ABF041EC02F000017F6B806B3C
:10219600816B826B400E836F000E846F400E856FDD
:1021A600000E866FF00E876F000E886F800E896FA7
:1021B600000E8A6F860E8B6F250E8C6F000E8D6F4C
:1021C600B8EC0BF0290E0B6E960E0C6E7F0E0D6E94
:1021D6000D2EFED70C2EFCD70B2EFAD7179617C04E
:1021E600CFF021EC00F0860E00017F6F250E806F88
:1021F600000E816F28EC09F0178617C0CFF021EC8E
:1022060000F00001B06BB16B420EB26F2DEC01F025
:1022160081A019D0178617C0CFF021EC00F01794D3
:1022260017C0CFF021EC00F00D0E0B6E2D0E0C6ECC
:10223600D70E0D6E0D2EFED70C2EFCD70B2EFAD711
:102246000000000067D181A228D00001792B010E81
:102256007915046E04C079F020502224006E2150B6
:102266002320016E000E056E5AEC00F000C0B0F09F
:1022760001C0B1F0420EB26F2DEC01F00D0E0B6EE7
:102286002D0E0C6ED70E0D6E0D2EFED70C2EFCD716
:102296000B2EFAD7000000003DD181A419D0179665
:1022A60017C0CFF021EC00F0178417C0CFF021EC57
:1022B60000F00D0E0B6E2D0E0C6ED70E0D6E0D2E44
:1022C600FED70C2EFCD70B2EFAD70000000022D129
:1022D60081A619D0178617C0CFF021EC00F017841D
:1022E60017C0CFF021EC00F00D0E0B6E2D0E0C6E0C
:1022F600D70E0D6E0D2EFED70C2EFCD70B2EFAD751
:102306000000000007D181A83CD000017A2B7A5149
:10231600030AD8B47A6B1CD0179217C0CFF021EC01
:1023260000F020D0178217C0CFF021EC00F0178004
:1023360017C0CFF021EC00F015D0178217C0CFF0F0
:1023460021EC00F0179017C0CFF021EC00F00AD076
:1023560000017A51000AE0E07A51010AE3E07A517D
:10236600020AEBE00D0E0B6E2D0E0C6ED70E0D6EE7
:102376000D2EFED70C2EFCD70B2EFAD70000000030
:10238600C9D081AAC7D00001156A166A22C026F0F4
:1023960023C027F0A76B22C0A8F023C0A9F020C055
:1023A600AAF021C0ABF041EC02F020502224156EB9
:1023B60021502320166E22C026F023C027F0178650
:1023C60017C0CFF021EC00F0178417C0CFF021EC36
:1023D60000F0205022240001B06F21502320B16F5D
:1023E600420EB26F2DEC01F0640E00017F6F000EFD
:1023F600806F050E816F0F0E826F810E836FACECBE
:1024060005F067EC06F00001A76BA86BA96B22C06C
:10241600AAF023C0ABF041EC02F000017F6B806BA9
:10242600816B826B400E836F000E846F400E856F4A
:10243600000E866FF00E876F000E886F800E896F14
:10244600000E8A6F860E8B6F250E8C6F000E8D6FB9
:10245600B8EC0BF067EC06F07F6B806B816B826BE0
:10246600800E836F000E846F800E856F000E866F60
:10247600F00E876F000E886F800E896F000E8A6FD0
:10248600860E8B6F250E8C6F000E8D6FB8EC0BF0E1
:1024960067EC06F07F6B806B816B826BF00E836F4F
:1024A600000E846F800E856F000E866FF00E876FAC
:1024B600000E886F800E896F000E8A6F860E8B6FF6
:1024C600250E8C6F000E8D6FB8EC0BF067EC06F0E6
:1024D600A76B22C0A8F023C0A9F020C0AAF021C093
:1024E600ABF041EC02F0460E00017F6F000E806FEC
:1024F600816B826B810E836FACEC05F0280E0001B8
:102506007F6F000E806F816B0F0E826F810E836F5F
:10251600ACEC05F000017B4B7C2B7C51251802E1CD
:1025260024507B1919E17B6B7C6B7D4B7E2B1AC08B
:1025360001F01BC002F002320132029E0232013269
:10254600029E02320132029E7E51021802E10150C1
:102556007D1902E17D6B7E6B7BC07FF07DC080F0D4
:1025660004EC05F0050E0B6E0F0E0C6EF10E0D6EE3
:102576000D2EFED70C2EFCD70B2EFAD749D6FFD739
:10258600FFFFFFFFFFFFFFFFFFFFFFFFFFFFFFFF55
:10259600FFFFFFFFFFFFFFFFFFFFFFFFFFFFFFFF45
:1025A600FFFFFFFFFFFFFFFFFFFFFFFFFFFFFFFF35
:1025B600FFFFFFFFFFFFFFFFFFFFFFFFFFFFFFFF25
:1025C600FFFFFFFFFFFFFFFFFFFFFFFFFFFFFFFF15
:1025D600FFFFFFFFFFFFFFFFFFFFFFFFFFFFFFFF05
:1025E600FFFFFFFFFFFFFFFFFFFFFFFFFFFFFFFFF5
:1025F600FFFFFFFFFFFFFFFFFFFFFFFFFFFFFFFFE5
:10260600FFFFFFFFFFFFFFFFFFFFFFFFFFFFFFFFD4
:10261600FFFFFFFFFFFFFE0000000000003FFFFF7F
:10262600FFFFFFFFFFFFFFFFFFFFFFFFFFFFFFFFB4
:10263600FFFFFFFFFC0000000000001FFFFFFFFF81
:10264600FFFFFFFFFFFFFFFFFFFFFFFFFFFFFFFF94
:10265600FFFFF80000000000001FFFFFFFFFFFFF65
:10266600FFFFFFFFFFFFFFFFFFFFFFFFFFFFFFFF74
:10267600F80000000000000FFFFFFFFFFFFFFFFF55
:10268600FFFFFFFFFFFFFFFFFFFFFFFFFFFFF8005A
:1026960000000000000FFFFFFFFFFFFFFFFFFFFF2F
:1026A600FFFFFFFFFFFFFFFFFFFFFFFFF807F00140
:1026B600FFE0000FFFFFFE187FFFFFF80E1FFF87EA
:1026C600FFFFFFFFFFF861FFFFFFF80FF803FFF8BA
:1026D600000FFFFFFE187FFFFFF80E1FFF87F0FFBA
:1026E600FFFFFFF861FFFFFFF81FF80FFFFE000F67
:1026F600FFFFFFF87FFFFFF80E1FFF87F0FFFFFFCA
:10270600FFFFE1FFFFFFF81C181FFFFF000FF08619
:102716001E186109E0F80E1E0F8610E13C1F0C38EA
:10272600618703FFF818383FFFFF800FF000061897
:102736006301C0387E1C0386202038070018618E8E
:1027460001FFF81FF87FFFFFC00FF00006184301D6
:10275600C0187E180384202038030018610C00FF7F
:10276600F81FF87FFFFFE00FF0E386184301861895
:102776007E18618430E030C30E18610C70FFF807D4
:10278600F0FFF1FFE00FF0E38618470786180E18F2
:10279600618470E0F0C30E18611C70FFF81801FF29
:1027A600F0FFF00FF0E38618070F86180E18018069
:1027B60070E1F0C30E18601C70FFF81C01FFE0FF0B
:1027C600F00FF0E386180F0F86180E180180F0E15F
:1027D600F0C30E18603FC0FFF80E01FFE0FFF80FD0
:1027E600F0E38618070F86180E18018070E1F0C313
:1027F6000E18601F00FFF80701FFE0FFF80FF0E377
:102806008618070F86187E187F8070E1F0C30E18B1
:10281600601E10FFF81FF9FFE0FFF80FF0E38618BF
:10282600470F86187E18618470E1F0C30E18611C8C
:1028360070FFF81FF9FFE0FFF80FF0E38618470F67
:1028460086187E18618470E1F0C30E18611C70FF53
:10285600F81FF9FFE0FFF80FF0E38618430F86181C
:102866007E18618430E1F0C30E18610C70FFF80029
:1028760001FFE0FFF80FF0E38618430F86180618ED
:10288600618430E1F0C30E18610C70FFF80001FF9F
:10289600FFFFF80FF0E38618630F803806180386EB
:1028A6003021F0070E18618C00FFF81E79FFFFFF3C
:1028B600F80FF0E38618610FC038061C0386102156
:1028C600F8070E18618400FFF81E79FFFFFFF80F66
:1028D600F0E38618610FE078061F07861821FC0FC3
:1028E6000E18618610FFF80641FFFFFFF80FFFFF85
:1028F600FFFFFFFFFFFFFFFFFFFFFFFFFFFFFFFFE2
:10290600FFFFFFFFF807F9FFFFFFF80FFFFFFFFFCD
:10291600FFFFFFFFFFFFFFFFFFFFFFFFFFFFFFFFC1
:10292600FFFFF81FF9FFFFFFF80FFFFFFFFFFFFF95
:10293600FFFFFFFFFFFFFFFFFFFFFFFFFFFFFFFFA1
:10294600F81FF9FFE000000FFFFFFFFFFFFFFFFF8B
:10295600FFFFFFFFFFFFFFFFFFFFFFFFFFFFF80087
:1029660001FFE000000FFFFFFFFFFFFFFFFFFFFF7C
:10297600FFFFFFFFFFFFFFFFFFFFFFFFF80001FF65
:10298600E000000FFFFFFFFFFFFFFFFFFFFFFFFF5E
:10299600FFFFFFFFFFFFFFFFFFFFF817F9FFE07FD5
:1029A600F80FFFFFFFFFFFFFFFFFFFFFFFFFFFFF28
:1029B600FFFFFFFFFFFFFFFFF817F9FFE07FF80FAC
:1029C600FFFFFFFFFFFFFFFFFFFFFFFFFFFFFFFF11
:1029D600FFFFFFFFFFFFF817F9FFE07FF80FFFFF8C
:1029E600FFFFFFFFFFFFFFFFFFFFFFFFFFFFFFFFF1
:1029F600FFFFFFFFF80001FFE07FF80FFFFFFFFF7B
:102A0600FFFFFFFFFFFFFFFFFFFFFFFFFFFFFFFFD0
:102A1600FFFFF80001FFE07FF80FFFFFFFFFFFFF5A
:102A2600FFFFFFFFFFFFFFFFFFFFFFFFFFFFFFFFB0
:102A3600F81FF9FFE07FF80FFFFFFFFFE0FFFFFF42
:102A4600FFFFFF0C3FFFFFFFFFFFFFFFFFFFF81F2A
:102A5600F9FFE07FF80FFFFFFFFF807FFFFFFFFF1B
:102A6600FF0C3FFFFFFFFFFFFFFFFFFFF81FF9FF10
:102A7600E07FF80FFFFFFFFF803FFFFFFFFFFFFC38
:102A86003FFFFFFFFFFFFFFFFFFFF81801FFE07F9B
:102A9600F80FFFFFFFFF0C3E0F8430F0870C3C1F42
:102AA60009E0FFFFFFFFFFFFF81800FFE07FF80FC8
:102AB600FFFFFFFF0C3C03800030030C380701C00A
:102AC6007FFFFFFFFFFFF81FFCFFE07FF00FFFFF18
:102AD600FFFF0C3C01800030030C300701803FFFF4
:102AE600FFFFFFFFF81FFCFFFFFFF00FFFFFFFFFD9
:102AF6000C3861871C30C30C30C301873FFFFFFFD2
:102B0600FFFFF818007FFFFFE00FFFFFFFFF0C3805
:102B160061871C30C30C30C307873FFFFFFFFFFFF1
:102B2600F818003FFFFFC00FFFFFFFFF0FF8618798
:102B36001C30C30C30030F87FFFFFFFFFFFFF818A1
:102B4600001FFFFFC00FFFFFFFFF0FF861871C305C
:102B5600C30C30030F81FFFFFFFFFFFFF81FFE0FBF
:102B6600FFFF000FFFFFFFFF0FF861871C30C30C4C
:102B760030030FC0FFFFFFFFFFFFF81FFF87FFFCBB
:102B8600000FFFFFFFFF0C3861871C30C30C30FFBE
:102B96000FE07FFFFFFFFFFFF80FFF81FFF0000F41
:102BA600FFFFFFFF0C3861871C30C30C30C30FF8E2
:102BB6003FFFFFFFFFFFF80000000000000FFFFFD0
:102BC600FFFF0C3861871C30C30C30C30FFC3FFF7E
:102BD600FFFFFFFFF80000000000000FFFFFFFFFF0
:102BE6000C3861871C30C30C30C30F9C3FFFFFFFBE
:102BF600FFFFF80000000000000FFFFFFFFF0C388A
:102C060061871C30C30C30C30F9C3FFFFFFFFFFFE3
:102C1600FC0000000000001FFFFFFFFF8078038715
:102C26001C30030C30070F803FFFFFFFFFFFFE0045
:102C360000000000003FFFFFFFFF807C03871C3081
:102C4600030C38070FC07FFFFFFFFFFFFF000000E8
:102C5600000000FFFFFFFFFFC1FE07871C30870C47
:102C66003E0F0FE0FFFFFFFFFFFFFFFFFFFFFFFF2E
:102C7600FFFFFFFFFFFFFFFFFFFFFFF0FFFFFFFF6D
:102C8600FFFFFFFFFFFFFFFFFFFFFFFFFFFFFFFF4E
:102C9600FFFFFFFFFFFFFFFFFFF0FFFFFFFFFFFF4D
:102CA600FFFFFFFFFFFFFFFFFFFFFFFFFFFFFFFF2E
:102CB600FFFFFFFFFFFFFFFFFFFFFFFFFFFFFFFF1E
:102CC600FFFFFFFFFFFFFFFFFFFFFFFFFFFFFFFF0E
:102CD600FFFFFFFFFFFFFFFFFFFFFFFFFFFFFFFFFE
:102CE600FFFFFFFFFFFFFFFFFFFFFFFFFFFFFFFFEE
:102CF600FFFFFFFFFFFFFFFFFFFFFFFFFFFFFFFFDE
:102D0600FFFFFFFFFFFFFFFFFFFFFFFFFFFFFFFFCD
:102D1600FFFFFFFFFFFFFFFFFFFFFFFFFFFFFFFFBD
:102D2600FFFFFFFFFFFFFFFFFFFFFFFFFFFFFFFFAD
:102D3600FFFFFFFFFFFFFFFFFFFFFFFFFFFFFFFF9D
:102D4600FFFFFFFFFFFFFFFFFFFFFFFFFFFFFFFF8D
:102D5600FFFFFFFFFFFFFFFFFFFFFFFFFFFFFFFF7D
:102D6600FFFFFFFFFFFFFFFFFFFFFFFFFFFFFFFF6D
:102D7600FFFFFFFFFFFFFFFFFFFFFFFFFFFFFFFF5D
:102D8600FFFFFFFFFFFFFFFFFFFFFFFFFFFFFFFF4D
:102D9600FFFFFFFFFFFFFFFFFFFFFFFFFFFFFFFF3D
:102DA600FFFFFFFFFFFFFFFFFFFFFFFFFFFFFFFF2D
:102DB600FFFFFFFFFFFFFFFFFFFFFFFFFFFFFFFF1D
:102DC600FFFFFFFFFFFFFFFFFFFFFFFFFFFFFFFF0D
:102DD600FFFFFFF807FFFFFFFFF87FFFFFFFFFFF83
:102DE600FFFFFFFFFFFFFFFFFFFFFFFFFFFFFFFFED
:102DF600FFF803FFFFFFFFF87FFFFFFFFFFFFFFF67
:102E0600FE1FFFFFFFFFE1FFFFFFFFFFFFFFFFF8D2
:102E160001FFFFFFFFF87FFFFFFFFFFFFFFFFE1F22
:102E2600FFFFFFFFE1FFFFFFFFFFFFFFFFF861F07E
:102E36007870E0F8783E10E10C3F07C30E1FF07083
:102E4600E1C1E1F07C2187E0FFFFFFF861E0187047
:102E5600C038700E0060000E01C00407E030E1804B
:102E6600C0601C0001C07FFFFFF861C01870803889
:102E760070060060000C01C00407C018E300404063
:102E86001C0001803FFFFFF861C308708618618649
:102E96001861C70C30C3861FC398E30E61C30C3894
:102EA600E1873FFFFFF861C30C71861861861861E0
:102EB600C70C30C3861FC398E30E61C30C38E18785
:102EC6003FFFFFF861C00C21801861861861C70CAE
:102ED60000C3861FC3F8430FE1C00C38E187FFFF2C
:102EE600FFF861C00C21801861861861C70C00C309
:102EF600861FC0F84303E1C00C38E181FFFFFFF8ED
:102F060061C00C21801861861861C70C00C3861F3A
:102F1600E07C4381E1C00C38E1C0FFFFFFF861C3EC
:102F2600FC2187F861861861C70C3FC3861FF03CF9
:102F360043C0E1C3FC38E1E07FFFFFF861C30C2129
:102F4600861861861861C70C30C3861FFC1C43F0C7
:102F560061C30C38E1F83FFFFFF861C30C21861806
:102F660061861861C70C30C3861FFE1C47F861C313
:102F76000C38E1FC3FFFFFF861C30C21861861861F
:102F86001861C70C30C3861FCE1E473861C30C3884
:102F9600E19C3FFFFFF861C30E2386186186186126
:102FA600C70C30C3861FCE1E073861C30C38E19CA0
:102FB6003FFFFFF801C01E038038600E0061C70C9A
:102FC60001C38607C01E070060401C38E1803FFF32
:102FD600FFF801E01E03C038700E0061C70E01C382
:102FE6008607E03E0780E0601C38E1C07FFFFFF8FF
:102FF60003F83E03F078781E10E1C70F83C38707F6
:10300600F07807C1F0783C38E1E0FFFFFFFFFFFFF3
:10301600FFFFFFFFFFFE1FFFFFFFFFFFFFFFFFF8A2
:103026000FFFFFFFFFFFFFFFFFFFFFFFFFFFFFFF9A
:10303600FFFFFFFE1FFFFFFFFFFFFFFFFFF81FFF62
:10304600FFFFFFFFFFFFFFFFFFFFFFFFFFFFFFFF8A
:10305600FFFFFFFFFFFFFFFFFFFFFFFFFFFFFFFF7A
:10306600FFFFFFFFFFFFFFFFFFFFFFFFFFFFFFFF6A
:10307600FFFFFFFFFFFFFFFFFFFFFFFFFFFFFFFF5A
:10308600FFFFFFFFFFFFFFFFFFFFFFFFFFFFFFFF4A
:10309600FFFFFFFFFFFFFFFFFFFFFFFFFFFFFFFF3A
:1030A600FFFFFFFFFFFFFFFFFFFFFFFFFFFFFFFF2A
:1030B600FFFFFFFFFFFFFFFFFFFFFFFFFFFFFFFF1A
:1030C600FFFFFFFFFFFFFFFFFFFFFFFFFFFFFFFF0A
:1030D600FFFFFFFFFFFFFFFFFFFFFFFFFFFFFFFFFA
:1030E600FFFFFFFFFFFFFFFFFFFFFFFFFFFFFFFFEA
:1030F600FFFFFFFFFFFFFFFFFFFFFFFFFFFFFFFFDA
:10310600FFFFFFFFFFFFFFFFFFFFFFFFFFFFFFFFC9
:10311600FFFFFFFFFFFFFFFFFFFFFFFFFFFFFFFFB9
:10312600FFFFFFFFFFFFFFFFFFFFFFFFFFFFFFFFA9
:10313600FFFFFFFFFFFFFFFFFFFFFFFFFFFFFFFF99
:10314600FFFFFFFFFFFFFFFFFFFFFFFFFFFFFFFF89
:10315600FFFFFFFFFFFFFFFFFFFFFFFFFFFFFFFF79
:10316600FFFFFFFFFFFFFFFFFFFFFFFFFFFFFFFF69
:10317600FFFFFFFFFFFFFFFFFFFFFFFFFFFFFFFF59
:10318600FFFFFFFFFFFFFFFFFFFFFFFFFFFFFFFF49
:10319600FFFFFFFFFFFFFFFFFFFFFFFFFF007FFFB8
:1031A600FFF87FFFFFFFFFFFFFFFFFFFFFFFFFFFB0
:1031B600FFFFFFFFFFFFFFFFFFFFFF003FFFFFF8DF
:1031C6007FFFFFFFFFFFFFFFFFFFFFFFFFFFFFFF89
:1031D600FFFFFFFFFFFFFFFFFF0C3E0FE0F861C19F
:1031E600FFFFFFFFFFFFFFFFFFFFFFFFFFFFFFFFE9
:1031F600FFFFFFFFFFFFFF0C3C03C0386380FFFFAC
:10320600FFFFFFFFFFFFFFFFFFFFFFFFFFFFFFFFC8
:10321600FFFFFFFFFF0C3C01C01843007FFFFFFFCD
:10322600FFFFFFFFFFFFFFFFFFFFFFFFFFFFFFFFA8
:10323600FFFFFF0038618618430E7FFFFFFFFFFF89
:10324600FFFFFFFFFFFFFFFFFFFFFFFFFFFFFFFF88
:10325600FF00F8618618470E7FFFFFFFFFFFFFFFA5
:10326600FFFFFFFFFFFFFFFFFFFFFFFFFFFFFF0067
:1032760078618618070FFFFFFFFFFFFFFFFFFFFFC5
:10328600FFFFFFFFFFFFFFFFFFFFFFFFFF003861AC
:1032960086180F03FFFFFFFFFFFFFFFFFFFFFFFF84
:1032A600FFFFFFFFFFFFFFFFFFFFFF0C38618618E0
:1032B6000781FFFFFFFFFFFFFFFFFFFFFFFFFFFF8E
:1032C600FFFFFFFFFFFFFFFFFF0C3861861807C0F7
:1032D600FFFFFFFFFFFFFFFFFFFFFFFFFFFFFFFFF8
:1032E600FFFFFFFFFFFFFF0C3861861847F07FFFE7
:1032F600FFFFFFFFFFFFFFFFFFFFFFFFFFFFFFFFD8
:10330600FFFFFFFFFF0C3861861847F87FFFFFFFBE
:10331600FFFFFFFFFFFFFFFFFFFFFFFFFFFFFFFFB7
:10332600FFFFFF0C3861861843387FFFFFFFFFFF62
:10333600FFFFFFFFFFFFFFFFFFFFFFFFFFFFFFFF97
:10334600FF0C3861861843387FFFFFFFFFFFFFFF42
:10335600FFFFFFFFFFFFFFFFFFFFFFFFFFFFFF0076
:103366003803803863007FFFFFFFFFFFFFFFFFFF8B
:10337600FFFFFFFFFFFFFFFFFFFFFFFFFF007C03D5
:10338600C0386180FFFFFFFFFFFFFFFFFFFFFFFF6A
:10339600FFFFFFFFFFFFFFFFFFFFFF007E07E07855
:1033A60061C1FFFFFFFFFFFFFFFFFFFFFFFFFFFF03
:1033B600FFFFFFFFFFFFFFFFFFFFFFFFFFFFFFFF17
:1033C600FFFFFFFFFFFFFFFFFFFFFFFFFFFFFFFF07
:1033D600FFFFFFFFFFFFFFFFFFFFFFFFFFFFFFFFF7
:1033E600FFFFFFFFFFFFFFFFFFFFFFFFFFFFFFFFE7
:1033F600FFFFFFFFFFFFFFFFFFFFFFFFFFFFFFFFD7
:10340600FFFFFFFFFFFFFFFFFFFFFFFFFFFFFFFFC6
:10341600FFFFFFFFFFFFFFFFFFFFFFFFFFFFFFFFB6
:10342600FFFFFFFFFFFFFFFFFFFFFFFFFFFFFFFFA6
:10343600FFFFFFFFFFFFFFFFFFFFFFFFFFFFFFFF96
:10344600FFFFFFFFFFFFFFFFFFFFFFFFFFFFFFFF86
:10345600FFFFFFFFFFFFFFFFFFFFFFFFFFFFFFFF76
:10346600FFFFFFFFFFFFFFFFFFFFFFFFFFFFFFFF66
:10347600FFFFFFFFFFFFFFFFFFFFFFFFFFFFFFFF56
:103486000000000000000000000000000000000036
:103496000000000000000000000000000000000026
:1034A6000000000000000000000000000000000016
:1034B6000000000000000000000000000000000006
:1034C60000000000000000120000000000000000E4
:1034D600000033000000000000000000007B8000B8
:1034E600000000000000001FFF8000000000000038
:1034F6000027FFFFC000000000000000067FFFE07D
:10350600000000000000001FFFFFE0800000000038
:103516000000FFFFFFE780000000000000BFFFFF84
:10352600FFF40000000000017FFFFFFFFC00000029
:10353600000000FFFFFFFFFF800000000000FFFF0C
:10354600FFFFFFC00000000003FFFFFFFFFFE000DA
:103556000000000BFFFFFFFFFFF0000000000FFF61
:10356600FFFFFFFFFF0000000187FFFFFFFFFFFFD8
:103576008000000007FFFFFFFFFFFE000000001FA6
:10358600FFFFFFFFFFFF000000207FFFFFFFFFFFA1
:10359600FF000001C07FFFFFFFFFFFFF800000006C
:1035A6007FFFFFDFFFFFFFC00000000BFFFFBFFF35
:1035B600FFFF8000000003FFFFFFFFFFFFC00000CA
:1035C6000000FFFFFFFFFFFFE00001E0001FFFFF1D
:1035D600FFFFFFF80007C00005FFFFFFFFFFF00039
:1035E6000FF00007FFFFFFFFFFE0001FF0000FFFD7
:1035F600FFFFFFFFF0001FE00307FFFFFFFFFFE0F5
:10360600001FE0040FFFFFFFFFFFF00011C0001FC7
:10361600FFFFFFFFFFF8000800001FFFFFFFFFFF8F
:10362600FC001C000187FFFFFFFFFFFE001E0000DD
:103636000FFFFFFFFFFFFE001F000007FFFFFFFF5A
:10364600FFFF003F800007FFFFFFFFFFFF003FC0B7
:10365600000FFFFFFFFFFFFE003FC00001FFFFFF5F
:10366600FFFFFE003FC0000FFFFFFFFFFFFC007FD4
:10367600C00007FFFFFFFFFFFE007F00000FFFFFF8
:10368600FFFFFFFF007D000003FFFFFFFFFFFF803E
:103696003F000000FFFFFFFFFFFFC00F80007FFF1E
:1036A600FFFFFFFFFFC00180009EFFFFFFFFFFFF40
:1036B600E000000000FFFFFFFFFFFF6001C0000009
:1036C6007FFFFFFFFFFF20006002001FFFFFFFFFDD
:1036D600FFA0006000000FFFCFFFFFFFE00000002B
:1036E6000003FE007FFFFFE00C00000001FC001F4E
:1036F600FFFFE00A00000000F8001FFFFFE01E00C9
:10370600000000780007FFFFE01F000000007800BF
:1037160007FEFEE01F80000000F00007FFF9E01F33
:1037260080000000F8000FFFF9E01F80000000F89D
:10373600200FFFF9E00F84000000FD21C7FFF9F01C
:103746001FC4000001FF1FCFF7F9F01FC6000005D8
:10375600FF0067E3FFB01FCE000001FF00FFE3FF9D
:10376600B007EE000009FF8FFFE3FD8007CA0000E7
:1037760000FFC7FFE3FF8003C2000000FFE1FFE395
:10378600FDC001C1000000FFFBFFE3FFC005C10053
:103796000000FFFFFFEBFF6001C1000000FFFFFF1D
:1037A600FFFF600281000181FFFFFFEDFF401CC1AA
:1037B600000180FFFF1FEFFFC01A80000201FF7F9C
:1037C600FFFFFF803280000201FF3FFF7FFFC00046
:1037D60000800401FFBFFEEFFF800000C00401FF70
:1037E6009FFEEF7E800000401000FF8FFE7F3E8030
:1037F60000000000007FCFFC7F3EC00000400000BC
:103806001DE7FCFFFEC0000000000003F7FFFFFC01
:10381600C0000000000007FBFFFF7FC000000000A3
:10382600000FFDFFFFEFC000000000000FFEFFFFCE
:10383600E74000000000008FFEFFFE8380000000CE
:103846000000FFFEFFFE73200000000000B7FEFF31
:10385600F87700000020000023FFFFF83180000009
:1038660030000001B8FFF8018000003800000010A9
:10387600BFF80080000018000000102FF8000000BC
:10388600003C000000303FF8000000007E00000011
:10389600301FF8000000007F000000308FF00000AD
:1038A60000003F800000798FF0000000001F8003B9
:1038B6009FF18FE0000000000D80001FE107E0008F
:1038C60000000000C0000FC305C00000000001C0DA
:1038D60000030300C0000000000040000023008039
:1038E60000000000000000000701000000000000CA
:1038F60000000007000000000000000000000F802C
:103906000000000000000000000F80000000000022
:1039160000000000000000000000000000000000A1
:10392600020000000000000000000003000000008C
:103936000000000000000100000000000000000080
:1039460000010000000000000000000000800000F0
:1039560000000000000000008000000000000000E1
:1039660000000040000000000000000000004000D1
:103976000000000000000000002000000000000021
:103986000000000000000000000000000000000031
:0D3996000000000000000000000000000024
:1039A3002045494E535445494E20574F554C4420CA
:0E39B30048415645204C494B4544206D450087
:1039C10020474C4344204C494252415259204445DE
:0E39D1004D4F2C2057454C434F4D45202100B3
:1039DF00205061727469616C20696D616765206444
:0539EF00656D6F210071
:020000040030CA
:0D000100331F3CFFBD81FF0FC00FE00F401B
:00000001FF
